{
  "_format": "hh-sol-artifact-1",
  "contractName": "Pipeline",
  "sourceName": "contracts/pipeline/Pipeline.sol",
  "abi": [
    {
      "inputs": [
        {
          "components": [
            {
              "internalType": "address",
              "name": "target",
              "type": "address"
            },
            {
              "internalType": "bytes",
              "name": "callData",
              "type": "bytes"
            },
            {
              "internalType": "bytes",
              "name": "clipboard",
              "type": "bytes"
            }
          ],
          "internalType": "struct AdvancedPipeCall[]",
          "name": "pipes",
          "type": "tuple[]"
        }
      ],
      "name": "advancedPipe",
      "outputs": [
        {
          "internalType": "bytes[]",
          "name": "results",
          "type": "bytes[]"
        }
      ],
      "stateMutability": "payable",
      "type": "function"
    },
    {
      "inputs": [
        {
          "components": [
            {
              "internalType": "address",
              "name": "target",
              "type": "address"
            },
            {
              "internalType": "bytes",
              "name": "data",
              "type": "bytes"
            }
          ],
          "internalType": "struct PipeCall[]",
          "name": "pipes",
          "type": "tuple[]"
        }
      ],
      "name": "multiPipe",
      "outputs": [
        {
          "internalType": "bytes[]",
          "name": "results",
          "type": "bytes[]"
        }
      ],
      "stateMutability": "payable",
      "type": "function"
    },
    {
      "inputs": [
        {
          "internalType": "address",
          "name": "",
          "type": "address"
        },
        {
          "internalType": "address",
          "name": "",
          "type": "address"
        },
        {
          "internalType": "uint256[]",
          "name": "",
          "type": "uint256[]"
        },
        {
          "internalType": "uint256[]",
          "name": "",
          "type": "uint256[]"
        },
        {
          "internalType": "bytes",
          "name": "",
          "type": "bytes"
        }
      ],
      "name": "onERC1155BatchReceived",
      "outputs": [
        {
          "internalType": "bytes4",
          "name": "",
          "type": "bytes4"
        }
      ],
      "stateMutability": "nonpayable",
      "type": "function"
    },
    {
      "inputs": [
        {
          "internalType": "address",
          "name": "",
          "type": "address"
        },
        {
          "internalType": "address",
          "name": "",
          "type": "address"
        },
        {
          "internalType": "uint256",
          "name": "",
          "type": "uint256"
        },
        {
          "internalType": "uint256",
          "name": "",
          "type": "uint256"
        },
        {
          "internalType": "bytes",
          "name": "",
          "type": "bytes"
        }
      ],
      "name": "onERC1155Received",
      "outputs": [
        {
          "internalType": "bytes4",
          "name": "",
          "type": "bytes4"
        }
      ],
      "stateMutability": "nonpayable",
      "type": "function"
    },
    {
      "inputs": [
        {
          "internalType": "address",
          "name": "",
          "type": "address"
        },
        {
          "internalType": "address",
          "name": "",
          "type": "address"
        },
        {
          "internalType": "uint256",
          "name": "",
          "type": "uint256"
        },
        {
          "internalType": "bytes",
          "name": "",
          "type": "bytes"
        }
      ],
      "name": "onERC721Received",
      "outputs": [
        {
          "internalType": "bytes4",
          "name": "",
          "type": "bytes4"
        }
      ],
      "stateMutability": "nonpayable",
      "type": "function"
    },
    {
      "inputs": [
        {
          "components": [
            {
              "internalType": "address",
              "name": "target",
              "type": "address"
            },
            {
              "internalType": "bytes",
              "name": "data",
              "type": "bytes"
            }
          ],
          "internalType": "struct PipeCall",
          "name": "p",
          "type": "tuple"
        }
      ],
      "name": "pipe",
      "outputs": [
        {
          "internalType": "bytes",
          "name": "result",
          "type": "bytes"
        }
      ],
      "stateMutability": "payable",
      "type": "function"
    },
    {
      "inputs": [
        {
          "internalType": "bytes4",
          "name": "interfaceId",
          "type": "bytes4"
        }
      ],
      "name": "supportsInterface",
      "outputs": [
        {
          "internalType": "bool",
          "name": "",
          "type": "bool"
        }
      ],
      "stateMutability": "view",
      "type": "function"
    }
  ],
  "bytecode": "0x608060405234801561001057600080fd5b506100216301ffc9a760e01b610036565b610031630271189760e51b610036565b6100ba565b6001600160e01b03198082161415610095576040805162461bcd60e51b815260206004820152601c60248201527f4552433136353a20696e76616c696420696e7465726661636520696400000000604482015290519081900360640190fd5b6001600160e01b0319166000908152602081905260409020805460ff19166001179055565b610f19806100c96000396000f3fe6080604052600436106100705760003560e01c80631c0a0d5e1161004e5780631c0a0d5e146100f8578063bc197c8114610118578063cabec62b14610138578063f23a6e611461014b57610070565b806301ffc9a71461007557806308e1a0ab146100ab578063150b7a02146100cb575b600080fd5b34801561008157600080fd5b50610095610090366004610b02565b61016b565b6040516100a29190610d38565b60405180910390f35b6100be6100b9366004610bac565b6101a6565b6040516100a29190610d70565b3480156100d757600080fd5b506100eb6100e63660046109e1565b6101d1565b6040516100a29190610d43565b61010b610106366004610aaa565b6101fa565b6040516100a29190610cd8565b34801561012457600080fd5b506100eb61013336600461093b565b6102a2565b61010b610146366004610aaa565b6102cc565b34801561015757600080fd5b506100eb610166366004610a47565b6103a8565b7fffffffff00000000000000000000000000000000000000000000000000000000811660009081526020819052604090205460ff165b919050565b60606101cb6101b8602084018461091a565b6101c56020850185610de0565b346103d2565b92915050565b7f150b7a0200000000000000000000000000000000000000000000000000000000949350505050565b60608167ffffffffffffffff8111801561021357600080fd5b5060405190808252806020026020018201604052801561024757816020015b60608152602001906001900390816102325790505b50905060005b8281101561029b5761027c84848381811061026457fe5b90506020028101906102769190610e25565b83610458565b82828151811061028857fe5b602090810291909101015260010161024d565b5092915050565b7fbc197c810000000000000000000000000000000000000000000000000000000095945050505050565b60608167ffffffffffffffff811180156102e557600080fd5b5060405190808252806020026020018201604052801561031957816020015b60608152602001906001900390816103045790505b50905060005b8281101561029b5761038984848381811061033657fe5b90506020028101906103489190610e3a565b61035690602081019061091a565b85858481811061036257fe5b90506020028101906103749190610e3a565b610382906020810190610de0565b60006103d2565b82828151811061039557fe5b602090810291909101015260010161031f565b7ff23a6e610000000000000000000000000000000000000000000000000000000095945050505050565b606060008573ffffffffffffffffffffffffffffffffffffffff168386866040516103fe929190610cac565b60006040518083038185875af1925050503d806000811461043b576040519150601f19603f3d011682016040523d82523d6000602084013e610440565b606091505b509250905061044f818361050f565b50949350505050565b6060600061047161046c6040860186610de0565b610563565b90506104806040850185610de0565b600081811061048b57fe5b909101356001600160f81b031916151590506104cb576104c46104b1602086018661091a565b6104be6020870187610de0565b846103d2565b915061029b565b6104ee6104db6020860186610de0565b6104e86040880188610de0565b8761059a565b9150610507610500602086018661091a565b8383610715565b949350505050565b8161055f5760448151101561052357600080fd5b6004810190508080602001905181019061053d9190610b42565b60405162461bcd60e51b81526004016105569190610d70565b60405180910390fd5b5050565b60008282600181811061057257fe5b909101356001600160f81b03191615159050610590575060006101cb565b5001601f19013590565b60606000848460008181106105ab57fe5b909101356001600160f81b0319169150507f010000000000000000000000000000000000000000000000000000000000000081141561063f5760006105f285870187610aea565b905061063788888080601f0160208091040260200160405190810160405280939291908181526020018383808284376000920191909152508892508591506107989050565b92505061070b565b7f02000000000000000000000000000000000000000000000000000000000000006001600160f81b0319821614156106f357600061067f85870187610be4565b91505087878080601f01602080910402602001604051908101604052809392919081815260200183838082843760009201829052509396505050505b81518110156106ec576106e284868484815181106106d557fe5b6020026020010151610798565b93506001016106bb565b505061070b565b60405162461bcd60e51b815260040161055690610d83565b5095945050505050565b606060008473ffffffffffffffffffffffffffffffffffffffff16838560405161073f9190610cbc565b60006040518083038185875af1925050503d806000811461077c576040519150601f19603f3d011682016040523d82523d6000602084013e610781565b606091505b5092509050610790818361050f565b509392505050565b606060008360b0601085901b901c60001c815181106107b357fe5b602090810291909101015190506107df818669ffffffffffffffffffff605087901c81169087166107e8565b95945050505050565b9201519181019190915290565b803573ffffffffffffffffffffffffffffffffffffffff811681146101a157600080fd5b60008083601f84011261082a578182fd5b50813567ffffffffffffffff811115610841578182fd5b602083019150836020808302850101111561085b57600080fd5b9250929050565b600082601f830112610872578081fd5b8135602061088761088283610e73565b610e4f565b82815281810190858301838502870184018810156108a3578586fd5b855b858110156108c1578135845292840192908401906001016108a5565b5090979650505050505050565b600082601f8301126108de578081fd5b81356108ec61088282610e91565b818152846020838601011115610900578283fd5b816020850160208301379081016020019190915292915050565b60006020828403121561092b578081fd5b610934826107f5565b9392505050565b600080600080600060a08688031215610952578081fd5b61095b866107f5565b9450610969602087016107f5565b9350604086013567ffffffffffffffff80821115610985578283fd5b61099189838a01610862565b945060608801359150808211156109a6578283fd5b6109b289838a01610862565b935060808801359150808211156109c7578283fd5b506109d4888289016108ce565b9150509295509295909350565b600080600080608085870312156109f6578384fd5b6109ff856107f5565b9350610a0d602086016107f5565b925060408501359150606085013567ffffffffffffffff811115610a2f578182fd5b610a3b878288016108ce565b91505092959194509250565b600080600080600060a08688031215610a5e578081fd5b610a67866107f5565b9450610a75602087016107f5565b93506040860135925060608601359150608086013567ffffffffffffffff811115610a9e578182fd5b6109d4888289016108ce565b60008060208385031215610abc578182fd5b823567ffffffffffffffff811115610ad2578283fd5b610ade85828601610819565b90969095509350505050565b600060208284031215610afb578081fd5b5035919050565b600060208284031215610b13578081fd5b81357fffffffff0000000000000000000000000000000000000000000000000000000081168114610934578182fd5b600060208284031215610b53578081fd5b815167ffffffffffffffff811115610b69578182fd5b8201601f81018413610b79578182fd5b8051610b8761088282610e91565b818152856020838501011115610b9b578384fd5b6107df826020830160208601610eb3565b600060208284031215610bbd578081fd5b813567ffffffffffffffff811115610bd3578182fd5b820160408185031215610934578182fd5b60008060408385031215610bf6578182fd5b8235915060208084013567ffffffffffffffff811115610c14578283fd5b8401601f81018613610c24578283fd5b8035610c3261088282610e73565b81815283810190838501858402850186018a1015610c4e578687fd5b8694505b83851015610c70578035835260019490940193918501918501610c52565b5080955050505050509250929050565b60008151808452610c98816020860160208601610eb3565b601f01601f19169290920160200192915050565b6000828483379101908152919050565b60008251610cce818460208701610eb3565b9190910192915050565b6000602080830181845280855180835260408601915060408482028701019250838701855b82811015610d2b57603f19888603018452610d19858351610c80565b94509285019290850190600101610cfd565b5092979650505050505050565b901515815260200190565b7fffffffff0000000000000000000000000000000000000000000000000000000091909116815260200190565b6000602082526109346020830184610c80565b60208082526025908201527f46756e6374696f6e3a20416476616e6365642054797065206e6f74207375707060408201527f6f72746564000000000000000000000000000000000000000000000000000000606082015260800190565b6000808335601e19843603018112610df6578283fd5b83018035915067ffffffffffffffff821115610e10578283fd5b60200191503681900382131561085b57600080fd5b60008235605e19833603018112610cce578182fd5b60008235603e19833603018112610cce578182fd5b60405181810167ffffffffffffffff81118282101715610e6b57fe5b604052919050565b600067ffffffffffffffff821115610e8757fe5b5060209081020190565b600067ffffffffffffffff821115610ea557fe5b50601f01601f191660200190565b60005b83811015610ece578181015183820152602001610eb6565b83811115610edd576000848401525b5050505056fea26469706673582212209e368577a68aaebe14ae4ce4a4daba0159f8b1770d809618be1e93b623531a2764736f6c63430007060033",
  "linkReferences": {},
  "deployedLinkReferences": {}
}