{
  "_format": "hh-sol-artifact-1",
  "contractName": "LSDChainlinkOracle",
  "sourceName": "contracts/ecosystem/oracles/LSDChainlinkOracle.sol",
  "abi": [
    {
      "inputs": [
        {
          "internalType": "bytes",
          "name": "data",
          "type": "bytes"
        }
      ],
      "name": "decodeData",
      "outputs": [
        {
          "internalType": "address",
          "name": "ethChainlinkOracle",
          "type": "address"
        },
        {
          "internalType": "uint256",
          "name": "ethTimeout",
          "type": "uint256"
        },
        {
          "internalType": "address",
          "name": "xEthChainlinkOracle",
          "type": "address"
        },
        {
          "internalType": "uint256",
          "name": "xEthTimeout",
          "type": "uint256"
        }
      ],
      "stateMutability": "pure",
      "type": "function"
    },
    {
      "inputs": [
        {
          "internalType": "uint256",
          "name": "decimals",
          "type": "uint256"
        },
        {
          "internalType": "uint256",
          "name": "lookback",
          "type": "uint256"
        },
        {
          "internalType": "bytes",
          "name": "data",
          "type": "bytes"
        }
      ],
      "name": "getPrice",
      "outputs": [
        {
          "internalType": "uint256",
          "name": "",
          "type": "uint256"
        }
      ],
      "stateMutability": "view",
      "type": "function"
    }
  ],
  "bytecode": "0x6080604052348015600f57600080fd5b50610b108061001f6000396000f3fe608060405234801561001057600080fd5b50600436106100365760003560e01c8063447a06f51461003b578063b0dd74091461008c575b600080fd5b61004e6100493660046107d0565b6100ad565b60405161008394939291906001600160a01b039485168152602081019390935292166040820152606081019190915260800190565b60405180910390f35b61009f61009a366004610805565b6100d6565b604051908152602001610083565b600080600080848060200190518101906100c79190610871565b92989197509550909350915050565b6000806000806000858060200190518101906100f29190610871565b9350935093509350600061010883838b8b610173565b9050600061012786868c1561011e576012610121565b60005b8c610173565b90508960000361015657620f424061013f82846108cb565b61014991906108e2565b965050505050505061016c565b6101626012600a6109e8565b61013f82846108cb565b9392505050565b600080821161018c576101878585856101a3565b610198565b6101988585858561031c565b90505b949350505050565b6000808490506000816001600160a01b031663313ce5676040518163ffffffff1660e01b8152600401602060405180830381865afa925050508015610205575060408051601f3d908101601f19168201909252610202918101906109f4565b60015b6102145760009250505061016c565b9050816001600160a01b031663feaf968c6040518163ffffffff1660e01b815260040160a060405180830381865afa925050508015610270575060408051601f3d908101601f1916820190925261026d91810190610a2e565b60015b61027f5760009250505061016c565b846001600160501b03166000036102a057600097505050505050505061016c565b6102ac8285428d610610565b156102c157600097505050505050505061016c565b88156102f0576102e9846102d860ff89168c610a7e565b6102e390600a6109e8565b9061065f565b975061030e565b61030b6102fe87600a610a91565b6102e386620f4240610674565b97505b505050505050509392505050565b6000808590506000816001600160a01b031663313ce5676040518163ffffffff1660e01b8152600401602060405180830381865afa92505050801561037e575060408051601f3d908101601f1916820190925261037b918101906109f4565b60015b61038d5760009250505061019b565b9050816001600160a01b031663feaf968c6040518163ffffffff1660e01b815260040160a060405180830381865afa9250505080156103e9575060408051601f3d908101601f191682019092526103e691810190610a2e565b60015b6103f85760009250505061019b565b846001600160501b031660000361041957600097505050505050505061019b565b6104258285428e610610565b1561043a57600097505050505050505061019b565b61045e60405180606001604052806000815260200160008152602001600081525090565b610468428b610680565b6020820181905283116104b6578a1561049b5761048c856102d860ff8a168e610a7e565b9850505050505050505061019b565b61048c6104a988600a610a91565b6102e387620f4240610674565b4260408201525b8060200151831115610574578a156104f557846104dd60ff89168d610a7e565b6104e890600a6109e8565b6104f291906108e2565b94505b61052161051961051285846040015161068090919063ffffffff16565b8790610674565b82519061068c565b815261052e600187610aa0565b6040820184905295506105418887610698565b8094508196505050610559838683604001518f610610565b1561056f5760009850505050505050505061019b565b6104bd565b8a156105a0578461058860ff89168d610a7e565b61059390600a6109e8565b61059d91906108e2565b94505b6105c16105196105128360200151846040015161068090919063ffffffff16565b81528a156105dc5780516105d5908b61065f565b9850610600565b6105fd8a6102e36105ee8a600a610a91565b84516102e390620f4240610674565b98505b5050505050505050949350505050565b600084158061061e57508285115b1561062b5750600161019b565b816106368487610680565b11156106445750600161019b565b600084136106545750600161019b565b506000949350505050565b600061066b82846108e2565b90505b92915050565b600061066b82846108cb565b600061066b8284610ac7565b600061066b8284610a7e565b604051639a6fc8f560e01b81526001600160501b038216600482015260009081906001600160a01b03851690639a6fc8f59060240160a060405180830381865afa925050508015610706575060408051601f3d908101601f1916820190925261070391810190610a2e565b60015b610717575060001990506000610726565b50919450909250610726915050565b9250929050565b634e487b7160e01b600052604160045260246000fd5b600082601f83011261075457600080fd5b813567ffffffffffffffff8082111561076f5761076f61072d565b604051601f8301601f19908116603f011681019082821181831017156107975761079761072d565b816040528381528660208588010111156107b057600080fd5b836020870160208301376000602085830101528094505050505092915050565b6000602082840312156107e257600080fd5b813567ffffffffffffffff8111156107f957600080fd5b61019b84828501610743565b60008060006060848603121561081a57600080fd5b8335925060208401359150604084013567ffffffffffffffff81111561083f57600080fd5b61084b86828701610743565b9150509250925092565b80516001600160a01b038116811461086c57600080fd5b919050565b6000806000806080858703121561088757600080fd5b61089085610855565b9350602085015192506108a560408601610855565b6060959095015193969295505050565b634e487b7160e01b600052601160045260246000fd5b808202811582820484141761066e5761066e6108b5565b6000826108ff57634e487b7160e01b600052601260045260246000fd5b500490565b600181815b8085111561093f578160001904821115610925576109256108b5565b8085161561093257918102915b93841c9390800290610909565b509250929050565b6000826109565750600161066e565b816109635750600061066e565b816001811461097957600281146109835761099f565b600191505061066e565b60ff841115610994576109946108b5565b50506001821b61066e565b5060208310610133831016604e8410600b84101617156109c2575081810a61066e565b6109cc8383610904565b80600019048211156109e0576109e06108b5565b029392505050565b600061066b8383610947565b600060208284031215610a0657600080fd5b815160ff8116811461016c57600080fd5b80516001600160501b038116811461086c57600080fd5b600080600080600060a08688031215610a4657600080fd5b610a4f86610a17565b9450602086015193506040860151925060608601519150610a7260808701610a17565b90509295509295909350565b8082018082111561066e5761066e6108b5565b600061066b60ff841683610947565b6001600160501b03828116828216039080821115610ac057610ac06108b5565b5092915050565b8181038181111561066e5761066e6108b556fea26469706673582212209dd05324d918838f08a6bacfeabe687508ad5c00700246b3dfee1898deb2625264736f6c63430008190033",
  "linkReferences": {},
  "deployedLinkReferences": {}
}