{
  "_format": "hh-sol-artifact-1",
  "contractName": "Pipeline",
  "sourceName": "contracts/pipeline/Pipeline.sol",
  "abi": [
    {
      "inputs": [
        {
          "components": [
            {
              "internalType": "address",
              "name": "target",
              "type": "address"
            },
            {
              "internalType": "bytes",
              "name": "callData",
              "type": "bytes"
            },
            {
              "internalType": "bytes",
              "name": "clipboard",
              "type": "bytes"
            }
          ],
          "internalType": "struct AdvancedPipeCall[]",
          "name": "pipes",
          "type": "tuple[]"
        }
      ],
      "name": "advancedPipe",
      "outputs": [
        {
          "internalType": "bytes[]",
          "name": "results",
          "type": "bytes[]"
        }
      ],
      "stateMutability": "payable",
      "type": "function"
    },
    {
      "inputs": [
        {
          "components": [
            {
              "internalType": "address",
              "name": "target",
              "type": "address"
            },
            {
              "internalType": "bytes",
              "name": "data",
              "type": "bytes"
            }
          ],
          "internalType": "struct PipeCall[]",
          "name": "pipes",
          "type": "tuple[]"
        }
      ],
      "name": "multiPipe",
      "outputs": [
        {
          "internalType": "bytes[]",
          "name": "results",
          "type": "bytes[]"
        }
      ],
      "stateMutability": "payable",
      "type": "function"
    },
    {
      "inputs": [
        {
          "internalType": "address",
          "name": "",
          "type": "address"
        },
        {
          "internalType": "address",
          "name": "",
          "type": "address"
        },
        {
          "internalType": "uint256[]",
          "name": "",
          "type": "uint256[]"
        },
        {
          "internalType": "uint256[]",
          "name": "",
          "type": "uint256[]"
        },
        {
          "internalType": "bytes",
          "name": "",
          "type": "bytes"
        }
      ],
      "name": "onERC1155BatchReceived",
      "outputs": [
        {
          "internalType": "bytes4",
          "name": "",
          "type": "bytes4"
        }
      ],
      "stateMutability": "nonpayable",
      "type": "function"
    },
    {
      "inputs": [
        {
          "internalType": "address",
          "name": "",
          "type": "address"
        },
        {
          "internalType": "address",
          "name": "",
          "type": "address"
        },
        {
          "internalType": "uint256",
          "name": "",
          "type": "uint256"
        },
        {
          "internalType": "uint256",
          "name": "",
          "type": "uint256"
        },
        {
          "internalType": "bytes",
          "name": "",
          "type": "bytes"
        }
      ],
      "name": "onERC1155Received",
      "outputs": [
        {
          "internalType": "bytes4",
          "name": "",
          "type": "bytes4"
        }
      ],
      "stateMutability": "nonpayable",
      "type": "function"
    },
    {
      "inputs": [
        {
          "internalType": "address",
          "name": "",
          "type": "address"
        },
        {
          "internalType": "address",
          "name": "",
          "type": "address"
        },
        {
          "internalType": "uint256",
          "name": "",
          "type": "uint256"
        },
        {
          "internalType": "bytes",
          "name": "",
          "type": "bytes"
        }
      ],
      "name": "onERC721Received",
      "outputs": [
        {
          "internalType": "bytes4",
          "name": "",
          "type": "bytes4"
        }
      ],
      "stateMutability": "nonpayable",
      "type": "function"
    },
    {
      "inputs": [
        {
          "components": [
            {
              "internalType": "address",
              "name": "target",
              "type": "address"
            },
            {
              "internalType": "bytes",
              "name": "data",
              "type": "bytes"
            }
          ],
          "internalType": "struct PipeCall",
          "name": "p",
          "type": "tuple"
        }
      ],
      "name": "pipe",
      "outputs": [
        {
          "internalType": "bytes",
          "name": "result",
          "type": "bytes"
        }
      ],
      "stateMutability": "payable",
      "type": "function"
    },
    {
      "inputs": [
        {
          "internalType": "bytes4",
          "name": "interfaceId",
          "type": "bytes4"
        }
      ],
      "name": "supportsInterface",
      "outputs": [
        {
          "internalType": "bool",
          "name": "",
          "type": "bool"
        }
      ],
      "stateMutability": "view",
      "type": "function"
    },
    {
      "inputs": [],
      "name": "version",
      "outputs": [
        {
          "internalType": "string",
          "name": "",
          "type": "string"
        }
      ],
      "stateMutability": "pure",
      "type": "function"
    },
    {
      "stateMutability": "payable",
      "type": "receive"
    }
  ],
  "bytecode": "0x6080604052348015600f57600080fd5b506111f28061001f6000396000f3fe60806040526004361061006f5760003560e01c806301ffc9a71461007b57806308e1a0ab146100b0578063150b7a02146100d05780631c0a0d5e1461011457806354fd4d5014610134578063bc197c8114610162578063cabec62b1461018e578063f23a6e61146101a157600080fd5b3661007657005b600080fd5b34801561008757600080fd5b5061009b610096366004610ad0565b6101cd565b60405190151581526020015b60405180910390f35b6100c36100be366004610b01565b610204565b6040516100a79190610b8b565b3480156100dc57600080fd5b506100fb6100eb366004610c7d565b630a85bd0160e11b949350505050565b6040516001600160e01b031990911681526020016100a7565b610127610122366004610d2f565b610229565b6040516100a79190610d70565b34801561014057600080fd5b50604080518082019091526005815264312e302e3160d81b60208201526100c3565b34801561016e57600080fd5b506100fb61017d366004610e61565b63bc197c8160e01b95945050505050565b61012761019c366004610d2f565b6102dd565b3480156101ad57600080fd5b506100fb6101bc366004610f0a565b63f23a6e6160e01b95945050505050565b60006001600160e01b03198216630271189760e51b14806101fe57506301ffc9a760e01b6001600160e01b03198316145b92915050565b60606101fe6102166020840184610f6e565b6102236020850185610f89565b346103cb565b6060816001600160401b0381111561024357610243610bba565b60405190808252806020026020018201604052801561027657816020015b60608152602001906001900390816102615790505b50905060005b828110156102d6576102b184848381811061029957610299610fcf565b90506020028101906102ab9190610fe5565b83610444565b8282815181106102c3576102c3610fcf565b602090810291909101015260010161027c565b5092915050565b6060816001600160401b038111156102f7576102f7610bba565b60405190808252806020026020018201604052801561032a57816020015b60608152602001906001900390816103155790505b50905060005b828110156102d6576103a684848381811061034d5761034d610fcf565b905060200281019061035f9190611005565b61036d906020810190610f6e565b85858481811061037f5761037f610fcf565b90506020028101906103919190611005565b61039f906020810190610f89565b60006103cb565b8282815181106103b8576103b8610fcf565b6020908102919091010152600101610330565b60606000856001600160a01b03168386866040516103ea92919061101b565b60006040518083038185875af1925050503d8060008114610427576040519150601f19603f3d011682016040523d82523d6000602084013e61042c565b606091505b509250905061043b818361056d565b50949350505050565b6060600061045d6104586040860186610f89565b6105c1565b905061046c6040850185610f89565b600081811061047d5761047d610fcf565b909101356001600160f81b03191660000390506104be576104b76104a46020860186610f6e565b6104b16020870187610f89565b846103cb565b91506102d6565b61054c6104ce6020860186610f89565b8080601f016020809104026020016040519081016040528093929190818152602001838380828437600092019190915250610510925050506040870187610f89565b8080601f0160208091040260200160405190810160405280939291908181526020018383808284376000920191909152508892506105ff915050565b915061056561055e6020860186610f6e565b83836106ce565b949350505050565b816105bd5760448151101561058157600080fd5b6004810190508080602001905181019061059b919061102b565b60405162461bcd60e51b81526004016105b49190610b8b565b60405180910390fd5b5050565b6000828260018181106105d6576105d6610fcf565b909101356001600160f81b03191660000390506105f5575060006101fe565b5001601f19013590565b606060008061060d85610744565b91935090915050600160f81b6001600160f81b03198316148061063d5750600160f91b6001600160f81b03198316145b6106895760405162461bcd60e51b815260206004820152601d60248201527f436c6970626f6172643a2054797065206e6f7420737570706f7274656400000060448201526064016105b4565b85925060005b81518110156106c4576106bc8282815181106106ad576106ad610fcf565b60200260200101518686610853565b60010161068f565b5050509392505050565b60606000846001600160a01b031683856040516106eb91906110a1565b60006040518083038185875af1925050503d8060008114610728576040519150601f19603f3d011682016040523d82523d6000602084013e61072d565b606091505b509250905061073c818361056d565b509392505050565b60008060608360008151811061075c5761075c610fcf565b01602001516001600160f81b0319169250600160f81b8390036107d1576040805160018082528183019092529060208083019080368337019050509050838060200190518101906107ad91906110b3565b816000815181106107c0576107c0610fcf565b6020026020010181815250506107fe565b6001600160f81b03198316600160f91b036107fe57838060200190518101906107fa91906110cc565b9150505b60008460018151811061081357610813610fcf565b01602001516001600160f81b0319169050600160f81b81900361084b57610848602086516108419190611196565b86906108b5565b92505b509193909250565b815169ffffffffffffffffffff60a085901c811691605086901c82169186169060009086908590811061088857610888610fcf565b6020026020010151905061089c8382610962565b6108a68286610a18565b90910151920191909152505050565b6000816108c38160206111a9565b10156109065760405162461bcd60e51b8152602060048201526012602482015271746f55696e743235365f6f766572666c6f7760701b60448201526064016105b4565b6109118260206111a9565b835110156109595760405162461bcd60e51b8152602060048201526015602482015274746f55696e743235365f6f75744f66426f756e647360581b60448201526064016105b4565b50016020015190565b60208210156109bd5760405162461bcd60e51b815260206004820152602160248201527f4c696242797465733a20636f707942797465496e64657820746f6f20736d616c6044820152601b60fa1b60648201526084016105b4565b80518211156105bd5760405162461bcd60e51b815260206004820152602160248201527f4c696242797465733a20636f707942797465496e64657820746f6f206c6172676044820152606560f81b60648201526084016105b4565b6020821015610a745760405162461bcd60e51b815260206004820152602260248201527f4c696242797465733a20706173746542797465496e64657820746f6f20736d616044820152611b1b60f21b60648201526084016105b4565b80518211156105bd5760405162461bcd60e51b815260206004820152602260248201527f4c696242797465733a20706173746542797465496e64657820746f6f206c6172604482015261676560f01b60648201526084016105b4565b600060208284031215610ae257600080fd5b81356001600160e01b031981168114610afa57600080fd5b9392505050565b600060208284031215610b1357600080fd5b81356001600160401b03811115610b2957600080fd5b820160408185031215610afa57600080fd5b60005b83811015610b56578181015183820152602001610b3e565b50506000910152565b60008151808452610b77816020860160208601610b3b565b601f01601f19169290920160200192915050565b602081526000610afa6020830184610b5f565b80356001600160a01b0381168114610bb557600080fd5b919050565b634e487b7160e01b600052604160045260246000fd5b604051601f8201601f191681016001600160401b0381118282101715610bf857610bf8610bba565b604052919050565b60006001600160401b03821115610c1957610c19610bba565b50601f01601f191660200190565b600082601f830112610c3857600080fd5b8135610c4b610c4682610c00565b610bd0565b818152846020838601011115610c6057600080fd5b816020850160208301376000918101602001919091529392505050565b60008060008060808587031215610c9357600080fd5b610c9c85610b9e565b9350610caa60208601610b9e565b92506040850135915060608501356001600160401b03811115610ccc57600080fd5b610cd887828801610c27565b91505092959194509250565b60008083601f840112610cf657600080fd5b5081356001600160401b03811115610d0d57600080fd5b6020830191508360208260051b8501011115610d2857600080fd5b9250929050565b60008060208385031215610d4257600080fd5b82356001600160401b03811115610d5857600080fd5b610d6485828601610ce4565b90969095509350505050565b600060208083016020845280855180835260408601915060408160051b87010192506020870160005b82811015610dc757603f19888603018452610db5858351610b5f565b94509285019290850190600101610d99565b5092979650505050505050565b60006001600160401b03821115610ded57610ded610bba565b5060051b60200190565b600082601f830112610e0857600080fd5b81356020610e18610c4683610dd4565b8083825260208201915060208460051b870101935086841115610e3a57600080fd5b602086015b84811015610e565780358352918301918301610e3f565b509695505050505050565b600080600080600060a08688031215610e7957600080fd5b610e8286610b9e565b9450610e9060208701610b9e565b935060408601356001600160401b0380821115610eac57600080fd5b610eb889838a01610df7565b94506060880135915080821115610ece57600080fd5b610eda89838a01610df7565b93506080880135915080821115610ef057600080fd5b50610efd88828901610c27565b9150509295509295909350565b600080600080600060a08688031215610f2257600080fd5b610f2b86610b9e565b9450610f3960208701610b9e565b9350604086013592506060860135915060808601356001600160401b03811115610f6257600080fd5b610efd88828901610c27565b600060208284031215610f8057600080fd5b610afa82610b9e565b6000808335601e19843603018112610fa057600080fd5b8301803591506001600160401b03821115610fba57600080fd5b602001915036819003821315610d2857600080fd5b634e487b7160e01b600052603260045260246000fd5b60008235605e19833603018112610ffb57600080fd5b9190910192915050565b60008235603e19833603018112610ffb57600080fd5b8183823760009101908152919050565b60006020828403121561103d57600080fd5b81516001600160401b0381111561105357600080fd5b8201601f8101841361106457600080fd5b8051611072610c4682610c00565b81815285602083850101111561108757600080fd5b611098826020830160208601610b3b565b95945050505050565b60008251610ffb818460208701610b3b565b6000602082840312156110c557600080fd5b5051919050565b600080604083850312156110df57600080fd5b82516001600160f01b0319811681146110f757600080fd5b809250506020808401516001600160401b0381111561111557600080fd5b8401601f8101861361112657600080fd5b8051611134610c4682610dd4565b81815260059190911b8201830190838101908883111561115357600080fd5b928401925b8284101561117157835182529284019290840190611158565b80955050505050509250929050565b634e487b7160e01b600052601160045260246000fd5b818103818111156101fe576101fe611180565b808201808211156101fe576101fe61118056fea26469706673582212202655ac9640e8f3a282119c5efb3b83fe54e92c8cbddd2f97a299b1695fe32b7464736f6c63430008190033",
  "linkReferences": {},
  "deployedLinkReferences": {}
}