{
  "_format": "hh-sol-artifact-1",
  "contractName": "Root",
  "sourceName": "contracts/tokens/Root.sol",
  "abi": [
    {
      "inputs": [],
      "stateMutability": "nonpayable",
      "type": "constructor"
    },
    {
      "anonymous": false,
      "inputs": [
        {
          "indexed": true,
          "internalType": "address",
          "name": "token",
          "type": "address"
        }
      ],
      "name": "AddWhitelistToken",
      "type": "event"
    },
    {
      "anonymous": false,
      "inputs": [
        {
          "indexed": false,
          "internalType": "address",
          "name": "previousAdmin",
          "type": "address"
        },
        {
          "indexed": false,
          "internalType": "address",
          "name": "newAdmin",
          "type": "address"
        }
      ],
      "name": "AdminChanged",
      "type": "event"
    },
    {
      "anonymous": false,
      "inputs": [
        {
          "indexed": true,
          "internalType": "address",
          "name": "owner",
          "type": "address"
        },
        {
          "indexed": true,
          "internalType": "address",
          "name": "spender",
          "type": "address"
        },
        {
          "indexed": false,
          "internalType": "uint256",
          "name": "value",
          "type": "uint256"
        }
      ],
      "name": "Approval",
      "type": "event"
    },
    {
      "anonymous": false,
      "inputs": [
        {
          "indexed": true,
          "internalType": "address",
          "name": "beacon",
          "type": "address"
        }
      ],
      "name": "BeaconUpgraded",
      "type": "event"
    },
    {
      "anonymous": false,
      "inputs": [
        {
          "indexed": false,
          "internalType": "uint8",
          "name": "version",
          "type": "uint8"
        }
      ],
      "name": "Initialized",
      "type": "event"
    },
    {
      "anonymous": false,
      "inputs": [
        {
          "indexed": true,
          "internalType": "address",
          "name": "account",
          "type": "address"
        },
        {
          "components": [
            {
              "internalType": "address",
              "name": "token",
              "type": "address"
            },
            {
              "internalType": "uint32[]",
              "name": "seasons",
              "type": "uint32[]"
            },
            {
              "internalType": "uint256[]",
              "name": "amounts",
              "type": "uint256[]"
            }
          ],
          "indexed": false,
          "internalType": "struct DepositTransfer[]",
          "name": "deposits",
          "type": "tuple[]"
        },
        {
          "indexed": false,
          "internalType": "uint256",
          "name": "bdv",
          "type": "uint256"
        },
        {
          "indexed": false,
          "internalType": "uint256",
          "name": "stalk",
          "type": "uint256"
        },
        {
          "indexed": false,
          "internalType": "uint256",
          "name": "seeds",
          "type": "uint256"
        },
        {
          "indexed": false,
          "internalType": "uint256",
          "name": "shares",
          "type": "uint256"
        }
      ],
      "name": "Mint",
      "type": "event"
    },
    {
      "anonymous": false,
      "inputs": [
        {
          "indexed": true,
          "internalType": "address",
          "name": "previousOwner",
          "type": "address"
        },
        {
          "indexed": true,
          "internalType": "address",
          "name": "newOwner",
          "type": "address"
        }
      ],
      "name": "OwnershipTransferred",
      "type": "event"
    },
    {
      "anonymous": false,
      "inputs": [
        {
          "indexed": true,
          "internalType": "address",
          "name": "account",
          "type": "address"
        },
        {
          "components": [
            {
              "internalType": "address",
              "name": "token",
              "type": "address"
            },
            {
              "internalType": "uint32[]",
              "name": "seasons",
              "type": "uint32[]"
            },
            {
              "internalType": "uint256[]",
              "name": "amounts",
              "type": "uint256[]"
            }
          ],
          "indexed": false,
          "internalType": "struct DepositTransfer[]",
          "name": "deposits",
          "type": "tuple[]"
        },
        {
          "indexed": false,
          "internalType": "uint256",
          "name": "bdv",
          "type": "uint256"
        },
        {
          "indexed": false,
          "internalType": "uint256",
          "name": "stalk",
          "type": "uint256"
        },
        {
          "indexed": false,
          "internalType": "uint256",
          "name": "seeds",
          "type": "uint256"
        },
        {
          "indexed": false,
          "internalType": "uint256",
          "name": "shares",
          "type": "uint256"
        }
      ],
      "name": "Redeem",
      "type": "event"
    },
    {
      "anonymous": false,
      "inputs": [
        {
          "indexed": true,
          "internalType": "address",
          "name": "token",
          "type": "address"
        }
      ],
      "name": "RemoveWhitelistToken",
      "type": "event"
    },
    {
      "anonymous": false,
      "inputs": [
        {
          "indexed": true,
          "internalType": "address",
          "name": "from",
          "type": "address"
        },
        {
          "indexed": true,
          "internalType": "address",
          "name": "to",
          "type": "address"
        },
        {
          "indexed": false,
          "internalType": "uint256",
          "name": "value",
          "type": "uint256"
        }
      ],
      "name": "Transfer",
      "type": "event"
    },
    {
      "anonymous": false,
      "inputs": [
        {
          "indexed": true,
          "internalType": "address",
          "name": "implementation",
          "type": "address"
        }
      ],
      "name": "Upgraded",
      "type": "event"
    },
    {
      "inputs": [],
      "name": "BEANSTALK_ADDRESS",
      "outputs": [
        {
          "internalType": "address",
          "name": "",
          "type": "address"
        }
      ],
      "stateMutability": "view",
      "type": "function"
    },
    {
      "inputs": [],
      "name": "DOMAIN_SEPARATOR",
      "outputs": [
        {
          "internalType": "bytes32",
          "name": "",
          "type": "bytes32"
        }
      ],
      "stateMutability": "view",
      "type": "function"
    },
    {
      "inputs": [
        {
          "internalType": "address",
          "name": "token",
          "type": "address"
        }
      ],
      "name": "addWhitelistToken",
      "outputs": [],
      "stateMutability": "nonpayable",
      "type": "function"
    },
    {
      "inputs": [
        {
          "internalType": "address",
          "name": "owner",
          "type": "address"
        },
        {
          "internalType": "address",
          "name": "spender",
          "type": "address"
        }
      ],
      "name": "allowance",
      "outputs": [
        {
          "internalType": "uint256",
          "name": "",
          "type": "uint256"
        }
      ],
      "stateMutability": "view",
      "type": "function"
    },
    {
      "inputs": [
        {
          "internalType": "address",
          "name": "spender",
          "type": "address"
        },
        {
          "internalType": "uint256",
          "name": "amount",
          "type": "uint256"
        }
      ],
      "name": "approve",
      "outputs": [
        {
          "internalType": "bool",
          "name": "",
          "type": "bool"
        }
      ],
      "stateMutability": "nonpayable",
      "type": "function"
    },
    {
      "inputs": [
        {
          "internalType": "address",
          "name": "account",
          "type": "address"
        }
      ],
      "name": "balanceOf",
      "outputs": [
        {
          "internalType": "uint256",
          "name": "",
          "type": "uint256"
        }
      ],
      "stateMutability": "view",
      "type": "function"
    },
    {
      "inputs": [],
      "name": "bdvPerRoot",
      "outputs": [
        {
          "internalType": "uint256",
          "name": "",
          "type": "uint256"
        }
      ],
      "stateMutability": "view",
      "type": "function"
    },
    {
      "inputs": [],
      "name": "claimOwnership",
      "outputs": [],
      "stateMutability": "nonpayable",
      "type": "function"
    },
    {
      "inputs": [],
      "name": "decimals",
      "outputs": [
        {
          "internalType": "uint8",
          "name": "",
          "type": "uint8"
        }
      ],
      "stateMutability": "view",
      "type": "function"
    },
    {
      "inputs": [
        {
          "internalType": "address",
          "name": "spender",
          "type": "address"
        },
        {
          "internalType": "uint256",
          "name": "subtractedValue",
          "type": "uint256"
        }
      ],
      "name": "decreaseAllowance",
      "outputs": [
        {
          "internalType": "bool",
          "name": "",
          "type": "bool"
        }
      ],
      "stateMutability": "nonpayable",
      "type": "function"
    },
    {
      "inputs": [],
      "name": "earn",
      "outputs": [],
      "stateMutability": "nonpayable",
      "type": "function"
    },
    {
      "inputs": [
        {
          "internalType": "address",
          "name": "spender",
          "type": "address"
        },
        {
          "internalType": "uint256",
          "name": "addedValue",
          "type": "uint256"
        }
      ],
      "name": "increaseAllowance",
      "outputs": [
        {
          "internalType": "bool",
          "name": "",
          "type": "bool"
        }
      ],
      "stateMutability": "nonpayable",
      "type": "function"
    },
    {
      "inputs": [
        {
          "internalType": "string",
          "name": "name",
          "type": "string"
        },
        {
          "internalType": "string",
          "name": "symbol",
          "type": "string"
        }
      ],
      "name": "initialize",
      "outputs": [],
      "stateMutability": "nonpayable",
      "type": "function"
    },
    {
      "inputs": [
        {
          "components": [
            {
              "internalType": "address",
              "name": "token",
              "type": "address"
            },
            {
              "internalType": "uint32[]",
              "name": "seasons",
              "type": "uint32[]"
            },
            {
              "internalType": "uint256[]",
              "name": "amounts",
              "type": "uint256[]"
            }
          ],
          "internalType": "struct DepositTransfer[]",
          "name": "depositTransfers",
          "type": "tuple[]"
        },
        {
          "internalType": "enum To",
          "name": "mode",
          "type": "uint8"
        },
        {
          "internalType": "uint256",
          "name": "minRootsOut",
          "type": "uint256"
        }
      ],
      "name": "mint",
      "outputs": [
        {
          "internalType": "uint256",
          "name": "",
          "type": "uint256"
        }
      ],
      "stateMutability": "nonpayable",
      "type": "function"
    },
    {
      "inputs": [
        {
          "components": [
            {
              "internalType": "address",
              "name": "token",
              "type": "address"
            },
            {
              "internalType": "uint32[]",
              "name": "seasons",
              "type": "uint32[]"
            },
            {
              "internalType": "uint256[]",
              "name": "amounts",
              "type": "uint256[]"
            }
          ],
          "internalType": "struct DepositTransfer[]",
          "name": "depositTransfers",
          "type": "tuple[]"
        },
        {
          "internalType": "enum To",
          "name": "mode",
          "type": "uint8"
        },
        {
          "internalType": "uint256",
          "name": "minRootsOut",
          "type": "uint256"
        },
        {
          "internalType": "address",
          "name": "token",
          "type": "address"
        },
        {
          "internalType": "uint256",
          "name": "value",
          "type": "uint256"
        },
        {
          "internalType": "uint256",
          "name": "deadline",
          "type": "uint256"
        },
        {
          "internalType": "uint8",
          "name": "v",
          "type": "uint8"
        },
        {
          "internalType": "bytes32",
          "name": "r",
          "type": "bytes32"
        },
        {
          "internalType": "bytes32",
          "name": "s",
          "type": "bytes32"
        }
      ],
      "name": "mintWithTokenPermit",
      "outputs": [
        {
          "internalType": "uint256",
          "name": "",
          "type": "uint256"
        }
      ],
      "stateMutability": "nonpayable",
      "type": "function"
    },
    {
      "inputs": [
        {
          "components": [
            {
              "internalType": "address",
              "name": "token",
              "type": "address"
            },
            {
              "internalType": "uint32[]",
              "name": "seasons",
              "type": "uint32[]"
            },
            {
              "internalType": "uint256[]",
              "name": "amounts",
              "type": "uint256[]"
            }
          ],
          "internalType": "struct DepositTransfer[]",
          "name": "depositTransfers",
          "type": "tuple[]"
        },
        {
          "internalType": "enum To",
          "name": "mode",
          "type": "uint8"
        },
        {
          "internalType": "uint256",
          "name": "minRootsOut",
          "type": "uint256"
        },
        {
          "internalType": "address[]",
          "name": "tokens",
          "type": "address[]"
        },
        {
          "internalType": "uint256[]",
          "name": "values",
          "type": "uint256[]"
        },
        {
          "internalType": "uint256",
          "name": "deadline",
          "type": "uint256"
        },
        {
          "internalType": "uint8",
          "name": "v",
          "type": "uint8"
        },
        {
          "internalType": "bytes32",
          "name": "r",
          "type": "bytes32"
        },
        {
          "internalType": "bytes32",
          "name": "s",
          "type": "bytes32"
        }
      ],
      "name": "mintWithTokensPermit",
      "outputs": [
        {
          "internalType": "uint256",
          "name": "",
          "type": "uint256"
        }
      ],
      "stateMutability": "nonpayable",
      "type": "function"
    },
    {
      "inputs": [],
      "name": "name",
      "outputs": [
        {
          "internalType": "string",
          "name": "",
          "type": "string"
        }
      ],
      "stateMutability": "view",
      "type": "function"
    },
    {
      "inputs": [
        {
          "internalType": "address",
          "name": "owner",
          "type": "address"
        }
      ],
      "name": "nonces",
      "outputs": [
        {
          "internalType": "uint256",
          "name": "",
          "type": "uint256"
        }
      ],
      "stateMutability": "view",
      "type": "function"
    },
    {
      "inputs": [],
      "name": "owner",
      "outputs": [
        {
          "internalType": "address",
          "name": "",
          "type": "address"
        }
      ],
      "stateMutability": "view",
      "type": "function"
    },
    {
      "inputs": [],
      "name": "ownerCandidate",
      "outputs": [
        {
          "internalType": "address",
          "name": "",
          "type": "address"
        }
      ],
      "stateMutability": "view",
      "type": "function"
    },
    {
      "inputs": [
        {
          "internalType": "address",
          "name": "owner",
          "type": "address"
        },
        {
          "internalType": "address",
          "name": "spender",
          "type": "address"
        },
        {
          "internalType": "uint256",
          "name": "value",
          "type": "uint256"
        },
        {
          "internalType": "uint256",
          "name": "deadline",
          "type": "uint256"
        },
        {
          "internalType": "uint8",
          "name": "v",
          "type": "uint8"
        },
        {
          "internalType": "bytes32",
          "name": "r",
          "type": "bytes32"
        },
        {
          "internalType": "bytes32",
          "name": "s",
          "type": "bytes32"
        }
      ],
      "name": "permit",
      "outputs": [],
      "stateMutability": "nonpayable",
      "type": "function"
    },
    {
      "inputs": [],
      "name": "proxiableUUID",
      "outputs": [
        {
          "internalType": "bytes32",
          "name": "",
          "type": "bytes32"
        }
      ],
      "stateMutability": "view",
      "type": "function"
    },
    {
      "inputs": [
        {
          "components": [
            {
              "internalType": "address",
              "name": "token",
              "type": "address"
            },
            {
              "internalType": "uint32[]",
              "name": "seasons",
              "type": "uint32[]"
            },
            {
              "internalType": "uint256[]",
              "name": "amounts",
              "type": "uint256[]"
            }
          ],
          "internalType": "struct DepositTransfer[]",
          "name": "depositTransfers",
          "type": "tuple[]"
        },
        {
          "internalType": "enum From",
          "name": "mode",
          "type": "uint8"
        },
        {
          "internalType": "uint256",
          "name": "maxRootsIn",
          "type": "uint256"
        }
      ],
      "name": "redeem",
      "outputs": [
        {
          "internalType": "uint256",
          "name": "",
          "type": "uint256"
        }
      ],
      "stateMutability": "nonpayable",
      "type": "function"
    },
    {
      "inputs": [
        {
          "components": [
            {
              "internalType": "address",
              "name": "token",
              "type": "address"
            },
            {
              "internalType": "uint32[]",
              "name": "seasons",
              "type": "uint32[]"
            },
            {
              "internalType": "uint256[]",
              "name": "amounts",
              "type": "uint256[]"
            }
          ],
          "internalType": "struct DepositTransfer[]",
          "name": "depositTransfers",
          "type": "tuple[]"
        },
        {
          "internalType": "enum From",
          "name": "mode",
          "type": "uint8"
        },
        {
          "internalType": "uint256",
          "name": "maxRootsIn",
          "type": "uint256"
        },
        {
          "internalType": "address",
          "name": "token",
          "type": "address"
        },
        {
          "internalType": "uint256",
          "name": "value",
          "type": "uint256"
        },
        {
          "internalType": "uint256",
          "name": "deadline",
          "type": "uint256"
        },
        {
          "internalType": "uint8",
          "name": "v",
          "type": "uint8"
        },
        {
          "internalType": "bytes32",
          "name": "r",
          "type": "bytes32"
        },
        {
          "internalType": "bytes32",
          "name": "s",
          "type": "bytes32"
        }
      ],
      "name": "redeemWithFarmBalancePermit",
      "outputs": [
        {
          "internalType": "uint256",
          "name": "",
          "type": "uint256"
        }
      ],
      "stateMutability": "nonpayable",
      "type": "function"
    },
    {
      "inputs": [
        {
          "internalType": "address",
          "name": "token",
          "type": "address"
        }
      ],
      "name": "removeWhitelistToken",
      "outputs": [],
      "stateMutability": "nonpayable",
      "type": "function"
    },
    {
      "inputs": [],
      "name": "renounceOwnership",
      "outputs": [],
      "stateMutability": "nonpayable",
      "type": "function"
    },
    {
      "inputs": [
        {
          "internalType": "address",
          "name": "_delegateContract",
          "type": "address"
        },
        {
          "internalType": "address",
          "name": "_delegate",
          "type": "address"
        },
        {
          "internalType": "bytes32",
          "name": "_snapshotId",
          "type": "bytes32"
        }
      ],
      "name": "setDelegate",
      "outputs": [],
      "stateMutability": "nonpayable",
      "type": "function"
    },
    {
      "inputs": [],
      "name": "symbol",
      "outputs": [
        {
          "internalType": "string",
          "name": "",
          "type": "string"
        }
      ],
      "stateMutability": "view",
      "type": "function"
    },
    {
      "inputs": [],
      "name": "totalSupply",
      "outputs": [
        {
          "internalType": "uint256",
          "name": "",
          "type": "uint256"
        }
      ],
      "stateMutability": "view",
      "type": "function"
    },
    {
      "inputs": [
        {
          "internalType": "address",
          "name": "to",
          "type": "address"
        },
        {
          "internalType": "uint256",
          "name": "amount",
          "type": "uint256"
        }
      ],
      "name": "transfer",
      "outputs": [
        {
          "internalType": "bool",
          "name": "",
          "type": "bool"
        }
      ],
      "stateMutability": "nonpayable",
      "type": "function"
    },
    {
      "inputs": [
        {
          "internalType": "address",
          "name": "from",
          "type": "address"
        },
        {
          "internalType": "address",
          "name": "to",
          "type": "address"
        },
        {
          "internalType": "uint256",
          "name": "amount",
          "type": "uint256"
        }
      ],
      "name": "transferFrom",
      "outputs": [
        {
          "internalType": "bool",
          "name": "",
          "type": "bool"
        }
      ],
      "stateMutability": "nonpayable",
      "type": "function"
    },
    {
      "inputs": [
        {
          "internalType": "address",
          "name": "newOwner",
          "type": "address"
        }
      ],
      "name": "transferOwnership",
      "outputs": [],
      "stateMutability": "nonpayable",
      "type": "function"
    },
    {
      "inputs": [],
      "name": "underlyingBdv",
      "outputs": [
        {
          "internalType": "uint256",
          "name": "",
          "type": "uint256"
        }
      ],
      "stateMutability": "view",
      "type": "function"
    },
    {
      "inputs": [
        {
          "internalType": "address",
          "name": "token",
          "type": "address"
        },
        {
          "internalType": "uint32",
          "name": "season",
          "type": "uint32"
        }
      ],
      "name": "updateBdv",
      "outputs": [],
      "stateMutability": "nonpayable",
      "type": "function"
    },
    {
      "inputs": [
        {
          "internalType": "address[]",
          "name": "tokens",
          "type": "address[]"
        },
        {
          "internalType": "uint32[]",
          "name": "seasons",
          "type": "uint32[]"
        }
      ],
      "name": "updateBdvs",
      "outputs": [],
      "stateMutability": "nonpayable",
      "type": "function"
    },
    {
      "inputs": [
        {
          "internalType": "address",
          "name": "newImplementation",
          "type": "address"
        }
      ],
      "name": "upgradeTo",
      "outputs": [],
      "stateMutability": "nonpayable",
      "type": "function"
    },
    {
      "inputs": [
        {
          "internalType": "address",
          "name": "newImplementation",
          "type": "address"
        },
        {
          "internalType": "bytes",
          "name": "data",
          "type": "bytes"
        }
      ],
      "name": "upgradeToAndCall",
      "outputs": [],
      "stateMutability": "payable",
      "type": "function"
    },
    {
      "inputs": [
        {
          "internalType": "address",
          "name": "",
          "type": "address"
        }
      ],
      "name": "whitelisted",
      "outputs": [
        {
          "internalType": "bool",
          "name": "",
          "type": "bool"
        }
      ],
      "stateMutability": "view",
      "type": "function"
    }
  ],
  "bytecode": "0x60a0604052306080523480156200001557600080fd5b506200002062000026565b620000e8565b600054610100900460ff1615620000935760405162461bcd60e51b815260206004820152602760248201527f496e697469616c697a61626c653a20636f6e747261637420697320696e697469604482015266616c697a696e6760c81b606482015260840160405180910390fd5b60005460ff9081161015620000e6576000805460ff191660ff9081179091556040519081527f7f26b83ff96e1f2b6a682f133852f6798a09c465da95921460cefb38474024989060200160405180910390a15b565b60805161476b62000120600039600081816109ca01528181610a5401528181610f7301528181610ff801526110e2015261476b6000f3fe6080604052600436106102855760003560e01c8063715018a611610153578063aa196827116100cb578063d936547e1161007f578063e9ee910711610064578063e9ee91071461070c578063f2fde38b1461072c578063ffe2dd971461074c57600080fd5b8063d936547e14610695578063dd62ed3e146106c657600080fd5b8063c9240f02116100b0578063c9240f0214610640578063d389800f14610660578063d505accf1461067557600080fd5b8063aa19682714610603578063bb9e09c81461062b57600080fd5b806395d89b41116101225780639b3ac95c116101075780639b3ac95c146105a3578063a457c2d7146105c3578063a9059cbb146105e357600080fd5b806395d89b4114610577578063964772311461058c57600080fd5b8063715018a6146105035780637ecebe00146105185780638da5cb5b146105385780639168083c1461055757600080fd5b80633644e515116102015780634e71e0c8116101b557806352d1902d1161019a57806352d1902d1461047f5780635f504a821461049457806370a08231146104cd57600080fd5b80634e71e0c8146104575780634f1ef2861461046c57600080fd5b806339509351116101e657806339509351146103f75780633b788da9146104175780634cd88b761461043757600080fd5b80633644e515146103c25780633659cfe6146103d757600080fd5b80631a54ba281161025857806323b872dd1161023d57806323b872dd146103645780632901621214610384578063313ce567146103a657600080fd5b80631a54ba28146103245780632235eff91461034457600080fd5b8063048f08691461028a57806306fdde03146102bd578063095ea7b3146102df57806318160ddd1461030f575b600080fd5b34801561029657600080fd5b506102aa6102a53660046138a2565b61076c565b6040519081526020015b60405180910390f35b3480156102c957600080fd5b506102d2610783565b6040516102b4919061394e565b3480156102eb57600080fd5b506102ff6102fa366004613978565b610815565b60405190151581526020016102b4565b34801561031b57600080fd5b506099546102aa565b34801561033057600080fd5b506102aa61033f3660046139b1565b61082f565b34801561035057600080fd5b506102aa61035f366004613a0e565b61083d565b34801561037057600080fd5b506102ff61037f366004613ab5565b610913565b34801561039057600080fd5b506103a461039f366004613af1565b610939565b005b3480156103b257600080fd5b50604051601281526020016102b4565b3480156103ce57600080fd5b506102aa6109b1565b3480156103e357600080fd5b506103a46103f2366004613b5d565b6109c0565b34801561040357600080fd5b506102ff610412366004613978565b610b40565b34801561042357600080fd5b506103a4610432366004613ab5565b610b7f565b34801561044357600080fd5b506103a4610452366004613bba565b610cdd565b34801561046357600080fd5b506103a4610eb2565b6103a461047a366004613c61565b610f69565b34801561048b57600080fd5b506102aa6110d5565b3480156104a057600080fd5b50610164546104b5906001600160a01b031681565b6040516001600160a01b0390911681526020016102b4565b3480156104d957600080fd5b506102aa6104e8366004613b5d565b6001600160a01b031660009081526097602052604090205490565b34801561050f57600080fd5b506103a461119a565b34801561052457600080fd5b506102aa610533366004613b5d565b611210565b34801561054457600080fd5b50610130546001600160a01b03166104b5565b34801561056357600080fd5b506103a4610572366004613b5d565b61122e565b34801561058357600080fd5b506102d26112d9565b34801561059857600080fd5b506102aa6101635481565b3480156105af57600080fd5b506102aa6105be366004613d07565b6112e8565b3480156105cf57600080fd5b506102ff6105de366004613978565b6113af565b3480156105ef57600080fd5b506102ff6105fe366004613978565b611464565b34801561060f57600080fd5b506104b573c1e088fc1323b20bcbee9bd1b9fc9546db5624c581565b34801561063757600080fd5b506102aa611472565b34801561064c57600080fd5b506103a461065b366004613d6f565b61149e565b34801561066c57600080fd5b506103a46114a8565b34801561068157600080fd5b506103a4610690366004613da6565b61153f565b3480156106a157600080fd5b506102ff6106b0366004613b5d565b6101626020526000908152604090205460ff1681565b3480156106d257600080fd5b506102aa6106e1366004613e10565b6001600160a01b03918216600090815260986020908152604080832093909416825291909152205490565b34801561071857600080fd5b506103a4610727366004613b5d565b6116a3565b34801561073857600080fd5b506103a4610747366004613b5d565b61174b565b34801561075857600080fd5b506102aa610767366004613e43565b6117ff565b600061077a858585856118b3565b95945050505050565b6060609a805461079290613f33565b80601f01602080910402602001604051908101604052809291908181526020018280546107be90613f33565b801561080b5780601f106107e05761010080835404028352916020019161080b565b820191906000526020600020905b8154815290600101906020018083116107ee57829003601f168201915b5050505050905090565b600033610823818585611a51565b60019150505b92915050565b600061077a85858585611ba9565b6040517f7c516e940000000000000000000000000000000000000000000000000000000081523360048201523060248201526001600160a01b0387166044820152606481018690526084810185905260ff841660a482015260c4810183905260e4810182905260009073c1e088fc1323b20bcbee9bd1b9fc9546db5624c590637c516e949061010401600060405180830381600087803b1580156108e057600080fd5b505af11580156108f4573d6000803e3d6000fd5b505050506109048b8b8b8b6118b3565b9b9a5050505050505050505050565b600033610921858285611d89565b61092c858585611e1b565b60019150505b9392505050565b60005b838110156109aa5761099a85858381811061095957610959613f67565b905060200201602081019061096e9190613b5d565b84848481811061098057610980613f67565b90506020020160208101906109959190613f7d565b612032565b6109a381613fb0565b905061093c565b5050505050565b60006109bb6122cc565b905090565b6001600160a01b037f0000000000000000000000000000000000000000000000000000000000000000163003610a525760405162461bcd60e51b815260206004820152602c60248201527f46756e6374696f6e206d7573742062652063616c6c6564207468726f7567682060448201526b19195b1959d85d1958d85b1b60a21b60648201526084015b60405180910390fd5b7f00000000000000000000000000000000000000000000000000000000000000006001600160a01b0316610aad7f360894a13ba1a3210667c828492db98dca3e2076cc3735a920a3ca505d382bbc546001600160a01b031690565b6001600160a01b031614610b185760405162461bcd60e51b815260206004820152602c60248201527f46756e6374696f6e206d7573742062652063616c6c6564207468726f7567682060448201526b6163746976652070726f787960a01b6064820152608401610a49565b610b2181612347565b60408051600080825260208201909252610b3d9183919061234f565b50565b3360008181526098602090815260408083206001600160a01b03871684529091528120549091906108239082908690610b7a908790613fc9565b611a51565b610b876124ef565b6001600160a01b038316610c035760405162461bcd60e51b815260206004820152602260248201527f4e6f6e2d7a65726f2064656c656761746520616464726573732072657175697260448201527f65640000000000000000000000000000000000000000000000000000000000006064820152608401610a49565b6001600160a01b038216610c8a576040517ff0bedbe2000000000000000000000000000000000000000000000000000000008152600481018290526001600160a01b0384169063f0bedbe2906024015b600060405180830381600087803b158015610c6d57600080fd5b505af1158015610c81573d6000803e3d6000fd5b50505050505050565b6040517fbd86e508000000000000000000000000000000000000000000000000000000008152600481018290526001600160a01b03838116602483015284169063bd86e50890604401610c53565b505050565b600054610100900460ff1615808015610cfd5750600054600160ff909116105b80610d175750303b158015610d17575060005460ff166001145b610d895760405162461bcd60e51b815260206004820152602e60248201527f496e697469616c697a61626c653a20636f6e747261637420697320616c72656160448201527f647920696e697469616c697a65640000000000000000000000000000000000006064820152608401610a49565b6000805460ff191660011790558015610dac576000805461ff0019166101001790555b610e1f85858080601f01602080910402602001604051908101604052809392919081815260200183838082843760009201919091525050604080516020601f8901819004810282018101909252878152925087915086908190840183828082843760009201919091525061254c92505050565b610e5e85858080601f0160208091040260200160405190810160405280939291908181526020018383808284376000920191909152506125c192505050565b610e6661266b565b80156109aa576000805461ff0019169055604051600181527f7f26b83ff96e1f2b6a682f133852f6798a09c465da95921460cefb38474024989060200160405180910390a15050505050565b610164546001600160a01b03163314610f335760405162461bcd60e51b815260206004820152603a60248201527f4f776e61626c653a2073656e646572206d757374206265206f776e657243616e60448201527f64696461746520746f20616363657074206f776e6572736869700000000000006064820152608401610a49565b61016454610f49906001600160a01b03166126de565b610164805473ffffffffffffffffffffffffffffffffffffffff19169055565b6001600160a01b037f0000000000000000000000000000000000000000000000000000000000000000163003610ff65760405162461bcd60e51b815260206004820152602c60248201527f46756e6374696f6e206d7573742062652063616c6c6564207468726f7567682060448201526b19195b1959d85d1958d85b1b60a21b6064820152608401610a49565b7f00000000000000000000000000000000000000000000000000000000000000006001600160a01b03166110517f360894a13ba1a3210667c828492db98dca3e2076cc3735a920a3ca505d382bbc546001600160a01b031690565b6001600160a01b0316146110bc5760405162461bcd60e51b815260206004820152602c60248201527f46756e6374696f6e206d7573742062652063616c6c6564207468726f7567682060448201526b6163746976652070726f787960a01b6064820152608401610a49565b6110c582612347565b6110d18282600161234f565b5050565b6000306001600160a01b037f000000000000000000000000000000000000000000000000000000000000000016146111755760405162461bcd60e51b815260206004820152603860248201527f555550535570677261646561626c653a206d757374206e6f742062652063616c60448201527f6c6564207468726f7567682064656c656761746563616c6c00000000000000006064820152608401610a49565b507f360894a13ba1a3210667c828492db98dca3e2076cc3735a920a3ca505d382bbc90565b6111a26124ef565b60405162461bcd60e51b815260206004820152602560248201527f4f776e61626c653a2043616e27742072656e6f756e63654f776e65727368697060448201527f20686572650000000000000000000000000000000000000000000000000000006064820152608401610a49565b6001600160a01b038116600090815260fd6020526040812054610829565b6112366124ef565b6001600160a01b03811661128c5760405162461bcd60e51b815260206004820152601f60248201527f4e6f6e2d7a65726f20746f6b656e2061646472657373207265717569726564006044820152606401610a49565b6001600160a01b03811660008181526101626020526040808220805460ff19166001179055517fa54e443f26cc5ad727d621c65ab316267d303b027773376113f00c53ed7b372b9190a250565b6060609b805461079290613f33565b6040517f120b57020000000000000000000000000000000000000000000000000000000081523360048201523060248201526001600160a01b0387166044820152606481018690526084810185905260ff841660a482015260c4810183905260e4810182905260009073c1e088fc1323b20bcbee9bd1b9fc9546db5624c59063120b57029061010401600060405180830381600087803b15801561138b57600080fd5b505af115801561139f573d6000803e3d6000fd5b505050506109048b8b8b8b611ba9565b3360008181526098602090815260408083206001600160a01b03871684529091528120549091908381101561144c5760405162461bcd60e51b815260206004820152602560248201527f45524332303a2064656372656173656420616c6c6f77616e63652062656c6f7760448201527f207a65726f0000000000000000000000000000000000000000000000000000006064820152608401610a49565b6114598286868403611a51565b506001949350505050565b600033610823818585611e1b565b600061147d60995490565b670de0b6b3a7640000610163546114949190613fdc565b6109bb9190614009565b6110d18282612032565b600073c1e088fc1323b20bcbee9bd1b9fc9546db5624c56001600160a01b031663779b3c5c6040518163ffffffff1660e01b81526004016020604051808303816000875af11580156114fe573d6000803e3d6000fd5b505050506040513d601f19601f82011682018060405250810190611522919061402b565b90508061016360008282546115379190613fc9565b909155505050565b8342111561158f5760405162461bcd60e51b815260206004820152601d60248201527f45524332305065726d69743a206578706972656420646561646c696e650000006044820152606401610a49565b60007f6e71edae12b1b97f4d1f60370fef10105fa2faae0126114a169c64845d6126c98888886115be8c61273e565b6040805160208101969096526001600160a01b0394851690860152929091166060840152608083015260a082015260c0810186905260e001604051602081830303815290604052805190602001209050600061161982612766565b90506000611629828787876127cf565b9050896001600160a01b0316816001600160a01b03161461168c5760405162461bcd60e51b815260206004820152601e60248201527f45524332305065726d69743a20696e76616c6964207369676e617475726500006044820152606401610a49565b6116978a8a8a611a51565b50505050505050505050565b6116ab6124ef565b6001600160a01b0381166117015760405162461bcd60e51b815260206004820152601f60248201527f4e6f6e2d7a65726f20746f6b656e2061646472657373207265717569726564006044820152606401610a49565b6001600160a01b03811660008181526101626020526040808220805460ff19169055517ff9e330625cb712f3af7340fb3b6454be2ea9e7035659cfb1b477705786ca5d429190a250565b6117536124ef565b6001600160a01b0381166117cf5760405162461bcd60e51b815260206004820152602860248201527f4f776e61626c653a204e6f6e2d7a65726f206f776e657220616464726573732060448201527f72657175697265640000000000000000000000000000000000000000000000006064820152608401610a49565b610164805473ffffffffffffffffffffffffffffffffffffffff19166001600160a01b0392909216919091179055565b6040517fd5770dc700000000000000000000000000000000000000000000000000000000815260009073c1e088fc1323b20bcbee9bd1b9fc9546db5624c59063d5770dc79061186490339030908e908e908e908e908e908e908e908e9060040161408f565b600060405180830381600087803b15801561187e57600080fd5b505af1158015611892573d6000803e3d6000fd5b505050506118a28d8d8d8d611ba9565b9d9c50505050505050505050505050565b60008060008060006118c7898960006127f7565b9350935093509350858411156119455760405162461bcd60e51b815260206004820152602960248201527f52656465656d3a207368617265732069732067726561746572207468616e206d60448201527f6178526f6f7473496e00000000000000000000000000000000000000000000006064820152608401610a49565b33600188600381111561195a5761195a614132565b036119ee57506040517fd3f4ec6f000000000000000000000000000000000000000000000000000000008152309073c1e088fc1323b20bcbee9bd1b9fc9546db5624c59063d3f4ec6f906119bb908490339082908b9060009060040161415c565b600060405180830381600087803b1580156119d557600080fd5b505af11580156119e9573d6000803e3d6000fd5b505050505b6119f88186612d25565b336001600160a01b03167f859a659762340cd07a1ca857ddc4f9485f55dd427e3fca351c9a52b253f5cc158b8b8787878b604051611a3b9695949392919061421f565b60405180910390a2509298975050505050505050565b6001600160a01b038316611acc5760405162461bcd60e51b8152602060048201526024808201527f45524332303a20617070726f76652066726f6d20746865207a65726f2061646460448201527f72657373000000000000000000000000000000000000000000000000000000006064820152608401610a49565b6001600160a01b038216611b485760405162461bcd60e51b815260206004820152602260248201527f45524332303a20617070726f766520746f20746865207a65726f20616464726560448201527f73730000000000000000000000000000000000000000000000000000000000006064820152608401610a49565b6001600160a01b0383811660008181526098602090815260408083209487168084529482529182902085905590518481527f8c5be1e5ebec7d5bd14f71427d1e84f3dd0314c0f7b2291e5b200ac8c7c3b925910160405180910390a3505050565b6000806000806000611bbd898960016127f7565b935093509350935085841015611c3b5760405162461bcd60e51b815260206004820152602560248201527f4d696e743a20736861726573206973206c657373207468616e206d696e526f6f60448201527f74734f75740000000000000000000000000000000000000000000000000000006064820152608401610a49565b6001876001811115611c4f57611c4f614132565b03611d0e57611c5e3085612eaa565b611c7d3073c1e088fc1323b20bcbee9bd1b9fc9546db5624c586611a51565b6040517f6204aa4300000000000000000000000000000000000000000000000000000000815273c1e088fc1323b20bcbee9bd1b9fc9546db5624c590636204aa4390611cd790309033908990600090600190600401614300565b600060405180830381600087803b158015611cf157600080fd5b505af1158015611d05573d6000803e3d6000fd5b50505050611d31565b6000876001811115611d2257611d22614132565b03611d3157611d313385612eaa565b336001600160a01b03167f6ac93e168d031c08e2c22e09c4811299bce823b5980cad4b51805bf8405ec4bf8a8a8686868a604051611d749695949392919061421f565b60405180910390a25091979650505050505050565b6001600160a01b038381166000908152609860209081526040808320938616835292905220546000198114611e155781811015611e085760405162461bcd60e51b815260206004820152601d60248201527f45524332303a20696e73756666696369656e7420616c6c6f77616e63650000006044820152606401610a49565b611e158484848403611a51565b50505050565b6001600160a01b038316611e975760405162461bcd60e51b815260206004820152602560248201527f45524332303a207472616e736665722066726f6d20746865207a65726f20616460448201527f64726573730000000000000000000000000000000000000000000000000000006064820152608401610a49565b6001600160a01b038216611f135760405162461bcd60e51b815260206004820152602360248201527f45524332303a207472616e7366657220746f20746865207a65726f206164647260448201527f65737300000000000000000000000000000000000000000000000000000000006064820152608401610a49565b6001600160a01b03831660009081526097602052604090205481811015611fa25760405162461bcd60e51b815260206004820152602660248201527f45524332303a207472616e7366657220616d6f756e742065786365656473206260448201527f616c616e636500000000000000000000000000000000000000000000000000006064820152608401610a49565b6001600160a01b03808516600090815260976020526040808220858503905591851681529081208054849290611fd9908490613fc9565b92505081905550826001600160a01b0316846001600160a01b03167fddf252ad1be2c89b69c2b068fc378daa952ba7f163c4a11628f55a4df523b3ef8460405161202591815260200190565b60405180910390a3611e15565b6001600160a01b0382166120ad5760405162461bcd60e51b8152602060048201526024808201527f4264763a204e6f6e2d7a65726f20746f6b656e2061646472657373207265717560448201527f69726564000000000000000000000000000000000000000000000000000000006064820152608401610a49565b6040517f8a6a7eb40000000000000000000000000000000000000000000000000000000081523060048201526001600160a01b038316602482015263ffffffff8216604482015260009073c1e088fc1323b20bcbee9bd1b9fc9546db5624c590638a6a7eb4906064016040805180830381865afa158015612132573d6000803e3d6000fd5b505050506040513d601f19601f820116820180604052508101906121569190614342565b506040805160018082528183019092529192506000919060208083019080368337019050509050828160008151811061219157612191613f67565b63ffffffff929092166020928302919091019091015260408051600180825281830190925260009181602001602082028036833701905050905082816000815181106121df576121df613f67565b60200260200101818152505060008073c1e088fc1323b20bcbee9bd1b9fc9546db5624c56001600160a01b0316633b2a1b286004878a60405160200161222793929190614366565b60405160208183030381529060405286866040518463ffffffff1660e01b815260040161225693929190614397565b60a0604051808303816000875af1158015612275573d6000803e3d6000fd5b505050506040513d601f19601f82011682018060405250810190612299919061442c565b9450945050505081816122ac9190614475565b61016360008282546122be9190613fc9565b909155505050505050505050565b60006109bb7f8b73c3c69bb8fe3d512ecc4cf759cc79239f7b179b0ffacaa9a75d522b39400f6122fb60c95490565b60ca546040805160208101859052908101839052606081018290524660808201523060a082015260009060c0016040516020818303038152906040528051906020012090509392505050565b610b3d6124ef565b7f4910fdfa16fed3260ed0e7147f7cc6da11a60208b5b9406d12a635614ffd91435460ff161561238257610cd883612f89565b826001600160a01b03166352d1902d6040518163ffffffff1660e01b8152600401602060405180830381865afa9250505080156123dc575060408051601f3d908101601f191682019092526123d99181019061402b565b60015b61244e5760405162461bcd60e51b815260206004820152602e60248201527f45524331393637557067726164653a206e657720696d706c656d656e7461746960448201527f6f6e206973206e6f7420555550530000000000000000000000000000000000006064820152608401610a49565b7f360894a13ba1a3210667c828492db98dca3e2076cc3735a920a3ca505d382bbc81146124e35760405162461bcd60e51b815260206004820152602960248201527f45524331393637557067726164653a20756e737570706f727465642070726f7860448201527f6961626c655555494400000000000000000000000000000000000000000000006064820152608401610a49565b50610cd8838383613054565b610130546001600160a01b0316331461254a5760405162461bcd60e51b815260206004820181905260248201527f4f776e61626c653a2063616c6c6572206973206e6f7420746865206f776e65726044820152606401610a49565b565b600054610100900460ff166125b75760405162461bcd60e51b815260206004820152602b60248201527f496e697469616c697a61626c653a20636f6e7472616374206973206e6f74206960448201526a6e697469616c697a696e6760a81b6064820152608401610a49565b6110d18282613079565b600054610100900460ff1661262c5760405162461bcd60e51b815260206004820152602b60248201527f496e697469616c697a61626c653a20636f6e7472616374206973206e6f74206960448201526a6e697469616c697a696e6760a81b6064820152608401610a49565b610b3d816040518060400160405280600181526020017f31000000000000000000000000000000000000000000000000000000000000008152506130fd565b600054610100900460ff166126d65760405162461bcd60e51b815260206004820152602b60248201527f496e697469616c697a61626c653a20636f6e7472616374206973206e6f74206960448201526a6e697469616c697a696e6760a81b6064820152608401610a49565b61254a613182565b61013080546001600160a01b0383811673ffffffffffffffffffffffffffffffffffffffff19831681179093556040519116919082907f8be0079c531659141344cd1fd0a4f28419497f9722a3daafe3b4186f6b6457e090600090a35050565b6001600160a01b038116600090815260fd602052604090208054600181018255905b50919050565b60006108296127736122cc565b836040517f19010000000000000000000000000000000000000000000000000000000000006020820152602281018390526042810182905260009060620160405160208183030381529060405280519060200120905092915050565b60008060006127e0878787876131f6565b915091506127ed816132e3565b5095945050505050565b6040517f1c1b877200000000000000000000000000000000000000000000000000000000815230600482015260009081908190819073c1e088fc1323b20bcbee9bd1b9fc9546db5624c590631c1b877290602401600060405180830381600087803b15801561286557600080fd5b505af1158015612879573d6000803e3d6000fd5b505060405163248b5e3960e11b81523060048201526000925073c1e088fc1323b20bcbee9bd1b9fc9546db5624c59150634916bc7290602401602060405180830381865afa1580156128cf573d6000803e3d6000fd5b505050506040513d601f19601f820116820180604052508101906128f3919061402b565b6040516308eeae3160e41b815230600482015290915060009073c1e088fc1323b20bcbee9bd1b9fc9546db5624c590638eeae31090602401602060405180830381865afa158015612948573d6000803e3d6000fd5b505050506040513d601f19601f8201168201806040525081019061296c919061402b565b905060005b88811015612aa05761016260008b8b8481811061299057612990613f67565b90506020028101906129a29190614488565b6129b0906020810190613b5d565b6001600160a01b0316815260208101919091526040016000205460ff16612a195760405162461bcd60e51b815260206004820152601860248201527f546f6b656e206973206e6f742077686974656c697374656400000000000000006044820152606401610a49565b6000612a488b8b84818110612a3057612a30613f67565b9050602002810190612a429190614488565b8a613499565b905060005b8151811015612a8d57818181518110612a6857612a68613f67565b602002602001015188612a7b9190613fc9565b9750612a8681613fb0565b9050612a4d565b505080612a9990613fb0565b9050612971565b5060405163248b5e3960e11b815230600482015260009073c1e088fc1323b20bcbee9bd1b9fc9546db5624c590634916bc7290602401602060405180830381865afa158015612af3573d6000803e3d6000fd5b505050506040513d601f19601f82011682018060405250810190612b17919061402b565b6040516308eeae3160e41b815230600482015290915060009073c1e088fc1323b20bcbee9bd1b9fc9546db5624c590638eeae31090602401602060405180830381865afa158015612b6c573d6000803e3d6000fd5b505050506040513d601f19601f82011682018060405250810190612b90919061402b565b905060008915612bc8578761016354612ba99190613fc9565b9050612bb58483614475565b9650612bc18584614475565b9550612bf2565b8761016354612bd79190614475565b9050612be38285614475565b9650612bef8386614475565b95505b6000612bfd60995490565b905080600003612c1c57612c15886305f5e100613fdc565b9950612d0e565b8a15612c975780612c8d612c7b612c4c670de0b6b3a76400006101635460008861355f909392919063ffffffff16565b612c6187670de0b6b3a76400008b600061355f565b612c7689670de0b6b3a76400008d600061355f565b6135ba565b8390670de0b6b3a7640000600061355f565b612c159190614475565b612d01612cef612cc0670de0b6b3a76400006101635460018761355f909392919063ffffffff16565b612cd586670de0b6b3a76400008a600161355f565b612cea88670de0b6b3a76400008c600161355f565b6135da565b8290670de0b6b3a7640000600161355f565b612d0b9082614475565b99505b816101638190555050505050505093509350935093565b6001600160a01b038216612da15760405162461bcd60e51b815260206004820152602160248201527f45524332303a206275726e2066726f6d20746865207a65726f2061646472657360448201527f73000000000000000000000000000000000000000000000000000000000000006064820152608401610a49565b6001600160a01b03821660009081526097602052604090205481811015612e305760405162461bcd60e51b815260206004820152602260248201527f45524332303a206275726e20616d6f756e7420657863656564732062616c616e60448201527f63650000000000000000000000000000000000000000000000000000000000006064820152608401610a49565b6001600160a01b0383166000908152609760205260408120838303905560998054849290612e5f908490614475565b90915550506040518281526000906001600160a01b038516907fddf252ad1be2c89b69c2b068fc378daa952ba7f163c4a11628f55a4df523b3ef9060200160405180910390a3505050565b6001600160a01b038216612f005760405162461bcd60e51b815260206004820152601f60248201527f45524332303a206d696e7420746f20746865207a65726f2061646472657373006044820152606401610a49565b8060996000828254612f129190613fc9565b90915550506001600160a01b03821660009081526097602052604081208054839290612f3f908490613fc9565b90915550506040518181526001600160a01b038316906000907fddf252ad1be2c89b69c2b068fc378daa952ba7f163c4a11628f55a4df523b3ef9060200160405180910390a35050565b6001600160a01b0381163b6130065760405162461bcd60e51b815260206004820152602d60248201527f455243313936373a206e657720696d706c656d656e746174696f6e206973206e60448201527f6f74206120636f6e7472616374000000000000000000000000000000000000006064820152608401610a49565b7f360894a13ba1a3210667c828492db98dca3e2076cc3735a920a3ca505d382bbc805473ffffffffffffffffffffffffffffffffffffffff19166001600160a01b0392909216919091179055565b61305d836135f2565b60008251118061306a5750805b15610cd857611e158383613632565b600054610100900460ff166130e45760405162461bcd60e51b815260206004820152602b60248201527f496e697469616c697a61626c653a20636f6e7472616374206973206e6f74206960448201526a6e697469616c697a696e6760a81b6064820152608401610a49565b609a6130f083826144f6565b50609b610cd882826144f6565b600054610100900460ff166131685760405162461bcd60e51b815260206004820152602b60248201527f496e697469616c697a61626c653a20636f6e7472616374206973206e6f74206960448201526a6e697469616c697a696e6760a81b6064820152608401610a49565b81516020928301208151919092012060c99190915560ca55565b600054610100900460ff166131ed5760405162461bcd60e51b815260206004820152602b60248201527f496e697469616c697a61626c653a20636f6e7472616374206973206e6f74206960448201526a6e697469616c697a696e6760a81b6064820152608401610a49565b61254a336126de565b6000807f7fffffffffffffffffffffffffffffff5d576e7357a4501ddfe92f46681b20a083111561322d57506000905060036132da565b8460ff16601b1415801561324557508460ff16601c14155b1561325657506000905060046132da565b6040805160008082526020820180845289905260ff881692820192909252606081018690526080810185905260019060a0016020604051602081039080840390855afa1580156132aa573d6000803e3d6000fd5b5050604051601f1901519150506001600160a01b0381166132d3576000600192509250506132da565b9150600090505b94509492505050565b60008160048111156132f7576132f7614132565b036132ff5750565b600181600481111561331357613313614132565b036133605760405162461bcd60e51b815260206004820152601860248201527f45434453413a20696e76616c6964207369676e617475726500000000000000006044820152606401610a49565b600281600481111561337457613374614132565b036133c15760405162461bcd60e51b815260206004820152601f60248201527f45434453413a20696e76616c6964207369676e6174757265206c656e677468006044820152606401610a49565b60038160048111156133d5576133d5614132565b0361342d5760405162461bcd60e51b815260206004820152602260248201527f45434453413a20696e76616c6964207369676e6174757265202773272076616c604482015261756560f01b6064820152608401610a49565b600481600481111561344157613441614132565b03610b3d5760405162461bcd60e51b815260206004820152602260248201527f45434453413a20696e76616c6964207369676e6174757265202776272076616c604482015261756560f01b6064820152608401610a49565b606073c1e088fc1323b20bcbee9bd1b9fc9546db5624c5630d2615b1836134c057306134c2565b335b846134cd57336134cf565b305b6134dc6020880188613b5d565b6134e960208901896145b6565b6134f660408b018b6145b6565b6040518863ffffffff1660e01b81526004016135189796959493929190614600565b6000604051808303816000875af1158015613537573d6000803e3d6000fd5b505050506040513d6000823e601f3d908101601f191682016040526109329190810190614656565b60008061356d868686613734565b9050600183600281111561358357613583614132565b1480156135a057506000848061359b5761359b613ff3565b868809115b1561077a576135b0600182613fc9565b9695505050505050565b60006135c684846137e3565b93506135d284836137e3565b949350505050565b60006135e684846137f9565b93506135d284836137f9565b6135fb81612f89565b6040516001600160a01b038216907fbc7cd75a20ee27fd9adebab32041f755214dbc6bffa90cc0225b39da2e5c2d3b90600090a250565b60606001600160a01b0383163b6136b15760405162461bcd60e51b815260206004820152602660248201527f416464726573733a2064656c65676174652063616c6c20746f206e6f6e2d636f60448201527f6e747261637400000000000000000000000000000000000000000000000000006064820152608401610a49565b600080846001600160a01b0316846040516136cc91906146fc565b600060405180830381855af49150503d8060008114613707576040519150601f19603f3d011682016040523d82523d6000602084013e61370c565b606091505b509150915061077a828260405180606001604052806027815260200161470f60279139613809565b600080806000198587098587029250828110838203039150508060000361376e5783828161376457613764613ff3565b0492505050610932565b80841161377a57600080fd5b60008486880960026001871981018816978890046003810283188082028403028082028403028082028403028082028403028082028403029081029092039091026000889003889004909101858311909403939093029303949094049190911702949350505050565b60008183106137f25781610932565b5090919050565b6000818310156137f25781610932565b60608315613818575081610932565b8251156138285782518084602001fd5b8160405162461bcd60e51b8152600401610a49919061394e565b60008083601f84011261385457600080fd5b50813567ffffffffffffffff81111561386c57600080fd5b6020830191508360208260051b850101111561388757600080fd5b9250929050565b80356004811061389d57600080fd5b919050565b600080600080606085870312156138b857600080fd5b843567ffffffffffffffff8111156138cf57600080fd5b6138db87828801613842565b90955093506138ee90506020860161388e565b9396929550929360400135925050565b60005b83811015613919578181015183820152602001613901565b50506000910152565b6000815180845261393a8160208601602086016138fe565b601f01601f19169290920160200192915050565b6020815260006109326020830184613922565b80356001600160a01b038116811461389d57600080fd5b6000806040838503121561398b57600080fd5b61399483613961565b946020939093013593505050565b80356002811061389d57600080fd5b600080600080606085870312156139c757600080fd5b843567ffffffffffffffff8111156139de57600080fd5b6139ea87828801613842565b90955093506138ee9050602086016139a2565b803560ff8116811461389d57600080fd5b6000806000806000806000806000806101208b8d031215613a2e57600080fd5b8a3567ffffffffffffffff811115613a4557600080fd5b613a518d828e01613842565b909b509950613a64905060208c0161388e565b975060408b01359650613a7960608c01613961565b955060808b0135945060a08b01359350613a9560c08c016139fd565b925060e08b013591506101008b013590509295989b9194979a5092959850565b600080600060608486031215613aca57600080fd5b613ad384613961565b9250613ae160208501613961565b9150604084013590509250925092565b60008060008060408587031215613b0757600080fd5b843567ffffffffffffffff80821115613b1f57600080fd5b613b2b88838901613842565b90965094506020870135915080821115613b4457600080fd5b50613b5187828801613842565b95989497509550505050565b600060208284031215613b6f57600080fd5b61093282613961565b60008083601f840112613b8a57600080fd5b50813567ffffffffffffffff811115613ba257600080fd5b60208301915083602082850101111561388757600080fd5b60008060008060408587031215613bd057600080fd5b843567ffffffffffffffff80821115613be857600080fd5b613bf488838901613b78565b90965094506020870135915080821115613c0d57600080fd5b50613b5187828801613b78565b634e487b7160e01b600052604160045260246000fd5b604051601f8201601f1916810167ffffffffffffffff81118282101715613c5957613c59613c1a565b604052919050565b60008060408385031215613c7457600080fd5b613c7d83613961565b915060208084013567ffffffffffffffff80821115613c9b57600080fd5b818601915086601f830112613caf57600080fd5b813581811115613cc157613cc1613c1a565b613cd3601f8201601f19168501613c30565b91508082528784828501011115613ce957600080fd5b80848401858401376000848284010152508093505050509250929050565b6000806000806000806000806000806101208b8d031215613d2757600080fd5b8a3567ffffffffffffffff811115613d3e57600080fd5b613d4a8d828e01613842565b909b509950613a64905060208c016139a2565b63ffffffff81168114610b3d57600080fd5b60008060408385031215613d8257600080fd5b613d8b83613961565b91506020830135613d9b81613d5d565b809150509250929050565b600080600080600080600060e0888a031215613dc157600080fd5b613dca88613961565b9650613dd860208901613961565b95506040880135945060608801359350613df4608089016139fd565b925060a0880135915060c0880135905092959891949750929550565b60008060408385031215613e2357600080fd5b613e2c83613961565b9150613e3a60208401613961565b90509250929050565b6000806000806000806000806000806000806101208d8f031215613e6657600080fd5b67ffffffffffffffff8d351115613e7c57600080fd5b613e898e8e358f01613842565b909c509a50613e9a60208e016139a2565b995060408d0135985067ffffffffffffffff60608e01351115613ebc57600080fd5b613ecc8e60608f01358f01613842565b909850965067ffffffffffffffff60808e01351115613eea57600080fd5b613efa8e60808f01358f01613842565b909650945060a08d01359350613f1260c08e016139fd565b925060e08d013591506101008d013590509295989b509295989b509295989b565b600181811c90821680613f4757607f821691505b60208210810361276057634e487b7160e01b600052602260045260246000fd5b634e487b7160e01b600052603260045260246000fd5b600060208284031215613f8f57600080fd5b813561093281613d5d565b634e487b7160e01b600052601160045260246000fd5b600060018201613fc257613fc2613f9a565b5060010190565b8082018082111561082957610829613f9a565b808202811582820484141761082957610829613f9a565b634e487b7160e01b600052601260045260246000fd5b60008261402657634e487b7160e01b600052601260045260246000fd5b500490565b60006020828403121561403d57600080fd5b5051919050565b81835260007f07ffffffffffffffffffffffffffffffffffffffffffffffffffffffffffffff83111561407657600080fd5b8260051b80836020870137939093016020019392505050565b60006101008083016001600160a01b03808f1685526020818f16818701528360408701528293508c8352610120860193508d925060005b8d8110156140eb57826140d885613961565b16855293810193928101926001016140c6565b50505050828103606084015261410281898b614044565b91505085608083015261411a60a083018660ff169052565b60c082019390935260e0015298975050505050505050565b634e487b7160e01b600052602160045260246000fd5b6002811061415857614158614132565b9052565b6001600160a01b0386811682528581166020830152841660408201526060810183905260a081016135b06080830184614148565b6000808335601e198436030181126141a757600080fd5b830160208101925035905067ffffffffffffffff8111156141c757600080fd5b8060051b360382131561388757600080fd5b8183526000602080850194508260005b858110156142145781356141fc81613d5d565b63ffffffff16875295820195908201906001016141e9565b509495945050505050565b60a08082528101869052600060c0600588901b830181019083018983805b8b8110156142d75786850360bf190184528235368e9003605e19018112614262578283fd5b8d0160606001600160a01b0361427783613961565b168752602061428881840184614190565b83838b015261429a848b0182846141d9565b9350505060406142ac81850185614190565b9450898403828b01526142c0848683614044565b99505050958601959490940193505060010161423d565b505050506020830196909652506040810193909352606083019190915260809091015292915050565b6001600160a01b038681168252851660208201526040810184905260a081016004841061432f5761432f614132565b8360608301526135b06080830184614148565b6000806040838503121561435557600080fd5b505080516020909101519092909150565b606081016005851061437a5761437a614132565b93815260208101929092526001600160a01b031660409091015290565b6060815260006143aa6060830186613922565b82810360208481019190915285518083528682019282019060005b818110156143e757845163ffffffff16835293830193918301916001016143c5565b50508481036040860152855180825290820192508186019060005b8181101561441e57825185529383019391830191600101614402565b509298975050505050505050565b600080600080600060a0868803121561444457600080fd5b855161444f81613d5d565b602087015160408801516060890151608090990151929a91995097965090945092505050565b8181038181111561082957610829613f9a565b60008235605e1983360301811261449e57600080fd5b9190910192915050565b601f821115610cd857600081815260208120601f850160051c810160208610156144cf5750805b601f850160051c820191505b818110156144ee578281556001016144db565b505050505050565b815167ffffffffffffffff81111561451057614510613c1a565b6145248161451e8454613f33565b846144a8565b602080601f83116001811461455957600084156145415750858301515b600019600386901b1c1916600185901b1785556144ee565b600085815260208120601f198616915b8281101561458857888601518255948401946001909101908401614569565b50858210156145a65787850151600019600388901b60f8161c191681555b5050505050600190811b01905550565b6000808335601e198436030181126145cd57600080fd5b83018035915067ffffffffffffffff8211156145e857600080fd5b6020019150600581901b360382131561388757600080fd5b60006001600160a01b03808a168352808916602084015280881660408401525060a0606083015261463560a0830186886141d9565b8281036080840152614648818587614044565b9a9950505050505050505050565b6000602080838503121561466957600080fd5b825167ffffffffffffffff8082111561468157600080fd5b818501915085601f83011261469557600080fd5b8151818111156146a7576146a7613c1a565b8060051b91506146b8848301613c30565b81815291830184019184810190888411156146d257600080fd5b938501935b838510156146f0578451825293850193908501906146d7565b98975050505050505050565b6000825161449e8184602087016138fe56fe416464726573733a206c6f772d6c6576656c2064656c65676174652063616c6c206661696c6564a26469706673582212207c78284ef8da75148c693ed47c7e9c47f037274f4a17b731ef2e56fde27e75e264736f6c63430008110033",
  "linkReferences": {},
  "deployedLinkReferences": {}
}