{
  "_format": "hh-sol-artifact-1",
  "contractName": "UnwrapAndSendETH",
  "sourceName": "contracts/pipeline/junctions/UnwrapAndSendETH.sol",
  "abi": [
    {
      "inputs": [
        {
          "internalType": "address",
          "name": "wethAddress",
          "type": "address"
        }
      ],
      "stateMutability": "nonpayable",
      "type": "constructor"
    },
    {
      "inputs": [],
      "name": "WETH",
      "outputs": [
        {
          "internalType": "address",
          "name": "",
          "type": "address"
        }
      ],
      "stateMutability": "view",
      "type": "function"
    },
    {
      "inputs": [
        {
          "internalType": "address",
          "name": "to",
          "type": "address"
        }
      ],
      "name": "unwrapAndSendETH",
      "outputs": [],
      "stateMutability": "nonpayable",
      "type": "function"
    },
    {
      "stateMutability": "payable",
      "type": "receive"
    }
  ],
  "bytecode": "0x60a0604052348015600f57600080fd5b506040516103f43803806103f4833981016040819052602c91603c565b6001600160a01b0316608052606a565b600060208284031215604d57600080fd5b81516001600160a01b0381168114606357600080fd5b9392505050565b60805161036361009160003960008181604b0152818160c3015261019901526103636000f3fe60806040526004361061002d5760003560e01c8063ad5c464814610039578063e89632c21461008957600080fd5b3661003457005b600080fd5b34801561004557600080fd5b5061006d7f000000000000000000000000000000000000000000000000000000000000000081565b6040516001600160a01b03909116815260200160405180910390f35b34801561009557600080fd5b506100a96100a43660046102b5565b6100ab565b005b6040516370a0823160e01b81523060048201526000907f00000000000000000000000000000000000000000000000000000000000000006001600160a01b0316906370a08231906024016020604051808303816000875af1158015610114573d6000803e3d6000fd5b505050506040513d601f19601f8201168201806040525081019061013891906102e5565b9050600081116101835760405162461bcd60e51b8152602060048201526011602482015270092dce6eaccccd2c6d2cadce840ae8aa89607b1b60448201526064015b60405180910390fd5b604051632e1a7d4d60e01b8152600481018290527f00000000000000000000000000000000000000000000000000000000000000006001600160a01b031690632e1a7d4d90602401600060405180830381600087803b1580156101e557600080fd5b505af11580156101f9573d6000803e3d6000fd5b5050604080516000808252602082019283905293506001600160a01b0386169250479161022691906102fe565b60006040518083038185875af1925050503d8060008114610263576040519150601f19603f3d011682016040523d82523d6000602084013e610268565b606091505b50509050806102b05760405162461bcd60e51b815260206004820152601460248201527322ba34103a3930b739b332b9102330b4b632b21760611b604482015260640161017a565b505050565b6000602082840312156102c757600080fd5b81356001600160a01b03811681146102de57600080fd5b9392505050565b6000602082840312156102f757600080fd5b5051919050565b6000825160005b8181101561031f5760208186018101518583015201610305565b50600092019182525091905056fea264697066735822122065a5af452ff2f1da8cb767d6537017010c6e0690e8e04f61415a5d69fa84065864736f6c63430008190033",
  "linkReferences": {},
  "deployedLinkReferences": {}
}