{
  "abi": [
    {
      "inputs": [],
      "stateMutability": "nonpayable",
      "type": "constructor"
    },
    {
      "anonymous": false,
      "inputs": [
        {
          "indexed": false,
          "internalType": "address",
          "name": "well",
          "type": "address"
        },
        {
          "indexed": false,
          "internalType": "contract IERC20[]",
          "name": "tokens",
          "type": "address[]"
        },
        {
          "components": [
            {
              "internalType": "address",
              "name": "target",
              "type": "address"
            },
            {
              "internalType": "bytes",
              "name": "data",
              "type": "bytes"
            }
          ],
          "indexed": false,
          "internalType": "struct Call",
          "name": "wellFunction",
          "type": "tuple"
        },
        {
          "components": [
            {
              "internalType": "address",
              "name": "target",
              "type": "address"
            },
            {
              "internalType": "bytes",
              "name": "data",
              "type": "bytes"
            }
          ],
          "indexed": false,
          "internalType": "struct Call[]",
          "name": "pumps",
          "type": "tuple[]"
        },
        {
          "indexed": false,
          "internalType": "address",
          "name": "auger",
          "type": "address"
        }
      ],
      "name": "BoreWell",
      "type": "event"
    },
    {
      "inputs": [
        {
          "internalType": "contract IERC20[]",
          "name": "tokens",
          "type": "address[]"
        },
        {
          "components": [
            {
              "internalType": "address",
              "name": "target",
              "type": "address"
            },
            {
              "internalType": "bytes",
              "name": "data",
              "type": "bytes"
            }
          ],
          "internalType": "struct Call",
          "name": "wellFunction",
          "type": "tuple"
        },
        {
          "components": [
            {
              "internalType": "address",
              "name": "target",
              "type": "address"
            },
            {
              "internalType": "bytes",
              "name": "data",
              "type": "bytes"
            }
          ],
          "internalType": "struct Call[]",
          "name": "pumps",
          "type": "tuple[]"
        },
        {
          "internalType": "contract IAuger",
          "name": "auger",
          "type": "address"
        }
      ],
      "name": "boreWell",
      "outputs": [
        {
          "internalType": "address",
          "name": "well",
          "type": "address"
        }
      ],
      "stateMutability": "nonpayable",
      "type": "function"
    },
    {
      "inputs": [
        {
          "internalType": "contract IERC20",
          "name": "token0",
          "type": "address"
        },
        {
          "internalType": "contract IERC20",
          "name": "token1",
          "type": "address"
        },
        {
          "internalType": "uint256",
          "name": "i",
          "type": "uint256"
        }
      ],
      "name": "getWellBy2Tokens",
      "outputs": [
        {
          "internalType": "address",
          "name": "well",
          "type": "address"
        }
      ],
      "stateMutability": "view",
      "type": "function"
    },
    {
      "inputs": [
        {
          "internalType": "uint256",
          "name": "index",
          "type": "uint256"
        }
      ],
      "name": "getWellByIndex",
      "outputs": [
        {
          "internalType": "address",
          "name": "well",
          "type": "address"
        }
      ],
      "stateMutability": "view",
      "type": "function"
    },
    {
      "inputs": [
        {
          "internalType": "contract IERC20[]",
          "name": "tokens",
          "type": "address[]"
        },
        {
          "internalType": "uint256",
          "name": "i",
          "type": "uint256"
        }
      ],
      "name": "getWellByNTokens",
      "outputs": [
        {
          "internalType": "address",
          "name": "well",
          "type": "address"
        }
      ],
      "stateMutability": "view",
      "type": "function"
    },
    {
      "inputs": [
        {
          "internalType": "contract IERC20",
          "name": "token0",
          "type": "address"
        },
        {
          "internalType": "contract IERC20",
          "name": "token1",
          "type": "address"
        }
      ],
      "name": "getWellsBy2Tokens",
      "outputs": [
        {
          "internalType": "address[]",
          "name": "wells",
          "type": "address[]"
        }
      ],
      "stateMutability": "view",
      "type": "function"
    },
    {
      "inputs": [
        {
          "internalType": "contract IERC20[]",
          "name": "tokens",
          "type": "address[]"
        }
      ],
      "name": "getWellsByNTokens",
      "outputs": [
        {
          "internalType": "address[]",
          "name": "wells",
          "type": "address[]"
        }
      ],
      "stateMutability": "view",
      "type": "function"
    },
    {
      "inputs": [],
      "name": "numberOfWells",
      "outputs": [
        {
          "internalType": "uint256",
          "name": "",
          "type": "uint256"
        }
      ],
      "stateMutability": "view",
      "type": "function"
    }
  ],
  "bytecode": {
    "object": "0x608060405234801561001057600080fd5b5060016000556111f5806100256000396000f3fe608060405234801561001057600080fd5b506004361061007d5760003560e01c80638fa8946d1161005b5780638fa8946d146100e9578063a66faeae146100fc578063abc014e914610125578063f6c583d51461013857600080fd5b806305a09b44146100825780631188e0b6146100b257806363434ab6146100c9575b600080fd5b610095610090366004610a91565b61014b565b6040516001600160a01b0390911681526020015b60405180910390f35b6100bb60015481565b6040519081526020016100a9565b6100dc6100d7366004610b40565b61053a565b6040516100a99190610b82565b6100956100f7366004610bcf565b61063c565b61009561010a366004610c1b565b6000908152600260205260409020546001600160a01b031690565b6100dc610133366004610c34565b6106d4565b610095610146366004610c6d565b610702565b600061015561070e565b60005b610163600188610cc4565b811015610238578787610177836001610cd7565b81811061018657610186610cea565b905060200201602081019061019b9190610d00565b6001600160a01b03168888838181106101b6576101b6610cea565b90506020020160208101906101cb9190610d00565b6001600160a01b0316106102265760405162461bcd60e51b815260206004820181905260248201527f4c696257656c6c3a20546f6b656e73206e6f7420616c7068616265746963616c60448201526064015b60405180910390fd5b8061023081610d1d565b915050610158565b5060006102486020870187610d00565b905060006102858989600081811061026257610262610cea565b90506020020160208101906102779190610d00565b6001600160a01b0316610767565b90508060015b8981101561031457826102a98c8c8481811061026257610262610cea565b6040516020016102ba929190610d5a565b6040516020818303038152906040529250816102e18c8c8481811061026257610262610cea565b6040516020016102f2929190610d96565b60405160208183030381529060405291508061030d90610d1d565b905061028b565b5081836001600160a01b03166306fdde036040518163ffffffff1660e01b8152600401600060405180830381865afa158015610354573d6000803e3d6000fd5b505050506040513d6000823e601f3d908101601f1916820160405261037c9190810190610ddb565b60405160200161038d929190610e88565b604051602081830303815290604052915080836001600160a01b03166395d89b416040518163ffffffff1660e01b8152600401600060405180830381865afa1580156103dd573d6000803e3d6000fd5b505050506040513d6000823e601f3d908101601f191682016040526104059190810190610ddb565b604051602001610416929190610eee565b60408051601f19818403018152908290526313ab281d60e21b825291506001600160a01b03861690634eaca0749061045e90859085908f908f908f908f908f90600401611096565b6020604051808303816000875af115801561047d573d6000803e3d6000fd5b505050506040513d601f19601f820116820180604052508101906104a19190611107565b93506104e0848b8b8080602002602001604051908101604052809392919081815260200183836020028082843760009201919091525061085492505050565b7fa84bf29a0749f04e48e2d668ae341afa17b704babf935f5cee419cb2b60c9f78848b8b8b8b8b8b60405161051b9796959493929190611124565b60405180910390a15050506105306001600055565b9695505050505050565b6060600282900361059f576105988383600081811061055b5761055b610cea565b90506020020160208101906105709190610d00565b8484600181811061058357610583610cea565b90506020020160208101906101339190610d00565b9050610636565b6004600084846040516020016105b6929190611187565b60405160208183030381529060405280519060200120815260200190815260200160002080548060200260200160405190810160405280929190818152602001828054801561062e57602002820191906000526020600020905b81546001600160a01b03168152600190910190602001808311610610575b505050505090505b92915050565b600060028390036106a7576106a08484600081811061065d5761065d610cea565b90506020020160208101906106729190610d00565b8585600181811061068557610685610cea565b905060200201602081019061069a9190610d00565b84610702565b90506106cd565b6106b1848461053a565b82815181106106c2576106c2610cea565b602002602001015190505b9392505050565b60606003600084846040516020016105b69291906001600160a01b0392831681529116602082015260400190565b60006106b184846106d4565b6002600054036107605760405162461bcd60e51b815260206004820152601f60248201527f5265656e7472616e637947756172643a207265656e7472616e742063616c6c00604482015260640161021d565b6002600055565b60408051600481526024810182526020810180517bffffffffffffffffffffffffffffffffffffffffffffffffffffffff166395d89b4160e01b179052905160609160009182916001600160a01b038616916107c391906111a3565b600060405180830381855afa9150503d80600081146107fe576040519150601f19603f3d011682016040523d82523d6000602084013e610803565b606091505b50604080516004808252818301909252929450909250602082018180368337019050509250811561084957808060200190518101906108429190610ddb565b925061084d565b8392505b5050919050565b600180546000908152600260205260408120805473ffffffffffffffffffffffffffffffffffffffff19166001600160a01b0386161790558154919061089983610d1d565b919050555060005b600182516108af9190610cc4565b8110156109ab5760006108c3826001610cd7565b90505b825181101561099a57600360008484815181106108e5576108e5610cea565b60200260200101518584815181106108ff576108ff610cea565b602002602001015160405160200161092d9291906001600160a01b0392831681529116602082015260400190565b60408051808303601f19018152918152815160209283012083528282019390935291016000908120805460018101825590825291902001805473ffffffffffffffffffffffffffffffffffffffff19166001600160a01b03861617905561099381610d1d565b90506108c6565b506109a481610d1d565b90506108a1565b50600281511115610a295760046000826040516020016109cb9190610b82565b60408051808303601f19018152918152815160209283012083528282019390935291016000908120805460018101825590825291902001805473ffffffffffffffffffffffffffffffffffffffff19166001600160a01b0384161790555b5050565b60008083601f840112610a3f57600080fd5b50813567ffffffffffffffff811115610a5757600080fd5b6020830191508360208260051b8501011115610a7257600080fd5b9250929050565b6001600160a01b0381168114610a8e57600080fd5b50565b60008060008060008060808789031215610aaa57600080fd5b863567ffffffffffffffff80821115610ac257600080fd5b610ace8a838b01610a2d565b90985096506020890135915080821115610ae757600080fd5b908801906040828b031215610afb57600080fd5b90945060408801359080821115610b1157600080fd5b50610b1e89828a01610a2d565b9094509250506060870135610b3281610a79565b809150509295509295509295565b60008060208385031215610b5357600080fd5b823567ffffffffffffffff811115610b6a57600080fd5b610b7685828601610a2d565b90969095509350505050565b6020808252825182820181905260009190848201906040850190845b81811015610bc35783516001600160a01b031683529284019291840191600101610b9e565b50909695505050505050565b600080600060408486031215610be457600080fd5b833567ffffffffffffffff811115610bfb57600080fd5b610c0786828701610a2d565b909790965060209590950135949350505050565b600060208284031215610c2d57600080fd5b5035919050565b60008060408385031215610c4757600080fd5b8235610c5281610a79565b91506020830135610c6281610a79565b809150509250929050565b600080600060608486031215610c8257600080fd5b8335610c8d81610a79565b92506020840135610c9d81610a79565b929592945050506040919091013590565b634e487b7160e01b600052601160045260246000fd5b8181038181111561063657610636610cae565b8082018082111561063657610636610cae565b634e487b7160e01b600052603260045260246000fd5b600060208284031215610d1257600080fd5b81356106cd81610a79565b600060018201610d2f57610d2f610cae565b5060010190565b60005b83811015610d51578181015183820152602001610d39565b50506000910152565b60008351610d6c818460208801610d36565b601d60f91b9083019081528351610d8a816001840160208801610d36565b01600101949350505050565b60008351610da8818460208801610d36565b835190830190610dbc818360208801610d36565b01949350505050565b634e487b7160e01b600052604160045260246000fd5b600060208284031215610ded57600080fd5b815167ffffffffffffffff80821115610e0557600080fd5b818401915084601f830112610e1957600080fd5b815181811115610e2b57610e2b610dc5565b604051601f8201601f19908116603f01168101908382118183101715610e5357610e53610dc5565b81604052828152876020848701011115610e6c57600080fd5b610e7d836020830160208801610d36565b979650505050505050565b60008351610e9a818460208801610d36565b600160fd1b9083019081528351610eb8816001840160208801610d36565b7f2057656c6c00000000000000000000000000000000000000000000000000000060019290910191820152600601949350505050565b60008351610f00818460208801610d36565b835190830190610f14818360208801610d36565b607760f81b9101908152600101949350505050565b60008151808452610f41816020860160208601610d36565b601f01601f19169290920160200192915050565b8183526000602080850194508260005b85811015610f93578135610f7881610a79565b6001600160a01b031687529582019590820190600101610f65565b509495945050505050565b60008135610fab81610a79565b6001600160a01b03168352602082013536839003601e19018112610fce57600080fd5b820160208101903567ffffffffffffffff811115610feb57600080fd5b803603821315610ffa57600080fd5b60406020860152806040860152808260608701376000606082870101526060601f19601f8301168601019250505092915050565b81835260006020808501808196508560051b81019150846000805b88811015611088578385038a528235603e19893603018112611069578283fd5b611075868a8301610f9e565b9a87019a95505091850191600101611049565b509298975050505050505050565b60a0815260006110a960a083018a610f29565b82810360208401526110bb818a610f29565b905082810360408401526110d081888a610f55565b905082810360608401526110e48187610f9e565b905082810360808401526110f981858761102e565b9a9950505050505050505050565b60006020828403121561111957600080fd5b81516106cd81610a79565b60006001600160a01b03808a16835260a0602084015261114860a08401898b610f55565b838103604085015261115a8189610f9e565b9050838103606085015261116f81878961102e565b92505080841660808401525098975050505050505050565b60208152600061119b602083018486610f55565b949350505050565b600082516111b5818460208701610d36565b919091019291505056fea264697066735822122040c3ccdb53face06527e3e72c2ebd90f79730f30bef6302ad92604b1aa42f32164736f6c63430008110033",
    "linkReferences": {}
  },
  "methodIdentifiers": {
    "boreWell(address[],(address,bytes),(address,bytes)[],address)": "05a09b44",
    "getWellBy2Tokens(address,address,uint256)": "f6c583d5",
    "getWellByIndex(uint256)": "a66faeae",
    "getWellByNTokens(address[],uint256)": "8fa8946d",
    "getWellsBy2Tokens(address,address)": "abc014e9",
    "getWellsByNTokens(address[])": "63434ab6",
    "numberOfWells()": "1188e0b6"
  },
  "id": 42
}