{
  "abi": [
    {
      "inputs": [],
      "stateMutability": "nonpayable",
      "type": "constructor"
    },
    {
      "anonymous": false,
      "inputs": [
        {
          "indexed": false,
          "internalType": "address",
          "name": "well",
          "type": "address"
        },
        {
          "indexed": false,
          "internalType": "address",
          "name": "implementation",
          "type": "address"
        },
        {
          "indexed": false,
          "internalType": "contract IERC20[]",
          "name": "tokens",
          "type": "address[]"
        },
        {
          "components": [
            {
              "internalType": "address",
              "name": "target",
              "type": "address"
            },
            {
              "internalType": "bytes",
              "name": "data",
              "type": "bytes"
            }
          ],
          "indexed": false,
          "internalType": "struct Call",
          "name": "wellFunction",
          "type": "tuple"
        },
        {
          "components": [
            {
              "internalType": "address",
              "name": "target",
              "type": "address"
            },
            {
              "internalType": "bytes",
              "name": "data",
              "type": "bytes"
            }
          ],
          "indexed": false,
          "internalType": "struct Call[]",
          "name": "pumps",
          "type": "tuple[]"
        },
        {
          "indexed": false,
          "internalType": "bytes",
          "name": "wellData",
          "type": "bytes"
        }
      ],
      "name": "BoreWell",
      "type": "event"
    },
    {
      "inputs": [
        {
          "internalType": "address",
          "name": "implementation",
          "type": "address"
        },
        {
          "internalType": "bytes",
          "name": "immutableData",
          "type": "bytes"
        },
        {
          "internalType": "bytes",
          "name": "initFunctionCall",
          "type": "bytes"
        },
        {
          "internalType": "bytes32",
          "name": "salt",
          "type": "bytes32"
        }
      ],
      "name": "boreWell",
      "outputs": [
        {
          "internalType": "address",
          "name": "well",
          "type": "address"
        }
      ],
      "stateMutability": "nonpayable",
      "type": "function"
    },
    {
      "inputs": [
        {
          "internalType": "address",
          "name": "well",
          "type": "address"
        }
      ],
      "name": "wellImplementation",
      "outputs": [
        {
          "internalType": "address",
          "name": "implementation",
          "type": "address"
        }
      ],
      "stateMutability": "view",
      "type": "function"
    }
  ],
  "bytecode": {
    "object": "0x608060405234801561001057600080fd5b506001600055610e0b806100256000396000f3fe608060405234801561001057600080fd5b50600436106100365760003560e01c806317ab48061461003b5780637d48af8e14610083575b600080fd5b6100676100493660046107a0565b6001600160a01b039081166000908152600160205260409020541690565b6040516001600160a01b03909116815260200160405180910390f35b61006761009136600461080d565b600061009b6104b7565b84156101435781156100f9576100f286868080601f01602080910402602001604051908101604052809392919081815260200183838082843760009201919091525050506001600160a01b038a1691905084610510565b9050610171565b6100f286868080601f016020809104026020016040519081016040528093929190818152602001838380828437600092019190915250506001600160a01b038b16929150506105f7565b811561015c576100f26001600160a01b038816836106dc565b61016e876001600160a01b0316610733565b90505b821561028a57600080826001600160a01b03168686604051610194929190610898565b6000604051808303816000865af19150503d80600081146101d1576040519150601f19603f3d011682016040523d82523d6000602084013e6101d6565b606091505b509150915081610287576044815110156102375760405162461bcd60e51b815260206004820152601260248201527f417175696665723a2077656c6c20696e6974000000000000000000000000000060448201526064015b60405180910390fd5b600481019050808060200190518101906102519190610962565b60405160200161026191906109b3565b60408051601f198184030181529082905262461bcd60e51b825261022e91600401610a2f565b50505b6001600160a01b0381811660008181526001602052604080822080547fffffffffffffffffffffffff000000000000000000000000000000000000000016948c16949094179093558251634eb1c24560e11b815292517fff64a5823907c85a1e7c0400576024f76bd1640c74350033bd0d689f793202f29385938c939092639d63848a9260048082019392918290030181865afa15801561032f573d6000803e3d6000fd5b505050506040513d6000823e601f3d908101601f191682016040526103579190810190610a66565b846001600160a01b03166310dd08306040518163ffffffff1660e01b8152600401600060405180830381865afa158015610395573d6000803e3d6000fd5b505050506040513d6000823e601f3d908101601f191682016040526103bd9190810190610b9f565b856001600160a01b031663a1d89d966040518163ffffffff1660e01b8152600401600060405180830381865afa1580156103fb573d6000803e3d6000fd5b505050506040513d6000823e601f3d908101601f191682016040526104239190810190610bd4565b866001600160a01b031663c12323c96040518163ffffffff1660e01b8152600401600060405180830381865afa158015610461573d6000803e3d6000fd5b505050506040513d6000823e601f3d908101601f191682016040526104899190810190610c85565b60405161049b96959493929190610d34565b60405180910390a16104ad6001600055565b9695505050505050565b6002600054036105095760405162461bcd60e51b815260206004820152601f60248201527f5265656e7472616e637947756172643a207265656e7472616e742063616c6c00604482015260640161022e565b6002600055565b600060608303516040840351602085035185518060208801018051600283016c5af43d3d93803e606057fd5bf38a528a600d8b035278593da1005b363d3d373d3d3d3d610000806062363936013d738160481b1760218b03527f9e4ac34f21c619cefc926c8bd93b54bf5a39c7ab2127a895af1cc0691d7e3dff603a8b0352716100003d81600a3d39f336602c57343d527f6062820160781b17605a8b03528060f01b835288606c8201604c8c036000f5975050866105d75763301164256000526004601cfd5b90528652601f19860152603f19850152605f199093019290925250919050565b600060608203516040830351602084035184518060208701018051600283016c5af43d3d93803e606057fd5bf3895289600d8a035278593da1005b363d3d373d3d3d3d610000806062363936013d738160481b1760218a03527f9e4ac34f21c619cefc926c8bd93b54bf5a39c7ab2127a895af1cc0691d7e3dff603a8a0352716100003d81600a3d39f336602c57343d527f6062820160781b17605a8a03528060f01b8352606c8101604c8a036000f0975050866106bd5763301164256000526004601cfd5b90528552601f19850152603f19840152605f1990920191909152919050565b60006c5af43d3d93803e602a57fd5bf36021528260145273602c3d8160093d39f33d3d3d3d363d3d37363d73600052816035600c6000f5905060006021528061072d5763301164256000526004601cfd5b92915050565b60006c5af43d3d93803e602a57fd5bf36021528160145273602c3d8160093d39f33d3d3d3d363d3d37363d736000526035600c6000f090506000602152806107835763301164256000526004601cfd5b919050565b6001600160a01b038116811461079d57600080fd5b50565b6000602082840312156107b257600080fd5b81356107bd81610788565b9392505050565b60008083601f8401126107d657600080fd5b50813567ffffffffffffffff8111156107ee57600080fd5b60208301915083602082850101111561080657600080fd5b9250929050565b6000806000806000806080878903121561082657600080fd5b863561083181610788565b9550602087013567ffffffffffffffff8082111561084e57600080fd5b61085a8a838b016107c4565b9097509550604089013591508082111561087357600080fd5b5061088089828a016107c4565b979a9699509497949695606090950135949350505050565b8183823760009101908152919050565b634e487b7160e01b600052604160045260246000fd5b604051601f8201601f1916810167ffffffffffffffff811182821017156108e7576108e76108a8565b604052919050565b60005b8381101561090a5781810151838201526020016108f2565b50506000910152565b600067ffffffffffffffff83111561092d5761092d6108a8565b610940601f8401601f19166020016108be565b905082815283838301111561095457600080fd5b6107bd8360208301846108ef565b60006020828403121561097457600080fd5b815167ffffffffffffffff81111561098b57600080fd5b8201601f8101841361099c57600080fd5b6109ab84825160208401610913565b949350505050565b7f417175696665723a2057656c6c20496e697420280000000000000000000000008152600082516109eb8160148501602087016108ef565b602960f81b6014939091019283015250601501919050565b60008151808452610a1b8160208601602086016108ef565b601f01601f19169290920160200192915050565b6020815260006107bd6020830184610a03565b600067ffffffffffffffff821115610a5c57610a5c6108a8565b5060051b60200190565b60006020808385031215610a7957600080fd5b825167ffffffffffffffff811115610a9057600080fd5b8301601f81018513610aa157600080fd5b8051610ab4610aaf82610a42565b6108be565b81815260059190911b82018301908381019087831115610ad357600080fd5b928401925b82841015610afa578351610aeb81610788565b82529284019290840190610ad8565b979650505050505050565b600082601f830112610b1657600080fd5b6107bd83835160208501610913565b600060408284031215610b3757600080fd5b6040516040810167ffffffffffffffff8282108183111715610b5b57610b5b6108a8565b8160405282935084519150610b6f82610788565b90825260208401519080821115610b8557600080fd5b50610b9285828601610b05565b6020830152505092915050565b600060208284031215610bb157600080fd5b815167ffffffffffffffff811115610bc857600080fd5b6109ab84828501610b25565b60006020808385031215610be757600080fd5b825167ffffffffffffffff80821115610bff57600080fd5b818501915085601f830112610c1357600080fd5b8151610c21610aaf82610a42565b81815260059190911b83018401908481019088831115610c4057600080fd5b8585015b83811015610c7857805185811115610c5c5760008081fd5b610c6a8b89838a0101610b25565b845250918601918601610c44565b5098975050505050505050565b600060208284031215610c9757600080fd5b815167ffffffffffffffff811115610cae57600080fd5b6109ab84828501610b05565b6001600160a01b03815116825260006020820151604060208501526109ab6040850182610a03565b6000815180845260208085019450848260051b860182860160005b85811015610d27578383038952610d15838351610cba565b98850198925090840190600101610cfd565b5090979650505050505050565b600060c082016001600160a01b03808a1684526020818a168186015260c0604086015282895180855260e087019150828b01945060005b81811015610d89578551851683529483019491830191600101610d6b565b50508581036060870152610d9d818a610cba565b93505050508281036080840152610db48186610ce2565b905082810360a0840152610dc88185610a03565b999850505050505050505056fea26469706673582212201dec1d166f99d44cd0e4d279e34ff38f48eaa7185ff58c99ceac953772e70ab264736f6c63430008110033",
    "linkReferences": {}
  },
  "methodIdentifiers": {
    "boreWell(address,bytes,bytes,bytes32)": "7d48af8e",
    "wellImplementation(address)": "17ab4806"
  },
  "id": 62
}