{
  "abi": [
    {
      "inputs": [
        {
          "internalType": "uint256[]",
          "name": "reserves",
          "type": "uint256[]"
        },
        {
          "internalType": "bytes",
          "name": "",
          "type": "bytes"
        }
      ],
      "name": "calcLpTokenSupply",
      "outputs": [
        {
          "internalType": "uint256",
          "name": "lpTokenSupply",
          "type": "uint256"
        }
      ],
      "stateMutability": "pure",
      "type": "function"
    },
    {
      "inputs": [
        {
          "internalType": "uint256[]",
          "name": "reserves",
          "type": "uint256[]"
        },
        {
          "internalType": "uint256",
          "name": "j",
          "type": "uint256"
        },
        {
          "internalType": "uint256",
          "name": "lpTokenSupply",
          "type": "uint256"
        },
        {
          "internalType": "bytes",
          "name": "",
          "type": "bytes"
        }
      ],
      "name": "calcReserve",
      "outputs": [
        {
          "internalType": "uint256",
          "name": "reserve",
          "type": "uint256"
        }
      ],
      "stateMutability": "pure",
      "type": "function"
    },
    {
      "inputs": [],
      "name": "name",
      "outputs": [
        {
          "internalType": "string",
          "name": "",
          "type": "string"
        }
      ],
      "stateMutability": "pure",
      "type": "function"
    },
    {
      "inputs": [],
      "name": "symbol",
      "outputs": [
        {
          "internalType": "string",
          "name": "",
          "type": "string"
        }
      ],
      "stateMutability": "pure",
      "type": "function"
    }
  ],
  "bytecode": {
    "object": "0x608060405234801561001057600080fd5b50610822806100206000396000f3fe608060405234801561001057600080fd5b506004361061004c5760003560e01c806306fdde031461005157806314c15fc01461009c5780637f35e83d146100bd57806395d89b41146100d0575b600080fd5b60408051808201909152601081527f436f6e7374616e742050726f647563740000000000000000000000000000000060208201525b6040516100939190610454565b60405180910390f35b6100af6100aa366004610530565b6100ee565b604051908152602001610093565b6100af6100cb36600461059c565b610150565b604080518082019091526002815261043560f41b6020820152610086565b60008484905061013d868690506101378888808060200260200160405190810160405280939291908181526020018383602002808284376000920191909152506101bf92505050565b9061022d565b6101479190610635565b95945050505050565b6000858061015e8187610662565b610168919061075a565b915060005b818110156101b3578681146101a35788888281811061018e5761018e61076d565b90506020020135836101a09190610662565b92505b6101ac81610783565b905061016d565b50509695505050505050565b6000816000815181106101d4576101d461076d565b6020908102919091010151825190915060015b81811015610226578381815181106102015761020161076d565b6020026020010151836102149190610635565b925061021f81610783565b90506101e7565b5050919050565b60006001821161023f5761023f61079c565b8260000361024f57506000610395565b61025a6002836107b2565b6000036102c35781600203610279576102728361039b565b9050610395565b816004036102925761027261028d8461039b565b61039b565b816008036102a95761027261028d61028d8561039b565b816010036102c35761027261028d61028d61028d8661039b565b6000836102d184600a61075a565b6102db9190610635565b9050600a60005b80821461037857508060006102f86001876107c6565b610302908361075a565b90508361030f8284610635565b111561034557856103208286610662565b61032a90846107c6565b6103349190610662565b61033e90836107c6565b9250610372565b85826103518387610662565b61035b91906107c6565b6103659190610662565b61036f90836107d9565b92505b506102e2565b600a6103858360056107d9565b61038f9190610662565b93505050505b92915050565b60b5817101000000000000000000000000000000000081106103c25760409190911b9060801c5b690100000000000000000081106103de5760209190911b9060401c5b6501000000000081106103f65760109190911b9060201c5b6301000000811061040c5760089190911b9060101c5b62010000010260121c80820401600190811c80830401811c80830401811c80830401811c80830401811c80830401811c80830401901c80820481111561044f5781045b919050565b600060208083528351808285015260005b8181101561048157858101830151858201604001528201610465565b506000604082860101526040601f19601f8301168501019250505092915050565b60008083601f8401126104b457600080fd5b50813567ffffffffffffffff8111156104cc57600080fd5b6020830191508360208260051b85010111156104e757600080fd5b9250929050565b60008083601f84011261050057600080fd5b50813567ffffffffffffffff81111561051857600080fd5b6020830191508360208285010111156104e757600080fd5b6000806000806040858703121561054657600080fd5b843567ffffffffffffffff8082111561055e57600080fd5b61056a888389016104a2565b9096509450602087013591508082111561058357600080fd5b50610590878288016104ee565b95989497509550505050565b600080600080600080608087890312156105b557600080fd5b863567ffffffffffffffff808211156105cd57600080fd5b6105d98a838b016104a2565b90985096506020890135955060408901359450606089013591508082111561060057600080fd5b5061060d89828a016104ee565b979a9699509497509295939492505050565b634e487b7160e01b600052601160045260246000fd5b80820281158282048414176103955761039561061f565b634e487b7160e01b600052601260045260246000fd5b6000826106715761067161064c565b500490565b600181815b808511156106b15781600019048211156106975761069761061f565b808516156106a457918102915b93841c939080029061067b565b509250929050565b6000826106c857506001610395565b816106d557506000610395565b81600181146106eb57600281146106f557610711565b6001915050610395565b60ff8411156107065761070661061f565b50506001821b610395565b5060208310610133831016604e8410600b8410161715610734575081810a610395565b61073e8383610676565b80600019048211156107525761075261061f565b029392505050565b600061076683836106b9565b9392505050565b634e487b7160e01b600052603260045260246000fd5b6000600182016107955761079561061f565b5060010190565b634e487b7160e01b600052600160045260246000fd5b6000826107c1576107c161064c565b500690565b818103818111156103955761039561061f565b808201808211156103955761039561061f56fea264697066735822122002d361384df5863d22b043bba83ffb5a139ce2d7af1cc5bedf18d9329a149fac64736f6c63430008110033",
    "linkReferences": {}
  },
  "methodIdentifiers": {
    "calcLpTokenSupply(uint256[],bytes)": "14c15fc0",
    "calcReserve(uint256[],uint256,uint256,bytes)": "7f35e83d",
    "name()": "06fdde03",
    "symbol()": "95d89b41"
  },
  "id": 64
}