{
  "abi": [
    {
      "inputs": [
        {
          "internalType": "uint256[]",
          "name": "reserves",
          "type": "uint256[]"
        },
        {
          "internalType": "bytes",
          "name": "",
          "type": "bytes"
        }
      ],
      "name": "calcLpTokenSupply",
      "outputs": [
        {
          "internalType": "uint256",
          "name": "lpTokenSupply",
          "type": "uint256"
        }
      ],
      "stateMutability": "pure",
      "type": "function"
    },
    {
      "inputs": [
        {
          "internalType": "uint256[]",
          "name": "reserves",
          "type": "uint256[]"
        },
        {
          "internalType": "uint256",
          "name": "j",
          "type": "uint256"
        },
        {
          "internalType": "uint256",
          "name": "lpTokenSupply",
          "type": "uint256"
        },
        {
          "internalType": "bytes",
          "name": "",
          "type": "bytes"
        }
      ],
      "name": "calcReserve",
      "outputs": [
        {
          "internalType": "uint256",
          "name": "reserve",
          "type": "uint256"
        }
      ],
      "stateMutability": "pure",
      "type": "function"
    },
    {
      "inputs": [],
      "name": "name",
      "outputs": [
        {
          "internalType": "string",
          "name": "",
          "type": "string"
        }
      ],
      "stateMutability": "pure",
      "type": "function"
    },
    {
      "inputs": [],
      "name": "symbol",
      "outputs": [
        {
          "internalType": "string",
          "name": "",
          "type": "string"
        }
      ],
      "stateMutability": "pure",
      "type": "function"
    }
  ],
  "bytecode": {
    "object": "0x608060405234801561001057600080fd5b50610671806100206000396000f3fe608060405234801561001057600080fd5b506004361061004c5760003560e01c806306fdde031461005157806314c15fc01461009c5780637f35e83d146100bd57806395d89b41146100d0575b600080fd5b60408051808201909152601081527f436f6e7374616e742050726f647563740000000000000000000000000000000060208201525b60405161009391906102e2565b60405180910390f35b6100af6100aa3660046103be565b6100ee565b604051908152602001610093565b6100af6100cb36600461042a565b61014f565b604080518082019091526002815261043560f41b6020820152610086565b600061014664e8d4a510008686600181811061010c5761010c6104ad565b9050602002013587876000818110610126576101266104ad565b9050602002013561013791906104d9565b61014191906104d9565b6101af565b95945050505050565b600064e8d4a510006101626002866105d4565b61016c9190610600565b90506101a481888888600114610183576001610186565b60005b60ff16818110610198576101986104ad565b90506020020135610268565b979650505050505050565b60b5817101000000000000000000000000000000000081106101d65760409190911b9060801c5b690100000000000000000081106101f25760209190911b9060401c5b65010000000000811061020a5760109190911b9060201c5b630100000081106102205760089190911b9060101c5b62010000010260121c80820401600190811c80830401811c80830401811c80830401811c80830401811c80830401811c80830401901c8082048111156102635781045b919050565b600080610276600284610614565b1561029657610286600284610600565b610291906001610628565b6102a1565b6102a1600284610600565b9050806102ae8486610614565b10156102c3576102be8385610600565b6102d8565b6102cd8385610600565b6102d8906001610628565b9150505b92915050565b600060208083528351808285015260005b8181101561030f578581018301518582016040015282016102f3565b506000604082860101526040601f19601f8301168501019250505092915050565b60008083601f84011261034257600080fd5b50813567ffffffffffffffff81111561035a57600080fd5b6020830191508360208260051b850101111561037557600080fd5b9250929050565b60008083601f84011261038e57600080fd5b50813567ffffffffffffffff8111156103a657600080fd5b60208301915083602082850101111561037557600080fd5b600080600080604085870312156103d457600080fd5b843567ffffffffffffffff808211156103ec57600080fd5b6103f888838901610330565b9096509450602087013591508082111561041157600080fd5b5061041e8782880161037c565b95989497509550505050565b6000806000806000806080878903121561044357600080fd5b863567ffffffffffffffff8082111561045b57600080fd5b6104678a838b01610330565b90985096506020890135955060408901359450606089013591508082111561048e57600080fd5b5061049b89828a0161037c565b979a9699509497509295939492505050565b634e487b7160e01b600052603260045260246000fd5b634e487b7160e01b600052601160045260246000fd5b80820281158282048414176102dc576102dc6104c3565b600181815b8085111561052b578160001904821115610511576105116104c3565b8085161561051e57918102915b93841c93908002906104f5565b509250929050565b600082610542575060016102dc565b8161054f575060006102dc565b8160018114610565576002811461056f5761058b565b60019150506102dc565b60ff841115610580576105806104c3565b50506001821b6102dc565b5060208310610133831016604e8410600b84101617156105ae575081810a6102dc565b6105b883836104f0565b80600019048211156105cc576105cc6104c3565b029392505050565b60006105e360ff841683610533565b9392505050565b634e487b7160e01b600052601260045260246000fd5b60008261060f5761060f6105ea565b500490565b600082610623576106236105ea565b500690565b808201808211156102dc576102dc6104c356fea2646970667358221220125ebfa0f2dfd56f75dced35669ece8bf7e2234c144541220da7956360ce92e164736f6c63430008110033",
    "linkReferences": {}
  },
  "methodIdentifiers": {
    "calcLpTokenSupply(uint256[],bytes)": "14c15fc0",
    "calcReserve(uint256[],uint256,uint256,bytes)": "7f35e83d",
    "name()": "06fdde03",
    "symbol()": "95d89b41"
  },
  "id": 65
}