{
  "_format": "hh-sol-artifact-1",
  "contractName": "Depot",
  "sourceName": "contracts/depot/Depot.sol",
  "abi": [
    {
      "inputs": [
        {
          "components": [
            {
              "internalType": "address",
              "name": "target",
              "type": "address"
            },
            {
              "internalType": "bytes",
              "name": "callData",
              "type": "bytes"
            },
            {
              "internalType": "bytes",
              "name": "clipboard",
              "type": "bytes"
            }
          ],
          "internalType": "struct AdvancedPipeCall[]",
          "name": "pipes",
          "type": "tuple[]"
        },
        {
          "internalType": "uint256",
          "name": "value",
          "type": "uint256"
        }
      ],
      "name": "advancedPipe",
      "outputs": [
        {
          "internalType": "bytes[]",
          "name": "results",
          "type": "bytes[]"
        }
      ],
      "stateMutability": "payable",
      "type": "function"
    },
    {
      "inputs": [
        {
          "internalType": "contract IERC1155",
          "name": "token",
          "type": "address"
        },
        {
          "internalType": "address",
          "name": "to",
          "type": "address"
        },
        {
          "internalType": "uint256[]",
          "name": "ids",
          "type": "uint256[]"
        },
        {
          "internalType": "uint256[]",
          "name": "values",
          "type": "uint256[]"
        }
      ],
      "name": "batchTransferERC1155",
      "outputs": [],
      "stateMutability": "payable",
      "type": "function"
    },
    {
      "inputs": [
        {
          "components": [
            {
              "internalType": "address",
              "name": "target",
              "type": "address"
            },
            {
              "internalType": "bytes",
              "name": "data",
              "type": "bytes"
            }
          ],
          "internalType": "struct PipeCall",
          "name": "p",
          "type": "tuple"
        },
        {
          "internalType": "uint256",
          "name": "value",
          "type": "uint256"
        }
      ],
      "name": "etherPipe",
      "outputs": [
        {
          "internalType": "bytes",
          "name": "result",
          "type": "bytes"
        }
      ],
      "stateMutability": "payable",
      "type": "function"
    },
    {
      "inputs": [
        {
          "internalType": "bytes[]",
          "name": "data",
          "type": "bytes[]"
        }
      ],
      "name": "farm",
      "outputs": [
        {
          "internalType": "bytes[]",
          "name": "results",
          "type": "bytes[]"
        }
      ],
      "stateMutability": "payable",
      "type": "function"
    },
    {
      "inputs": [
        {
          "components": [
            {
              "internalType": "address",
              "name": "target",
              "type": "address"
            },
            {
              "internalType": "bytes",
              "name": "data",
              "type": "bytes"
            }
          ],
          "internalType": "struct PipeCall[]",
          "name": "pipes",
          "type": "tuple[]"
        }
      ],
      "name": "multiPipe",
      "outputs": [
        {
          "internalType": "bytes[]",
          "name": "results",
          "type": "bytes[]"
        }
      ],
      "stateMutability": "payable",
      "type": "function"
    },
    {
      "inputs": [
        {
          "internalType": "address",
          "name": "owner",
          "type": "address"
        },
        {
          "internalType": "address",
          "name": "spender",
          "type": "address"
        },
        {
          "internalType": "address",
          "name": "token",
          "type": "address"
        },
        {
          "internalType": "uint256",
          "name": "value",
          "type": "uint256"
        },
        {
          "internalType": "uint256",
          "name": "deadline",
          "type": "uint256"
        },
        {
          "internalType": "uint8",
          "name": "v",
          "type": "uint8"
        },
        {
          "internalType": "bytes32",
          "name": "r",
          "type": "bytes32"
        },
        {
          "internalType": "bytes32",
          "name": "s",
          "type": "bytes32"
        }
      ],
      "name": "permitDeposit",
      "outputs": [],
      "stateMutability": "payable",
      "type": "function"
    },
    {
      "inputs": [
        {
          "internalType": "address",
          "name": "owner",
          "type": "address"
        },
        {
          "internalType": "address",
          "name": "spender",
          "type": "address"
        },
        {
          "internalType": "address[]",
          "name": "tokens",
          "type": "address[]"
        },
        {
          "internalType": "uint256[]",
          "name": "values",
          "type": "uint256[]"
        },
        {
          "internalType": "uint256",
          "name": "deadline",
          "type": "uint256"
        },
        {
          "internalType": "uint8",
          "name": "v",
          "type": "uint8"
        },
        {
          "internalType": "bytes32",
          "name": "r",
          "type": "bytes32"
        },
        {
          "internalType": "bytes32",
          "name": "s",
          "type": "bytes32"
        }
      ],
      "name": "permitDeposits",
      "outputs": [],
      "stateMutability": "payable",
      "type": "function"
    },
    {
      "inputs": [
        {
          "internalType": "contract IERC20Permit",
          "name": "token",
          "type": "address"
        },
        {
          "internalType": "address",
          "name": "owner",
          "type": "address"
        },
        {
          "internalType": "address",
          "name": "spender",
          "type": "address"
        },
        {
          "internalType": "uint256",
          "name": "value",
          "type": "uint256"
        },
        {
          "internalType": "uint256",
          "name": "deadline",
          "type": "uint256"
        },
        {
          "internalType": "uint8",
          "name": "v",
          "type": "uint8"
        },
        {
          "internalType": "bytes32",
          "name": "r",
          "type": "bytes32"
        },
        {
          "internalType": "bytes32",
          "name": "s",
          "type": "bytes32"
        }
      ],
      "name": "permitERC20",
      "outputs": [],
      "stateMutability": "payable",
      "type": "function"
    },
    {
      "inputs": [
        {
          "internalType": "contract IERC4494",
          "name": "token",
          "type": "address"
        },
        {
          "internalType": "address",
          "name": "spender",
          "type": "address"
        },
        {
          "internalType": "uint256",
          "name": "tokenId",
          "type": "uint256"
        },
        {
          "internalType": "uint256",
          "name": "deadline",
          "type": "uint256"
        },
        {
          "internalType": "bytes",
          "name": "sig",
          "type": "bytes"
        }
      ],
      "name": "permitERC721",
      "outputs": [],
      "stateMutability": "payable",
      "type": "function"
    },
    {
      "inputs": [
        {
          "internalType": "address",
          "name": "owner",
          "type": "address"
        },
        {
          "internalType": "address",
          "name": "spender",
          "type": "address"
        },
        {
          "internalType": "address",
          "name": "token",
          "type": "address"
        },
        {
          "internalType": "uint256",
          "name": "value",
          "type": "uint256"
        },
        {
          "internalType": "uint256",
          "name": "deadline",
          "type": "uint256"
        },
        {
          "internalType": "uint8",
          "name": "v",
          "type": "uint8"
        },
        {
          "internalType": "bytes32",
          "name": "r",
          "type": "bytes32"
        },
        {
          "internalType": "bytes32",
          "name": "s",
          "type": "bytes32"
        }
      ],
      "name": "permitToken",
      "outputs": [],
      "stateMutability": "payable",
      "type": "function"
    },
    {
      "inputs": [
        {
          "components": [
            {
              "internalType": "address",
              "name": "target",
              "type": "address"
            },
            {
              "internalType": "bytes",
              "name": "data",
              "type": "bytes"
            }
          ],
          "internalType": "struct PipeCall",
          "name": "p",
          "type": "tuple"
        }
      ],
      "name": "pipe",
      "outputs": [
        {
          "internalType": "bytes",
          "name": "result",
          "type": "bytes"
        }
      ],
      "stateMutability": "payable",
      "type": "function"
    },
    {
      "inputs": [
        {
          "components": [
            {
              "internalType": "address",
              "name": "target",
              "type": "address"
            },
            {
              "internalType": "bytes",
              "name": "data",
              "type": "bytes"
            }
          ],
          "internalType": "struct PipeCall",
          "name": "p",
          "type": "tuple"
        }
      ],
      "name": "readPipe",
      "outputs": [
        {
          "internalType": "bytes",
          "name": "result",
          "type": "bytes"
        }
      ],
      "stateMutability": "view",
      "type": "function"
    },
    {
      "inputs": [
        {
          "internalType": "address",
          "name": "sender",
          "type": "address"
        },
        {
          "internalType": "address",
          "name": "recipient",
          "type": "address"
        },
        {
          "internalType": "address",
          "name": "token",
          "type": "address"
        },
        {
          "internalType": "uint32",
          "name": "season",
          "type": "uint32"
        },
        {
          "internalType": "uint256",
          "name": "amount",
          "type": "uint256"
        }
      ],
      "name": "transferDeposit",
      "outputs": [
        {
          "internalType": "uint256",
          "name": "bdv",
          "type": "uint256"
        }
      ],
      "stateMutability": "payable",
      "type": "function"
    },
    {
      "inputs": [
        {
          "internalType": "address",
          "name": "sender",
          "type": "address"
        },
        {
          "internalType": "address",
          "name": "recipient",
          "type": "address"
        },
        {
          "internalType": "address",
          "name": "token",
          "type": "address"
        },
        {
          "internalType": "uint32[]",
          "name": "seasons",
          "type": "uint32[]"
        },
        {
          "internalType": "uint256[]",
          "name": "amounts",
          "type": "uint256[]"
        }
      ],
      "name": "transferDeposits",
      "outputs": [
        {
          "internalType": "uint256[]",
          "name": "bdvs",
          "type": "uint256[]"
        }
      ],
      "stateMutability": "payable",
      "type": "function"
    },
    {
      "inputs": [
        {
          "internalType": "contract IERC1155",
          "name": "token",
          "type": "address"
        },
        {
          "internalType": "address",
          "name": "to",
          "type": "address"
        },
        {
          "internalType": "uint256",
          "name": "id",
          "type": "uint256"
        },
        {
          "internalType": "uint256",
          "name": "value",
          "type": "uint256"
        }
      ],
      "name": "transferERC1155",
      "outputs": [],
      "stateMutability": "payable",
      "type": "function"
    },
    {
      "inputs": [
        {
          "internalType": "contract IERC721",
          "name": "token",
          "type": "address"
        },
        {
          "internalType": "address",
          "name": "to",
          "type": "address"
        },
        {
          "internalType": "uint256",
          "name": "id",
          "type": "uint256"
        }
      ],
      "name": "transferERC721",
      "outputs": [],
      "stateMutability": "payable",
      "type": "function"
    },
    {
      "inputs": [
        {
          "internalType": "contract IERC20",
          "name": "token",
          "type": "address"
        },
        {
          "internalType": "address",
          "name": "recipient",
          "type": "address"
        },
        {
          "internalType": "uint256",
          "name": "amount",
          "type": "uint256"
        },
        {
          "internalType": "enum From",
          "name": "fromMode",
          "type": "uint8"
        },
        {
          "internalType": "enum To",
          "name": "toMode",
          "type": "uint8"
        }
      ],
      "name": "transferToken",
      "outputs": [],
      "stateMutability": "payable",
      "type": "function"
    }
  ],
  "bytecode": "0x608060405234801561001057600080fd5b5061229a806100206000396000f3fe60806040526004361061010e5760003560e01c80636e47d07b116100a5578063b442b39811610074578063cabec62b11610059578063cabec62b1461025c578063d5770dc71461026f578063dd756c4f146102825761010e565b8063b442b39814610236578063b452c7ae146102495761010e565b80636e47d07b146101dd5780637c516e94146101f05780639e32d26114610203578063a9412a59146102235761010e565b80631aca6376116100e15780631aca637614610184578063300dd6cf146101975780634935ed43146101b75780636204aa43146101ca5761010e565b806308e1a0ab146101135780630a7e880c1461013c5780630d2615b114610151578063120b570214610171575b600080fd5b610126610121366004611989565b6102a2565b6040516101339190611fd0565b60405180910390f35b61014f61014a3660046117a3565b610338565b005b61016461015f3660046112f6565b6103ca565b6040516101339190611f8c565b61014f61017f36600461139b565b6104bb565b61014f610192366004611903565b610555565b6101aa6101a536600461153b565b6105d5565b6040516101339190611e0b565b61014f6101c5366004611855565b6106d8565b61014f6101d83660046117e8565b61075c565b6101266101eb3660046119bc565b61084c565b61014f6101fe36600461139b565b6108e8565b61021661021136600461141b565b610946565b60405161013391906120dc565b61014f610231366004611711565b610a24565b61014f61024436600461139b565b610ac2565b6101aa610257366004611604565b610b13565b6101aa61026a36600461153b565b610bd1565b61014f61027d36600461147c565b610c7c565b34801561028e57600080fd5b5061012661029d366004611989565b610d1c565b6040516308e1a0ab60e01b815260609073b1be0000bfdcddc92a8290202830c4ef689dceaa906308e1a0ab906102dc9085906004016120c9565b600060405180830381600087803b1580156102f657600080fd5b505af115801561030a573d6000803e3d6000fd5b505050506040513d6000823e601f3d908101601f1916820160405261033291908101906116de565b92915050565b604080516000815260208101918290527ff242432a000000000000000000000000000000000000000000000000000000009091526001600160a01b0385169063f242432a9061039290339087908790879060248101611c78565b600060405180830381600087803b1580156103ac57600080fd5b505af11580156103c0573d6000803e3d6000fd5b5050505050505050565b60606001600160a01b03881633146103fd5760405162461bcd60e51b81526004016103f490612024565b60405180910390fd5b6040517f0d2615b100000000000000000000000000000000000000000000000000000000815273c1e088fc1323b20bcbee9bd1b9fc9546db5624c590630d2615b1906104599033908b908b908b908b908b908b90600401611b30565b600060405180830381600087803b15801561047357600080fd5b505af1158015610487573d6000803e3d6000fd5b505050506040513d6000823e601f3d908101601f191682016040526104af919081019061164e565b98975050505050505050565b6040517f120b570200000000000000000000000000000000000000000000000000000000815273c1e088fc1323b20bcbee9bd1b9fc9546db5624c59063120b570290610519908b908b908b908b908b908b908b908b90600401611cb0565b600060405180830381600087803b15801561053357600080fd5b505af1158015610547573d6000803e3d6000fd5b505050505050505050505050565b6040517f42842e0e0000000000000000000000000000000000000000000000000000000081526001600160a01b038416906342842e0e9061059e90339086908690600401611c54565b600060405180830381600087803b1580156105b857600080fd5b505af11580156105cc573d6000803e3d6000fd5b50505050505050565b60608167ffffffffffffffff811180156105ee57600080fd5b5060405190808252806020026020018201604052801561062257816020015b606081526020019060019003908161060d5790505b50905060005b828110156106d1576000803086868581811061064057fe5b905060200281019061065291906120e5565b604051610660929190611b04565b600060405180830381855af49150503d806000811461069b576040519150601f19603f3d011682016040523d82523d6000602084013e6106a0565b606091505b50915091506106af8282610da6565b808484815181106106bc57fe5b60209081029190910101525050600101610628565b5092915050565b6040517f745a41bc0000000000000000000000000000000000000000000000000000000081526001600160a01b0386169063745a41bc90610723908790879087908790600401611ddd565b600060405180830381600087803b15801561073d57600080fd5b505af1158015610751573d6000803e3d6000fd5b505050505050505050565b600082600381111561076a57fe5b141561078a576107856001600160a01b038616338686610df1565b610845565b600182600381111561079857fe5b141561082d576040517fd3f4ec6f00000000000000000000000000000000000000000000000000000000815273c1e088fc1323b20bcbee9bd1b9fc9546db5624c59063d3f4ec6f906107f69088903390899089908890600401611fe3565b600060405180830381600087803b15801561081057600080fd5b505af1158015610824573d6000803e3d6000fd5b50505050610845565b60405162461bcd60e51b81526004016103f49061205b565b5050505050565b6040516308e1a0ab60e01b815260609073b1be0000bfdcddc92a8290202830c4ef689dceaa906308e1a0ab9084906108889087906004016120c9565b6000604051808303818588803b1580156108a157600080fd5b505af11580156108b5573d6000803e3d6000fd5b50505050506040513d6000823e601f3d908101601f191682016040526108de91908101906116de565b9050610332610e7f565b6040517f7c516e9400000000000000000000000000000000000000000000000000000000815273c1e088fc1323b20bcbee9bd1b9fc9546db5624c590637c516e9490610519908b908b908b908b908b908b908b908b90600401611cb0565b60006001600160a01b03861633146109705760405162461bcd60e51b81526004016103f490612024565b6040517f9e32d26100000000000000000000000000000000000000000000000000000000815273c1e088fc1323b20bcbee9bd1b9fc9546db5624c590639e32d261906109c89033908990899089908990600401611bb9565b602060405180830381600087803b1580156109e257600080fd5b505af11580156109f6573d6000803e3d6000fd5b505050506040513d601f19601f82011682018060405250810190610a1a91906119ff565b9695505050505050565b6001600160a01b038616632eb2c2d633878787878760006040519080825280601f01601f191660200182016040528015610a65576020820181803683370190505b506040518863ffffffff1660e01b8152600401610a889796959493929190611bf2565b600060405180830381600087803b158015610aa257600080fd5b505af1158015610ab6573d6000803e3d6000fd5b50505050505050505050565b6040517fd505accf0000000000000000000000000000000000000000000000000000000081526001600160a01b0389169063d505accf90610519908a908a908a908a908a908a908a90600401611d9c565b6040517f1c0a0d5e00000000000000000000000000000000000000000000000000000000815260609073b1be0000bfdcddc92a8290202830c4ef689dceaa90631c0a0d5e908490610b6a9088908890600401611e6b565b6000604051808303818588803b158015610b8357600080fd5b505af1158015610b97573d6000803e3d6000fd5b50505050506040513d6000823e601f3d908101601f19168201604052610bc0919081019061157b565b9050610bca610e7f565b9392505050565b6040517fcabec62b00000000000000000000000000000000000000000000000000000000815260609073b1be0000bfdcddc92a8290202830c4ef689dceaa9063cabec62b90610c269086908690600401611f1e565b600060405180830381600087803b158015610c4057600080fd5b505af1158015610c54573d6000803e3d6000fd5b505050506040513d6000823e601f3d908101601f19168201604052610bca919081019061157b565b6040517fd5770dc700000000000000000000000000000000000000000000000000000000815273c1e088fc1323b20bcbee9bd1b9fc9546db5624c59063d5770dc790610cde908d908d908d908d908d908d908d908d908d908d90600401611cfa565b600060405180830381600087803b158015610cf857600080fd5b505af1158015610d0c573d6000803e3d6000fd5b5050505050505050505050505050565b60606000610d2d60208401846112da565b6001600160a01b0316610d4360208501856120e5565b604051610d51929190611b04565b600060405180830381855afa9150503d8060008114610d8c576040519150601f19603f3d011682016040523d82523d6000602084013e610d91565b606091505b5092509050610da08183610da6565b50919050565b81610ded57604481511015610dba57600080fd5b60048101905080806020019051810190610dd49190611943565b60405162461bcd60e51b81526004016103f49190611fd0565b5050565b604080516001600160a01b0380861660248301528416604482015260648082018490528251808303909101815260849091019091526020810180517bffffffffffffffffffffffffffffffffffffffffffffffffffffffff167f23b872dd00000000000000000000000000000000000000000000000000000000179052610e79908590610f2c565b50505050565b6000610e89610fe2565b9050600047118015610ea057508060490154600214155b15610f29576040805160008082526020820190925233904790604051610ec69190611b14565b60006040518083038185875af1925050503d8060008114610f03576040519150601f19603f3d011682016040523d82523d6000602084013e610f08565b606091505b5050905080610ded5760405162461bcd60e51b81526004016103f490612092565b50565b6000610f81826040518060400160405280602081526020017f5361666545524332303a206c6f772d6c6576656c2063616c6c206661696c6564815250856001600160a01b0316610fe79092919063ffffffff16565b805190915015610fdd57808060200190516020811015610fa057600080fd5b5051610fdd5760405162461bcd60e51b815260040180806020018281038252602a81526020018061223b602a913960400191505060405180910390fd5b505050565b600090565b6060610ff68484600085610ffe565b949350505050565b60608247101561103f5760405162461bcd60e51b81526004018080602001828103825260268152602001806122156026913960400191505060405180910390fd5b61104885611159565b611099576040805162461bcd60e51b815260206004820152601d60248201527f416464726573733a2063616c6c20746f206e6f6e2d636f6e7472616374000000604482015290519081900360640190fd5b600080866001600160a01b031685876040518082805190602001908083835b602083106110d75780518252601f1990920191602091820191016110b8565b6001836020036101000a03801982511681845116808217855250505050505090500191505060006040518083038185875af1925050503d8060008114611139576040519150601f19603f3d011682016040523d82523d6000602084013e61113e565b606091505b509150915061114e828286611163565b979650505050505050565b803b15155b919050565b60608315611172575081610bca565b8251156111825782518084602001fd5b8160405162461bcd60e51b81526004018080602001828103825283818151815260200191508051906020019080838360005b838110156111cc5781810151838201526020016111b4565b50505050905090810190601f1680156111f95780820380516001836020036101000a031916815260200191505b509250505060405180910390fd5b600061121a6112158461216c565b61212a565b905082815283838301111561122e57600080fd5b610bca8360208301846121d3565b60008083601f84011261124d578182fd5b50813567ffffffffffffffff811115611264578182fd5b602083019150836020808302850101111561127e57600080fd5b9250929050565b600082601f830112611295578081fd5b610bca83835160208501611207565b600060408284031215610da0578081fd5b803563ffffffff8116811461115e57600080fd5b803560ff8116811461115e57600080fd5b6000602082840312156112eb578081fd5b8135610bca816121ff565b600080600080600080600060a0888a031215611310578283fd5b873561131b816121ff565b9650602088013561132b816121ff565b9550604088013561133b816121ff565b9450606088013567ffffffffffffffff80821115611357578485fd5b6113638b838c0161123c565b909650945060808a013591508082111561137b578384fd5b506113888a828b0161123c565b989b979a50959850939692959293505050565b600080600080600080600080610100898b0312156113b7578182fd5b88356113c2816121ff565b975060208901356113d2816121ff565b965060408901356113e2816121ff565b955060608901359450608089013593506113fe60a08a016112c9565b925060c0890135915060e089013590509295985092959890939650565b600080600080600060a08688031215611432578283fd5b853561143d816121ff565b9450602086013561144d816121ff565b9350604086013561145d816121ff565b925061146b606087016112b5565b949793965091946080013592915050565b6000806000806000806000806000806101008b8d03121561149b578384fd5b8a356114a6816121ff565b995060208b01356114b6816121ff565b985060408b013567ffffffffffffffff808211156114d2578586fd5b6114de8e838f0161123c565b909a50985060608d01359150808211156114f6578586fd5b506115038d828e0161123c565b90975095505060808b0135935061151c60a08c016112c9565b925060c08b0135915060e08b013590509295989b9194979a5092959850565b6000806020838503121561154d578182fd5b823567ffffffffffffffff811115611563578283fd5b61156f8582860161123c565b90969095509350505050565b6000602080838503121561158d578182fd5b825167ffffffffffffffff8111156115a3578283fd5b8301601f810185136115b3578283fd5b80516115c16112158261214e565b81815283810190838501865b848110156115f6576115e48a888451890101611285565b845292860192908601906001016115cd565b509098975050505050505050565b600080600060408486031215611618578081fd5b833567ffffffffffffffff81111561162e578182fd5b61163a8682870161123c565b909790965060209590950135949350505050565b60006020808385031215611660578182fd5b825167ffffffffffffffff811115611676578283fd5b8301601f81018513611686578283fd5b80516116946112158261214e565b81815283810190838501858402850186018910156116b0578687fd5b8694505b838510156116d25780518352600194909401939185019185016116b4565b50979650505050505050565b6000602082840312156116ef578081fd5b815167ffffffffffffffff811115611705578182fd5b610ff684828501611285565b60008060008060008060808789031215611729578384fd5b8635611734816121ff565b95506020870135611744816121ff565b9450604087013567ffffffffffffffff80821115611760578586fd5b61176c8a838b0161123c565b90965094506060890135915080821115611784578384fd5b5061179189828a0161123c565b979a9699509497509295939492505050565b600080600080608085870312156117b8578182fd5b84356117c3816121ff565b935060208501356117d3816121ff565b93969395505050506040820135916060013590565b600080600080600060a086880312156117ff578283fd5b853561180a816121ff565b9450602086013561181a816121ff565b935060408601359250606086013560048110611834578182fd5b9150608086013560028110611847578182fd5b809150509295509295909350565b600080600080600060a0868803121561186c578283fd5b8535611877816121ff565b94506020860135611887816121ff565b93506040860135925060608601359150608086013567ffffffffffffffff8111156118b0578182fd5b8601601f810188136118c0578182fd5b80356118ce6112158261216c565b8181528960208385010111156118e2578384fd5b81602084016020830137908101602001929092525093969295509093509190565b600080600060608486031215611917578081fd5b8335611922816121ff565b92506020840135611932816121ff565b929592945050506040919091013590565b600060208284031215611954578081fd5b815167ffffffffffffffff81111561196a578182fd5b8201601f8101841361197a578182fd5b610ff684825160208401611207565b60006020828403121561199a578081fd5b813567ffffffffffffffff8111156119b0578182fd5b610ff6848285016112a4565b600080604083850312156119ce578182fd5b823567ffffffffffffffff8111156119e4578283fd5b6119f0858286016112a4565b95602094909401359450505050565b600060208284031215611a10578081fd5b5051919050565b60008284527f07ffffffffffffffffffffffffffffffffffffffffffffffffffffffffffffff831115611a48578081fd5b6020830280836020870137939093016020019283525090919050565b60008284528282602086013780602084860101526020601f19601f85011685010190509392505050565b60008151808452611aa68160208601602086016121d3565b601f01601f19169290920160200192915050565b60008135611ac7816121ff565b6001600160a01b03168352611adf602083018361218e565b60406020860152611af4604086018284611a64565b95945050505050565b60ff169052565b6000828483379101908152919050565b60008251611b268184602087016121d3565b9190910192915050565b600060a082016001600160a01b03808b1684526020818b1681860152818a16604086015260a0606086015282915087835260c085019150889250835b88811015611b955763ffffffff611b82856112b5565b1683529281019291810191600101611b6c565b50508381036080850152611baa818688611a17565b9b9a5050505050505050505050565b6001600160a01b039586168152938516602085015291909316604083015263ffffffff9092166060820152608081019190915260a00190565b60006001600160a01b03808a16835280891660208401525060a06040830152611c1f60a083018789611a17565b8281036060840152611c32818688611a17565b90508281036080840152611c468185611a8e565b9a9950505050505050505050565b6001600160a01b039384168152919092166020820152604081019190915260600190565b60006001600160a01b03808816835280871660208401525084604083015283606083015260a0608083015261114e60a0830184611a8e565b6001600160a01b03988916815296881660208801529490961660408601526060850192909252608084015260ff1660a083015260c082019290925260e08101919091526101000190565b60006101008083016001600160a01b03808f1685526020818f16818701528360408701528293508c8352610120860193508d9250845b8d811015611d57578335611d43816121ff565b831685529381019392810192600101611d30565b505050508281036060840152611d6e81898b611a17565b915050856080830152611d8460a0830186611afd565b60c082019390935260e0015298975050505050505050565b6001600160a01b0397881681529590961660208601526040850193909352606084019190915260ff16608083015260a082015260c081019190915260e00190565b60006001600160a01b038616825284602083015283604083015260806060830152610a1a6080830184611a8e565b6000602080830181845280855180835260408601915060408482028701019250838701855b82811015611e5e57603f19888603018452611e4c858351611a8e565b94509285019290850190600101611e30565b5092979650505050505050565b602080825281810183905260009060408084018583028501820187855b888110156115f657878303603f190184528135368b9003605e19018112611ead578788fd5b8a0160608135611ebc816121ff565b6001600160a01b03168552611ed38289018361218e565b828a880152611ee58388018284611a64565b92505050611ef58783018361218e565b925085820388870152611f09828483611a64565b96890196955050509186019150600101611e88565b602080825281810183905260009060408482028401810190840186845b87811015611f7f57868403603f190183528135368a9003603e19018112611f60578687fd5b611f6c858b8301611aba565b9450509184019190840190600101611f3b565b5091979650505050505050565b6020808252825182820181905260009190848201906040850190845b81811015611fc457835183529284019291840191600101611fa8565b50909695505050505050565b600060208252610bca6020830184611a8e565b6001600160a01b0386811682528581166020830152841660408201526060810183905260a081016002831061201457fe5b8260808301529695505050505050565b6020808252600e908201527f696e76616c69642073656e646572000000000000000000000000000000000000604082015260600190565b60208082526012908201527f4d6f6465206e6f7420737570706f727465640000000000000000000000000000604082015260600190565b60208082526014908201527f457468207472616e73666572204661696c65642e000000000000000000000000604082015260600190565b600060208252610bca6020830184611aba565b90815260200190565b6000808335601e198436030181126120fb578283fd5b83018035915067ffffffffffffffff821115612115578283fd5b60200191503681900382131561127e57600080fd5b60405181810167ffffffffffffffff8111828210171561214657fe5b604052919050565b600067ffffffffffffffff82111561216257fe5b5060209081020190565b600067ffffffffffffffff82111561218057fe5b50601f01601f191660200190565b6000808335601e198436030181126121a4578283fd5b830160208101925035905067ffffffffffffffff8111156121c457600080fd5b80360383131561127e57600080fd5b60005b838110156121ee5781810151838201526020016121d6565b83811115610e795750506000910152565b6001600160a01b0381168114610f2957600080fdfe416464726573733a20696e73756666696369656e742062616c616e636520666f722063616c6c5361666545524332303a204552433230206f7065726174696f6e20646964206e6f742073756363656564a26469706673582212202eb2be9f2d96f3d7f8bcb55596a7fa7417647d63053a9d7145458d452f33acd864736f6c63430007060033",
  "linkReferences": {},
  "deployedLinkReferences": {}
}