{
  "abi": [
    {
      "inputs": [],
      "name": "lastData",
      "outputs": [
        {
          "internalType": "bytes",
          "name": "",
          "type": "bytes"
        }
      ],
      "stateMutability": "view",
      "type": "function"
    },
    {
      "inputs": [
        {
          "internalType": "address",
          "name": "",
          "type": "address"
        },
        {
          "internalType": "bytes",
          "name": "",
          "type": "bytes"
        }
      ],
      "name": "read",
      "outputs": [
        {
          "internalType": "bytes",
          "name": "data",
          "type": "bytes"
        }
      ],
      "stateMutability": "view",
      "type": "function"
    },
    {
      "inputs": [
        {
          "internalType": "uint256[]",
          "name": "",
          "type": "uint256[]"
        },
        {
          "internalType": "bytes",
          "name": "data",
          "type": "bytes"
        }
      ],
      "name": "update",
      "outputs": [],
      "stateMutability": "nonpayable",
      "type": "function"
    }
  ],
  "bytecode": {
    "object": "0x608060405234801561001057600080fd5b506104f7806100206000396000f3fe608060405234801561001057600080fd5b50600436106100405760003560e01c80626e75ec14610045578063497163ef14610063578063d79f44eb14610078575b600080fd5b61004d61008b565b60405161005a91906101c3565b60405180910390f35b61007661007136600461025a565b610119565b005b61004d6100863660046102f4565b61012d565b6000805461009890610362565b80601f01602080910402602001604051908101604052809291908181526020018280546100c490610362565b80156101115780601f106100e657610100808354040283529160200191610111565b820191906000526020600020905b8154815290600101906020018083116100f457829003601f168201915b505050505081565b6000610126828483610401565b5050505050565b60606000805461013c90610362565b80601f016020809104026020016040519081016040528092919081815260200182805461016890610362565b80156101b55780601f1061018a576101008083540402835291602001916101b5565b820191906000526020600020905b81548152906001019060200180831161019857829003601f168201915b505050505090509392505050565b600060208083528351808285015260005b818110156101f0578581018301518582016040015282016101d4565b506000604082860101526040601f19601f8301168501019250505092915050565b60008083601f84011261022357600080fd5b50813567ffffffffffffffff81111561023b57600080fd5b60208301915083602082850101111561025357600080fd5b9250929050565b6000806000806040858703121561027057600080fd5b843567ffffffffffffffff8082111561028857600080fd5b818701915087601f83011261029c57600080fd5b8135818111156102ab57600080fd5b8860208260051b85010111156102c057600080fd5b6020928301965094509086013590808211156102db57600080fd5b506102e887828801610211565b95989497509550505050565b60008060006040848603121561030957600080fd5b833573ffffffffffffffffffffffffffffffffffffffff8116811461032d57600080fd5b9250602084013567ffffffffffffffff81111561034957600080fd5b61035586828701610211565b9497909650939450505050565b600181811c9082168061037657607f821691505b60208210810361039657634e487b7160e01b600052602260045260246000fd5b50919050565b634e487b7160e01b600052604160045260246000fd5b601f8211156103fc57600081815260208120601f850160051c810160208610156103d95750805b601f850160051c820191505b818110156103f8578281556001016103e5565b5050505b505050565b67ffffffffffffffff8311156104195761041961039c565b61042d836104278354610362565b836103b2565b6000601f84116001811461046157600085156104495750838201355b600019600387901b1c1916600186901b178355610126565b600083815260209020601f19861690835b828110156104925786850135825560209485019460019092019101610472565b50868210156104af5760001960f88860031b161c19848701351681555b505060018560011b018355505050505056fea264697066735822122060af320c602d0b5e66c30c003b897c36000f37082430b00e92db03f9c122629f64736f6c63430008110033",
    "linkReferences": {}
  },
  "methodIdentifiers": {
    "lastData()": "006e75ec",
    "read(address,bytes)": "d79f44eb",
    "update(uint256[],bytes)": "497163ef"
  },
  "id": 50
}