{
  "abi": [
    {
      "inputs": [
        {
          "internalType": "bytes16",
          "name": "_maxPercentIncrease",
          "type": "bytes16"
        },
        {
          "internalType": "bytes16",
          "name": "_maxPercentDecrease",
          "type": "bytes16"
        },
        {
          "internalType": "uint256",
          "name": "_blockTime",
          "type": "uint256"
        },
        {
          "internalType": "bytes16",
          "name": "_alpha",
          "type": "bytes16"
        }
      ],
      "stateMutability": "nonpayable",
      "type": "constructor"
    },
    {
      "inputs": [
        {
          "internalType": "bytes16",
          "name": "a",
          "type": "bytes16"
        }
      ],
      "name": "InvalidAArgument",
      "type": "error"
    },
    {
      "inputs": [
        {
          "internalType": "bytes16",
          "name": "maxPercentDecrease",
          "type": "bytes16"
        }
      ],
      "name": "InvalidMaxPercentDecreaseArgument",
      "type": "error"
    },
    {
      "inputs": [],
      "name": "NoTimePassed",
      "type": "error"
    },
    {
      "inputs": [],
      "name": "NotInitialized",
      "type": "error"
    },
    {
      "inputs": [
        {
          "internalType": "address",
          "name": "well",
          "type": "address"
        },
        {
          "internalType": "bytes",
          "name": "",
          "type": "bytes"
        }
      ],
      "name": "readCumulativeReserves",
      "outputs": [
        {
          "internalType": "bytes",
          "name": "cumulativeReserves",
          "type": "bytes"
        }
      ],
      "stateMutability": "view",
      "type": "function"
    },
    {
      "inputs": [
        {
          "internalType": "address",
          "name": "well",
          "type": "address"
        },
        {
          "internalType": "bytes",
          "name": "",
          "type": "bytes"
        }
      ],
      "name": "readInstantaneousReserves",
      "outputs": [
        {
          "internalType": "uint256[]",
          "name": "emaReserves",
          "type": "uint256[]"
        }
      ],
      "stateMutability": "view",
      "type": "function"
    },
    {
      "inputs": [
        {
          "internalType": "address",
          "name": "well",
          "type": "address"
        }
      ],
      "name": "readLastCumulativeReserves",
      "outputs": [
        {
          "internalType": "bytes16[]",
          "name": "reserves",
          "type": "bytes16[]"
        }
      ],
      "stateMutability": "view",
      "type": "function"
    },
    {
      "inputs": [
        {
          "internalType": "address",
          "name": "well",
          "type": "address"
        }
      ],
      "name": "readLastInstantaneousReserves",
      "outputs": [
        {
          "internalType": "uint256[]",
          "name": "reserves",
          "type": "uint256[]"
        }
      ],
      "stateMutability": "view",
      "type": "function"
    },
    {
      "inputs": [
        {
          "internalType": "address",
          "name": "well",
          "type": "address"
        }
      ],
      "name": "readLastReserves",
      "outputs": [
        {
          "internalType": "uint256[]",
          "name": "reserves",
          "type": "uint256[]"
        }
      ],
      "stateMutability": "view",
      "type": "function"
    },
    {
      "inputs": [
        {
          "internalType": "address",
          "name": "well",
          "type": "address"
        },
        {
          "internalType": "bytes",
          "name": "startCumulativeReserves",
          "type": "bytes"
        },
        {
          "internalType": "uint256",
          "name": "startTimestamp",
          "type": "uint256"
        },
        {
          "internalType": "bytes",
          "name": "",
          "type": "bytes"
        }
      ],
      "name": "readTwaReserves",
      "outputs": [
        {
          "internalType": "uint256[]",
          "name": "twaReserves",
          "type": "uint256[]"
        },
        {
          "internalType": "bytes",
          "name": "cumulativeReserves",
          "type": "bytes"
        }
      ],
      "stateMutability": "view",
      "type": "function"
    },
    {
      "inputs": [
        {
          "internalType": "uint256[]",
          "name": "reserves",
          "type": "uint256[]"
        },
        {
          "internalType": "bytes",
          "name": "",
          "type": "bytes"
        }
      ],
      "name": "update",
      "outputs": [],
      "stateMutability": "nonpayable",
      "type": "function"
    }
  ],
  "bytecode": {
    "object": "0x6101006040523480156200001257600080fd5b506040516200492d3803806200492d83398101604081905262000035916200080d565b6200007162000056613fff60f01b866200013c602090811b62000c1617901c565b6001600160801b0319166200055960201b62000ff91760201c565b6001600160801b0319908116608052613fff60f01b9084161115620000ba57604051639ca74ecf60e01b81526001600160801b0319841660048201526024015b60405180910390fd5b620000db62000056613fff60f01b856200072d602090811b620011b617901c565b6001600160801b031990811660a05260e0839052613fff60f01b9082161115620001255760405163aa7bedc960e01b81526001600160801b031982166004820152602401620000b1565b6001600160801b03191660c0525062000861915050565b6000617fff60f084811c8216919084901c8116908290036200019e5780617fff0362000193576001600160801b0319808516908616036200018257849250505062000553565b5061ffff60ef1b9150620005539050565b849250505062000553565b80617fff03620001b357839250505062000553565b6001607f1b608086901c90811015906001600160701b03166000849003620001df5760019350620001e6565b600160701b175b6001607f1b608087901c90811015906001600160701b0316600085900362000212576001945062000219565b600160701b175b8260000362000250576001600160801b03198816600160ff1b146200023f578762000242565b60005b965050505050505062000553565b8060000362000276576001600160801b03198916600160ff1b146200023f578862000242565b84860382151585151503620003915760708113156200029f578997505050505050505062000553565b6000811315620002b35790811c90620002e5565b606f19811215620002ce578897505050505050505062000553565b6000811215620002e5578060000384901c93508596505b92810192600160711b841062000301576001968701969390931c925b86617fff036200033657846200031d57617fff60f01b62000327565b6001600160f01b03195b97505050505050505062000553565b600160701b8410156200034d57600096506200035a565b6001600160701b03841693505b83607088901b866200036e57600062000374565b6001607f1b5b6001600160801b0316171760801b97505050505050505062000553565b6000811315620003ae57600184901b9350600187039650620003c6565b6000811215620003c657600182901b91506001860396505b6070811315620003da57600191506200042c565b6001811315620003f9576001810360018303901c60010191506200042c565b606f198112156200040e57600193506200042c565b6000198112156200042c576001816000030360018503901c60010193505b8184106200043f57818403935062000448565b83820393508294505b83600003620004635750600096506200055395505050505050565b6000620004708562000748565b9050806071036200049757600185901c6001600160701b03169450600188019750620004ea565b6070811015620004dd57607081900380891115620004c9578086901b6001600160701b031695508089039850620004d6565b600098600019019590951b945b50620004ea565b6001600160701b03851694505b87617fff036200052057856200050657617fff60f01b62000510565b6001600160f01b03195b9850505050505050505062000553565b84607089901b87620005345760006200053a565b6001607f1b5b6001600160801b0316171760801b985050505050505050505b92915050565b60006001607f1b608083901c111562000578575061ffff60ef1b919050565b6001600160801b03198216613fff60f01b036200059757506000919050565b617fff60f083901c811690819003620005b1575090919050565b6001600160701b03608084901c166000829003620005d35760019150620005da565b600160701b175b80600003620005f457506001600160f01b03199392505050565b600061406f81613fff85106200061c5750600f9290921b9160009150613ffe1984016200065f565b60019250600160701b8410620006405784613ffe039050600f84901b93506200065f565b60006200064d8562000748565b607f8190039590951b9461406d039150505b836001607f1b036200069a57821562000676576001015b6000620006838262000748565b60700390508082901b9150808303925050620006ec565b600083620006aa576000620006ad565b60015b60ff1690505b600160701b821015620006ea5793800260ff81901c607f81019190911c94600019939093019260019290921b9082180190620006b3565b505b806001600160701b0316607083901b84620007095760006200070f565b6001607f1b5b6001600160801b0316171760801b979650505050505050565b919050565b60006200074183600160ff1b84186200013c565b9392505050565b60008082116200075757600080fd5b6000600160801b83106200076d57608092831c92015b6801000000000000000083106200078657604092831c92015b64010000000083106200079b57602092831c92015b620100008310620007ae57601092831c92015b6101008310620007c057600892831c92015b60108310620007d157600492831c92015b60048310620007e257600292831c92015b60028310620005535760010192915050565b80516001600160801b0319811681146200072857600080fd5b600080600080608085870312156200082457600080fd5b6200082f85620007f4565b93506200083f60208601620007f4565b9250604085015191506200085660608601620007f4565b905092959194509250565b60805160a05160c05160e05161407d620008b0600039600081816102be015281816106a301526133cd01526000818161028301526106da0152600061181e0152600061188f015261407d6000f3fe608060405234801561001057600080fd5b506004361061007d5760003560e01c8063944fc4dd1161005b578063944fc4dd146100e05780639dc1a10e146100f3578063be8f949e14610113578063d393b27a1461012657600080fd5b8063497163ef146100825780636832326a146100975780636de13cba146100c0575b600080fd5b610095610090366004613a72565b610147565b005b6100aa6100a5366004613b30565b610527565b6040516100b79190613b4b565b60405180910390f35b6100d36100ce366004613c50565b6105a0565b6040516100b79190613cd9565b6100d36100ee366004613b30565b61085e565b610106610101366004613c50565b610987565b6040516100b79190613d32565b6100d3610121366004613b30565b6109bf565b610139610134366004613d45565b610aa9565b6040516100b7929190613dc9565b6040805160808101825260008152606060208201819052918101829052818101829052849133901b6bffffffffffffffffffffffff1916610187816111cf565b602085015264ffffffffff16808452600003905061022a5760005b838110156101e3578787828181106101bc576101bc613dee565b905060200201356000036101d35750505050610521565b6101dc81613e1a565b90506101a2565b5061022281428989808060200260200160405190810160405280939291908181526020018383602002808284376000920191909152506112e292505050565b505050610521565b6000610235846113df565b918201919050610245828561140d565b604084015290810190610258828561140d565b836060018190525060008060008061027387600001516114dc565b90506102a96001600160801b03197f000000000000000000000000000000000000000000000000000000000000000016826114f5565b93506102b48161155c565b92506102e86102e37f000000000000000000000000000000000000000000000000000000000000000083613e49565b61155c565b91505060005b878110156104dc576103658760200151828151811061030f5761030f613dee565b602002602001015161035f60008f8f8681811061032e5761032e613dee565b90506020020135116103415760016115c3565b8e8e8581811061035357610353613dee565b905060200201356115c3565b846117e9565b8760200151828151811061037b5761037b613dee565b60200260200101906001600160801b03191690816001600160801b031916815250506104126103da85896040015184815181106103ba576103ba613dee565b60200260200101516001600160801b0319166118f790919063ffffffff16565b6104026103ec613fff60f01b886111b6565b8a6020015185815181106103ba576103ba613dee565b6001600160801b03191690610c16565b8760400151828151811061042857610428613dee565b60200260200101906001600160801b03191690816001600160801b0319168152505061049d61046784896020015184815181106103ba576103ba613dee565b8860600151838151811061047d5761047d613dee565b60200260200101516001600160801b031916610c1690919063ffffffff16565b876060015182815181106104b3576104b3613dee565b6001600160801b0319909216602092830291909101909101526104d581613e1a565b90506102ee565b5060608601516104ed908690611b84565b60408601519484900394610502908690611b84565b602086015194849003946105199086904290611c2c565b505050505050505b50505050565b6060600082821b6bffffffffffffffffffffffff19169050600061054c825460f81c90565b90508060ff16600003610572576040516321c4e35760e21b815260040160405180910390fd5b600060016105828360ff166113df565b901b9283019290506105978360ff841661140d565b95945050505050565b6060600083821b6bffffffffffffffffffffffff1916905060008473ffffffffffffffffffffffffffffffffffffffff16630902f1ac6040518163ffffffff1660e01b8152600401600060405180830381865afa158015610605573d6000803e3d6000fd5b505050506040513d6000823e601f3d908101601f1916820160405261062d9190810190613e81565b9050600080600061063d856111cf565b9250925092508260ff16600003610667576040516321c4e35760e21b815260040160405180910390fd5b60006106758460ff166113df565b958601959050600061068a8760ff871661140d565b90506000610697856114dc565b905060006106c86102e37f000000000000000000000000000000000000000000000000000000000000000084613e49565b905060006107006001600160801b03197f000000000000000000000000000000000000000000000000000000000000000016846114f5565b90508760ff1667ffffffffffffffff81111561071e5761071e613b99565b604051908082528060200260200182016040528015610747578160200160208202803683370190505b509a5060005b8860ff1681101561084d5761079d87828151811061076d5761076d613dee565b60200260200101516107978c848151811061078a5761078a613dee565b60200260200101516115c3565b856117e9565b8782815181106107af576107af613dee565b60200260200101906001600160801b03191690816001600160801b031916815250506108206108116107ed848885815181106103ba576103ba613dee565b6104026107ff613fff60f01b876111b6565b8b86815181106103ba576103ba613dee565b6001600160801b031916611d13565b8c828151811061083257610832613dee565b602090810291909101015261084681613e1a565b905061074d565b505050505050505050505092915050565b6060600082821b6bffffffffffffffffffffffff191690506000610883825460f81c90565b90508060ff166000036108a9576040516321c4e35760e21b815260040160405180910390fd5b60006108b78260ff166113df565b92830192905060006108cc8460ff851661140d565b90508260ff1667ffffffffffffffff8111156108ea576108ea613b99565b604051908082528060200260200182016040528015610913578160200160208202803683370190505b50945060005b8360ff1681101561097d5761095082828151811061093957610939613dee565b60200260200101516001600160801b031916611d13565b86828151811061096257610962613dee565b602090810291909101015261097681613e1a565b9050610919565b5050505050919050565b60606000610994846132bb565b9050806040516020016109a79190613b4b565b60405160208183030381529060405291505092915050565b60606bffffffffffffffffffffffff1982821b166000806109df836111cf565b92505091508160ff16600003610a08576040516321c4e35760e21b815260040160405180910390fd5b8160ff1667ffffffffffffffff811115610a2457610a24613b99565b604051908082528060200260200182016040528015610a4d578160200160208202803683370190505b50935060005b8260ff16811015610aa057610a7382828151811061093957610939613dee565b858281518110610a8557610a85613dee565b6020908102919091010152610a9981613e1a565b9050610a53565b50505050919050565b6060806000610ab7886132bb565b90506000610ac787890189613f17565b9050815167ffffffffffffffff811115610ae357610ae3613b99565b604051908082528060200260200182016040528015610b0c578160200160208202803683370190505b5093506000610b1d6102e3886114dc565b90506001600160801b03198116610b4757604051630b91474960e01b815260040160405180910390fd5b60005b8351811015610be657610bb961081183610ba9868581518110610b6f57610b6f613dee565b6020026020010151888681518110610b8957610b89613dee565b60200260200101516001600160801b0319166111b690919063ffffffff16565b6001600160801b031916906134db565b868281518110610bcb57610bcb613dee565b6020908102919091010152610bdf81613e1a565b9050610b4a565b5082604051602001610bf89190613b4b565b60405160208183030381529060405293505050509550959350505050565b6000617fff60f084811c8216919084901c811690829003610c725780617fff03610c68576001600160801b031980851690861603610c58578492505050610ff3565b5061ffff60ef1b9150610ff39050565b8492505050610ff3565b80617fff03610c85578392505050610ff3565b6001607f1b608086901c90811015906001600160701b03166000849003610caf5760019350610cb6565b600160701b175b6001607f1b608087901c90811015906001600160701b03166000859003610ce05760019450610ce7565b600160701b175b82600003610d1a576001600160801b03198816600160ff1b14610d0a5787610d0d565b60005b9650505050505050610ff3565b80600003610d3d576001600160801b03198916600160ff1b14610d0a5788610d0d565b84860382151585151503610e46576070811315610d635789975050505050505050610ff3565b6000811315610d755790811c90610da4565b606f19811215610d8e5788975050505050505050610ff3565b6000811215610da4578060000384901c93508596505b92810192600160711b8410610dbf576001968701969390931c925b86617fff03610df05784610dd857617fff60f01b610de2565b6001600160f01b03195b975050505050505050610ff3565b600160701b841015610e055760009650610e12565b6001600160701b03841693505b83607088901b86610e24576000610e2a565b6001607f1b5b6001600160801b0316171760801b975050505050505050610ff3565b6000811315610e6157600184901b9350600187039650610e78565b6000811215610e7857600182901b91506001860396505b6070811315610e8a5760019150610ed7565b6001811315610ea7576001810360018303901c6001019150610ed7565b606f19811215610eba5760019350610ed7565b600019811215610ed7576001816000030360018503901c60010193505b818410610ee8578184039350610ef1565b83820393508294505b83600003610f0a575060009650610ff395505050505050565b6000610f15856137bf565b905080607103610f3a57600185901c6001600160701b03169450600188019750610f89565b6070811015610f7c57607081900380891115610f69578086901b6001600160701b031695508089039850610f76565b600098600019019590951b945b50610f89565b6001600160701b03851694505b87617fff03610fbb5785610fa257617fff60f01b610fac565b6001600160f01b03195b98505050505050505050610ff3565b84607089901b87610fcd576000610fd3565b6001607f1b5b6001600160801b0316171760801b98505050505050505050610ff3565b50505b92915050565b60006001607f1b608083901c1115611017575061ffff60ef1b919050565b6001600160801b03198216613fff60f01b0361103557506000919050565b617fff60f083901c81169081900361104e575090919050565b6001600160701b03608084901c16600082900361106e5760019150611075565b600160701b175b8060000361108e57506001600160f01b03199392505050565b600061406f81613fff85106110b45750600f9290921b9160009150613ffe1984016110f3565b60019250600160701b84106110d65784613ffe039050600f84901b93506110f3565b60006110e1856137bf565b607f8190039590951b9461406d039150505b836001607f1b03611129578215611108576001015b6000611113826137bf565b60700390508082901b9150808303925050611177565b60008361113757600061113a565b60015b60ff1690505b600160701b8210156111755793800260ff81901c607f81019190911c94600019939093019260019290921b9082180190611140565b505b806001600160701b0316607083901b84611192576000611198565b6001607f1b5b6001600160801b0316171760801b979650505050505050565b919050565b60006111c883600160ff1b8418610c16565b9392505050565b805460f881901c9060d081901c9060609060008490036111ef57506112db565b8360ff1667ffffffffffffffff81111561120b5761120b613b99565b604051908082528060200260200182016040528015611234578160200160208202803683370190505b5091508060681c60981b60208301528360ff1660010361125457506112db565b8060981b604083015260028460ff1611156112d957600060035b8560ff1681116112d6576002611285600183613fb4565b61128f9190613e49565b61129a906020613fc7565b9150806001166001036112b75781870154602082028501526112c6565b8187015460801b602082028501525b6112cf81613e1a565b905061126e565b50505b505b9193909250565b805160008167ffffffffffffffff8111156112ff576112ff613b99565b604051908082528060200260200182016040528015611328578160200160208202803683370190505b50905060005b828110156113af5783818151811061134857611348613dee565b602002602001015160000361135f57505050505050565b61137484828151811061078a5761078a613dee565b82828151811061138657611386613dee565b6001600160801b0319909216602092830291909101909101526113a881613e1a565b905061132e565b506113bb858583611c2c565b60006113c782516113df565b9586019590506113d78683611b84565b505050505050565b6000600560026113f0600185613fb4565b6113fa9190613e49565b611405906001613fde565b901b92915050565b60608167ffffffffffffffff81111561142857611428613b99565b604051908082528060200260200182016040528015611451578160200160208202803683370190505b509050816002036114725782546020820152825460801b6040820152610ff3565b600060015b838111610ff057600261148b600183613fb4565b6114959190613e49565b6114a0906020613fc7565b9150806001166001036114bd5781850154602082028401526114cc565b8185015460801b602082028401525b6114d581613e1a565b9050611477565b60006114e88242613ff1565b64ffffffffff1692915050565b600080611502600161155c565b9050600083600116116115155780611517565b835b9150600183901c92505b82156115555761153184856118f7565b935060018316156115495761154682856118f7565b91505b600183901c9250611521565b5092915050565b60008160000361156e57506000919050565b81600061157a826137bf565b90506070811015611593578060700382901b91506115a6565b60708111156115a6576070810382901c91505b613fff0160701b6001600160701b03919091161760801b92915050565b6000816000036115d557506000919050565b8160006115e1826137bf565b905060708110156115fa578060700382901b915061160d565b607081111561160d576070810382901c91505b607081613fff01901b826001600160701b03161791506001607f1b826001600160801b03161115611646575061ffff60ef1b9392505050565b6001600160801b0319608083901b16613fff60f01b0361166a575060009392505050565b617fff607083901c81169081900361168757505060801b92915050565b6001600160701b03831660008290036116a357600191506116aa565b600160701b175b806000036116c557506001600160f01b031995945050505050565b600061406f81613fff85106116eb5750600f9290921b9160009150613ffe198401611729565b60019250600160701b841061170d5784613ffe039050600f84901b9350611729565b611716846137bf565b95508561406d03905085607f0384901b93505b836001607f1b0361175f57821561173e576001015b6000611749826137bf565b60700390508082901b91508083039250506117ad565b60008361176d576000611770565b60015b60ff1690505b600160701b8210156117ab5793800260ff81901c607f81019190911c94600019939093019260019290921b9082180190611776565b505b806001600160701b0316607083901b846117c85760006117ce565b6001607f1b5b6001600160801b0316171760801b9998505050505050505050565b60006117ff6001600160801b031985168461386f565b60000b60010361187d5760006118536118426001600160801b031985167f00000000000000000000000000000000000000000000000000000000000000006118f7565b6001600160801b0319871690610c16565b90506118696001600160801b031982168561386f565b60000b600103611877578093505b506118ef565b60006118b36001600160801b031984167f00000000000000000000000000000000000000000000000000000000000000006118f7565b90506118c96001600160801b0319861682610c16565b90506118df6001600160801b031985168261386f565b60000b6001036118ed578093505b505b509092915050565b6000617fff60f084811c8216919084901c8116908290036119a05780617fff03611962576001600160801b03198085169086160361194057505050600160ff1b81168218610ff3565b6001600160801b031985851816600160ff1b03610c5857505050818117610ff3565b6f7fffffffffffffffffffffffffffffff60801b841660000361198f575061ffff60ef1b9150610ff39050565b505050600160ff1b81168218610ff3565b80617fff036119e7576f7fffffffffffffffffffffffffffffff60801b85166000036119d6575061ffff60ef1b9150610ff39050565b505050600160ff1b82168118610ff3565b6001600160701b03608086901c166000839003611a075760019250611a0e565b600160701b175b6001600160701b03608086901c166000839003611a2e5760019250611a35565b600160701b175b808202915081600003611a6757600160ff1b87871816611a56576000611a5c565b600160ff1b5b945050505050610ff3565b928201926000600160e11b831015611a9a57600160e01b831015611a9357611a8e836137bf565b611a9d565b60e0611a9d565b60e15b90506140708186011015611ab8576000945060009250611b55565b6140e08186011015611afb57614070851015611add57846140700383901c9250611af2565b614070851115611af257614070850383901b92505b60009450611b55565b61c0dd8186011115611b1557617fff945060009250611b55565b6070811115611b2c576070810383901c9250611b3f565b6070811015611b3f578060700383901b92505b6001600160701b03831692506140df8186010394505b82607086901b888a186001607f1b60801b1660801c6001600160801b0316171760801b95505050505050610ff3565b8051600203611ba157604081015160801c60208201510182555050565b600060028251611bb19190613e49565b90506000805b82811015611bf657611bca816040613fc7565b91506040820184015160801c60208301850151016020820286015580611bef90613e1a565b9050611bb7565b50825160011660010361052157611c0e826040613fc7565b90508184015460801c60208201840151016020830285015550505050565b805160ff8116600103611c5657602082015160981c60681b8160f81b8460d01b1717845550505050565b604082015160981c602083015160981c60681b178160f81b8460d01b1717845560028160ff161115610521576000611c8f60028361400f565b60ff169050600060015b82811015611cd857611cac816040613fc7565b91506040820185015160801c60208301860151016020820288015580611cd190613e1a565b9050611c99565b5083516001166001036113d757611cf0826040613fc7565b90508186015460801b60801c602082018501510160208302870155505050505050565b60006001607f1b608083901c90811190617fff60f085901c8116916001600160701b031690849083148015611d4757508115155b15611d6457611d5a61ffff60ef1b6139a6565b9695505050505050565b61400d831115611d905783611d8657611d81617fff60f01b6139a6565b611d5a565b611d5a60006139a6565b613f7f831015611da857611d5a613fff60f01b6139a6565b82600003611db95760019250611dc3565b600160701b821791505b613fef831115611ddc57613fef830382901b9150611df1565b613fef831015611df15782613fef0382901c91505b838015611e0f575071406e0000000000000000000000000000000082115b15611e1e57611d5a60006139a6565b83158015611e3d5750713fffffffffffffffffffffffffffffffffff82115b15611e5057611d5a617fff60f01b6139a6565b6001600160801b0382169160801c848015611e6a57508215155b15611e76579119916001015b6001607f1b83811615611e9a5770016a09e667f3bcc908b2fb1366ea957d3e0260801c5b6f40000000000000000000000000000000841615611ec9577001306fe0a31b7152de8d5a46305c85edec0260801c5b6f20000000000000000000000000000000841615611ef8577001172b83c7d517adcdf7c8c50eb14a791f0260801c5b6f10000000000000000000000000000000841615611f275770010b5586cf9890f6298b92b71842a983630260801c5b6f08000000000000000000000000000000841615611f56577001059b0d31585743ae7c548eb68ca417fd0260801c5b6f04000000000000000000000000000000841615611f8557700102c9a3e778060ee6f7caca4f7a29bde80260801c5b6f02000000000000000000000000000000841615611fb45770010163da9fb33356d84a66ae336dcdfa3f0260801c5b6f01000000000000000000000000000000841615611fe357700100b1afa5abcbed6129ab13ec11dc95430260801c5b6e8000000000000000000000000000008416156120115770010058c86da1c09ea1ff19d294cf2f679b0260801c5b6e40000000000000000000000000000084161561203f577001002c605e2e8cec506d21bfc89a23a00f0260801c5b6e20000000000000000000000000000084161561206d57700100162f3904051fa128bca9c55c31e5df0260801c5b6e10000000000000000000000000000084161561209b577001000b175effdc76ba38e31671ca9397250260801c5b6e0800000000000000000000000000008416156120c957700100058ba01fb9f96d6cacd4b180917c3d0260801c5b6e0400000000000000000000000000008416156120f75770010002c5cc37da9491d0985c348c68e7b30260801c5b600160711b84161561211a577001000162e525ee054754457d59952920260260801c5b600160701b84161561213d5770010000b17255775c040618bf4a4ade83fc0260801c5b6d800000000000000000000000000084161561216a577001000058b91b5bc9ae2eed81e9b7d4cfab0260801c5b6d400000000000000000000000000084161561219757700100002c5c89d5ec6ca4d7c8acc017b7c90260801c5b6d20000000000000000000000000008416156121c45770010000162e43f4f831060e02d839a9d16d0260801c5b6d10000000000000000000000000008416156121f157700100000b1721bcfc99d9f890ea069117630260801c5b6d080000000000000000000000000084161561221e5770010000058b90cf1e6d97f9ca14dbcc16280260801c5b6d040000000000000000000000000084161561224b577001000002c5c863b73f016468f6bac5ca2b0260801c5b6d020000000000000000000000000084161561227857700100000162e430e5a18f6119e3c02282a50260801c5b6d01000000000000000000000000008416156122a5577001000000b1721835514b86e6d96efd1bfe0260801c5b6c800000000000000000000000008416156122d157700100000058b90c0b48c6be5df846c5b2ef0260801c5b6c400000000000000000000000008416156122fd5770010000002c5c8601cc6b9e94213c72737a0260801c5b6c20000000000000000000000000841615612329577001000000162e42fff037df38aa2b219f060260801c5b6c100000000000000000000000008416156123555770010000000b17217fba9c739aa5819f44f90260801c5b6c08000000000000000000000000841615612381577001000000058b90bfcdee5acd3c1cedc8230260801c5b6c040000000000000000000000008416156123ad57700100000002c5c85fe31f35a6a30da1be500260801c5b6c020000000000000000000000008416156123d95770010000000162e42ff0999ce3541b9fffcf0260801c5b6c0100000000000000000000000084161561240557700100000000b17217f80f4ef5aadda455540260801c5b6b8000000000000000000000008416156124305770010000000058b90bfbf8479bd5a81b51ad0260801c5b6b40000000000000000000000084161561245b577001000000002c5c85fdf84bd62ae30a74cc0260801c5b6b20000000000000000000000084161561248657700100000000162e42fefb2fed257559bdaa0260801c5b6b1000000000000000000000008416156124b1577001000000000b17217f7d5a7716bba4a9ae0260801c5b6b0800000000000000000000008416156124dc57700100000000058b90bfbe9ddbac5e109cce0260801c5b6b0400000000000000000000008416156125075770010000000002c5c85fdf4b15de6f17eb0d0260801c5b6b020000000000000000000000841615612532577001000000000162e42fefa494f1478fde050260801c5b6b01000000000000000000000084161561255d5770010000000000b17217f7d20cf927c8e94c0260801c5b6a8000000000000000000000841615612587577001000000000058b90bfbe8f71cb4e4b33d0260801c5b6a40000000000000000000008416156125b157700100000000002c5c85fdf477b662b269450260801c5b6a20000000000000000000008416156125db5770010000000000162e42fefa3ae53369388c0260801c5b6a100000000000000000000084161561260557700100000000000b17217f7d1d351a389d400260801c5b6a080000000000000000000084161561262f5770010000000000058b90bfbe8e8b2d3d4ede0260801c5b6a0400000000000000000000841615612659577001000000000002c5c85fdf4741bea6e77e0260801c5b6a020000000000000000000084161561268357700100000000000162e42fefa39fe95583c20260801c5b6a01000000000000000000008416156126ad577001000000000000b17217f7d1cfb72b45e10260801c5b69800000000000000000008416156126d657700100000000000058b90bfbe8e7cc35c3f00260801c5b69400000000000000000008416156126ff5770010000000000002c5c85fdf473e242ea380260801c5b6920000000000000000000841615612728577001000000000000162e42fefa39f02b772c0260801c5b69100000000000000000008416156127515770010000000000000b17217f7d1cf7d83c1a0260801c5b690800000000000000000084161561277a577001000000000000058b90bfbe8e7bdcbe2e0260801c5b69040000000000000000008416156127a357700100000000000002c5c85fdf473dea871f0260801c5b69020000000000000000008416156127cc5770010000000000000162e42fefa39ef44d910260801c5b69010000000000000000008416156127f557700100000000000000b17217f7d1cf79e9490260801c5b6880000000000000000084161561281d5770010000000000000058b90bfbe8e7bce5440260801c5b68400000000000000000841615612845577001000000000000002c5c85fdf473de6eca0260801c5b6820000000000000000084161561286d57700100000000000000162e42fefa39ef366f0260801c5b68100000000000000000841615612895577001000000000000000b17217f7d1cf79afa0260801c5b680800000000000000008416156128bd57700100000000000000058b90bfbe8e7bcd6d0260801c5b680400000000000000008416156128e55770010000000000000002c5c85fdf473de6b20260801c5b6802000000000000000084161561290d577001000000000000000162e42fefa39ef3580260801c5b680100000000000000008416156129355770010000000000000000b17217f7d1cf79ab0260801c5b67800000000000000084161561295c577001000000000000000058b90bfbe8e7bcd50260801c5b67400000000000000084161561298357700100000000000000002c5c85fdf473de6a0260801c5b6720000000000000008416156129aa5770010000000000000000162e42fefa39ef340260801c5b6710000000000000008416156129d157700100000000000000000b17217f7d1cf7990260801c5b6708000000000000008416156129f85770010000000000000000058b90bfbe8e7bcc0260801c5b670400000000000000841615612a1f577001000000000000000002c5c85fdf473de50260801c5b670200000000000000841615612a4657700100000000000000000162e42fefa39ef20260801c5b670100000000000000841615612a6d577001000000000000000000b17217f7d1cf780260801c5b6680000000000000841615612a9357700100000000000000000058b90bfbe8e7bb0260801c5b6640000000000000841615612ab95770010000000000000000002c5c85fdf473dd0260801c5b6620000000000000841615612adf577001000000000000000000162e42fefa39ee0260801c5b6610000000000000841615612b055770010000000000000000000b17217f7d1cf60260801c5b6608000000000000841615612b2b577001000000000000000000058b90bfbe8e7a0260801c5b6604000000000000841615612b5157700100000000000000000002c5c85fdf473c0260801c5b6602000000000000841615612b775770010000000000000000000162e42fefa39d0260801c5b6601000000000000841615612b9d57700100000000000000000000b17217f7d1ce0260801c5b65800000000000841615612bc25770010000000000000000000058b90bfbe8e60260801c5b65400000000000841615612be7577001000000000000000000002c5c85fdf4720260801c5b65200000000000841615612c0c57700100000000000000000000162e42fefa380260801c5b65100000000000841615612c31577001000000000000000000000b17217f7d1b0260801c5b65080000000000841615612c5657700100000000000000000000058b90bfbe8d0260801c5b65040000000000841615612c7b5770010000000000000000000002c5c85fdf460260801c5b65020000000000841615612ca0577001000000000000000000000162e42fefa20260801c5b65010000000000841615612cc55770010000000000000000000000b17217f7d00260801c5b648000000000841615612ce9577001000000000000000000000058b90bfbe70260801c5b644000000000841615612d0d57700100000000000000000000002c5c85fdf30260801c5b642000000000841615612d315770010000000000000000000000162e42fef90260801c5b641000000000841615612d5557700100000000000000000000000b17217f7c0260801c5b640800000000841615612d795770010000000000000000000000058b90bfbd0260801c5b640400000000841615612d9d577001000000000000000000000002c5c85fde0260801c5b640200000000841615612dc157700100000000000000000000000162e42fee0260801c5b640100000000841615612de5577001000000000000000000000000b17217f60260801c5b6380000000841615612e0857700100000000000000000000000058b90bfa0260801c5b6340000000841615612e2b5770010000000000000000000000002c5c85fc0260801c5b6320000000841615612e4e577001000000000000000000000000162e42fd0260801c5b6310000000841615612e715770010000000000000000000000000b17217e0260801c5b6308000000841615612e94577001000000000000000000000000058b90be0260801c5b6304000000841615612eb757700100000000000000000000000002c5c85e0260801c5b6302000000841615612eda5770010000000000000000000000000162e42e0260801c5b6301000000841615612efd57700100000000000000000000000000b172160260801c5b62800000841615612f1f5770010000000000000000000000000058b90a0260801c5b62400000841615612f41577001000000000000000000000000002c5c840260801c5b62200000841615612f6357700100000000000000000000000000162e410260801c5b62100000841615612f85577001000000000000000000000000000b17200260801c5b62080000841615612fa757700100000000000000000000000000058b8f0260801c5b62040000841615612fc95770010000000000000000000000000002c5c70260801c5b62020000841615612feb577001000000000000000000000000000162e30260801c5b6201000084161561300d5770010000000000000000000000000000b1710260801c5b61800084161561302e577001000000000000000000000000000058b80260801c5b61400084161561304f57700100000000000000000000000000002c5b0260801c5b6120008416156130705770010000000000000000000000000000162d0260801c5b61100084161561309157700100000000000000000000000000000b160260801c5b6108008416156130b25770010000000000000000000000000000058a0260801c5b6104008416156130d3577001000000000000000000000000000002c40260801c5b6102008416156130f4577001000000000000000000000000000001610260801c5b610100841615613115577001000000000000000000000000000000b00260801c5b6080841615613135577001000000000000000000000000000000570260801c5b60408416156131555770010000000000000000000000000000002b0260801c5b6020841615613175577001000000000000000000000000000000150260801c5b60108416156131955770010000000000000000000000000000000a0260801c5b60088416156131b5577001000000000000000000000000000000040260801c5b60048416156131d5577001000000000000000000000000000000010260801c5b856131f657600f81901c6001600160701b03169050613fff82019150613225565b613ffe821161321b57600f81901c6001600160701b0316905081613fff039150613225565b600091613fee19011c5b607082811b8217935083901c617fff16613fff81101561324e5750600098975050505050505050565b6001607f1b846001600160801b03161061326757600080fd5b6140fe81111561327657600080fd5b600160701b6001600160701b0385161761406f82101561329c5761406f8290031c6132ae565b61406f8211156132ae5761406e1982011b5b9998505050505050505050565b6060600082821b6bffffffffffffffffffffffff1916905060008373ffffffffffffffffffffffffffffffffffffffff16630902f1ac6040518163ffffffff1660e01b8152600401600060405180830381865afa158015613320573d6000803e3d6000fd5b505050506040513d6000823e601f3d908101601f191682016040526133489190810190613e81565b90506000806000613358856111cf565b9250925092508260ff16600003613382576040516321c4e35760e21b815260040160405180910390fd5b600060016133928560ff166113df565b901b9586019590506133a78660ff861661140d565b965060006133b4846114dc565b905060006133c18261155c565b905060006133f26102e37f000000000000000000000000000000000000000000000000000000000000000085613e49565b905060005b8a518110156134cc5761343286828151811061341557613415613dee565b602002602001015161035f8b848151811061078a5761078a613dee565b86828151811061344457613444613dee565b60200260200101906001600160801b03191690816001600160801b0319168152505061349161347f848884815181106103ba576103ba613dee565b8c838151811061047d5761047d613dee565b8b82815181106134a3576134a3613dee565b6001600160801b0319909216602092830291909101909101526134c581613e1a565b90506133f7565b50505050505050505050919050565b6000617fff60f084811c8216919084901c81169082900361350f5780617fff0361198f575061ffff60ef1b9150610ff39050565b80617fff0361355f577dffffffffffffffffffffffffffff0000000000000000000000000000000084161561354e575061ffff60ef1b9150610ff39050565b505050808218600160ff1b16610ff3565b6f7fffffffffffffffffffffffffffffff60801b84166000036135c1576f7fffffffffffffffffffffffffffffff60801b85166000036135a9575061ffff60ef1b9150610ff39050565b505050808218600160ff1b16617fff60f01b17610ff3565b6001600160701b03608085901c1660008290036135e157600191506135e8565b600160701b175b6001600160701b03608087901c16600084900361362b578015613626576000613610826137bf565b6001955060e20393840160711901939190911b90505b613635565b600160701b1760721b5b81818161364457613644613e33565b0490508060000361366357600160ff1b87871816611a56576000611a5c565b6d100000000000000000000000000081101561368157613681614031565b60006e0800000000000000000000000000008210156136d6576e0400000000000000000000000000008210156136cb57600160711b8210156136c45760706136ce565b60716136ce565b60725b60ff166136df565b6136df826137bf565b9050836140710181860111156136fd57617fff945060009150613790565b83818601613ffc011015613718576000945060009150613790565b83818601613f8c011015613765578385613ffc011115613743578385613ffc010382901b915061375c565b8385613ffc01101561375c57613ffc8585030382901c91505b60009450613790565b6070811115613778576070810382901c91505b6001600160701b038216915083818601613f8d010394505b81607086901b888a186001607f1b60801b1660801c6001600160801b0316171760801b95505050505050610ff3565b60008082116137cd57600080fd5b600070010000000000000000000000000000000083106137ef57608092831c92015b68010000000000000000831061380757604092831c92015b640100000000831061381b57602092831c92015b62010000831061382d57601092831c92015b610100831061383e57600892831c92015b6010831061384e57600492831c92015b6004831061385e57600292831c92015b60028310610ff35760010192915050565b60006f7fffffffffffffffffffffffffffffff608084901c16617fff60701b81111561389a57600080fd5b6f7fffffffffffffffffffffffffffffff608084901c16617fff60701b8111156138c357600080fd5b6001600160801b03198581169085161415806138ec5750617fff60701b826001600160801b0316105b6138f557600080fd5b6001600160801b03198085169086160361391457600092505050610ff3565b6001607f1b608086811c82118015929187901c91909110159061396557801561395757826001600160801b0316846001600160801b031611613957576001611a5c565b600019945050505050610ff3565b8015613978576001945050505050610ff3565b826001600160801b0316846001600160801b03161161399957600019611a5c565b6001945050505050610ff3565b6000617fff60f083901c16613fff8110156139c45750600092915050565b6001607f1b608084901c106139d857600080fd5b6140fe8111156139e757600080fd5b600160701b6001600160701b03608085901c161761406f821015613a115761406f8290031c6111c8565b61406f8211156111c85761406e1982011b9392505050565b60008083601f840112613a3b57600080fd5b50813567ffffffffffffffff811115613a5357600080fd5b602083019150836020828501011115613a6b57600080fd5b9250929050565b60008060008060408587031215613a8857600080fd5b843567ffffffffffffffff80821115613aa057600080fd5b818701915087601f830112613ab457600080fd5b813581811115613ac357600080fd5b8860208260051b8501011115613ad857600080fd5b602092830196509450908601359080821115613af357600080fd5b50613b0087828801613a29565b95989497509550505050565b803573ffffffffffffffffffffffffffffffffffffffff811681146111b157600080fd5b600060208284031215613b4257600080fd5b6111c882613b0c565b6020808252825182820181905260009190848201906040850190845b81811015613b8d5783516001600160801b03191683529284019291840191600101613b67565b50909695505050505050565b634e487b7160e01b600052604160045260246000fd5b604051601f8201601f1916810167ffffffffffffffff81118282101715613bd857613bd8613b99565b604052919050565b600082601f830112613bf157600080fd5b813567ffffffffffffffff811115613c0b57613c0b613b99565b613c1e601f8201601f1916602001613baf565b818152846020838601011115613c3357600080fd5b816020850160208301376000918101602001919091529392505050565b60008060408385031215613c6357600080fd5b613c6c83613b0c565b9150602083013567ffffffffffffffff811115613c8857600080fd5b613c9485828601613be0565b9150509250929050565b600081518084526020808501945080840160005b83811015613cce57815187529582019590820190600101613cb2565b509495945050505050565b6020815260006111c86020830184613c9e565b6000815180845260005b81811015613d1257602081850181015186830182015201613cf6565b506000602082860101526020601f19601f83011685010191505092915050565b6020815260006111c86020830184613cec565b600080600080600060808688031215613d5d57600080fd5b613d6686613b0c565b9450602086013567ffffffffffffffff80821115613d8357600080fd5b613d8f89838a01613a29565b9096509450604088013593506060880135915080821115613daf57600080fd5b50613dbc88828901613be0565b9150509295509295909350565b604081526000613ddc6040830185613c9e565b82810360208401526105978185613cec565b634e487b7160e01b600052603260045260246000fd5b634e487b7160e01b600052601160045260246000fd5b600060018201613e2c57613e2c613e04565b5060010190565b634e487b7160e01b600052601260045260246000fd5b600082613e5857613e58613e33565b500490565b600067ffffffffffffffff821115613e7757613e77613b99565b5060051b60200190565b60006020808385031215613e9457600080fd5b825167ffffffffffffffff811115613eab57600080fd5b8301601f81018513613ebc57600080fd5b8051613ecf613eca82613e5d565b613baf565b81815260059190911b82018301908381019087831115613eee57600080fd5b928401925b82841015613f0c57835182529284019290840190613ef3565b979650505050505050565b60006020808385031215613f2a57600080fd5b823567ffffffffffffffff811115613f4157600080fd5b8301601f81018513613f5257600080fd5b8035613f60613eca82613e5d565b81815260059190911b82018301908381019087831115613f7f57600080fd5b928401925b82841015613f0c5783356001600160801b031981168114613fa55760008081fd5b82529284019290840190613f84565b81810381811115610ff357610ff3613e04565b8082028115828204841417610ff357610ff3613e04565b80820180821115610ff357610ff3613e04565b64ffffffffff82811682821603908082111561155557611555613e04565b600060ff83168061402257614022613e33565b8060ff84160491505092915050565b634e487b7160e01b600052600160045260246000fdfea26469706673582212209ac5fe062a807957af2608d1566e123038416a7fab6d2ca27b5ce6e3f6c67f1a64736f6c63430008110033",
    "linkReferences": {}
  },
  "methodIdentifiers": {
    "readCumulativeReserves(address,bytes)": "9dc1a10e",
    "readInstantaneousReserves(address,bytes)": "6de13cba",
    "readLastCumulativeReserves(address)": "6832326a",
    "readLastInstantaneousReserves(address)": "944fc4dd",
    "readLastReserves(address)": "be8f949e",
    "readTwaReserves(address,bytes,uint256,bytes)": "d393b27a",
    "update(uint256[],bytes)": "497163ef"
  },
  "id": 97
}