{
  "abi": [
    {
      "inputs": [
        {
          "internalType": "bytes16",
          "name": "_maxPercentIncrease",
          "type": "bytes16"
        },
        {
          "internalType": "bytes16",
          "name": "_maxPercentDecrease",
          "type": "bytes16"
        },
        {
          "internalType": "uint256",
          "name": "_capInterval",
          "type": "uint256"
        },
        {
          "internalType": "bytes16",
          "name": "_alpha",
          "type": "bytes16"
        }
      ],
      "stateMutability": "nonpayable",
      "type": "constructor"
    },
    {
      "inputs": [],
      "name": "NoTimePassed",
      "type": "error"
    },
    {
      "inputs": [],
      "name": "NotInitialized",
      "type": "error"
    },
    {
      "inputs": [],
      "name": "ALPHA",
      "outputs": [
        {
          "internalType": "bytes16",
          "name": "",
          "type": "bytes16"
        }
      ],
      "stateMutability": "view",
      "type": "function"
    },
    {
      "inputs": [],
      "name": "CAP_INTERVAL",
      "outputs": [
        {
          "internalType": "uint256",
          "name": "",
          "type": "uint256"
        }
      ],
      "stateMutability": "view",
      "type": "function"
    },
    {
      "inputs": [],
      "name": "LOG_MAX_DECREASE",
      "outputs": [
        {
          "internalType": "bytes16",
          "name": "",
          "type": "bytes16"
        }
      ],
      "stateMutability": "view",
      "type": "function"
    },
    {
      "inputs": [],
      "name": "LOG_MAX_INCREASE",
      "outputs": [
        {
          "internalType": "bytes16",
          "name": "",
          "type": "bytes16"
        }
      ],
      "stateMutability": "view",
      "type": "function"
    },
    {
      "inputs": [
        {
          "internalType": "address",
          "name": "well",
          "type": "address"
        },
        {
          "internalType": "bytes",
          "name": "",
          "type": "bytes"
        }
      ],
      "name": "readCumulativeReserves",
      "outputs": [
        {
          "internalType": "bytes",
          "name": "cumulativeReserves",
          "type": "bytes"
        }
      ],
      "stateMutability": "view",
      "type": "function"
    },
    {
      "inputs": [
        {
          "internalType": "address",
          "name": "well",
          "type": "address"
        },
        {
          "internalType": "bytes",
          "name": "",
          "type": "bytes"
        }
      ],
      "name": "readInstantaneousReserves",
      "outputs": [
        {
          "internalType": "uint256[]",
          "name": "emaReserves",
          "type": "uint256[]"
        }
      ],
      "stateMutability": "view",
      "type": "function"
    },
    {
      "inputs": [
        {
          "internalType": "address",
          "name": "well",
          "type": "address"
        }
      ],
      "name": "readLastCumulativeReserves",
      "outputs": [
        {
          "internalType": "bytes16[]",
          "name": "cumulativeReserves",
          "type": "bytes16[]"
        }
      ],
      "stateMutability": "view",
      "type": "function"
    },
    {
      "inputs": [
        {
          "internalType": "address",
          "name": "well",
          "type": "address"
        }
      ],
      "name": "readLastInstantaneousReserves",
      "outputs": [
        {
          "internalType": "uint256[]",
          "name": "emaReserves",
          "type": "uint256[]"
        }
      ],
      "stateMutability": "view",
      "type": "function"
    },
    {
      "inputs": [
        {
          "internalType": "address",
          "name": "well",
          "type": "address"
        }
      ],
      "name": "readLastReserves",
      "outputs": [
        {
          "internalType": "uint256[]",
          "name": "reserves",
          "type": "uint256[]"
        }
      ],
      "stateMutability": "view",
      "type": "function"
    },
    {
      "inputs": [
        {
          "internalType": "address",
          "name": "well",
          "type": "address"
        },
        {
          "internalType": "bytes",
          "name": "startCumulativeReserves",
          "type": "bytes"
        },
        {
          "internalType": "uint256",
          "name": "startTimestamp",
          "type": "uint256"
        },
        {
          "internalType": "bytes",
          "name": "",
          "type": "bytes"
        }
      ],
      "name": "readTwaReserves",
      "outputs": [
        {
          "internalType": "uint256[]",
          "name": "twaReserves",
          "type": "uint256[]"
        },
        {
          "internalType": "bytes",
          "name": "cumulativeReserves",
          "type": "bytes"
        }
      ],
      "stateMutability": "view",
      "type": "function"
    },
    {
      "inputs": [
        {
          "internalType": "uint256[]",
          "name": "reserves",
          "type": "uint256[]"
        },
        {
          "internalType": "bytes",
          "name": "",
          "type": "bytes"
        }
      ],
      "name": "update",
      "outputs": [],
      "stateMutability": "nonpayable",
      "type": "function"
    }
  ],
  "bytecode": {
    "object": "0x6101006040523480156200001257600080fd5b506040516200481f3803806200481f83398101604081905262000035916200076f565b6200005a6200004a613fff60f01b866200009e565b6001600160801b031916620004bb565b6001600160801b0319166080526200007c6200004a613fff60f01b856200068f565b6001600160801b031990811660a05260e0929092521660c05250620007c39050565b6000617fff60f084811c8216919084901c811690829003620001005780617fff03620000f5576001600160801b031980851690861603620000e4578492505050620004b5565b5061ffff60ef1b9150620004b59050565b8492505050620004b5565b80617fff0362000115578392505050620004b5565b6001607f1b608086901c90811015906001600160701b0316600084900362000141576001935062000148565b600160701b175b6001607f1b608087901c90811015906001600160701b031660008590036200017457600194506200017b565b600160701b175b82600003620001b2576001600160801b03198816600160ff1b14620001a15787620001a4565b60005b9650505050505050620004b5565b80600003620001d8576001600160801b03198916600160ff1b14620001a15788620001a4565b84860382151585151503620002f3576070811315620002015789975050505050505050620004b5565b6000811315620002155790811c9062000247565b606f19811215620002305788975050505050505050620004b5565b600081121562000247578060000384901c93508596505b92810192600160711b841062000263576001968701969390931c925b86617fff036200029857846200027f57617fff60f01b62000289565b6001600160f01b03195b975050505050505050620004b5565b600160701b841015620002af5760009650620002bc565b6001600160701b03841693505b83607088901b86620002d0576000620002d6565b6001607f1b5b6001600160801b0316171760801b975050505050505050620004b5565b60008113156200031057600184901b935060018703965062000328565b60008112156200032857600182901b91506001860396505b60708113156200033c57600191506200038e565b60018113156200035b576001810360018303901c60010191506200038e565b606f198112156200037057600193506200038e565b6000198112156200038e576001816000030360018503901c60010193505b818410620003a1578184039350620003aa565b83820393508294505b83600003620003c5575060009650620004b595505050505050565b6000620003d285620006aa565b905080607103620003f957600185901c6001600160701b031694506001880197506200044c565b60708110156200043f576070819003808911156200042b578086901b6001600160701b03169550808903985062000438565b600098600019019590951b945b506200044c565b6001600160701b03851694505b87617fff036200048257856200046857617fff60f01b62000472565b6001600160f01b03195b98505050505050505050620004b5565b84607089901b87620004965760006200049c565b6001607f1b5b6001600160801b0316171760801b985050505050505050505b92915050565b60006001607f1b608083901c1115620004da575061ffff60ef1b919050565b6001600160801b03198216613fff60f01b03620004f957506000919050565b617fff60f083901c81169081900362000513575090919050565b6001600160701b03608084901c1660008290036200053557600191506200053c565b600160701b175b806000036200055657506001600160f01b03199392505050565b600061406f81613fff85106200057e5750600f9290921b9160009150613ffe198401620005c1565b60019250600160701b8410620005a25784613ffe039050600f84901b9350620005c1565b6000620005af85620006aa565b607f8190039590951b9461406d039150505b836001607f1b03620005fc578215620005d8576001015b6000620005e582620006aa565b60700390508082901b91508083039250506200064e565b6000836200060c5760006200060f565b60015b60ff1690505b600160701b8210156200064c5793800260ff81901c607f81019190911c94600019939093019260019290921b908218019062000615565b505b806001600160701b0316607083901b846200066b57600062000671565b6001607f1b5b6001600160801b0316171760801b979650505050505050565b919050565b6000620006a383600160ff1b84186200009e565b9392505050565b6000808211620006b957600080fd5b6000600160801b8310620006cf57608092831c92015b680100000000000000008310620006e857604092831c92015b6401000000008310620006fd57602092831c92015b6201000083106200071057601092831c92015b61010083106200072257600892831c92015b601083106200073357600492831c92015b600483106200074457600292831c92015b60028310620004b55760010192915050565b80516001600160801b0319811681146200068a57600080fd5b600080600080608085870312156200078657600080fd5b620007918562000756565b9350620007a16020860162000756565b925060408501519150620007b86060860162000756565b905092959194509250565b60805160a05160c05160e051613ff26200082d600039600081816101ee0152818161035f0152818161084001526133370152600081816101a001528181610327015261087c01526000818160e801526113980152600081816101c7015261140c0152613ff26000f3fe608060405234801561001057600080fd5b50600436106100c95760003560e01c80639dc1a10e11610081578063b89643d31161005b578063b89643d3146101e9578063be8f949e1461021e578063d393b27a1461023157600080fd5b80639dc1a10e1461017b578063b0bb1c5a1461019b578063b1a66d94146101c257600080fd5b80636832326a116100b25780636832326a146101285780636de13cba14610148578063944fc4dd1461016857600080fd5b8063497163ef146100ce5780635b1a7bbc146100e3575b600080fd5b6100e16100dc3660046139e7565b610252565b005b61010a7f000000000000000000000000000000000000000000000000000000000000000081565b6040516001600160801b031990911681526020015b60405180910390f35b61013b610136366004613aa5565b610602565b60405161011f9190613ac0565b61015b610156366004613bc5565b61067b565b60405161011f9190613c4e565b61015b610176366004613aa5565b6109b9565b61018e610189366004613bc5565b610acb565b60405161011f9190613ca7565b61010a7f000000000000000000000000000000000000000000000000000000000000000081565b61010a7f000000000000000000000000000000000000000000000000000000000000000081565b6102107f000000000000000000000000000000000000000000000000000000000000000081565b60405190815260200161011f565b61015b61022c366004613aa5565b610b03565b61024461023f366004613cba565b610beb565b60405161011f929190613d3e565b6040805160808101825260008152606060208201819052918101829052818101829052849133901b6bffffffffffffffffffffffff191661029281610d58565b602085015264ffffffffff1680845260000390506102f0576102e88142898980806020026020016040519081016040528093929190818152602001838360200280828437600092019190915250610e6092505050565b5050506105fc565b6000806000806103038660000151610f57565b90508060000361031957505050505050506105fc565b61034d6001600160801b03197f00000000000000000000000000000000000000000000000000000000000000001682610f70565b935061035881610fd7565b92506103a37f0000000000000000000000000000000000000000000000000000000000000000610389600184613d79565b6103939190613da2565b61039e906001613db6565b610fd7565b91505060006103b187611043565b9485019490506103c18588611071565b6040870152938401936103d48588611071565b60608701526000805b888110156105b6578c8c828181106103f7576103f7613dc9565b90506020020135915061043f8860200151828151811061041957610419613dc9565b60200260200101516104396000851161043357600161113d565b8461113d565b86611363565b8860200151828151811061045557610455613dc9565b60200260200101906001600160801b03191690816001600160801b031916815250506104ec6104b4878a60400151848151811061049457610494613dc9565b60200260200101516001600160801b03191661145e90919063ffffffff16565b6104dc6104c6613fff60f01b8a6116fb565b8b60200151858151811061049457610494613dc9565b6001600160801b03191690611714565b8860400151828151811061050257610502613dc9565b60200260200101906001600160801b03191690816001600160801b03191681525050610577610541868a60200151848151811061049457610494613dc9565b8960600151838151811061055757610557613dc9565b60200260200101516001600160801b03191661171490919063ffffffff16565b8860600151828151811061058d5761058d613dc9565b6001600160801b0319909216602092830291909101909101526105af81613ddf565b90506103dd565b5060608701516105c7908790611ade565b604087015195829003956105dc908790611ade565b602087015195829003956105f39087904290611b87565b50505050505050505b50505050565b6060600082821b6bffffffffffffffffffffffff191690506000610627825460f81c90565b90508060ff1660000361064d576040516321c4e35760e21b815260040160405180910390fd5b6000600161065d8360ff16611043565b901b9283019290506106728360ff8416611071565b95945050505050565b6060600083821b6bffffffffffffffffffffffff1916905060008473ffffffffffffffffffffffffffffffffffffffff16630902f1ac6040518163ffffffff1660e01b8152600401600060405180830381865afa1580156106e0573d6000803e3d6000fd5b505050506040513d6000823e601f3d908101601f191682016040526107089190810190613e1c565b9050600080600061071885610d58565b9250925092508260ff16600003610742576040516321c4e35760e21b815260040160405180910390fd5b60006107508460ff16611043565b95860195905060006107658760ff8716611071565b9050600061077285610f57565b90508560ff1667ffffffffffffffff81111561079057610790613b0e565b6040519080825280602002602001820160405280156107b9578160200160208202803683370190505b509850806000036108395760005b8660ff1681101561082b576107fe8382815181106107e7576107e7613dc9565b60200260200101516001600160801b031916611c6c565b8a828151811061081057610810613dc9565b602090810291909101015261082481613ddf565b90506107c7565b5050505050505050506109b3565b600061086a7f0000000000000000000000000000000000000000000000000000000000000000610389600185613d79565b905060006108a26001600160801b03197f00000000000000000000000000000000000000000000000000000000000000001684610f70565b905060005b8860ff168110156109a7576108f78782815181106108c7576108c7613dc9565b60200260200101516108f18c84815181106108e4576108e4613dc9565b602002602001015161113d565b85611363565b87828151811061090957610909613dc9565b60200260200101906001600160801b03191690816001600160801b0319168152505061097a61096b6109478488858151811061049457610494613dc9565b6104dc610959613fff60f01b876116fb565b8b868151811061049457610494613dc9565b6001600160801b031916611c6c565b8c828151811061098c5761098c613dc9565b60209081029190910101526109a081613ddf565b90506108a7565b50505050505050505050505b92915050565b6060600082821b6bffffffffffffffffffffffff1916905060006109de825460f81c90565b90508060ff16600003610a04576040516321c4e35760e21b815260040160405180910390fd5b6000610a128260ff16611043565b9283019290506000610a278460ff8516611071565b90508260ff1667ffffffffffffffff811115610a4557610a45613b0e565b604051908082528060200260200182016040528015610a6e578160200160208202803683370190505b50945060005b8360ff16811015610ac157610a948282815181106107e7576107e7613dc9565b868281518110610aa657610aa6613dc9565b6020908102919091010152610aba81613ddf565b9050610a74565b5050505050919050565b60606000610ad884613214565b905080604051602001610aeb9190613ac0565b60405160208183030381529060405291505092915050565b6060600080610b2284841b6bffffffffffffffffffffffff1916610d58565b92505091508160ff16600003610b4b576040516321c4e35760e21b815260040160405180910390fd5b8160ff1667ffffffffffffffff811115610b6757610b67613b0e565b604051908082528060200260200182016040528015610b90578160200160208202803683370190505b50925060005b8260ff16811015610be357610bb68282815181106107e7576107e7613dc9565b848281518110610bc857610bc8613dc9565b6020908102919091010152610bdc81613ddf565b9050610b96565b505050919050565b6060806000610bf988613214565b90506000610c0987890189613eb2565b9050815167ffffffffffffffff811115610c2557610c25613b0e565b604051908082528060200260200182016040528015610c4e578160200160208202803683370190505b5093506000610c5f61039e88610f57565b90506001600160801b03198116610c8957604051630b91474960e01b815260040160405180910390fd5b60005b8351811015610d2857610cfb61096b83610ceb868581518110610cb157610cb1613dc9565b6020026020010151888681518110610ccb57610ccb613dc9565b60200260200101516001600160801b0319166116fb90919063ffffffff16565b6001600160801b03191690613450565b868281518110610d0d57610d0d613dc9565b6020908102919091010152610d2181613ddf565b9050610c8c565b5082604051602001610d3a9190613ac0565b60405160208183030381529060405293505050509550959350505050565b805460f881901c9060d081901c906060906000849003610d785750610e59565b8360ff1667ffffffffffffffff811115610d9457610d94613b0e565b604051908082528060200260200182016040528015610dbd578160200160208202803683370190505b5091508060681c60981b60208301528360ff16600103610ddd5750610e59565b8060981b604083015260028460ff161115610e5757600060035b8560ff168111610e54576002610e0e600183613d79565b610e189190613da2565b915080600116600103610e35578187015460208202850152610e44565b8187015460801b602082028501525b610e4d81613ddf565b9050610df7565b50505b505b9193909250565b805160008167ffffffffffffffff811115610e7d57610e7d613b0e565b604051908082528060200260200182016040528015610ea6578160200160208202803683370190505b50905060005b82811015610f28576000848281518110610ec857610ec8613dc9565b6020026020010151905080600003610ee35750505050505050565b610eec8161113d565b838381518110610efe57610efe613dc9565b6001600160801b03199092166020928302919091019091015250610f2181613ddf565b9050610eac565b50610f34858583611b87565b6000610f3f83611043565b958601959050610f4f8683611ade565b505050505050565b6000610f638242613f4f565b64ffffffffff1692915050565b600080610f7d6001610fd7565b905060008360011611610f905780610f92565b835b9150600183901c92505b8215610fd057610fac848561145e565b93506001831615610fc457610fc1828561145e565b91505b600183901c9250610f9c565b5092915050565b600081600003610fe957506000919050565b816000610ff582613734565b9050607081101561100e578060700382901b9150611021565b6070811115611021576070810382901c91505b613fff0160701b6001600160701b03919091161760801b92915050565b919050565b600060056002611054600185613d79565b61105e9190613da2565b611069906001613db6565b901b92915050565b60608167ffffffffffffffff81111561108c5761108c613b0e565b6040519080825280602002602001820160405280156110b5578160200160208202803683370190505b509050816002036110d65782546020820152825460801b60408201526109b3565b600060015b8381116111355760026110ef600183613d79565b6110f99190613da2565b915080600116600103611116578185015460208202840152611125565b8185015460801b602082028401525b61112e81613ddf565b90506110db565b505092915050565b60008160000361114f57506000919050565b81600061115b82613734565b90506070811015611174578060700382901b9150611187565b6070811115611187576070810382901c91505b607081613fff01901b826001600160701b03161791506001607f1b826001600160801b031611156111c0575061ffff60ef1b9392505050565b6001600160801b0319608083901b16613fff60f01b036111e4575060009392505050565b617fff607083901c81169081900361120157505060801b92915050565b6001600160701b038316600082900361121d5760019150611224565b600160701b175b8060000361123f57506001600160f01b031995945050505050565b600061406f81613fff85106112655750600f9290921b9160009150613ffe1984016112a3565b60019250600160701b84106112875784613ffe039050600f84901b93506112a3565b61129084613734565b95508561406d03905085607f0384901b93505b836001607f1b036112d95782156112b8576001015b60006112c382613734565b60700390508082901b9150808303925050611327565b6000836112e75760006112ea565b60015b60ff1690505b600160701b8210156113255793800260ff81901c607f81019190911c94600019939093019260019290921b90821801906112f0565b505b806001600160701b0316607083901b84611342576000611348565b6001607f1b5b6001600160801b0316171760801b9998505050505050505050565b60006113796001600160801b03198516846137e4565b60000b6001036113f75760006113cd6113bc6001600160801b031985167f000000000000000000000000000000000000000000000000000000000000000061145e565b6001600160801b0319871690611714565b90506113e36001600160801b03198216856137e4565b60000b6001036113f1578093505b50611456565b60006114306113bc6001600160801b031985167f000000000000000000000000000000000000000000000000000000000000000061145e565b90506114466001600160801b03198516826137e4565b60000b600103611454578093505b505b509092915050565b6000617fff60f084811c8216919084901c8116908290036115175780617fff036114d9576001600160801b0319808516908616036114a757505050600160ff1b811682186109b3565b6001600160801b031985851816600160ff1b036114c9575050508181176109b3565b5061ffff60ef1b91506109b39050565b6f7fffffffffffffffffffffffffffffff60801b8416600003611506575061ffff60ef1b91506109b39050565b505050600160ff1b811682186109b3565b80617fff0361155e576f7fffffffffffffffffffffffffffffff60801b851660000361154d575061ffff60ef1b91506109b39050565b505050600160ff1b821681186109b3565b6001600160701b03608086901c16600083900361157e5760019250611585565b600160701b175b6001600160701b03608086901c1660008390036115a557600192506115ac565b600160701b175b8082029150816000036115de57600160ff1b878718166115cd5760006115d3565b600160ff1b5b9450505050506109b3565b928201926000600160e11b83101561161157600160e01b83101561160a5761160583613734565b611614565b60e0611614565b60e15b9050614070818601101561162f5760009450600092506116cc565b6140e081860110156116725761407085101561165457846140700383901c9250611669565b61407085111561166957614070850383901b92505b600094506116cc565b61c0dd818601111561168c57617fff9450600092506116cc565b60708111156116a3576070810383901c92506116b6565b60708110156116b6578060700383901b92505b6001600160701b03831692506140df8186010394505b82607086901b888a186001607f1b60801b1660801c6001600160801b0316171760801b955050505050506109b3565b600061170d83600160ff1b8418611714565b9392505050565b6000617fff60f084811c8216919084901c8116908290036117605780617fff03611756576001600160801b0319808516908616036114c95784925050506109b3565b84925050506109b3565b80617fff036117735783925050506109b3565b6001607f1b608086901c90811015906001600160701b0316600084900361179d57600193506117a4565b600160701b175b6001607f1b608087901c90811015906001600160701b031660008590036117ce57600194506117d5565b600160701b175b82600003611808576001600160801b03198816600160ff1b146117f857876117fb565b60005b96505050505050506109b3565b8060000361182b576001600160801b03198916600160ff1b146117f857886117fb565b8486038215158515150361193457607081131561185157899750505050505050506109b3565b60008113156118635790811c90611892565b606f1981121561187c57889750505050505050506109b3565b6000811215611892578060000384901c93508596505b92810192600160711b84106118ad576001968701969390931c925b86617fff036118de57846118c657617fff60f01b6118d0565b6001600160f01b03195b9750505050505050506109b3565b600160701b8410156118f35760009650611900565b6001600160701b03841693505b83607088901b86611912576000611918565b6001607f1b5b6001600160801b0316171760801b9750505050505050506109b3565b600081131561194f57600184901b9350600187039650611966565b600081121561196657600182901b91506001860396505b607081131561197857600191506119c5565b6001811315611995576001810360018303901c60010191506119c5565b606f198112156119a857600193506119c5565b6000198112156119c5576001816000030360018503901c60010193505b8184106119d65781840393506119df565b83820393508294505b836000036119f85750600096506109b395505050505050565b6000611a0385613734565b905080607103611a2857600185901c6001600160701b03169450600188019750611a77565b6070811015611a6a57607081900380891115611a57578086901b6001600160701b031695508089039850611a64565b600098600019019590951b945b50611a77565b6001600160701b03851694505b87617fff03611aa95785611a9057617fff60f01b611a9a565b6001600160f01b03195b985050505050505050506109b3565b84607089901b87611abb576000611ac1565b6001607f1b5b6001600160801b0316171760801b985050505050505050506109b3565b8051600203611afb57604081015160801c60208201510182555050565b600060028251611b0b9190613da2565b90506000805b82811015611b4d57611b24816040613f6d565b91506040820184015160801c60208301850151018186015580611b4690613ddf565b9050611b11565b5082516001166001036105fc57611b65826040613f6d565b8483018054858301602001516001600160801b03909116019055905050505050565b805160ff8116600103611bb157602082015160981c60681b8160f81b8460d01b1717845550505050565b604082015160981c602083015160981c60681b178160f81b8460d01b1717845560028160ff1611156105fc576000611bea600283613f84565b60ff169050600060015b82811015611c3057611c07816040613f6d565b91506040820185015160801c60208301860151018188015580611c2990613ddf565b9050611bf4565b508351600116600103610f4f57611c48826040613f6d565b8683018054868301602001516001600160801b039091160190559050505050505050565b60006001607f1b608083901c90811190617fff60f085901c8116916001600160701b031690849083148015611ca057508115155b15611cbd57611cb361ffff60ef1b61391b565b9695505050505050565b61400d831115611ce95783611cdf57611cda617fff60f01b61391b565b611cb3565b611cb3600061391b565b613f7f831015611d0157611cb3613fff60f01b61391b565b82600003611d125760019250611d1c565b600160701b821791505b613fef831115611d3557613fef830382901b9150611d4a565b613fef831015611d4a5782613fef0382901c91505b838015611d68575071406e0000000000000000000000000000000082115b15611d7757611cb3600061391b565b83158015611d965750713fffffffffffffffffffffffffffffffffff82115b15611da957611cb3617fff60f01b61391b565b6001600160801b0382169160801c848015611dc357508215155b15611dcf579119916001015b6001607f1b83811615611df35770016a09e667f3bcc908b2fb1366ea957d3e0260801c5b6f40000000000000000000000000000000841615611e22577001306fe0a31b7152de8d5a46305c85edec0260801c5b6f20000000000000000000000000000000841615611e51577001172b83c7d517adcdf7c8c50eb14a791f0260801c5b6f10000000000000000000000000000000841615611e805770010b5586cf9890f6298b92b71842a983630260801c5b6f08000000000000000000000000000000841615611eaf577001059b0d31585743ae7c548eb68ca417fd0260801c5b6f04000000000000000000000000000000841615611ede57700102c9a3e778060ee6f7caca4f7a29bde80260801c5b6f02000000000000000000000000000000841615611f0d5770010163da9fb33356d84a66ae336dcdfa3f0260801c5b6f01000000000000000000000000000000841615611f3c57700100b1afa5abcbed6129ab13ec11dc95430260801c5b6e800000000000000000000000000000841615611f6a5770010058c86da1c09ea1ff19d294cf2f679b0260801c5b6e400000000000000000000000000000841615611f98577001002c605e2e8cec506d21bfc89a23a00f0260801c5b6e200000000000000000000000000000841615611fc657700100162f3904051fa128bca9c55c31e5df0260801c5b6e100000000000000000000000000000841615611ff4577001000b175effdc76ba38e31671ca9397250260801c5b6e08000000000000000000000000000084161561202257700100058ba01fb9f96d6cacd4b180917c3d0260801c5b6e0400000000000000000000000000008416156120505770010002c5cc37da9491d0985c348c68e7b30260801c5b600160711b841615612073577001000162e525ee054754457d59952920260260801c5b600160701b8416156120965770010000b17255775c040618bf4a4ade83fc0260801c5b6d80000000000000000000000000008416156120c3577001000058b91b5bc9ae2eed81e9b7d4cfab0260801c5b6d40000000000000000000000000008416156120f057700100002c5c89d5ec6ca4d7c8acc017b7c90260801c5b6d200000000000000000000000000084161561211d5770010000162e43f4f831060e02d839a9d16d0260801c5b6d100000000000000000000000000084161561214a57700100000b1721bcfc99d9f890ea069117630260801c5b6d08000000000000000000000000008416156121775770010000058b90cf1e6d97f9ca14dbcc16280260801c5b6d04000000000000000000000000008416156121a4577001000002c5c863b73f016468f6bac5ca2b0260801c5b6d02000000000000000000000000008416156121d157700100000162e430e5a18f6119e3c02282a50260801c5b6d01000000000000000000000000008416156121fe577001000000b1721835514b86e6d96efd1bfe0260801c5b6c8000000000000000000000000084161561222a57700100000058b90c0b48c6be5df846c5b2ef0260801c5b6c400000000000000000000000008416156122565770010000002c5c8601cc6b9e94213c72737a0260801c5b6c20000000000000000000000000841615612282577001000000162e42fff037df38aa2b219f060260801c5b6c100000000000000000000000008416156122ae5770010000000b17217fba9c739aa5819f44f90260801c5b6c080000000000000000000000008416156122da577001000000058b90bfcdee5acd3c1cedc8230260801c5b6c0400000000000000000000000084161561230657700100000002c5c85fe31f35a6a30da1be500260801c5b6c020000000000000000000000008416156123325770010000000162e42ff0999ce3541b9fffcf0260801c5b6c0100000000000000000000000084161561235e57700100000000b17217f80f4ef5aadda455540260801c5b6b8000000000000000000000008416156123895770010000000058b90bfbf8479bd5a81b51ad0260801c5b6b4000000000000000000000008416156123b4577001000000002c5c85fdf84bd62ae30a74cc0260801c5b6b2000000000000000000000008416156123df57700100000000162e42fefb2fed257559bdaa0260801c5b6b10000000000000000000000084161561240a577001000000000b17217f7d5a7716bba4a9ae0260801c5b6b08000000000000000000000084161561243557700100000000058b90bfbe9ddbac5e109cce0260801c5b6b0400000000000000000000008416156124605770010000000002c5c85fdf4b15de6f17eb0d0260801c5b6b02000000000000000000000084161561248b577001000000000162e42fefa494f1478fde050260801c5b6b0100000000000000000000008416156124b65770010000000000b17217f7d20cf927c8e94c0260801c5b6a80000000000000000000008416156124e0577001000000000058b90bfbe8f71cb4e4b33d0260801c5b6a400000000000000000000084161561250a57700100000000002c5c85fdf477b662b269450260801c5b6a20000000000000000000008416156125345770010000000000162e42fefa3ae53369388c0260801c5b6a100000000000000000000084161561255e57700100000000000b17217f7d1d351a389d400260801c5b6a08000000000000000000008416156125885770010000000000058b90bfbe8e8b2d3d4ede0260801c5b6a04000000000000000000008416156125b2577001000000000002c5c85fdf4741bea6e77e0260801c5b6a02000000000000000000008416156125dc57700100000000000162e42fefa39fe95583c20260801c5b6a0100000000000000000000841615612606577001000000000000b17217f7d1cfb72b45e10260801c5b698000000000000000000084161561262f57700100000000000058b90bfbe8e7cc35c3f00260801c5b69400000000000000000008416156126585770010000000000002c5c85fdf473e242ea380260801c5b6920000000000000000000841615612681577001000000000000162e42fefa39f02b772c0260801c5b69100000000000000000008416156126aa5770010000000000000b17217f7d1cf7d83c1a0260801c5b69080000000000000000008416156126d3577001000000000000058b90bfbe8e7bdcbe2e0260801c5b69040000000000000000008416156126fc57700100000000000002c5c85fdf473dea871f0260801c5b69020000000000000000008416156127255770010000000000000162e42fefa39ef44d910260801c5b690100000000000000000084161561274e57700100000000000000b17217f7d1cf79e9490260801c5b688000000000000000008416156127765770010000000000000058b90bfbe8e7bce5440260801c5b6840000000000000000084161561279e577001000000000000002c5c85fdf473de6eca0260801c5b682000000000000000008416156127c657700100000000000000162e42fefa39ef366f0260801c5b681000000000000000008416156127ee577001000000000000000b17217f7d1cf79afa0260801c5b6808000000000000000084161561281657700100000000000000058b90bfbe8e7bcd6d0260801c5b6804000000000000000084161561283e5770010000000000000002c5c85fdf473de6b20260801c5b68020000000000000000841615612866577001000000000000000162e42fefa39ef3580260801c5b6801000000000000000084161561288e5770010000000000000000b17217f7d1cf79ab0260801c5b6780000000000000008416156128b5577001000000000000000058b90bfbe8e7bcd50260801c5b6740000000000000008416156128dc57700100000000000000002c5c85fdf473de6a0260801c5b6720000000000000008416156129035770010000000000000000162e42fefa39ef340260801c5b67100000000000000084161561292a57700100000000000000000b17217f7d1cf7990260801c5b6708000000000000008416156129515770010000000000000000058b90bfbe8e7bcc0260801c5b670400000000000000841615612978577001000000000000000002c5c85fdf473de50260801c5b67020000000000000084161561299f57700100000000000000000162e42fefa39ef20260801c5b6701000000000000008416156129c6577001000000000000000000b17217f7d1cf780260801c5b66800000000000008416156129ec57700100000000000000000058b90bfbe8e7bb0260801c5b6640000000000000841615612a125770010000000000000000002c5c85fdf473dd0260801c5b6620000000000000841615612a38577001000000000000000000162e42fefa39ee0260801c5b6610000000000000841615612a5e5770010000000000000000000b17217f7d1cf60260801c5b6608000000000000841615612a84577001000000000000000000058b90bfbe8e7a0260801c5b6604000000000000841615612aaa57700100000000000000000002c5c85fdf473c0260801c5b6602000000000000841615612ad05770010000000000000000000162e42fefa39d0260801c5b6601000000000000841615612af657700100000000000000000000b17217f7d1ce0260801c5b65800000000000841615612b1b5770010000000000000000000058b90bfbe8e60260801c5b65400000000000841615612b40577001000000000000000000002c5c85fdf4720260801c5b65200000000000841615612b6557700100000000000000000000162e42fefa380260801c5b65100000000000841615612b8a577001000000000000000000000b17217f7d1b0260801c5b65080000000000841615612baf57700100000000000000000000058b90bfbe8d0260801c5b65040000000000841615612bd45770010000000000000000000002c5c85fdf460260801c5b65020000000000841615612bf9577001000000000000000000000162e42fefa20260801c5b65010000000000841615612c1e5770010000000000000000000000b17217f7d00260801c5b648000000000841615612c42577001000000000000000000000058b90bfbe70260801c5b644000000000841615612c6657700100000000000000000000002c5c85fdf30260801c5b642000000000841615612c8a5770010000000000000000000000162e42fef90260801c5b641000000000841615612cae57700100000000000000000000000b17217f7c0260801c5b640800000000841615612cd25770010000000000000000000000058b90bfbd0260801c5b640400000000841615612cf6577001000000000000000000000002c5c85fde0260801c5b640200000000841615612d1a57700100000000000000000000000162e42fee0260801c5b640100000000841615612d3e577001000000000000000000000000b17217f60260801c5b6380000000841615612d6157700100000000000000000000000058b90bfa0260801c5b6340000000841615612d845770010000000000000000000000002c5c85fc0260801c5b6320000000841615612da7577001000000000000000000000000162e42fd0260801c5b6310000000841615612dca5770010000000000000000000000000b17217e0260801c5b6308000000841615612ded577001000000000000000000000000058b90be0260801c5b6304000000841615612e1057700100000000000000000000000002c5c85e0260801c5b6302000000841615612e335770010000000000000000000000000162e42e0260801c5b6301000000841615612e5657700100000000000000000000000000b172160260801c5b62800000841615612e785770010000000000000000000000000058b90a0260801c5b62400000841615612e9a577001000000000000000000000000002c5c840260801c5b62200000841615612ebc57700100000000000000000000000000162e410260801c5b62100000841615612ede577001000000000000000000000000000b17200260801c5b62080000841615612f0057700100000000000000000000000000058b8f0260801c5b62040000841615612f225770010000000000000000000000000002c5c70260801c5b62020000841615612f44577001000000000000000000000000000162e30260801c5b62010000841615612f665770010000000000000000000000000000b1710260801c5b618000841615612f87577001000000000000000000000000000058b80260801c5b614000841615612fa857700100000000000000000000000000002c5b0260801c5b612000841615612fc95770010000000000000000000000000000162d0260801c5b611000841615612fea57700100000000000000000000000000000b160260801c5b61080084161561300b5770010000000000000000000000000000058a0260801c5b61040084161561302c577001000000000000000000000000000002c40260801c5b61020084161561304d577001000000000000000000000000000001610260801c5b61010084161561306e577001000000000000000000000000000000b00260801c5b608084161561308e577001000000000000000000000000000000570260801c5b60408416156130ae5770010000000000000000000000000000002b0260801c5b60208416156130ce577001000000000000000000000000000000150260801c5b60108416156130ee5770010000000000000000000000000000000a0260801c5b600884161561310e577001000000000000000000000000000000040260801c5b600484161561312e577001000000000000000000000000000000010260801c5b8561314f57600f81901c6001600160701b03169050613fff8201915061317e565b613ffe821161317457600f81901c6001600160701b0316905081613fff03915061317e565b600091613fee19011c5b607082811b8217935083901c617fff16613fff8110156131a75750600098975050505050505050565b6001607f1b846001600160801b0316106131c057600080fd5b6140fe8111156131cf57600080fd5b600160701b6001600160701b0385161761406f8210156131f55761406f8290031c613207565b61406f8211156132075761406e1982011b5b9998505050505050505050565b6060600082821b6bffffffffffffffffffffffff1916905060008373ffffffffffffffffffffffffffffffffffffffff16630902f1ac6040518163ffffffff1660e01b8152600401600060405180830381865afa158015613279573d6000803e3d6000fd5b505050506040513d6000823e601f3d908101601f191682016040526132a19190810190613e1c565b905060008060006132b185610d58565b9250925092508260ff166000036132db576040516321c4e35760e21b815260040160405180910390fd5b600060016132eb8560ff16611043565b901b9586019590506133008660ff8616611071565b9650600061330d84610f57565b9050806000036133235750505050505050919050565b600061332e82610fd7565b905060006133617f0000000000000000000000000000000000000000000000000000000000000000610389600186613d79565b905060005b8a51811015613441576133a786828151811061338457613384613dc9565b60200260200101516133a18b84815181106108e4576108e4613dc9565b84611363565b8682815181106133b9576133b9613dc9565b60200260200101906001600160801b03191690816001600160801b031916815250506134066133f48488848151811061049457610494613dc9565b8c838151811061055757610557613dc9565b8b828151811061341857613418613dc9565b6001600160801b03199092166020928302919091019091015261343a81613ddf565b9050613366565b50505050505050505050919050565b6000617fff60f084811c8216919084901c8116908290036134845780617fff03611506575061ffff60ef1b91506109b39050565b80617fff036134d4577dffffffffffffffffffffffffffff000000000000000000000000000000008416156134c3575061ffff60ef1b91506109b39050565b505050808218600160ff1b166109b3565b6f7fffffffffffffffffffffffffffffff60801b8416600003613536576f7fffffffffffffffffffffffffffffff60801b851660000361351e575061ffff60ef1b91506109b39050565b505050808218600160ff1b16617fff60f01b176109b3565b6001600160701b03608085901c166000829003613556576001915061355d565b600160701b175b6001600160701b03608087901c1660008490036135a057801561359b57600061358582613734565b6001955060e20393840160711901939190911b90505b6135aa565b600160701b1760721b5b8181816135b9576135b9613d8c565b049050806000036135d857600160ff1b878718166115cd5760006115d3565b6d10000000000000000000000000008110156135f6576135f6613fa6565b60006e08000000000000000000000000000082101561364b576e04000000000000000000000000000082101561364057600160711b821015613639576070613643565b6071613643565b60725b60ff16613654565b61365482613734565b90508361407101818601111561367257617fff945060009150613705565b83818601613ffc01101561368d576000945060009150613705565b83818601613f8c0110156136da578385613ffc0111156136b8578385613ffc010382901b91506136d1565b8385613ffc0110156136d157613ffc8585030382901c91505b60009450613705565b60708111156136ed576070810382901c91505b6001600160701b038216915083818601613f8d010394505b81607086901b888a186001607f1b60801b1660801c6001600160801b0316171760801b955050505050506109b3565b600080821161374257600080fd5b6000700100000000000000000000000000000000831061376457608092831c92015b68010000000000000000831061377c57604092831c92015b640100000000831061379057602092831c92015b6201000083106137a257601092831c92015b61010083106137b357600892831c92015b601083106137c357600492831c92015b600483106137d357600292831c92015b600283106109b35760010192915050565b60006f7fffffffffffffffffffffffffffffff608084901c16617fff60701b81111561380f57600080fd5b6f7fffffffffffffffffffffffffffffff608084901c16617fff60701b81111561383857600080fd5b6001600160801b03198581169085161415806138615750617fff60701b826001600160801b0316105b61386a57600080fd5b6001600160801b031980851690861603613889576000925050506109b3565b6001607f1b608086811c82118015929187901c9190911015906138da5780156138cc57826001600160801b0316846001600160801b0316116138cc5760016115d3565b6000199450505050506109b3565b80156138ed5760019450505050506109b3565b826001600160801b0316846001600160801b03161161390e576000196115d3565b60019450505050506109b3565b6000617fff60f083901c16613fff8110156139395750600092915050565b6001607f1b608084901c1061394d57600080fd5b6140fe81111561395c57600080fd5b600160701b6001600160701b03608085901c161761406f8210156139865761406f8290031c61170d565b61406f82111561170d5761406e1982011b9392505050565b60008083601f8401126139b057600080fd5b50813567ffffffffffffffff8111156139c857600080fd5b6020830191508360208285010111156139e057600080fd5b9250929050565b600080600080604085870312156139fd57600080fd5b843567ffffffffffffffff80821115613a1557600080fd5b818701915087601f830112613a2957600080fd5b813581811115613a3857600080fd5b8860208260051b8501011115613a4d57600080fd5b602092830196509450908601359080821115613a6857600080fd5b50613a758782880161399e565b95989497509550505050565b803573ffffffffffffffffffffffffffffffffffffffff8116811461103e57600080fd5b600060208284031215613ab757600080fd5b61170d82613a81565b6020808252825182820181905260009190848201906040850190845b81811015613b025783516001600160801b03191683529284019291840191600101613adc565b50909695505050505050565b634e487b7160e01b600052604160045260246000fd5b604051601f8201601f1916810167ffffffffffffffff81118282101715613b4d57613b4d613b0e565b604052919050565b600082601f830112613b6657600080fd5b813567ffffffffffffffff811115613b8057613b80613b0e565b613b93601f8201601f1916602001613b24565b818152846020838601011115613ba857600080fd5b816020850160208301376000918101602001919091529392505050565b60008060408385031215613bd857600080fd5b613be183613a81565b9150602083013567ffffffffffffffff811115613bfd57600080fd5b613c0985828601613b55565b9150509250929050565b600081518084526020808501945080840160005b83811015613c4357815187529582019590820190600101613c27565b509495945050505050565b60208152600061170d6020830184613c13565b6000815180845260005b81811015613c8757602081850181015186830182015201613c6b565b506000602082860101526020601f19601f83011685010191505092915050565b60208152600061170d6020830184613c61565b600080600080600060808688031215613cd257600080fd5b613cdb86613a81565b9450602086013567ffffffffffffffff80821115613cf857600080fd5b613d0489838a0161399e565b9096509450604088013593506060880135915080821115613d2457600080fd5b50613d3188828901613b55565b9150509295509295909350565b604081526000613d516040830185613c13565b82810360208401526106728185613c61565b634e487b7160e01b600052601160045260246000fd5b818103818111156109b3576109b3613d63565b634e487b7160e01b600052601260045260246000fd5b600082613db157613db1613d8c565b500490565b808201808211156109b3576109b3613d63565b634e487b7160e01b600052603260045260246000fd5b600060018201613df157613df1613d63565b5060010190565b600067ffffffffffffffff821115613e1257613e12613b0e565b5060051b60200190565b60006020808385031215613e2f57600080fd5b825167ffffffffffffffff811115613e4657600080fd5b8301601f81018513613e5757600080fd5b8051613e6a613e6582613df8565b613b24565b81815260059190911b82018301908381019087831115613e8957600080fd5b928401925b82841015613ea757835182529284019290840190613e8e565b979650505050505050565b60006020808385031215613ec557600080fd5b823567ffffffffffffffff811115613edc57600080fd5b8301601f81018513613eed57600080fd5b8035613efb613e6582613df8565b81815260059190911b82018301908381019087831115613f1a57600080fd5b928401925b82841015613ea75783356001600160801b031981168114613f405760008081fd5b82529284019290840190613f1f565b64ffffffffff828116828216039080821115610fd057610fd0613d63565b80820281158282048414176109b3576109b3613d63565b600060ff831680613f9757613f97613d8c565b8060ff84160491505092915050565b634e487b7160e01b600052600160045260246000fdfea2646970667358221220dedf913959f593124d5702ad99a5d2ac905c173080e5f1cbe9f531961683b8e864736f6c63430008140033",
    "linkReferences": {}
  },
  "methodIdentifiers": {
    "ALPHA()": "b0bb1c5a",
    "CAP_INTERVAL()": "b89643d3",
    "LOG_MAX_DECREASE()": "5b1a7bbc",
    "LOG_MAX_INCREASE()": "b1a66d94",
    "readCumulativeReserves(address,bytes)": "9dc1a10e",
    "readInstantaneousReserves(address,bytes)": "6de13cba",
    "readLastCumulativeReserves(address)": "6832326a",
    "readLastInstantaneousReserves(address)": "944fc4dd",
    "readLastReserves(address)": "be8f949e",
    "readTwaReserves(address,bytes,uint256,bytes)": "d393b27a",
    "update(uint256[],bytes)": "497163ef"
  },
  "id": 95
}