{
  "abi": [
    {
      "anonymous": false,
      "inputs": [
        {
          "indexed": false,
          "internalType": "uint256[]",
          "name": "tokenAmountsIn",
          "type": "uint256[]"
        },
        {
          "indexed": false,
          "internalType": "uint256",
          "name": "lpAmountOut",
          "type": "uint256"
        },
        {
          "indexed": false,
          "internalType": "address",
          "name": "recipient",
          "type": "address"
        }
      ],
      "name": "AddLiquidity",
      "type": "event"
    },
    {
      "anonymous": false,
      "inputs": [
        {
          "indexed": true,
          "internalType": "address",
          "name": "owner",
          "type": "address"
        },
        {
          "indexed": true,
          "internalType": "address",
          "name": "spender",
          "type": "address"
        },
        {
          "indexed": false,
          "internalType": "uint256",
          "name": "value",
          "type": "uint256"
        }
      ],
      "name": "Approval",
      "type": "event"
    },
    {
      "anonymous": false,
      "inputs": [
        {
          "indexed": false,
          "internalType": "uint8",
          "name": "version",
          "type": "uint8"
        }
      ],
      "name": "Initialized",
      "type": "event"
    },
    {
      "anonymous": false,
      "inputs": [
        {
          "indexed": false,
          "internalType": "uint256",
          "name": "lpAmountIn",
          "type": "uint256"
        },
        {
          "indexed": false,
          "internalType": "uint256[]",
          "name": "tokenAmountsOut",
          "type": "uint256[]"
        },
        {
          "indexed": false,
          "internalType": "address",
          "name": "recipient",
          "type": "address"
        }
      ],
      "name": "RemoveLiquidity",
      "type": "event"
    },
    {
      "anonymous": false,
      "inputs": [
        {
          "indexed": false,
          "internalType": "uint256",
          "name": "lpAmountIn",
          "type": "uint256"
        },
        {
          "indexed": false,
          "internalType": "contract IERC20",
          "name": "tokenOut",
          "type": "address"
        },
        {
          "indexed": false,
          "internalType": "uint256",
          "name": "tokenAmountOut",
          "type": "uint256"
        },
        {
          "indexed": false,
          "internalType": "address",
          "name": "recipient",
          "type": "address"
        }
      ],
      "name": "RemoveLiquidityOneToken",
      "type": "event"
    },
    {
      "anonymous": false,
      "inputs": [
        {
          "indexed": false,
          "internalType": "uint256[]",
          "name": "reserves",
          "type": "uint256[]"
        },
        {
          "indexed": false,
          "internalType": "contract IERC20",
          "name": "toToken",
          "type": "address"
        },
        {
          "indexed": false,
          "internalType": "uint256",
          "name": "minAmountOut",
          "type": "uint256"
        },
        {
          "indexed": false,
          "internalType": "address",
          "name": "recipient",
          "type": "address"
        }
      ],
      "name": "Shift",
      "type": "event"
    },
    {
      "anonymous": false,
      "inputs": [
        {
          "indexed": false,
          "internalType": "contract IERC20",
          "name": "fromToken",
          "type": "address"
        },
        {
          "indexed": false,
          "internalType": "contract IERC20",
          "name": "toToken",
          "type": "address"
        },
        {
          "indexed": false,
          "internalType": "uint256",
          "name": "amountIn",
          "type": "uint256"
        },
        {
          "indexed": false,
          "internalType": "uint256",
          "name": "amountOut",
          "type": "uint256"
        },
        {
          "indexed": false,
          "internalType": "address",
          "name": "recipient",
          "type": "address"
        }
      ],
      "name": "Swap",
      "type": "event"
    },
    {
      "anonymous": false,
      "inputs": [
        {
          "indexed": false,
          "internalType": "uint256[]",
          "name": "reserves",
          "type": "uint256[]"
        }
      ],
      "name": "Sync",
      "type": "event"
    },
    {
      "anonymous": false,
      "inputs": [
        {
          "indexed": true,
          "internalType": "address",
          "name": "from",
          "type": "address"
        },
        {
          "indexed": true,
          "internalType": "address",
          "name": "to",
          "type": "address"
        },
        {
          "indexed": false,
          "internalType": "uint256",
          "name": "value",
          "type": "uint256"
        }
      ],
      "name": "Transfer",
      "type": "event"
    },
    {
      "inputs": [],
      "name": "DOMAIN_SEPARATOR",
      "outputs": [
        {
          "internalType": "bytes32",
          "name": "",
          "type": "bytes32"
        }
      ],
      "stateMutability": "view",
      "type": "function"
    },
    {
      "inputs": [
        {
          "internalType": "uint256[]",
          "name": "tokenAmountsIn",
          "type": "uint256[]"
        },
        {
          "internalType": "uint256",
          "name": "minLpAmountOut",
          "type": "uint256"
        },
        {
          "internalType": "address",
          "name": "recipient",
          "type": "address"
        }
      ],
      "name": "addLiquidity",
      "outputs": [
        {
          "internalType": "uint256",
          "name": "lpAmountOut",
          "type": "uint256"
        }
      ],
      "stateMutability": "nonpayable",
      "type": "function"
    },
    {
      "inputs": [
        {
          "internalType": "uint256[]",
          "name": "tokenAmountsIn",
          "type": "uint256[]"
        },
        {
          "internalType": "uint256",
          "name": "minLpAmountOut",
          "type": "uint256"
        },
        {
          "internalType": "address",
          "name": "recipient",
          "type": "address"
        }
      ],
      "name": "addLiquidityFeeOnTransfer",
      "outputs": [
        {
          "internalType": "uint256",
          "name": "lpAmountOut",
          "type": "uint256"
        }
      ],
      "stateMutability": "nonpayable",
      "type": "function"
    },
    {
      "inputs": [
        {
          "internalType": "address",
          "name": "owner",
          "type": "address"
        },
        {
          "internalType": "address",
          "name": "spender",
          "type": "address"
        }
      ],
      "name": "allowance",
      "outputs": [
        {
          "internalType": "uint256",
          "name": "",
          "type": "uint256"
        }
      ],
      "stateMutability": "view",
      "type": "function"
    },
    {
      "inputs": [
        {
          "internalType": "address",
          "name": "spender",
          "type": "address"
        },
        {
          "internalType": "uint256",
          "name": "amount",
          "type": "uint256"
        }
      ],
      "name": "approve",
      "outputs": [
        {
          "internalType": "bool",
          "name": "",
          "type": "bool"
        }
      ],
      "stateMutability": "nonpayable",
      "type": "function"
    },
    {
      "inputs": [],
      "name": "aquifer",
      "outputs": [
        {
          "internalType": "address",
          "name": "",
          "type": "address"
        }
      ],
      "stateMutability": "pure",
      "type": "function"
    },
    {
      "inputs": [
        {
          "internalType": "address",
          "name": "account",
          "type": "address"
        }
      ],
      "name": "balanceOf",
      "outputs": [
        {
          "internalType": "uint256",
          "name": "",
          "type": "uint256"
        }
      ],
      "stateMutability": "view",
      "type": "function"
    },
    {
      "inputs": [],
      "name": "decimals",
      "outputs": [
        {
          "internalType": "uint8",
          "name": "",
          "type": "uint8"
        }
      ],
      "stateMutability": "view",
      "type": "function"
    },
    {
      "inputs": [
        {
          "internalType": "address",
          "name": "spender",
          "type": "address"
        },
        {
          "internalType": "uint256",
          "name": "subtractedValue",
          "type": "uint256"
        }
      ],
      "name": "decreaseAllowance",
      "outputs": [
        {
          "internalType": "bool",
          "name": "",
          "type": "bool"
        }
      ],
      "stateMutability": "nonpayable",
      "type": "function"
    },
    {
      "inputs": [],
      "name": "firstPump",
      "outputs": [
        {
          "components": [
            {
              "internalType": "address",
              "name": "target",
              "type": "address"
            },
            {
              "internalType": "bytes",
              "name": "data",
              "type": "bytes"
            }
          ],
          "internalType": "struct Call",
          "name": "_pump",
          "type": "tuple"
        }
      ],
      "stateMutability": "pure",
      "type": "function"
    },
    {
      "inputs": [
        {
          "internalType": "uint256[]",
          "name": "tokenAmountsIn",
          "type": "uint256[]"
        }
      ],
      "name": "getAddLiquidityOut",
      "outputs": [
        {
          "internalType": "uint256",
          "name": "lpAmountOut",
          "type": "uint256"
        }
      ],
      "stateMutability": "view",
      "type": "function"
    },
    {
      "inputs": [
        {
          "internalType": "uint256[]",
          "name": "tokenAmountsOut",
          "type": "uint256[]"
        }
      ],
      "name": "getRemoveLiquidityImbalancedIn",
      "outputs": [
        {
          "internalType": "uint256",
          "name": "lpAmountIn",
          "type": "uint256"
        }
      ],
      "stateMutability": "view",
      "type": "function"
    },
    {
      "inputs": [
        {
          "internalType": "uint256",
          "name": "lpAmountIn",
          "type": "uint256"
        },
        {
          "internalType": "contract IERC20",
          "name": "tokenOut",
          "type": "address"
        }
      ],
      "name": "getRemoveLiquidityOneTokenOut",
      "outputs": [
        {
          "internalType": "uint256",
          "name": "tokenAmountOut",
          "type": "uint256"
        }
      ],
      "stateMutability": "view",
      "type": "function"
    },
    {
      "inputs": [
        {
          "internalType": "uint256",
          "name": "lpAmountIn",
          "type": "uint256"
        }
      ],
      "name": "getRemoveLiquidityOut",
      "outputs": [
        {
          "internalType": "uint256[]",
          "name": "tokenAmountsOut",
          "type": "uint256[]"
        }
      ],
      "stateMutability": "view",
      "type": "function"
    },
    {
      "inputs": [],
      "name": "getReserves",
      "outputs": [
        {
          "internalType": "uint256[]",
          "name": "reserves",
          "type": "uint256[]"
        }
      ],
      "stateMutability": "view",
      "type": "function"
    },
    {
      "inputs": [
        {
          "internalType": "contract IERC20",
          "name": "tokenOut",
          "type": "address"
        }
      ],
      "name": "getShiftOut",
      "outputs": [
        {
          "internalType": "uint256",
          "name": "amountOut",
          "type": "uint256"
        }
      ],
      "stateMutability": "view",
      "type": "function"
    },
    {
      "inputs": [
        {
          "internalType": "contract IERC20",
          "name": "fromToken",
          "type": "address"
        },
        {
          "internalType": "contract IERC20",
          "name": "toToken",
          "type": "address"
        },
        {
          "internalType": "uint256",
          "name": "amountOut",
          "type": "uint256"
        }
      ],
      "name": "getSwapIn",
      "outputs": [
        {
          "internalType": "uint256",
          "name": "amountIn",
          "type": "uint256"
        }
      ],
      "stateMutability": "view",
      "type": "function"
    },
    {
      "inputs": [
        {
          "internalType": "contract IERC20",
          "name": "fromToken",
          "type": "address"
        },
        {
          "internalType": "contract IERC20",
          "name": "toToken",
          "type": "address"
        },
        {
          "internalType": "uint256",
          "name": "amountIn",
          "type": "uint256"
        }
      ],
      "name": "getSwapOut",
      "outputs": [
        {
          "internalType": "uint256",
          "name": "amountOut",
          "type": "uint256"
        }
      ],
      "stateMutability": "view",
      "type": "function"
    },
    {
      "inputs": [
        {
          "internalType": "address",
          "name": "spender",
          "type": "address"
        },
        {
          "internalType": "uint256",
          "name": "addedValue",
          "type": "uint256"
        }
      ],
      "name": "increaseAllowance",
      "outputs": [
        {
          "internalType": "bool",
          "name": "",
          "type": "bool"
        }
      ],
      "stateMutability": "nonpayable",
      "type": "function"
    },
    {
      "inputs": [
        {
          "internalType": "string",
          "name": "name",
          "type": "string"
        },
        {
          "internalType": "string",
          "name": "symbol",
          "type": "string"
        }
      ],
      "name": "init",
      "outputs": [],
      "stateMutability": "nonpayable",
      "type": "function"
    },
    {
      "inputs": [],
      "name": "name",
      "outputs": [
        {
          "internalType": "string",
          "name": "",
          "type": "string"
        }
      ],
      "stateMutability": "view",
      "type": "function"
    },
    {
      "inputs": [
        {
          "internalType": "address",
          "name": "owner",
          "type": "address"
        }
      ],
      "name": "nonces",
      "outputs": [
        {
          "internalType": "uint256",
          "name": "",
          "type": "uint256"
        }
      ],
      "stateMutability": "view",
      "type": "function"
    },
    {
      "inputs": [],
      "name": "numberOfPumps",
      "outputs": [
        {
          "internalType": "uint256",
          "name": "",
          "type": "uint256"
        }
      ],
      "stateMutability": "pure",
      "type": "function"
    },
    {
      "inputs": [],
      "name": "numberOfTokens",
      "outputs": [
        {
          "internalType": "uint256",
          "name": "",
          "type": "uint256"
        }
      ],
      "stateMutability": "pure",
      "type": "function"
    },
    {
      "inputs": [
        {
          "internalType": "address",
          "name": "owner",
          "type": "address"
        },
        {
          "internalType": "address",
          "name": "spender",
          "type": "address"
        },
        {
          "internalType": "uint256",
          "name": "value",
          "type": "uint256"
        },
        {
          "internalType": "uint256",
          "name": "deadline",
          "type": "uint256"
        },
        {
          "internalType": "uint8",
          "name": "v",
          "type": "uint8"
        },
        {
          "internalType": "bytes32",
          "name": "r",
          "type": "bytes32"
        },
        {
          "internalType": "bytes32",
          "name": "s",
          "type": "bytes32"
        }
      ],
      "name": "permit",
      "outputs": [],
      "stateMutability": "nonpayable",
      "type": "function"
    },
    {
      "inputs": [],
      "name": "pumps",
      "outputs": [
        {
          "components": [
            {
              "internalType": "address",
              "name": "target",
              "type": "address"
            },
            {
              "internalType": "bytes",
              "name": "data",
              "type": "bytes"
            }
          ],
          "internalType": "struct Call[]",
          "name": "_pumps",
          "type": "tuple[]"
        }
      ],
      "stateMutability": "pure",
      "type": "function"
    },
    {
      "inputs": [
        {
          "internalType": "uint256",
          "name": "lpAmountIn",
          "type": "uint256"
        },
        {
          "internalType": "uint256[]",
          "name": "minTokenAmountsOut",
          "type": "uint256[]"
        },
        {
          "internalType": "address",
          "name": "recipient",
          "type": "address"
        }
      ],
      "name": "removeLiquidity",
      "outputs": [
        {
          "internalType": "uint256[]",
          "name": "tokenAmountsOut",
          "type": "uint256[]"
        }
      ],
      "stateMutability": "nonpayable",
      "type": "function"
    },
    {
      "inputs": [
        {
          "internalType": "uint256",
          "name": "maxLpAmountIn",
          "type": "uint256"
        },
        {
          "internalType": "uint256[]",
          "name": "tokenAmountsOut",
          "type": "uint256[]"
        },
        {
          "internalType": "address",
          "name": "recipient",
          "type": "address"
        }
      ],
      "name": "removeLiquidityImbalanced",
      "outputs": [
        {
          "internalType": "uint256",
          "name": "lpAmountIn",
          "type": "uint256"
        }
      ],
      "stateMutability": "nonpayable",
      "type": "function"
    },
    {
      "inputs": [
        {
          "internalType": "uint256",
          "name": "lpAmountIn",
          "type": "uint256"
        },
        {
          "internalType": "contract IERC20",
          "name": "tokenOut",
          "type": "address"
        },
        {
          "internalType": "uint256",
          "name": "minTokenAmountOut",
          "type": "uint256"
        },
        {
          "internalType": "address",
          "name": "recipient",
          "type": "address"
        }
      ],
      "name": "removeLiquidityOneToken",
      "outputs": [
        {
          "internalType": "uint256",
          "name": "tokenAmountOut",
          "type": "uint256"
        }
      ],
      "stateMutability": "nonpayable",
      "type": "function"
    },
    {
      "inputs": [
        {
          "internalType": "contract IERC20",
          "name": "tokenOut",
          "type": "address"
        },
        {
          "internalType": "uint256",
          "name": "minAmountOut",
          "type": "uint256"
        },
        {
          "internalType": "address",
          "name": "recipient",
          "type": "address"
        }
      ],
      "name": "shift",
      "outputs": [
        {
          "internalType": "uint256",
          "name": "amountOut",
          "type": "uint256"
        }
      ],
      "stateMutability": "nonpayable",
      "type": "function"
    },
    {
      "inputs": [
        {
          "internalType": "address",
          "name": "recipient",
          "type": "address"
        }
      ],
      "name": "skim",
      "outputs": [
        {
          "internalType": "uint256[]",
          "name": "skimAmounts",
          "type": "uint256[]"
        }
      ],
      "stateMutability": "nonpayable",
      "type": "function"
    },
    {
      "inputs": [
        {
          "internalType": "contract IERC20",
          "name": "fromToken",
          "type": "address"
        },
        {
          "internalType": "contract IERC20",
          "name": "toToken",
          "type": "address"
        },
        {
          "internalType": "uint256",
          "name": "amountIn",
          "type": "uint256"
        },
        {
          "internalType": "uint256",
          "name": "minAmountOut",
          "type": "uint256"
        },
        {
          "internalType": "address",
          "name": "recipient",
          "type": "address"
        }
      ],
      "name": "swapFrom",
      "outputs": [
        {
          "internalType": "uint256",
          "name": "amountOut",
          "type": "uint256"
        }
      ],
      "stateMutability": "nonpayable",
      "type": "function"
    },
    {
      "inputs": [
        {
          "internalType": "contract IERC20",
          "name": "fromToken",
          "type": "address"
        },
        {
          "internalType": "contract IERC20",
          "name": "toToken",
          "type": "address"
        },
        {
          "internalType": "uint256",
          "name": "amountIn",
          "type": "uint256"
        },
        {
          "internalType": "uint256",
          "name": "minAmountOut",
          "type": "uint256"
        },
        {
          "internalType": "address",
          "name": "recipient",
          "type": "address"
        }
      ],
      "name": "swapFromFeeOnTransfer",
      "outputs": [
        {
          "internalType": "uint256",
          "name": "amountOut",
          "type": "uint256"
        }
      ],
      "stateMutability": "nonpayable",
      "type": "function"
    },
    {
      "inputs": [
        {
          "internalType": "contract IERC20",
          "name": "fromToken",
          "type": "address"
        },
        {
          "internalType": "contract IERC20",
          "name": "toToken",
          "type": "address"
        },
        {
          "internalType": "uint256",
          "name": "maxAmountIn",
          "type": "uint256"
        },
        {
          "internalType": "uint256",
          "name": "amountOut",
          "type": "uint256"
        },
        {
          "internalType": "address",
          "name": "recipient",
          "type": "address"
        }
      ],
      "name": "swapTo",
      "outputs": [
        {
          "internalType": "uint256",
          "name": "amountIn",
          "type": "uint256"
        }
      ],
      "stateMutability": "nonpayable",
      "type": "function"
    },
    {
      "inputs": [],
      "name": "symbol",
      "outputs": [
        {
          "internalType": "string",
          "name": "",
          "type": "string"
        }
      ],
      "stateMutability": "view",
      "type": "function"
    },
    {
      "inputs": [],
      "name": "sync",
      "outputs": [],
      "stateMutability": "nonpayable",
      "type": "function"
    },
    {
      "inputs": [],
      "name": "tokens",
      "outputs": [
        {
          "internalType": "contract IERC20[]",
          "name": "ts",
          "type": "address[]"
        }
      ],
      "stateMutability": "pure",
      "type": "function"
    },
    {
      "inputs": [],
      "name": "totalSupply",
      "outputs": [
        {
          "internalType": "uint256",
          "name": "",
          "type": "uint256"
        }
      ],
      "stateMutability": "view",
      "type": "function"
    },
    {
      "inputs": [
        {
          "internalType": "address",
          "name": "to",
          "type": "address"
        },
        {
          "internalType": "uint256",
          "name": "amount",
          "type": "uint256"
        }
      ],
      "name": "transfer",
      "outputs": [
        {
          "internalType": "bool",
          "name": "",
          "type": "bool"
        }
      ],
      "stateMutability": "nonpayable",
      "type": "function"
    },
    {
      "inputs": [
        {
          "internalType": "address",
          "name": "from",
          "type": "address"
        },
        {
          "internalType": "address",
          "name": "to",
          "type": "address"
        },
        {
          "internalType": "uint256",
          "name": "amount",
          "type": "uint256"
        }
      ],
      "name": "transferFrom",
      "outputs": [
        {
          "internalType": "bool",
          "name": "",
          "type": "bool"
        }
      ],
      "stateMutability": "nonpayable",
      "type": "function"
    },
    {
      "inputs": [],
      "name": "well",
      "outputs": [
        {
          "internalType": "contract IERC20[]",
          "name": "_tokens",
          "type": "address[]"
        },
        {
          "components": [
            {
              "internalType": "address",
              "name": "target",
              "type": "address"
            },
            {
              "internalType": "bytes",
              "name": "data",
              "type": "bytes"
            }
          ],
          "internalType": "struct Call",
          "name": "_wellFunction",
          "type": "tuple"
        },
        {
          "components": [
            {
              "internalType": "address",
              "name": "target",
              "type": "address"
            },
            {
              "internalType": "bytes",
              "name": "data",
              "type": "bytes"
            }
          ],
          "internalType": "struct Call[]",
          "name": "_pumps",
          "type": "tuple[]"
        },
        {
          "internalType": "bytes",
          "name": "_wellData",
          "type": "bytes"
        },
        {
          "internalType": "address",
          "name": "_aquifer",
          "type": "address"
        }
      ],
      "stateMutability": "pure",
      "type": "function"
    },
    {
      "inputs": [],
      "name": "wellData",
      "outputs": [
        {
          "internalType": "bytes",
          "name": "",
          "type": "bytes"
        }
      ],
      "stateMutability": "pure",
      "type": "function"
    },
    {
      "inputs": [],
      "name": "wellFunction",
      "outputs": [
        {
          "components": [
            {
              "internalType": "address",
              "name": "target",
              "type": "address"
            },
            {
              "internalType": "bytes",
              "name": "data",
              "type": "bytes"
            }
          ],
          "internalType": "struct Call",
          "name": "_wellFunction",
          "type": "tuple"
        }
      ],
      "stateMutability": "pure",
      "type": "function"
    },
    {
      "inputs": [],
      "name": "wellFunctionAddress",
      "outputs": [
        {
          "internalType": "address",
          "name": "",
          "type": "address"
        }
      ],
      "stateMutability": "pure",
      "type": "function"
    },
    {
      "inputs": [],
      "name": "wellFunctionDataLength",
      "outputs": [
        {
          "internalType": "uint256",
          "name": "",
          "type": "uint256"
        }
      ],
      "stateMutability": "pure",
      "type": "function"
    }
  ],
  "bytecode": {
    "object": "0x608060405234801561001057600080fd5b50614baa806100206000396000f3fe608060405234801561001057600080fd5b50600436106102ff5760003560e01c80638cfce0f01161019c578063b8c55d4a116100ee578063dc6df26d11610097578063dd62ed3e11610071578063dd62ed3e14610626578063f9f16ef21461065f578063fff6cae91461066757600080fd5b8063dc6df26d146105f8578063dca28a8214610600578063dcc8b3011461061357600080fd5b8063c12323c9116100c8578063c12323c9146105cb578063d505accf146105d2578063dc036c9a146105e557600080fd5b8063b8c55d4a1461058c578063bc25cf771461059f578063c0878f0c146105b257600080fd5b80639fbbbeef11610150578063a57be4ed1161012a578063a57be4ed1461055e578063a9059cbb14610566578063aba5486a1461057957600080fd5b80639fbbbeef14610523578063a1d89d9614610536578063a457c2d71461054b57600080fd5b80639b14a5cf116101815780639b14a5cf146104f35780639ca74072146104fb5780639d63848a1461050e57600080fd5b80638cfce0f0146104d857806395d89b41146104eb57600080fd5b80632e60eb3c11610255578063534e3d271161020957806370a08231116101e357806370a08231146104895780637ecebe00146104b25780638974eb0f146104c557600080fd5b8063534e3d271461044e57806363356f82146104615780637029144c1461047457600080fd5b80633644e5151161023a5780633644e5151461042057806339509351146104285780633e8847ec1461043b57600080fd5b80632e60eb3c14610409578063313ce5671461041157600080fd5b806310dd0830116102b75780631a275a03116102915780631a275a03146103d05780631d44458f146103e357806323b872dd146103f657600080fd5b806310dd0830146103a057806314638c09146103b557806318160ddd146103c857600080fd5b806306fdde03116102e857806306fdde03146103535780630902f1ac14610368578063095ea7b31461037d57600080fd5b8063038f6f611461030457806305fb5a0014610332575b600080fd5b3660011981013560f01c90033560601c5b6040516001600160a01b0390911681526020015b60405180910390f35b610345610340366004614063565b610674565b604051908152602001610329565b61035b61072e565b60405161032991906140f5565b6103706107c0565b6040516103299190614143565b61039061038b36600461416b565b6107d2565b6040519015158152602001610329565b6103a86107ec565b60405161032991906141bf565b6103456103c33660046141d2565b610887565b603554610345565b6103456103de3660046141ef565b6109e9565b6103456103f136600461424e565b610b31565b61039061040436600461424e565b610bc5565b610345610beb565b60405160128152602001610329565b610345610c2d565b61039061043636600461416b565b610c37565b61034561044936600461434b565b610c76565b61037061045c3660046143a6565b610c99565b61034561046f3660046143bf565b610d7a565b61048761048236600461448e565b610f24565b005b6103456104973660046141d2565b6001600160a01b031660009081526033602052604090205490565b6103456104c03660046141d2565b61112c565b6103456104d33660046144f2565b61114a565b6103456104e6366004614527565b6111fb565b61035b611239565b6103a8611248565b610345610509366004614557565b61130e565b610516611459565b60405161032991906145cf565b61034561053136600461424e565b6114a3565b61053e611534565b6040516103299190614637565b61039061055936600461416b565b6116de565b610315611793565b61039061057436600461416b565b6117c2565b61034561058736600461434b565b6117d0565b61034561059a36600461464a565b6117e7565b6103706105ad3660046141d2565b611a1b565b6105ba611bcd565b604051610329959493929190614681565b606061035b565b6104876105e03660046146ea565b611c21565b6103706105f33660046143bf565b611d85565b610345611fab565b61034561060e3660046141ef565b611fd1565b6103456106213660046141ef565b612001565b610345610634366004614761565b6001600160a01b03918216600090815260346020908152604080832093909416825291909152205490565b61034561202d565b61048761203d565b905090565b60008061067f611459565b9050600061068d82516121a8565b905060005b8251811015610705578585828181106106ad576106ad61478f565b905060200201358282815181106106c6576106c661478f565b60200260200101516106d891906147bb565b8282815181106106ea576106ea61478f565b60209081029190910101526106fe816147ce565b9050610692565b506107176107116107ec565b826121d4565b6035545b61072591906147bb565b95945050505050565b60606036805461073d906147e7565b80601f0160208091040260200160405190810160405280929190818152602001828054610769906147e7565b80156107b65780601f1061078b576101008083540402835291602001916107b6565b820191906000526020600020905b81548152906001019060200180831161079957829003601f168201915b5050505050905090565b606061066f6107cd61202d565b6121a8565b6000336107e0818585612249565b60019150505b92915050565b604080518082019091526000815260606020820152610809611793565b6001600160a01b03168152600061081e61202d565b61082990602061481b565b61083560006014614832565b610840906020614832565b61084b906014614832565b610856906020614832565b610861906020614832565b61086b9190614832565b905061087e81610879611fab565b61236d565b60208301525090565b600080610892611459565b90506000815167ffffffffffffffff8111156108b0576108b061428f565b6040519080825280602002602001820160405280156108d9578160200160208202803683370190505b50905060005b825181101561099b578281815181106108fa576108fa61478f565b60209081029190910101516040516370a0823160e01b81523060048201526001600160a01b03909116906370a0823190602401602060405180830381865afa15801561094a573d6000803e3d6000fd5b505050506040513d601f19601f8201168201806040525081019061096e9190614845565b8282815181106109805761098061478f565b6020908102919091010152610994816147ce565b90506108df565b5060006109a883866123e5565b90506109c56109b56107ec565b83836109c060355490565b612473565b8282815181106109d7576109d761478f565b602002602001015161072591906147bb565b60006109f36124ed565b60006109fd611459565b90506000610a0b8251612546565b9050600080610a1b848b8b6126ba565b9150915086838281518110610a3257610a3261478f565b60200260200101818151610a4691906147bb565b9052508251600090849084908110610a6057610a6061478f565b60200260200101519050610a80610a756107ec565b85856109c060355490565b848481518110610a9257610a9261478f565b60200260200101818152505080848481518110610ab157610ab161478f565b6020026020010151610ac391906147bb565b955088861115610b0b5760405162461bcd60e51b815260206004820152600e60248201526d57656c6c3a20736c69707061676560901b60448201526064015b60405180910390fd5b610b188b8b888b8b6127e7565b610b228585612870565b5050505050610725600160cc55565b600080610b3c611459565b90506000610b4a82516121a8565b9050600080610b5a8489896126ba565b9150915085838281518110610b7157610b7161478f565b60200260200101818151610b8591906147bb565b9052508251839083908110610b9c57610b9c61478f565b6020026020010151610baf610a756107ec565b610bb991906147bb565b98975050505050505050565b600033610bd38582856129a9565b610bde858585612a3b565b60019150505b9392505050565b600061066f610bfb826014614832565b610c06906020614832565b610c11906014614832565b610c1c906020614832565b3660011981013560f01c9003013590565b600061066f612c15565b3360008181526034602090815260408083206001600160a01b03871684529091528120549091906107e09082908690610c71908790614832565b612249565b6000610c806124ed565b610c8d8484846000612c90565b9050610be4600160cc55565b60606000610ca5611459565b90506000610cb382516121a8565b90506000610cc060355490565b9050825167ffffffffffffffff811115610cdc57610cdc61428f565b604051908082528060200260200182016040528015610d05578160200160208202803683370190505b50935060005b8351811015610d715781838281518110610d2757610d2761478f565b602002602001015187610d3a919061481b565b610d449190614874565b858281518110610d5657610d5661478f565b6020908102919091010152610d6a816147ce565b9050610d0b565b50505050919050565b6000610d846124ed565b6000610d8e611459565b90506000610d9c8251612546565b905060005b8251811015610e6357610df985888884818110610dc057610dc061478f565b90506020020135858481518110610dd957610dd961478f565b60200260200101516001600160a01b0316612f509092919063ffffffff16565b868682818110610e0b57610e0b61478f565b90506020020135828281518110610e2457610e2461478f565b6020026020010151610e3691906147bb565b828281518110610e4857610e4861478f565b6020908102919091010152610e5c816147ce565b9050610da1565b50610e6f6107116107ec565b603554610e7c91906147bb565b925086831115610ebf5760405162461bcd60e51b815260206004820152600e60248201526d57656c6c3a20736c69707061676560901b6044820152606401610b02565b610ec93384612fe0565b610ed38282612870565b7ff4358595ad4956678c919635516976c76f95de0ce5a56b61ef35931b8c05dc0483878787604051610f089493929190614888565b60405180910390a15050610f1c600160cc55565b949350505050565b600054610100900460ff1615808015610f445750600054600160ff909116105b80610f5e5750303b158015610f5e575060005460ff166001145b610fd05760405162461bcd60e51b815260206004820152602e60248201527f496e697469616c697a61626c653a20636f6e747261637420697320616c72656160448201527f647920696e697469616c697a65640000000000000000000000000000000000006064820152608401610b02565b6000805460ff191660011790558015610ff3576000805461ff0019166101001790555b610ffc83613114565b61100683836131a5565b6000611010611534565b905060005b81518110156110df578181815181106110305761103061478f565b6020026020010151600001516001600160a01b031663b1c5977961105261202d565b604080516000815260208101918290527fffffffff0000000000000000000000000000000000000000000000000000000060e085901b1690915261109a9190602481016148ef565b600060405180830381600087803b1580156110b457600080fd5b505af11580156110c8573d6000803e3d6000fd5b5050505080806110d7906147ce565b915050611015565b50508015611127576000805461ff0019169055604051600181527f7f26b83ff96e1f2b6a682f133852f6798a09c465da95921460cefb38474024989060200160405180910390a15b505050565b6001600160a01b0381166000908152609960205260408120546107e6565b600080611155611459565b9050600061116382516121a8565b905060005b82518110156111dc578481815181106111835761118361478f565b602002602001015182828151811061119d5761119d61478f565b60200260200101516111af9190614832565b8282815181106111c1576111c161478f565b60209081029190910101526111d5816147ce565b9050611168565b506035546111f16111eb6107ec565b836121d4565b610f1c91906147bb565b600080611206611459565b9050600061121482516121a8565b9050600061122283866123e5565b905061122f86828461321a565b9695505050505050565b60606037805461073d906147e7565b6040805180820190915260008152606060208201526000611267611fab565b61126f61202d565b61127a90602061481b565b61128660006014614832565b611291906020614832565b61129c906014614832565b6112a7906020614832565b6112b2906020614832565b6112bc9190614832565b6112c69190614832565b3660011981013560f01c900381013560601c8352905060006112ec610c1c836014614832565b90506113026112fc836034614832565b8261236d565b60208401525090919050565b60006113186124ed565b6000611322611459565b905060006113308251612546565b9050600061133e83886123e5565b905061134b88828461321a565b93508584101561138e5760405162461bcd60e51b815260206004820152600e60248201526d57656c6c3a20736c69707061676560901b6044820152606401610b02565b6113983389612fe0565b6113ac6001600160a01b0388168686612f50565b838282815181106113bf576113bf61478f565b60200260200101516113d191906147bb565b8282815181106113e3576113e361478f565b6020026020010181815250506113f98383612870565b604080518981526001600160a01b03808a16602083015291810186905290861660608201527f6f08fb00dac40d918cc84a5080754603d4f9a13a2437d87e06fd75ab944c7575906080015b60405180910390a1505050610f1c600160cc55565b606061066f61146a60006014614832565b611475906020614832565b611480906014614832565b61148b906020614832565b611496906020614832565b61149e61202d565b61326f565b6000806114ae611459565b905060006114bc82516121a8565b90506000806114cc8489896126ba565b91509150858383815181106114e3576114e361478f565b602002602001018181516114f79190614832565b9052506115106115056107ec565b84836109c060355490565b8382815181106115225761152261478f565b6020026020010151610bb991906147bb565b606061153e610beb565b6000036115485790565b611550610beb565b67ffffffffffffffff8111156115685761156861428f565b6040519080825280602002602001820160405280156115ae57816020015b6040805180820190915260008152606060208201528152602001906001900390816115865790505b50905060006115bb611fab565b6115c361202d565b6115ce90602061481b565b6115da60006014614832565b6115e5906020614832565b6115f0906014614832565b6115fb906020614832565b611606906020614832565b6116109190614832565b61161a9190614832565b90506000805b83518110156116d8573660011981013560f01c900383013560601c84828151811061164d5761164d61478f565b60209081029190910101516001600160a01b039091169052611670601484614832565b92503660011981013560f01c9003830135915061168e602084614832565b925061169a838361236d565b8482815181106116ac576116ac61478f565b60209081029190910181015101526116c48284614832565b9250806116d0816147ce565b915050611620565b50505090565b3360008181526034602090815260408083206001600160a01b03871684529091528120549091908381101561177b5760405162461bcd60e51b815260206004820152602560248201527f45524332303a2064656372656173656420616c6c6f77616e63652062656c6f7760448201527f207a65726f0000000000000000000000000000000000000000000000000000006064820152608401610b02565b6117888286868403612249565b506001949350505050565b600061066f6117a3826014614832565b6117ae906020614832565b3660011981013560f01c9003013560601c90565b6000336107e0818585612a3b565b60006117da6124ed565b610c8d8484846001612c90565b60006117f16124ed565b60006117fb611459565b90506000815167ffffffffffffffff8111156118195761181961428f565b604051908082528060200260200182016040528015611842578160200160208202803683370190505b50905060005b8251811015611904578281815181106118635761186361478f565b60209081029190910101516040516370a0823160e01b81523060048201526001600160a01b03909116906370a0823190602401602060405180830381865afa1580156118b3573d6000803e3d6000fd5b505050506040513d601f19601f820116820180604052508101906118d79190614845565b8282815181106118e9576118e961478f565b60209081029190910101526118fd816147ce565b9050611848565b50600061191183886123e5565b905061191e6109b56107ec565b8282815181106119305761193061478f565b602002602001015161194291906147bb565b93508584106119d55761195f6001600160a01b0388168686612f50565b838282815181106119725761197261478f565b6020026020010181815161198691906147bb565b9052506119938383612870565b7f1ee4a8e2e74af07abadd6b0b5f8f8bd96a54656e3bb7d987c5075a0c8b9f0df5828886886040516119c89493929190614908565b60405180910390a1611a0e565b60405162461bcd60e51b815260206004820152600e60248201526d57656c6c3a20736c69707061676560901b6044820152606401610b02565b505050610be4600160cc55565b6060611a256124ed565b6000611a2f611459565b90506000611a3d82516121a8565b9050815167ffffffffffffffff811115611a5957611a5961428f565b604051908082528060200260200182016040528015611a82578160200160208202803683370190505b50925060005b8251811015611bbb57818181518110611aa357611aa361478f565b6020026020010151838281518110611abd57611abd61478f565b60209081029190910101516040516370a0823160e01b81523060048201526001600160a01b03909116906370a0823190602401602060405180830381865afa158015611b0d573d6000803e3d6000fd5b505050506040513d601f19601f82011682018060405250810190611b319190614845565b611b3b91906147bb565b848281518110611b4d57611b4d61478f565b6020026020010181815250506000848281518110611b6d57611b6d61478f565b60200260200101511115611bab57611bab85858381518110611b9157611b9161478f565b6020026020010151858481518110610dd957610dd961478f565b611bb4816147ce565b9050611a88565b505050611bc8600160cc55565b919050565b6040805180820190915260008152606060208201819052906060806000611bf2611459565b9450611bfc6107ec565b9350611c06611534565b92503660011981013560f01c90033560601c90509091929394565b83421115611c715760405162461bcd60e51b815260206004820152601d60248201527f45524332305065726d69743a206578706972656420646561646c696e650000006044820152606401610b02565b60007f6e71edae12b1b97f4d1f60370fef10105fa2faae0126114a169c64845d6126c9888888611ca08c6132df565b6040805160208101969096526001600160a01b0394851690860152929091166060840152608083015260a082015260c0810186905260e0016040516020818303038152906040528051906020012090506000611cfb82613307565b90506000611d0b82878787613355565b9050896001600160a01b0316816001600160a01b031614611d6e5760405162461bcd60e51b815260206004820152601e60248201527f45524332305065726d69743a20696e76616c6964207369676e617475726500006044820152606401610b02565b611d798a8a8a612249565b50505050505050505050565b6060611d8f6124ed565b6000611d99611459565b90506000611da78251612546565b90506000611db460355490565b9050825167ffffffffffffffff811115611dd057611dd061428f565b604051908082528060200260200182016040528015611df9578160200160208202803683370190505b509350611e063389612fe0565b60005b8351811015611f6d5781838281518110611e2557611e2561478f565b60200260200101518a611e38919061481b565b611e429190614874565b858281518110611e5457611e5461478f565b602002602001018181525050878782818110611e7257611e7261478f565b90506020020135858281518110611e8b57611e8b61478f565b60200260200101511015611ed25760405162461bcd60e51b815260206004820152600e60248201526d57656c6c3a20736c69707061676560901b6044820152606401610b02565b611f0286868381518110611ee857611ee861478f565b6020026020010151868481518110610dd957610dd961478f565b848181518110611f1457611f1461478f565b6020026020010151838281518110611f2e57611f2e61478f565b6020026020010151611f4091906147bb565b838281518110611f5257611f5261478f565b6020908102919091010152611f66816147ce565b9050611e09565b50611f788383612870565b7ff4358595ad4956678c919635516976c76f95de0ce5a56b61ef35931b8c05dc0488858760405161144493929190614944565b600061066f611fbb826014614832565b611fc6906020614832565b610c1c906014614832565b6000611fdb6124ed565b611fe686338661337d565b9350611ff5868686868661346b565b9050610725600160cc55565b600061200b6124ed565b6120206001600160a01b038716333087613604565b611ff5868686868661346b565b600061066f610c1c826014614832565b6120456124ed565b600061204f611459565b90506000815167ffffffffffffffff81111561206d5761206d61428f565b604051908082528060200260200182016040528015612096578160200160208202803683370190505b50905060005b8251811015612158578281815181106120b7576120b761478f565b60209081029190910101516040516370a0823160e01b81523060048201526001600160a01b03909116906370a0823190602401602060405180830381865afa158015612107573d6000803e3d6000fd5b505050506040513d601f19601f8201168201806040525081019061212b9190614845565b82828151811061213d5761213d61478f565b6020908102919091010152612151816147ce565b905061209c565b506121638282612870565b7f30e692c3210b10b7fb0d8e6ce930811a92fc22eb68db644feb8288684c9e1c00816040516121929190614143565b60405180910390a150506121a6600160cc55565b565b60606107e67f4bba01c388049b5ebd30398b65e8ad45b632802c5faf4964e58085ea8ab037168361363c565b815160208301516040516253057f60e61b81526000926001600160a01b0316916314c15fc091612208918691600401614976565b602060405180830381865afa158015612225573d6000803e3d6000fd5b505050506040513d601f19601f82011682018060405250810190610be49190614845565b6001600160a01b0383166122ab5760405162461bcd60e51b8152602060048201526024808201527f45524332303a20617070726f76652066726f6d20746865207a65726f206164646044820152637265737360e01b6064820152608401610b02565b6001600160a01b03821661230c5760405162461bcd60e51b815260206004820152602260248201527f45524332303a20617070726f766520746f20746865207a65726f206164647265604482015261737360f01b6064820152608401610b02565b6001600160a01b0383811660008181526034602090815260408083209487168084529482529182902085905590518481527f8c5be1e5ebec7d5bd14f71427d1e84f3dd0314c0f7b2291e5b200ac8c7c3b925910160405180910390a3505050565b606081156107e657600061238c843660011981013560f01c9003614832565b90508267ffffffffffffffff8111156123a7576123a761428f565b6040519080825280601f01601f1916602001820160405280156123d1576020820181803683370190505b5091508260051b8160208401375092915050565b60005b8251811015612434578281815181106124035761240361478f565b60200260200101516001600160a01b0316826001600160a01b031603156107e65761242d816147ce565b90506123e8565b60405162461bcd60e51b815260206004820152601460248201527357656c6c3a20496e76616c696420746f6b656e7360601b6044820152606401610b02565b83516020850151604051637f35e83d60e01b81526000926001600160a01b031691637f35e83d916124ac9188918891889160040161499b565b602060405180830381865afa1580156124c9573d6000803e3d6000fd5b505050506040513d601f19601f820116820180604052508101906107259190614845565b600260cc540361253f5760405162461bcd60e51b815260206004820152601f60248201527f5265656e7472616e637947756172643a207265656e7472616e742063616c6c006044820152606401610b02565b600260cc55565b6060612551826121a8565b905061255b610beb565b60000361256757919050565b61256f610beb565b6001036125f0576000612580611248565b8051602082015160405163497163ef60e01b81529293506001600160a01b039091169163497163ef916125b891869190600401614976565b600060405180830381600087803b1580156125d257600080fd5b505af11580156125e6573d6000803e3d6000fd5b5050505050919050565b60006125fa611534565b905060005b81518110156126b35781818151811061261a5761261a61478f565b6020026020010151600001516001600160a01b031663497163ef848484815181106126475761264761478f565b6020026020010151602001516040518363ffffffff1660e01b8152600401612670929190614976565b600060405180830381600087803b15801561268a57600080fd5b505af115801561269e573d6000803e3d6000fd5b50505050806126ac906147ce565b90506125ff565b5050919050565b60008060008060005b8751811015612754578781815181106126de576126de61478f565b60200260200101516001600160a01b0316876001600160a01b03160361270a5780945060019250612744565b87818151811061271c5761271c61478f565b60200260200101516001600160a01b0316866001600160a01b03160361274457809350600191505b61274d816147ce565b90506126c3565b50816127995760405162461bcd60e51b815260206004820152601460248201527357656c6c3a20496e76616c696420746f6b656e7360601b6044820152606401610b02565b806127dd5760405162461bcd60e51b815260206004820152601460248201527357656c6c3a20496e76616c696420746f6b656e7360601b6044820152606401610b02565b5050935093915050565b6127fc6001600160a01b038616333086613604565b6128106001600160a01b0385168284612f50565b604080516001600160a01b0387811682528681166020830152818301869052606082018590528316608082015290517fb39c9bc43f811e1a7ce159c5f147458fdb80266bf23c17322013316e27e086d09181900360a00190a15050505050565b60005b815181101561297a5782818151811061288e5761288e61478f565b60209081029190910101516040516370a0823160e01b81523060048201526001600160a01b03909116906370a0823190602401602060405180830381865afa1580156128de573d6000803e3d6000fd5b505050506040513d601f19601f820116820180604052508101906129029190614845565b8282815181106129145761291461478f565b6020026020010151111561296a5760405162461bcd60e51b815260206004820152601560248201527f57656c6c3a20496e76616c6964207265736572766500000000000000000000006044820152606401610b02565b612973816147ce565b9050612873565b506129a57f4bba01c388049b5ebd30398b65e8ad45b632802c5faf4964e58085ea8ab037168261372c565b5050565b6001600160a01b038381166000908152603460209081526040808320938616835292905220546000198114612a355781811015612a285760405162461bcd60e51b815260206004820152601d60248201527f45524332303a20696e73756666696369656e7420616c6c6f77616e63650000006044820152606401610b02565b612a358484848403612249565b50505050565b6001600160a01b038316612ab75760405162461bcd60e51b815260206004820152602560248201527f45524332303a207472616e736665722066726f6d20746865207a65726f20616460448201527f64726573730000000000000000000000000000000000000000000000000000006064820152608401610b02565b6001600160a01b038216612b195760405162461bcd60e51b815260206004820152602360248201527f45524332303a207472616e7366657220746f20746865207a65726f206164647260448201526265737360e81b6064820152608401610b02565b6001600160a01b03831660009081526033602052604090205481811015612ba85760405162461bcd60e51b815260206004820152602660248201527f45524332303a207472616e7366657220616d6f756e742065786365656473206260448201527f616c616e636500000000000000000000000000000000000000000000000000006064820152608401610b02565b6001600160a01b0380851660008181526033602052604080822086860390559286168082529083902080548601905591517fddf252ad1be2c89b69c2b068fc378daa952ba7f163c4a11628f55a4df523b3ef90612c089086815260200190565b60405180910390a3612a35565b600061066f7f8b73c3c69bb8fe3d512ecc4cf759cc79239f7b179b0ffacaa9a75d522b39400f612c4460655490565b6066546040805160208101859052908101839052606081018290524660808201523060a082015260009060c0016040516020818303038152906040528051906020012090509392505050565b600080612c9b611459565b90506000612ca98251612546565b90508315612dad5760005b8251811015612da757878181518110612ccf57612ccf61478f565b602002602001015160000315612d9757612d1c838281518110612cf457612cf461478f565b6020026020010151338a8481518110612d0f57612d0f61478f565b602002602001015161337d565b888281518110612d2e57612d2e61478f565b602002602001018181525050878181518110612d4c57612d4c61478f565b6020026020010151828281518110612d6657612d6661478f565b6020026020010151612d789190614832565b828281518110612d8a57612d8a61478f565b6020026020010181815250505b612da0816147ce565b9050612cb4565b50612e9c565b60005b8251811015612e9a57878181518110612dcb57612dcb61478f565b602002602001015160000315612e8a57612e2d33308a8481518110612df257612df261478f565b6020026020010151868581518110612e0c57612e0c61478f565b60200260200101516001600160a01b0316613604909392919063ffffffff16565b878181518110612e3f57612e3f61478f565b6020026020010151828281518110612e5957612e5961478f565b6020026020010151612e6b9190614832565b828281518110612e7d57612e7d61478f565b6020026020010181815250505b612e93816147ce565b9050612db0565b505b603554612eaa6111eb6107ec565b612eb491906147bb565b925085831015612ef75760405162461bcd60e51b815260206004820152600e60248201526d57656c6c3a20736c69707061676560901b6044820152606401610b02565b612f018584613a37565b612f0b8282612870565b7f91a6d8e872c9887412278189089c9936e99450551cc971309ff282f79bfef56f878487604051612f3e939291906149cc565b60405180910390a15050949350505050565b6040516001600160a01b03831660248201526044810182905261112790849063a9059cbb60e01b906064015b60408051601f198184030181529190526020810180517bffffffffffffffffffffffffffffffffffffffffffffffffffffffff167fffffffff0000000000000000000000000000000000000000000000000000000090931692909217909152613af8565b6001600160a01b0382166130405760405162461bcd60e51b815260206004820152602160248201527f45524332303a206275726e2066726f6d20746865207a65726f206164647265736044820152607360f81b6064820152608401610b02565b6001600160a01b038216600090815260336020526040902054818110156130b45760405162461bcd60e51b815260206004820152602260248201527f45524332303a206275726e20616d6f756e7420657863656564732062616c616e604482015261636560f01b6064820152608401610b02565b6001600160a01b03831660008181526033602090815260408083208686039055603580548790039055518581529192917fddf252ad1be2c89b69c2b068fc378daa952ba7f163c4a11628f55a4df523b3ef910160405180910390a3505050565b600054610100900460ff1661317f5760405162461bcd60e51b815260206004820152602b60248201527f496e697469616c697a61626c653a20636f6e7472616374206973206e6f74206960448201526a6e697469616c697a696e6760a81b6064820152608401610b02565b6131a281604051806040016040528060018152602001603160f81b815250613bdd565b50565b600054610100900460ff166132105760405162461bcd60e51b815260206004820152602b60248201527f496e697469616c697a61626c653a20636f6e7472616374206973206e6f74206960448201526a6e697469616c697a696e6760a81b6064820152608401610b02565b6129a58282613c62565b6000808461322760355490565b61323191906147bb565b905060006132486132406107ec565b858785612473565b90508084868151811061325d5761325d61478f565b602002602001015161122f91906147bb565b60606000613288843660011981013560f01c9003614832565b90508267ffffffffffffffff8111156132a3576132a361428f565b6040519080825280602002602001820160405280156123d1578160200160208202803683370190505091508260051b8160208401375092915050565b6001600160a01b03811660009081526099602052604090208054600181018255905b50919050565b60006107e6613314612c15565b8360405161190160f01b6020820152602281018390526042810182905260009060620160405160208183030381529060405280519060200120905092915050565b600080600061336687878787613ce6565b9150915061337381613daa565b5095945050505050565b6040516370a0823160e01b815230600482015260009081906001600160a01b038616906370a0823190602401602060405180830381865afa1580156133c6573d6000803e3d6000fd5b505050506040513d601f19601f820116820180604052508101906133ea9190614845565b90506134016001600160a01b038616853086613604565b6040516370a0823160e01b815230600482015281906001600160a01b038716906370a0823190602401602060405180830381865afa158015613447573d6000803e3d6000fd5b505050506040513d601f19601f8201168201806040525081019061071b9190614845565b600080613476611459565b905060006134848251612546565b9050600080613494848b8b6126ba565b91509150878383815181106134ab576134ab61478f565b602002602001018181516134bf9190614832565b90525082516000908490839081106134d9576134d961478f565b602002602001015190506134f96134ee6107ec565b85846109c060355490565b84838151811061350b5761350b61478f565b6020026020010181815250508382815181106135295761352961478f565b60200260200101518161353c91906147bb565b95508786101561357f5760405162461bcd60e51b815260206004820152600e60248201526d57656c6c3a20736c69707061676560901b6044820152606401610b02565b6135936001600160a01b038b168888612f50565b604080516001600160a01b038d811682528c811660208301528183018c9052606082018990528916608082015290517fb39c9bc43f811e1a7ce159c5f147458fdb80266bf23c17322013316e27e086d09181900360a00190a16135f68585612870565b505050505095945050505050565b6040516001600160a01b0380851660248301528316604482015260648101829052612a359085906323b872dd60e01b90608401612f7c565b60608167ffffffffffffffff8111156136575761365761428f565b604051908082528060200260200182016040528015613680578160200160208202803683370190505b509050816002036136aa578254608081901c60208301526001600160801b031660408201526107e6565b600060015b8381116137245760026136c36001836147bb565b6136cd9190614874565b6136d890602061481b565b91506136e56002826149fe565b6001036136ff578185015460801c60208202840152613714565b848201546001600160801b0316602082028401525b61371d816147ce565b90506136af565b505092915050565b805160020361382b576001600160801b038016816000815181106137525761375261478f565b602002602001015111156137a15760405162461bcd60e51b81526020600482015260166024820152754279746553746f726167653a20746f6f206c6172676560501b6044820152606401610b02565b6001600160801b038016816001815181106137be576137be61478f565b6020026020010151111561380d5760405162461bcd60e51b81526020600482015260166024820152754279746553746f726167653a20746f6f206c6172676560501b6044820152606401610b02565b604081015160209091015160801b6001600160801b03909116019055565b60006002825161383b9190614874565b90506000805b8281101561397a576001600160801b038461385d83600261481b565b8151811061386d5761386d61478f565b602002602001015111156138bc5760405162461bcd60e51b81526020600482015260166024820152754279746553746f726167653a20746f6f206c6172676560501b6044820152606401610b02565b6001600160801b03846138d083600261481b565b6138db906001614832565b815181106138eb576138eb61478f565b6020026020010151111561393a5760405162461bcd60e51b81526020600482015260166024820152754279746553746f726167653a20746f6f206c6172676560501b6044820152606401610b02565b61394581604061481b565b848101604081015160209182015160801b6001600160801b03909116019083028701559150613973816147ce565b9050613841565b506002835161398991906149fe565b600103612a35576001600160801b03801683600185516139a991906147bb565b815181106139b9576139b961478f565b60200260200101511115613a085760405162461bcd60e51b81526020600482015260166024820152754279746553746f726167653a20746f6f206c6172676560501b6044820152606401610b02565b613a1382604061481b565b90508184015460801b60801c6020820184015160801b016020830285015550505050565b6001600160a01b038216613a8d5760405162461bcd60e51b815260206004820152601f60248201527f45524332303a206d696e7420746f20746865207a65726f2061646472657373006044820152606401610b02565b8060356000828254613a9f9190614832565b90915550506001600160a01b0382166000818152603360209081526040808320805486019055518481527fddf252ad1be2c89b69c2b068fc378daa952ba7f163c4a11628f55a4df523b3ef910160405180910390a35050565b6000613b4d826040518060400160405280602081526020017f5361666545524332303a206c6f772d6c6576656c2063616c6c206661696c6564815250856001600160a01b0316613ef49092919063ffffffff16565b8051909150156111275780806020019051810190613b6b9190614a12565b6111275760405162461bcd60e51b815260206004820152602a60248201527f5361666545524332303a204552433230206f7065726174696f6e20646964206e60448201527f6f742073756363656564000000000000000000000000000000000000000000006064820152608401610b02565b600054610100900460ff16613c485760405162461bcd60e51b815260206004820152602b60248201527f496e697469616c697a61626c653a20636f6e7472616374206973206e6f74206960448201526a6e697469616c697a696e6760a81b6064820152608401610b02565b815160209283012081519190920120606591909155606655565b600054610100900460ff16613ccd5760405162461bcd60e51b815260206004820152602b60248201527f496e697469616c697a61626c653a20636f6e7472616374206973206e6f74206960448201526a6e697469616c697a696e6760a81b6064820152608401610b02565b6036613cd98382614a82565b5060376111278282614a82565b6000807f7fffffffffffffffffffffffffffffff5d576e7357a4501ddfe92f46681b20a0831115613d1d5750600090506003613da1565b6040805160008082526020820180845289905260ff881692820192909252606081018690526080810185905260019060a0016020604051602081039080840390855afa158015613d71573d6000803e3d6000fd5b5050604051601f1901519150506001600160a01b038116613d9a57600060019250925050613da1565b9150600090505b94509492505050565b6000816004811115613dbe57613dbe614b42565b03613dc65750565b6001816004811115613dda57613dda614b42565b03613e275760405162461bcd60e51b815260206004820152601860248201527f45434453413a20696e76616c6964207369676e617475726500000000000000006044820152606401610b02565b6002816004811115613e3b57613e3b614b42565b03613e885760405162461bcd60e51b815260206004820152601f60248201527f45434453413a20696e76616c6964207369676e6174757265206c656e677468006044820152606401610b02565b6003816004811115613e9c57613e9c614b42565b036131a25760405162461bcd60e51b815260206004820152602260248201527f45434453413a20696e76616c6964207369676e6174757265202773272076616c604482015261756560f01b6064820152608401610b02565b6060610f1c848460008585600080866001600160a01b03168587604051613f1b9190614b58565b60006040518083038185875af1925050503d8060008114613f58576040519150601f19603f3d011682016040523d82523d6000602084013e613f5d565b606091505b5091509150613f6e87838387613f79565b979650505050505050565b60608315613fe8578251600003613fe1576001600160a01b0385163b613fe15760405162461bcd60e51b815260206004820152601d60248201527f416464726573733a2063616c6c20746f206e6f6e2d636f6e74726163740000006044820152606401610b02565b5081610f1c565b610f1c8383815115613ffd5781518083602001fd5b8060405162461bcd60e51b8152600401610b0291906140f5565b60008083601f84011261402957600080fd5b50813567ffffffffffffffff81111561404157600080fd5b6020830191508360208260051b850101111561405c57600080fd5b9250929050565b6000806020838503121561407657600080fd5b823567ffffffffffffffff81111561408d57600080fd5b61409985828601614017565b90969095509350505050565b60005b838110156140c05781810151838201526020016140a8565b50506000910152565b600081518084526140e18160208601602086016140a5565b601f01601f19169290920160200192915050565b602081526000610be460208301846140c9565b600081518084526020808501945080840160005b838110156141385781518752958201959082019060010161411c565b509495945050505050565b602081526000610be46020830184614108565b6001600160a01b03811681146131a257600080fd5b6000806040838503121561417e57600080fd5b823561418981614156565b946020939093013593505050565b6001600160a01b0381511682526000602082015160406020850152610f1c60408501826140c9565b602081526000610be46020830184614197565b6000602082840312156141e457600080fd5b8135610be481614156565b600080600080600060a0868803121561420757600080fd5b853561421281614156565b9450602086013561422281614156565b93506040860135925060608601359150608086013561424081614156565b809150509295509295909350565b60008060006060848603121561426357600080fd5b833561426e81614156565b9250602084013561427e81614156565b929592945050506040919091013590565b634e487b7160e01b600052604160045260246000fd5b604051601f8201601f1916810167ffffffffffffffff811182821017156142ce576142ce61428f565b604052919050565b600082601f8301126142e757600080fd5b8135602067ffffffffffffffff8211156143035761430361428f565b8160051b6143128282016142a5565b928352848101820192828101908785111561432c57600080fd5b83870192505b84831015613f6e57823582529183019190830190614332565b60008060006060848603121561436057600080fd5b833567ffffffffffffffff81111561437757600080fd5b614383868287016142d6565b93505060208401359150604084013561439b81614156565b809150509250925092565b6000602082840312156143b857600080fd5b5035919050565b600080600080606085870312156143d557600080fd5b84359350602085013567ffffffffffffffff8111156143f357600080fd5b6143ff87828801614017565b909450925050604085013561441381614156565b939692955090935050565b600082601f83011261442f57600080fd5b813567ffffffffffffffff8111156144495761444961428f565b61445c601f8201601f19166020016142a5565b81815284602083860101111561447157600080fd5b816020850160208301376000918101602001919091529392505050565b600080604083850312156144a157600080fd5b823567ffffffffffffffff808211156144b957600080fd5b6144c58683870161441e565b935060208501359150808211156144db57600080fd5b506144e88582860161441e565b9150509250929050565b60006020828403121561450457600080fd5b813567ffffffffffffffff81111561451b57600080fd5b610f1c848285016142d6565b6000806040838503121561453a57600080fd5b82359150602083013561454c81614156565b809150509250929050565b6000806000806080858703121561456d57600080fd5b84359350602085013561457f81614156565b925060408501359150606085013561441381614156565b600081518084526020808501945080840160005b838110156141385781516001600160a01b0316875295820195908201906001016145aa565b602081526000610be46020830184614596565b600081518084526020808501808196508360051b8101915082860160005b8581101561462a578284038952614618848351614197565b98850198935090840190600101614600565b5091979650505050505050565b602081526000610be460208301846145e2565b60008060006060848603121561465f57600080fd5b833561466a81614156565b925060208401359150604084013561439b81614156565b60a08152600061469460a0830188614596565b82810360208401526146a68188614197565b905082810360408401526146ba81876145e2565b905082810360608401526146ce81866140c9565b9150506001600160a01b03831660808301529695505050505050565b600080600080600080600060e0888a03121561470557600080fd5b873561471081614156565b9650602088013561472081614156565b95506040880135945060608801359350608088013560ff8116811461474457600080fd5b9699959850939692959460a0840135945060c09093013592915050565b6000806040838503121561477457600080fd5b823561477f81614156565b9150602083013561454c81614156565b634e487b7160e01b600052603260045260246000fd5b634e487b7160e01b600052601160045260246000fd5b818103818111156107e6576107e66147a5565b6000600182016147e0576147e06147a5565b5060010190565b600181811c908216806147fb57607f821691505b60208210810361330157634e487b7160e01b600052602260045260246000fd5b80820281158282048414176107e6576107e66147a5565b808201808211156107e6576107e66147a5565b60006020828403121561485757600080fd5b5051919050565b634e487b7160e01b600052601260045260246000fd5b6000826148835761488361485e565b500490565b8481526060602082015282606082015260007f07ffffffffffffffffffffffffffffffffffffffffffffffffffffffffffffff8411156148c757600080fd5b8360051b808660808501376001600160a01b0393909316604083015250016080019392505050565b828152604060208201526000610f1c60408301846140c9565b60808152600061491b6080830187614108565b6001600160a01b0395861660208401526040830194909452509216606090920191909152919050565b83815260606020820152600061495d6060830185614108565b90506001600160a01b0383166040830152949350505050565b6040815260006149896040830185614108565b828103602084015261072581856140c9565b6080815260006149ae6080830187614108565b8560208401528460408401528281036060840152613f6e81856140c9565b6060815260006149df6060830186614108565b90508360208301526001600160a01b0383166040830152949350505050565b600082614a0d57614a0d61485e565b500690565b600060208284031215614a2457600080fd5b81518015158114610be457600080fd5b601f82111561112757600081815260208120601f850160051c81016020861015614a5b5750805b601f850160051c820191505b81811015614a7a57828155600101614a67565b505050505050565b815167ffffffffffffffff811115614a9c57614a9c61428f565b614ab081614aaa84546147e7565b84614a34565b602080601f831160018114614ae55760008415614acd5750858301515b600019600386901b1c1916600185901b178555614a7a565b600085815260208120601f198616915b82811015614b1457888601518255948401946001909101908401614af5565b5085821015614b325787850151600019600388901b60f8161c191681555b5050505050600190811b01905550565b634e487b7160e01b600052602160045260246000fd5b60008251614b6a8184602087016140a5565b919091019291505056fea26469706673582212206d77a0ccec867383d32d94e13cda770333619738186c1ae3d5f4aac180c9340964736f6c63430008110033",
    "linkReferences": {}
  },
  "methodIdentifiers": {
    "DOMAIN_SEPARATOR()": "3644e515",
    "addLiquidity(uint256[],uint256,address)": "3e8847ec",
    "addLiquidityFeeOnTransfer(uint256[],uint256,address)": "aba5486a",
    "allowance(address,address)": "dd62ed3e",
    "approve(address,uint256)": "095ea7b3",
    "aquifer()": "038f6f61",
    "balanceOf(address)": "70a08231",
    "decimals()": "313ce567",
    "decreaseAllowance(address,uint256)": "a457c2d7",
    "firstPump()": "9b14a5cf",
    "getAddLiquidityOut(uint256[])": "8974eb0f",
    "getRemoveLiquidityImbalancedIn(uint256[])": "05fb5a00",
    "getRemoveLiquidityOneTokenOut(uint256,address)": "8cfce0f0",
    "getRemoveLiquidityOut(uint256)": "534e3d27",
    "getReserves()": "0902f1ac",
    "getShiftOut(address)": "14638c09",
    "getSwapIn(address,address,uint256)": "1d44458f",
    "getSwapOut(address,address,uint256)": "9fbbbeef",
    "increaseAllowance(address,uint256)": "39509351",
    "init(string,string)": "7029144c",
    "name()": "06fdde03",
    "nonces(address)": "7ecebe00",
    "numberOfPumps()": "2e60eb3c",
    "numberOfTokens()": "f9f16ef2",
    "permit(address,address,uint256,uint256,uint8,bytes32,bytes32)": "d505accf",
    "pumps()": "a1d89d96",
    "removeLiquidity(uint256,uint256[],address)": "dc036c9a",
    "removeLiquidityImbalanced(uint256,uint256[],address)": "63356f82",
    "removeLiquidityOneToken(uint256,address,uint256,address)": "9ca74072",
    "shift(address,uint256,address)": "b8c55d4a",
    "skim(address)": "bc25cf77",
    "swapFrom(address,address,uint256,uint256,address)": "dcc8b301",
    "swapFromFeeOnTransfer(address,address,uint256,uint256,address)": "dca28a82",
    "swapTo(address,address,uint256,uint256,address)": "1a275a03",
    "symbol()": "95d89b41",
    "sync()": "fff6cae9",
    "tokens()": "9d63848a",
    "totalSupply()": "18160ddd",
    "transfer(address,uint256)": "a9059cbb",
    "transferFrom(address,address,uint256)": "23b872dd",
    "well()": "c0878f0c",
    "wellData()": "c12323c9",
    "wellFunction()": "10dd0830",
    "wellFunctionAddress()": "a57be4ed",
    "wellFunctionDataLength()": "dc6df26d"
  },
  "id": 63
}