{
  "abi": [
    {
      "inputs": [],
      "name": "Expired",
      "type": "error"
    },
    {
      "inputs": [],
      "name": "InvalidReserves",
      "type": "error"
    },
    {
      "inputs": [],
      "name": "InvalidTokens",
      "type": "error"
    },
    {
      "inputs": [
        {
          "internalType": "uint256",
          "name": "amountIn",
          "type": "uint256"
        },
        {
          "internalType": "uint256",
          "name": "maxAmountIn",
          "type": "uint256"
        }
      ],
      "name": "SlippageIn",
      "type": "error"
    },
    {
      "inputs": [
        {
          "internalType": "uint256",
          "name": "amountOut",
          "type": "uint256"
        },
        {
          "internalType": "uint256",
          "name": "minAmountOut",
          "type": "uint256"
        }
      ],
      "name": "SlippageOut",
      "type": "error"
    },
    {
      "anonymous": false,
      "inputs": [
        {
          "indexed": false,
          "internalType": "uint256[]",
          "name": "tokenAmountsIn",
          "type": "uint256[]"
        },
        {
          "indexed": false,
          "internalType": "uint256",
          "name": "lpAmountOut",
          "type": "uint256"
        },
        {
          "indexed": false,
          "internalType": "address",
          "name": "recipient",
          "type": "address"
        }
      ],
      "name": "AddLiquidity",
      "type": "event"
    },
    {
      "anonymous": false,
      "inputs": [
        {
          "indexed": true,
          "internalType": "address",
          "name": "owner",
          "type": "address"
        },
        {
          "indexed": true,
          "internalType": "address",
          "name": "spender",
          "type": "address"
        },
        {
          "indexed": false,
          "internalType": "uint256",
          "name": "value",
          "type": "uint256"
        }
      ],
      "name": "Approval",
      "type": "event"
    },
    {
      "anonymous": false,
      "inputs": [
        {
          "indexed": false,
          "internalType": "uint8",
          "name": "version",
          "type": "uint8"
        }
      ],
      "name": "Initialized",
      "type": "event"
    },
    {
      "anonymous": false,
      "inputs": [
        {
          "indexed": false,
          "internalType": "uint256",
          "name": "lpAmountIn",
          "type": "uint256"
        },
        {
          "indexed": false,
          "internalType": "uint256[]",
          "name": "tokenAmountsOut",
          "type": "uint256[]"
        },
        {
          "indexed": false,
          "internalType": "address",
          "name": "recipient",
          "type": "address"
        }
      ],
      "name": "RemoveLiquidity",
      "type": "event"
    },
    {
      "anonymous": false,
      "inputs": [
        {
          "indexed": false,
          "internalType": "uint256",
          "name": "lpAmountIn",
          "type": "uint256"
        },
        {
          "indexed": false,
          "internalType": "contract IERC20",
          "name": "tokenOut",
          "type": "address"
        },
        {
          "indexed": false,
          "internalType": "uint256",
          "name": "tokenAmountOut",
          "type": "uint256"
        },
        {
          "indexed": false,
          "internalType": "address",
          "name": "recipient",
          "type": "address"
        }
      ],
      "name": "RemoveLiquidityOneToken",
      "type": "event"
    },
    {
      "anonymous": false,
      "inputs": [
        {
          "indexed": false,
          "internalType": "uint256[]",
          "name": "reserves",
          "type": "uint256[]"
        },
        {
          "indexed": false,
          "internalType": "contract IERC20",
          "name": "toToken",
          "type": "address"
        },
        {
          "indexed": false,
          "internalType": "uint256",
          "name": "minAmountOut",
          "type": "uint256"
        },
        {
          "indexed": false,
          "internalType": "address",
          "name": "recipient",
          "type": "address"
        }
      ],
      "name": "Shift",
      "type": "event"
    },
    {
      "anonymous": false,
      "inputs": [
        {
          "indexed": false,
          "internalType": "contract IERC20",
          "name": "fromToken",
          "type": "address"
        },
        {
          "indexed": false,
          "internalType": "contract IERC20",
          "name": "toToken",
          "type": "address"
        },
        {
          "indexed": false,
          "internalType": "uint256",
          "name": "amountIn",
          "type": "uint256"
        },
        {
          "indexed": false,
          "internalType": "uint256",
          "name": "amountOut",
          "type": "uint256"
        },
        {
          "indexed": false,
          "internalType": "address",
          "name": "recipient",
          "type": "address"
        }
      ],
      "name": "Swap",
      "type": "event"
    },
    {
      "anonymous": false,
      "inputs": [
        {
          "indexed": false,
          "internalType": "uint256[]",
          "name": "reserves",
          "type": "uint256[]"
        }
      ],
      "name": "Sync",
      "type": "event"
    },
    {
      "anonymous": false,
      "inputs": [
        {
          "indexed": true,
          "internalType": "address",
          "name": "from",
          "type": "address"
        },
        {
          "indexed": true,
          "internalType": "address",
          "name": "to",
          "type": "address"
        },
        {
          "indexed": false,
          "internalType": "uint256",
          "name": "value",
          "type": "uint256"
        }
      ],
      "name": "Transfer",
      "type": "event"
    },
    {
      "inputs": [],
      "name": "DOMAIN_SEPARATOR",
      "outputs": [
        {
          "internalType": "bytes32",
          "name": "",
          "type": "bytes32"
        }
      ],
      "stateMutability": "view",
      "type": "function"
    },
    {
      "inputs": [
        {
          "internalType": "uint256[]",
          "name": "tokenAmountsIn",
          "type": "uint256[]"
        },
        {
          "internalType": "uint256",
          "name": "minLpAmountOut",
          "type": "uint256"
        },
        {
          "internalType": "address",
          "name": "recipient",
          "type": "address"
        },
        {
          "internalType": "uint256",
          "name": "deadline",
          "type": "uint256"
        }
      ],
      "name": "addLiquidity",
      "outputs": [
        {
          "internalType": "uint256",
          "name": "lpAmountOut",
          "type": "uint256"
        }
      ],
      "stateMutability": "nonpayable",
      "type": "function"
    },
    {
      "inputs": [
        {
          "internalType": "uint256[]",
          "name": "tokenAmountsIn",
          "type": "uint256[]"
        },
        {
          "internalType": "uint256",
          "name": "minLpAmountOut",
          "type": "uint256"
        },
        {
          "internalType": "address",
          "name": "recipient",
          "type": "address"
        },
        {
          "internalType": "uint256",
          "name": "deadline",
          "type": "uint256"
        }
      ],
      "name": "addLiquidityFeeOnTransfer",
      "outputs": [
        {
          "internalType": "uint256",
          "name": "lpAmountOut",
          "type": "uint256"
        }
      ],
      "stateMutability": "nonpayable",
      "type": "function"
    },
    {
      "inputs": [
        {
          "internalType": "address",
          "name": "owner",
          "type": "address"
        },
        {
          "internalType": "address",
          "name": "spender",
          "type": "address"
        }
      ],
      "name": "allowance",
      "outputs": [
        {
          "internalType": "uint256",
          "name": "",
          "type": "uint256"
        }
      ],
      "stateMutability": "view",
      "type": "function"
    },
    {
      "inputs": [
        {
          "internalType": "address",
          "name": "spender",
          "type": "address"
        },
        {
          "internalType": "uint256",
          "name": "amount",
          "type": "uint256"
        }
      ],
      "name": "approve",
      "outputs": [
        {
          "internalType": "bool",
          "name": "",
          "type": "bool"
        }
      ],
      "stateMutability": "nonpayable",
      "type": "function"
    },
    {
      "inputs": [],
      "name": "aquifer",
      "outputs": [
        {
          "internalType": "address",
          "name": "",
          "type": "address"
        }
      ],
      "stateMutability": "pure",
      "type": "function"
    },
    {
      "inputs": [
        {
          "internalType": "address",
          "name": "account",
          "type": "address"
        }
      ],
      "name": "balanceOf",
      "outputs": [
        {
          "internalType": "uint256",
          "name": "",
          "type": "uint256"
        }
      ],
      "stateMutability": "view",
      "type": "function"
    },
    {
      "inputs": [],
      "name": "decimals",
      "outputs": [
        {
          "internalType": "uint8",
          "name": "",
          "type": "uint8"
        }
      ],
      "stateMutability": "view",
      "type": "function"
    },
    {
      "inputs": [
        {
          "internalType": "address",
          "name": "spender",
          "type": "address"
        },
        {
          "internalType": "uint256",
          "name": "subtractedValue",
          "type": "uint256"
        }
      ],
      "name": "decreaseAllowance",
      "outputs": [
        {
          "internalType": "bool",
          "name": "",
          "type": "bool"
        }
      ],
      "stateMutability": "nonpayable",
      "type": "function"
    },
    {
      "inputs": [],
      "name": "firstPump",
      "outputs": [
        {
          "components": [
            {
              "internalType": "address",
              "name": "target",
              "type": "address"
            },
            {
              "internalType": "bytes",
              "name": "data",
              "type": "bytes"
            }
          ],
          "internalType": "struct Call",
          "name": "_pump",
          "type": "tuple"
        }
      ],
      "stateMutability": "pure",
      "type": "function"
    },
    {
      "inputs": [
        {
          "internalType": "uint256[]",
          "name": "tokenAmountsIn",
          "type": "uint256[]"
        }
      ],
      "name": "getAddLiquidityOut",
      "outputs": [
        {
          "internalType": "uint256",
          "name": "lpAmountOut",
          "type": "uint256"
        }
      ],
      "stateMutability": "view",
      "type": "function"
    },
    {
      "inputs": [
        {
          "internalType": "uint256[]",
          "name": "tokenAmountsOut",
          "type": "uint256[]"
        }
      ],
      "name": "getRemoveLiquidityImbalancedIn",
      "outputs": [
        {
          "internalType": "uint256",
          "name": "lpAmountIn",
          "type": "uint256"
        }
      ],
      "stateMutability": "view",
      "type": "function"
    },
    {
      "inputs": [
        {
          "internalType": "uint256",
          "name": "lpAmountIn",
          "type": "uint256"
        },
        {
          "internalType": "contract IERC20",
          "name": "tokenOut",
          "type": "address"
        }
      ],
      "name": "getRemoveLiquidityOneTokenOut",
      "outputs": [
        {
          "internalType": "uint256",
          "name": "tokenAmountOut",
          "type": "uint256"
        }
      ],
      "stateMutability": "view",
      "type": "function"
    },
    {
      "inputs": [
        {
          "internalType": "uint256",
          "name": "lpAmountIn",
          "type": "uint256"
        }
      ],
      "name": "getRemoveLiquidityOut",
      "outputs": [
        {
          "internalType": "uint256[]",
          "name": "tokenAmountsOut",
          "type": "uint256[]"
        }
      ],
      "stateMutability": "view",
      "type": "function"
    },
    {
      "inputs": [],
      "name": "getReserves",
      "outputs": [
        {
          "internalType": "uint256[]",
          "name": "reserves",
          "type": "uint256[]"
        }
      ],
      "stateMutability": "view",
      "type": "function"
    },
    {
      "inputs": [
        {
          "internalType": "contract IERC20",
          "name": "tokenOut",
          "type": "address"
        }
      ],
      "name": "getShiftOut",
      "outputs": [
        {
          "internalType": "uint256",
          "name": "amountOut",
          "type": "uint256"
        }
      ],
      "stateMutability": "view",
      "type": "function"
    },
    {
      "inputs": [
        {
          "internalType": "contract IERC20",
          "name": "fromToken",
          "type": "address"
        },
        {
          "internalType": "contract IERC20",
          "name": "toToken",
          "type": "address"
        },
        {
          "internalType": "uint256",
          "name": "amountOut",
          "type": "uint256"
        }
      ],
      "name": "getSwapIn",
      "outputs": [
        {
          "internalType": "uint256",
          "name": "amountIn",
          "type": "uint256"
        }
      ],
      "stateMutability": "view",
      "type": "function"
    },
    {
      "inputs": [
        {
          "internalType": "contract IERC20",
          "name": "fromToken",
          "type": "address"
        },
        {
          "internalType": "contract IERC20",
          "name": "toToken",
          "type": "address"
        },
        {
          "internalType": "uint256",
          "name": "amountIn",
          "type": "uint256"
        }
      ],
      "name": "getSwapOut",
      "outputs": [
        {
          "internalType": "uint256",
          "name": "amountOut",
          "type": "uint256"
        }
      ],
      "stateMutability": "view",
      "type": "function"
    },
    {
      "inputs": [
        {
          "internalType": "address",
          "name": "spender",
          "type": "address"
        },
        {
          "internalType": "uint256",
          "name": "addedValue",
          "type": "uint256"
        }
      ],
      "name": "increaseAllowance",
      "outputs": [
        {
          "internalType": "bool",
          "name": "",
          "type": "bool"
        }
      ],
      "stateMutability": "nonpayable",
      "type": "function"
    },
    {
      "inputs": [
        {
          "internalType": "string",
          "name": "name",
          "type": "string"
        },
        {
          "internalType": "string",
          "name": "symbol",
          "type": "string"
        }
      ],
      "name": "init",
      "outputs": [],
      "stateMutability": "nonpayable",
      "type": "function"
    },
    {
      "inputs": [],
      "name": "name",
      "outputs": [
        {
          "internalType": "string",
          "name": "",
          "type": "string"
        }
      ],
      "stateMutability": "view",
      "type": "function"
    },
    {
      "inputs": [
        {
          "internalType": "address",
          "name": "owner",
          "type": "address"
        }
      ],
      "name": "nonces",
      "outputs": [
        {
          "internalType": "uint256",
          "name": "",
          "type": "uint256"
        }
      ],
      "stateMutability": "view",
      "type": "function"
    },
    {
      "inputs": [],
      "name": "numberOfPumps",
      "outputs": [
        {
          "internalType": "uint256",
          "name": "",
          "type": "uint256"
        }
      ],
      "stateMutability": "pure",
      "type": "function"
    },
    {
      "inputs": [],
      "name": "numberOfTokens",
      "outputs": [
        {
          "internalType": "uint256",
          "name": "",
          "type": "uint256"
        }
      ],
      "stateMutability": "pure",
      "type": "function"
    },
    {
      "inputs": [
        {
          "internalType": "address",
          "name": "owner",
          "type": "address"
        },
        {
          "internalType": "address",
          "name": "spender",
          "type": "address"
        },
        {
          "internalType": "uint256",
          "name": "value",
          "type": "uint256"
        },
        {
          "internalType": "uint256",
          "name": "deadline",
          "type": "uint256"
        },
        {
          "internalType": "uint8",
          "name": "v",
          "type": "uint8"
        },
        {
          "internalType": "bytes32",
          "name": "r",
          "type": "bytes32"
        },
        {
          "internalType": "bytes32",
          "name": "s",
          "type": "bytes32"
        }
      ],
      "name": "permit",
      "outputs": [],
      "stateMutability": "nonpayable",
      "type": "function"
    },
    {
      "inputs": [],
      "name": "pumps",
      "outputs": [
        {
          "components": [
            {
              "internalType": "address",
              "name": "target",
              "type": "address"
            },
            {
              "internalType": "bytes",
              "name": "data",
              "type": "bytes"
            }
          ],
          "internalType": "struct Call[]",
          "name": "_pumps",
          "type": "tuple[]"
        }
      ],
      "stateMutability": "pure",
      "type": "function"
    },
    {
      "inputs": [
        {
          "internalType": "uint256",
          "name": "lpAmountIn",
          "type": "uint256"
        },
        {
          "internalType": "uint256[]",
          "name": "minTokenAmountsOut",
          "type": "uint256[]"
        },
        {
          "internalType": "address",
          "name": "recipient",
          "type": "address"
        },
        {
          "internalType": "uint256",
          "name": "deadline",
          "type": "uint256"
        }
      ],
      "name": "removeLiquidity",
      "outputs": [
        {
          "internalType": "uint256[]",
          "name": "tokenAmountsOut",
          "type": "uint256[]"
        }
      ],
      "stateMutability": "nonpayable",
      "type": "function"
    },
    {
      "inputs": [
        {
          "internalType": "uint256",
          "name": "maxLpAmountIn",
          "type": "uint256"
        },
        {
          "internalType": "uint256[]",
          "name": "tokenAmountsOut",
          "type": "uint256[]"
        },
        {
          "internalType": "address",
          "name": "recipient",
          "type": "address"
        },
        {
          "internalType": "uint256",
          "name": "deadline",
          "type": "uint256"
        }
      ],
      "name": "removeLiquidityImbalanced",
      "outputs": [
        {
          "internalType": "uint256",
          "name": "lpAmountIn",
          "type": "uint256"
        }
      ],
      "stateMutability": "nonpayable",
      "type": "function"
    },
    {
      "inputs": [
        {
          "internalType": "uint256",
          "name": "lpAmountIn",
          "type": "uint256"
        },
        {
          "internalType": "contract IERC20",
          "name": "tokenOut",
          "type": "address"
        },
        {
          "internalType": "uint256",
          "name": "minTokenAmountOut",
          "type": "uint256"
        },
        {
          "internalType": "address",
          "name": "recipient",
          "type": "address"
        },
        {
          "internalType": "uint256",
          "name": "deadline",
          "type": "uint256"
        }
      ],
      "name": "removeLiquidityOneToken",
      "outputs": [
        {
          "internalType": "uint256",
          "name": "tokenAmountOut",
          "type": "uint256"
        }
      ],
      "stateMutability": "nonpayable",
      "type": "function"
    },
    {
      "inputs": [
        {
          "internalType": "contract IERC20",
          "name": "tokenOut",
          "type": "address"
        },
        {
          "internalType": "uint256",
          "name": "minAmountOut",
          "type": "uint256"
        },
        {
          "internalType": "address",
          "name": "recipient",
          "type": "address"
        }
      ],
      "name": "shift",
      "outputs": [
        {
          "internalType": "uint256",
          "name": "amountOut",
          "type": "uint256"
        }
      ],
      "stateMutability": "nonpayable",
      "type": "function"
    },
    {
      "inputs": [
        {
          "internalType": "address",
          "name": "recipient",
          "type": "address"
        }
      ],
      "name": "skim",
      "outputs": [
        {
          "internalType": "uint256[]",
          "name": "skimAmounts",
          "type": "uint256[]"
        }
      ],
      "stateMutability": "nonpayable",
      "type": "function"
    },
    {
      "inputs": [
        {
          "internalType": "contract IERC20",
          "name": "fromToken",
          "type": "address"
        },
        {
          "internalType": "contract IERC20",
          "name": "toToken",
          "type": "address"
        },
        {
          "internalType": "uint256",
          "name": "amountIn",
          "type": "uint256"
        },
        {
          "internalType": "uint256",
          "name": "minAmountOut",
          "type": "uint256"
        },
        {
          "internalType": "address",
          "name": "recipient",
          "type": "address"
        },
        {
          "internalType": "uint256",
          "name": "deadline",
          "type": "uint256"
        }
      ],
      "name": "swapFrom",
      "outputs": [
        {
          "internalType": "uint256",
          "name": "amountOut",
          "type": "uint256"
        }
      ],
      "stateMutability": "nonpayable",
      "type": "function"
    },
    {
      "inputs": [
        {
          "internalType": "contract IERC20",
          "name": "fromToken",
          "type": "address"
        },
        {
          "internalType": "contract IERC20",
          "name": "toToken",
          "type": "address"
        },
        {
          "internalType": "uint256",
          "name": "amountIn",
          "type": "uint256"
        },
        {
          "internalType": "uint256",
          "name": "minAmountOut",
          "type": "uint256"
        },
        {
          "internalType": "address",
          "name": "recipient",
          "type": "address"
        },
        {
          "internalType": "uint256",
          "name": "deadline",
          "type": "uint256"
        }
      ],
      "name": "swapFromFeeOnTransfer",
      "outputs": [
        {
          "internalType": "uint256",
          "name": "amountOut",
          "type": "uint256"
        }
      ],
      "stateMutability": "nonpayable",
      "type": "function"
    },
    {
      "inputs": [
        {
          "internalType": "contract IERC20",
          "name": "fromToken",
          "type": "address"
        },
        {
          "internalType": "contract IERC20",
          "name": "toToken",
          "type": "address"
        },
        {
          "internalType": "uint256",
          "name": "maxAmountIn",
          "type": "uint256"
        },
        {
          "internalType": "uint256",
          "name": "amountOut",
          "type": "uint256"
        },
        {
          "internalType": "address",
          "name": "recipient",
          "type": "address"
        },
        {
          "internalType": "uint256",
          "name": "deadline",
          "type": "uint256"
        }
      ],
      "name": "swapTo",
      "outputs": [
        {
          "internalType": "uint256",
          "name": "amountIn",
          "type": "uint256"
        }
      ],
      "stateMutability": "nonpayable",
      "type": "function"
    },
    {
      "inputs": [],
      "name": "symbol",
      "outputs": [
        {
          "internalType": "string",
          "name": "",
          "type": "string"
        }
      ],
      "stateMutability": "view",
      "type": "function"
    },
    {
      "inputs": [],
      "name": "sync",
      "outputs": [],
      "stateMutability": "nonpayable",
      "type": "function"
    },
    {
      "inputs": [],
      "name": "tokens",
      "outputs": [
        {
          "internalType": "contract IERC20[]",
          "name": "ts",
          "type": "address[]"
        }
      ],
      "stateMutability": "pure",
      "type": "function"
    },
    {
      "inputs": [],
      "name": "totalSupply",
      "outputs": [
        {
          "internalType": "uint256",
          "name": "",
          "type": "uint256"
        }
      ],
      "stateMutability": "view",
      "type": "function"
    },
    {
      "inputs": [
        {
          "internalType": "address",
          "name": "to",
          "type": "address"
        },
        {
          "internalType": "uint256",
          "name": "amount",
          "type": "uint256"
        }
      ],
      "name": "transfer",
      "outputs": [
        {
          "internalType": "bool",
          "name": "",
          "type": "bool"
        }
      ],
      "stateMutability": "nonpayable",
      "type": "function"
    },
    {
      "inputs": [
        {
          "internalType": "address",
          "name": "from",
          "type": "address"
        },
        {
          "internalType": "address",
          "name": "to",
          "type": "address"
        },
        {
          "internalType": "uint256",
          "name": "amount",
          "type": "uint256"
        }
      ],
      "name": "transferFrom",
      "outputs": [
        {
          "internalType": "bool",
          "name": "",
          "type": "bool"
        }
      ],
      "stateMutability": "nonpayable",
      "type": "function"
    },
    {
      "inputs": [],
      "name": "well",
      "outputs": [
        {
          "internalType": "contract IERC20[]",
          "name": "_tokens",
          "type": "address[]"
        },
        {
          "components": [
            {
              "internalType": "address",
              "name": "target",
              "type": "address"
            },
            {
              "internalType": "bytes",
              "name": "data",
              "type": "bytes"
            }
          ],
          "internalType": "struct Call",
          "name": "_wellFunction",
          "type": "tuple"
        },
        {
          "components": [
            {
              "internalType": "address",
              "name": "target",
              "type": "address"
            },
            {
              "internalType": "bytes",
              "name": "data",
              "type": "bytes"
            }
          ],
          "internalType": "struct Call[]",
          "name": "_pumps",
          "type": "tuple[]"
        },
        {
          "internalType": "bytes",
          "name": "_wellData",
          "type": "bytes"
        },
        {
          "internalType": "address",
          "name": "_aquifer",
          "type": "address"
        }
      ],
      "stateMutability": "pure",
      "type": "function"
    },
    {
      "inputs": [],
      "name": "wellData",
      "outputs": [
        {
          "internalType": "bytes",
          "name": "",
          "type": "bytes"
        }
      ],
      "stateMutability": "pure",
      "type": "function"
    },
    {
      "inputs": [],
      "name": "wellFunction",
      "outputs": [
        {
          "components": [
            {
              "internalType": "address",
              "name": "target",
              "type": "address"
            },
            {
              "internalType": "bytes",
              "name": "data",
              "type": "bytes"
            }
          ],
          "internalType": "struct Call",
          "name": "_wellFunction",
          "type": "tuple"
        }
      ],
      "stateMutability": "pure",
      "type": "function"
    },
    {
      "inputs": [],
      "name": "wellFunctionAddress",
      "outputs": [
        {
          "internalType": "address",
          "name": "",
          "type": "address"
        }
      ],
      "stateMutability": "pure",
      "type": "function"
    },
    {
      "inputs": [],
      "name": "wellFunctionDataLength",
      "outputs": [
        {
          "internalType": "uint256",
          "name": "",
          "type": "uint256"
        }
      ],
      "stateMutability": "pure",
      "type": "function"
    }
  ],
  "bytecode": {
    "object": "0x608060405234801561001057600080fd5b50614b00806100206000396000f3fe608060405234801561001057600080fd5b50600436106102ff5760003560e01c80638974eb0f1161019c578063a9059cbb116100ee578063cb9c784411610097578063dd62ed3e11610071578063dd62ed3e14610626578063f9f16ef21461065f578063fff6cae91461066757600080fd5b8063cb9c7844146105f8578063d505accf1461060b578063dc6df26d1461061e57600080fd5b8063bc25cf77116100c8578063bc25cf77146105c5578063c0878f0c146105d8578063c12323c9146105f157600080fd5b8063a9059cbb1461058c578063b6bc5e601461059f578063b8c55d4a146105b257600080fd5b80639b14a5cf11610150578063a1d89d961161012a578063a1d89d961461055c578063a457c2d714610571578063a57be4ed1461058457600080fd5b80639b14a5cf1461052c5780639d63848a146105345780639fbbbeef1461054957600080fd5b80638f2c80da116101815780638f2c80da146104fe57806395d89b4114610511578063978b24ed1461051957600080fd5b80638974eb0f146104d85780638cfce0f0146104eb57600080fd5b8063313ce56711610255578063534e3d27116102095780637029144c116101e35780637029144c1461048757806370a082311461049c5780637ecebe00146104c557600080fd5b8063534e3d271461044e5780635647e42c146104615780635fe192c61461047457600080fd5b80633644e5151161023a5780633644e51514610420578063395093511461042857806340edf9161461043b57600080fd5b8063313ce567146103fe5780633175ca181461040d57600080fd5b806310dd0830116102b75780631d44458f116102915780631d44458f146103d057806323b872dd146103e35780632e60eb3c146103f657600080fd5b806310dd0830146103a057806314638c09146103b557806318160ddd146103c857600080fd5b806306fdde03116102e857806306fdde03146103535780630902f1ac14610368578063095ea7b31461037d57600080fd5b8063038f6f611461030457806305fb5a0014610332575b600080fd5b3660011981013560f01c90033560601c5b6040516001600160a01b0390911681526020015b60405180910390f35b610345610340366004613f9e565b610674565b604051908152602001610329565b61035b61072e565b6040516103299190614030565b6103706107c0565b604051610329919061407e565b61039061038b3660046140a6565b6107d2565b6040519015158152602001610329565b6103a86107ec565b60405161032991906140fa565b6103456103c336600461410d565b610887565b603554610345565b6103456103de36600461412a565b6109e9565b6103906103f136600461412a565b610a88565b610345610aae565b60405160128152602001610329565b61037061041b36600461416b565b610af0565b610345610d95565b6103906104363660046140a6565b610d9f565b6103456104493660046141d2565b610dde565b61037061045c366004614239565b610f2d565b61034561046f36600461416b565b61100e565b610345610482366004614252565b61119d565b61049a61049536600461435b565b6112e3565b005b6103456104aa36600461410d565b6001600160a01b031660009081526033602052604090205490565b6103456104d336600461410d565b611410565b6103456104e6366004614434565b61142e565b6103456104f9366004614469565b6114e7565b61034561050c366004614499565b61151b565b61035b611561565b6103456105273660046141d2565b611570565b6103a86115cb565b61053c611691565b6040516103299190614533565b61034561055736600461412a565b6116db565b61056461176c565b604051610329919061459b565b61039061057f3660046140a6565b611916565b6103156119cb565b61039061059a3660046140a6565b6119fa565b6103456105ad3660046141d2565b611a08565b6103456105c03660046145ae565b611a4e565b6103706105d336600461410d565b611c6c565b6105e0611e1e565b6040516103299594939291906145f0565b606061035b565b610345610606366004614499565b611e72565b61049a610619366004614659565b611eab565b61034561200f565b6103456106343660046146d0565b6001600160a01b03918216600090815260346020908152604080832093909416825291909152205490565b610345612035565b61049a612045565b905090565b60008061067f611691565b9050600061068d82516121b0565b905060005b8251811015610705578585828181106106ad576106ad6146fe565b905060200201358282815181106106c6576106c66146fe565b60200260200101516106d8919061472a565b8282815181106106ea576106ea6146fe565b60209081029190910101526106fe8161473d565b9050610692565b506107176107116107ec565b826121dc565b6035545b610725919061472a565b95945050505050565b60606036805461073d90614756565b80601f016020809104026020016040519081016040528092919081815260200182805461076990614756565b80156107b65780601f1061078b576101008083540402835291602001916107b6565b820191906000526020600020905b81548152906001019060200180831161079957829003601f168201915b5050505050905090565b606061066f6107cd612035565b6121b0565b6000336107e0818585612251565b60019150505b92915050565b6040805180820190915260008152606060208201526108096119cb565b6001600160a01b03168152600061081e612035565b61082990602061478a565b610835600060146147a1565b6108409060206147a1565b61084b9060146147a1565b6108569060206147a1565b6108619060206147a1565b61086b91906147a1565b905061087e8161087961200f565b612375565b60208301525090565b600080610892611691565b90506000815167ffffffffffffffff8111156108b0576108b06142a4565b6040519080825280602002602001820160405280156108d9578160200160208202803683370190505b50905060005b825181101561099b578281815181106108fa576108fa6146fe565b60209081029190910101516040516370a0823160e01b81523060048201526001600160a01b03909116906370a0823190602401602060405180830381865afa15801561094a573d6000803e3d6000fd5b505050506040513d601f19601f8201168201806040525081019061096e91906147b4565b828281518110610980576109806146fe565b60209081029190910101526109948161473d565b90506108df565b5060006109a883866123ed565b90506109c56109b56107ec565b83836109c060355490565b612455565b8282815181106109d7576109d76146fe565b6020026020010151610725919061472a565b6000806109f4611691565b90506000610a0282516121b0565b9050600080610a128489896124cf565b9150915085838281518110610a2957610a296146fe565b60200260200101818151610a3d919061472a565b9052508251839083908110610a5457610a546146fe565b6020026020010151610a72610a676107ec565b85856109c060355490565b610a7c919061472a565b98975050505050505050565b600033610a968582856125b0565b610aa1858585612642565b60019150505b9392505050565b600061066f610abe8260146147a1565b610ac99060206147a1565b610ad49060146147a1565b610adf9060206147a1565b3660011981013560f01c9003013590565b6060610afa61281c565b8180421115610b1c57604051630407b05b60e31b815260040160405180910390fd5b6000610b26611691565b90506000610b348251612875565b90506000610b4160355490565b9050825167ffffffffffffffff811115610b5d57610b5d6142a4565b604051908082528060200260200182016040528015610b86578160200160208202803683370190505b509450610b93338b6129e9565b60005b8351811015610d415781838281518110610bb257610bb26146fe565b60200260200101518c610bc5919061478a565b610bcf91906147e3565b868281518110610be157610be16146fe565b602002602001018181525050898982818110610bff57610bff6146fe565b90506020020135868281518110610c1857610c186146fe565b60200260200101511015610c8657858181518110610c3857610c386146fe565b60200260200101518a8a83818110610c5257610c526146fe565b9050602002013560405163d58ad03f60e01b8152600401610c7d929190918252602082015260400190565b60405180910390fd5b610cd688878381518110610c9c57610c9c6146fe565b6020026020010151868481518110610cb657610cb66146fe565b60200260200101516001600160a01b0316612b1d9092919063ffffffff16565b858181518110610ce857610ce86146fe565b6020026020010151838281518110610d0257610d026146fe565b6020026020010151610d14919061472a565b838281518110610d2657610d266146fe565b6020908102919091010152610d3a8161473d565b9050610b96565b50610d4c8383612bad565b7ff4358595ad4956678c919635516976c76f95de0ce5a56b61ef35931b8c05dc048a8689604051610d7f939291906147f7565b60405180910390a150505050610725600160cc55565b600061066f612cb7565b3360008181526034602090815260408083206001600160a01b03871684529091528120549091906107e09082908690610dd99087906147a1565b612251565b6000610de861281c565b8180421115610e0a57604051630407b05b60e31b815260040160405180910390fd5b6000610e14611691565b90506000610e228251612875565b9050600080610e32848d8d6124cf565b9150915088838281518110610e4957610e496146fe565b60200260200101818151610e5d919061472a565b9052508251600090849084908110610e7757610e776146fe565b60200260200101519050610e8c610a676107ec565b848481518110610e9e57610e9e6146fe565b60200260200101818152505080848481518110610ebd57610ebd6146fe565b6020026020010151610ecf919061472a565b96508a871115610efc5760405163c14f2cc560e01b815260048101889052602481018c9052604401610c7d565b610f098d8d898d8d612d32565b610f138585612bad565b505050505050610f23600160cc55565b9695505050505050565b60606000610f39611691565b90506000610f4782516121b0565b90506000610f5460355490565b9050825167ffffffffffffffff811115610f7057610f706142a4565b604051908082528060200260200182016040528015610f99578160200160208202803683370190505b50935060005b83518110156110055781838281518110610fbb57610fbb6146fe565b602002602001015187610fce919061478a565b610fd891906147e3565b858281518110610fea57610fea6146fe565b6020908102919091010152610ffe8161473d565b9050610f9f565b50505050919050565b600061101861281c565b818042111561103a57604051630407b05b60e31b815260040160405180910390fd5b6000611044611691565b905060006110528251612875565b905060005b82518110156110f95761108f878a8a84818110611076576110766146fe565b90506020020135858481518110610cb657610cb66146fe565b8888828181106110a1576110a16146fe565b905060200201358282815181106110ba576110ba6146fe565b60200260200101516110cc919061472a565b8282815181106110de576110de6146fe565b60209081029190910101526110f28161473d565b9050611057565b506111056107116107ec565b603554611112919061472a565b93508884111561113f5760405163c14f2cc560e01b815260048101859052602481018a9052604401610c7d565b61114933856129e9565b6111538282612bad565b7ff4358595ad4956678c919635516976c76f95de0ce5a56b61ef35931b8c05dc04848989896040516111889493929190614829565b60405180910390a1505050610725600160cc55565b60006111a761281c565b81804211156111c957604051630407b05b60e31b815260040160405180910390fd5b60006111d3611691565b905060006111e18251612875565b905060006111ef838a6123ed565b90506111fc8a8284612dbb565b9450878510156112295760405163d58ad03f60e01b81526004810186905260248101899052604401610c7d565b611233338b6129e9565b6112476001600160a01b038a168887612b1d565b8482828151811061125a5761125a6146fe565b602002602001015161126c919061472a565b82828151811061127e5761127e6146fe565b6020026020010181815250506112948383612bad565b604080518b81526001600160a01b03808c16602083015291810187905290881660608201527f6f08fb00dac40d918cc84a5080754603d4f9a13a2437d87e06fd75ab944c757590608001610d7f565b600054610100900460ff16158080156113035750600054600160ff909116105b8061131d5750303b15801561131d575060005460ff166001145b61138f5760405162461bcd60e51b815260206004820152602e60248201527f496e697469616c697a61626c653a20636f6e747261637420697320616c72656160448201527f647920696e697469616c697a65640000000000000000000000000000000000006064820152608401610c7d565b6000805460ff1916600117905580156113b2576000805461ff0019166101001790555b6113bb83612e10565b6113c58383612ea1565b801561140b576000805461ff0019169055604051600181527f7f26b83ff96e1f2b6a682f133852f6798a09c465da95921460cefb38474024989060200160405180910390a15b505050565b6001600160a01b0381166000908152609960205260408120546107e6565b600080611439611691565b9050600061144782516121b0565b905060005b82518110156114c057848181518110611467576114676146fe565b6020026020010151828281518110611481576114816146fe565b602002602001015161149391906147a1565b8282815181106114a5576114a56146fe565b60209081029190910101526114b98161473d565b905061144c565b506035546114d56114cf6107ec565b836121dc565b6114df919061472a565b949350505050565b6000806114f2611691565b9050600061150082516121b0565b9050600061150e83866123ed565b9050610f23868284612dbb565b600061152561281c565b818042111561154757604051630407b05b60e31b815260040160405180910390fd5b6115548686866001612f16565b9150506114df600160cc55565b60606037805461073d90614756565b600061157a61281c565b818042111561159c57604051630407b05b60e31b815260040160405180910390fd5b6115b16001600160a01b0389163330896131c0565b6115be88888888886131f8565b915050610f23600160cc55565b60408051808201909152600081526060602082015260006115ea61200f565b6115f2612035565b6115fd90602061478a565b611609600060146147a1565b6116149060206147a1565b61161f9060146147a1565b61162a9060206147a1565b6116359060206147a1565b61163f91906147a1565b61164991906147a1565b3660011981013560f01c900381013560601c83529050600061166f610adf8360146147a1565b905061168561167f8360346147a1565b82612375565b60208401525090919050565b606061066f6116a2600060146147a1565b6116ad9060206147a1565b6116b89060146147a1565b6116c39060206147a1565b6116ce9060206147a1565b6116d6612035565b61337b565b6000806116e6611691565b905060006116f482516121b0565b90506000806117048489896124cf565b915091508583838151811061171b5761171b6146fe565b6020026020010181815161172f91906147a1565b90525061174861173d6107ec565b84836109c060355490565b83828151811061175a5761175a6146fe565b6020026020010151610a7c919061472a565b6060611776610aae565b6000036117805790565b611788610aae565b67ffffffffffffffff8111156117a0576117a06142a4565b6040519080825280602002602001820160405280156117e657816020015b6040805180820190915260008152606060208201528152602001906001900390816117be5790505b50905060006117f361200f565b6117fb612035565b61180690602061478a565b611812600060146147a1565b61181d9060206147a1565b6118289060146147a1565b6118339060206147a1565b61183e9060206147a1565b61184891906147a1565b61185291906147a1565b90506000805b8351811015611910573660011981013560f01c900383013560601c848281518110611885576118856146fe565b60209081029190910101516001600160a01b0390911690526118a86014846147a1565b92503660011981013560f01c900383013591506118c66020846147a1565b92506118d28383612375565b8482815181106118e4576118e46146fe565b60209081029190910181015101526118fc82846147a1565b9250806119088161473d565b915050611858565b50505090565b3360008181526034602090815260408083206001600160a01b0387168452909152812054909190838110156119b35760405162461bcd60e51b815260206004820152602560248201527f45524332303a2064656372656173656420616c6c6f77616e63652062656c6f7760448201527f207a65726f0000000000000000000000000000000000000000000000000000006064820152608401610c7d565b6119c08286868403612251565b506001949350505050565b600061066f6119db8260146147a1565b6119e69060206147a1565b3660011981013560f01c9003013560601c90565b6000336107e0818585612642565b6000611a1261281c565b8180421115611a3457604051630407b05b60e31b815260040160405180910390fd5b611a3f8833886133eb565b95506115be88888888886131f8565b6000611a5861281c565b6000611a62611691565b90506000815167ffffffffffffffff811115611a8057611a806142a4565b604051908082528060200260200182016040528015611aa9578160200160208202803683370190505b50905060005b8251811015611b6b57828181518110611aca57611aca6146fe565b60209081029190910101516040516370a0823160e01b81523060048201526001600160a01b03909116906370a0823190602401602060405180830381865afa158015611b1a573d6000803e3d6000fd5b505050506040513d601f19601f82011682018060405250810190611b3e91906147b4565b828281518110611b5057611b506146fe565b6020908102919091010152611b648161473d565b9050611aaf565b506000611b7883886123ed565b9050611b856109b56107ec565b828281518110611b9757611b976146fe565b6020026020010151611ba9919061472a565b9350858410611c3c57611bc66001600160a01b0388168686612b1d565b83828281518110611bd957611bd96146fe565b60200260200101818151611bed919061472a565b905250611bfa8383612bad565b7f1ee4a8e2e74af07abadd6b0b5f8f8bd96a54656e3bb7d987c5075a0c8b9f0df582888688604051611c2f9493929190614890565b60405180910390a1611c5f565b60405163d58ad03f60e01b81526004810185905260248101879052604401610c7d565b505050610aa7600160cc55565b6060611c7661281c565b6000611c80611691565b90506000611c8e82516121b0565b9050815167ffffffffffffffff811115611caa57611caa6142a4565b604051908082528060200260200182016040528015611cd3578160200160208202803683370190505b50925060005b8251811015611e0c57818181518110611cf457611cf46146fe565b6020026020010151838281518110611d0e57611d0e6146fe565b60209081029190910101516040516370a0823160e01b81523060048201526001600160a01b03909116906370a0823190602401602060405180830381865afa158015611d5e573d6000803e3d6000fd5b505050506040513d601f19601f82011682018060405250810190611d8291906147b4565b611d8c919061472a565b848281518110611d9e57611d9e6146fe565b6020026020010181815250506000848281518110611dbe57611dbe6146fe565b60200260200101511115611dfc57611dfc85858381518110611de257611de26146fe565b6020026020010151858481518110610cb657610cb66146fe565b611e058161473d565b9050611cd9565b505050611e19600160cc55565b919050565b6040805180820190915260008152606060208201819052906060806000611e43611691565b9450611e4d6107ec565b9350611e5761176c565b92503660011981013560f01c90033560601c90509091929394565b6000611e7c61281c565b8180421115611e9e57604051630407b05b60e31b815260040160405180910390fd5b6115548686866000612f16565b83421115611efb5760405162461bcd60e51b815260206004820152601d60248201527f45524332305065726d69743a206578706972656420646561646c696e650000006044820152606401610c7d565b60007f6e71edae12b1b97f4d1f60370fef10105fa2faae0126114a169c64845d6126c9888888611f2a8c6134d9565b6040805160208101969096526001600160a01b0394851690860152929091166060840152608083015260a082015260c0810186905260e0016040516020818303038152906040528051906020012090506000611f8582613501565b90506000611f958287878761354f565b9050896001600160a01b0316816001600160a01b031614611ff85760405162461bcd60e51b815260206004820152601e60248201527f45524332305065726d69743a20696e76616c6964207369676e617475726500006044820152606401610c7d565b6120038a8a8a612251565b50505050505050505050565b600061066f61201f8260146147a1565b61202a9060206147a1565b610adf9060146147a1565b600061066f610adf8260146147a1565b61204d61281c565b6000612057611691565b90506000815167ffffffffffffffff811115612075576120756142a4565b60405190808252806020026020018201604052801561209e578160200160208202803683370190505b50905060005b8251811015612160578281815181106120bf576120bf6146fe565b60209081029190910101516040516370a0823160e01b81523060048201526001600160a01b03909116906370a0823190602401602060405180830381865afa15801561210f573d6000803e3d6000fd5b505050506040513d601f19601f8201168201806040525081019061213391906147b4565b828281518110612145576121456146fe565b60209081029190910101526121598161473d565b90506120a4565b5061216b8282612bad565b7f30e692c3210b10b7fb0d8e6ce930811a92fc22eb68db644feb8288684c9e1c008160405161219a919061407e565b60405180910390a150506121ae600160cc55565b565b60606107e67f4bba01c388049b5ebd30398b65e8ad45b632802c5faf4964e58085ea8ab0371683613577565b815160208301516040516253057f60e61b81526000926001600160a01b0316916314c15fc0916122109186916004016148cc565b602060405180830381865afa15801561222d573d6000803e3d6000fd5b505050506040513d601f19601f82011682018060405250810190610aa791906147b4565b6001600160a01b0383166122b35760405162461bcd60e51b8152602060048201526024808201527f45524332303a20617070726f76652066726f6d20746865207a65726f206164646044820152637265737360e01b6064820152608401610c7d565b6001600160a01b0382166123145760405162461bcd60e51b815260206004820152602260248201527f45524332303a20617070726f766520746f20746865207a65726f206164647265604482015261737360f01b6064820152608401610c7d565b6001600160a01b0383811660008181526034602090815260408083209487168084529482529182902085905590518481527f8c5be1e5ebec7d5bd14f71427d1e84f3dd0314c0f7b2291e5b200ac8c7c3b925910160405180910390a3505050565b606081156107e6576000612394843660011981013560f01c90036147a1565b90508267ffffffffffffffff8111156123af576123af6142a4565b6040519080825280601f01601f1916602001820160405280156123d9576020820181803683370190505b5091508260051b8160208401375092915050565b60005b825181101561243c5782818151811061240b5761240b6146fe565b60200260200101516001600160a01b0316826001600160a01b031603156107e6576124358161473d565b90506123f0565b6040516333910aef60e11b815260040160405180910390fd5b83516020850151604051637f35e83d60e01b81526000926001600160a01b031691637f35e83d9161248e918891889188916004016148f1565b602060405180830381865afa1580156124ab573d6000803e3d6000fd5b505050506040513d601f19601f8201168201806040525081019061072591906147b4565b60008060008060005b8751811015612569578781815181106124f3576124f36146fe565b60200260200101516001600160a01b0316876001600160a01b03160361251f5780945060019250612559565b878181518110612531576125316146fe565b60200260200101516001600160a01b0316866001600160a01b03160361255957809350600191505b6125628161473d565b90506124d8565b5081612588576040516333910aef60e11b815260040160405180910390fd5b806125a6576040516333910aef60e11b815260040160405180910390fd5b5050935093915050565b6001600160a01b03838116600090815260346020908152604080832093861683529290522054600019811461263c578181101561262f5760405162461bcd60e51b815260206004820152601d60248201527f45524332303a20696e73756666696369656e7420616c6c6f77616e63650000006044820152606401610c7d565b61263c8484848403612251565b50505050565b6001600160a01b0383166126be5760405162461bcd60e51b815260206004820152602560248201527f45524332303a207472616e736665722066726f6d20746865207a65726f20616460448201527f64726573730000000000000000000000000000000000000000000000000000006064820152608401610c7d565b6001600160a01b0382166127205760405162461bcd60e51b815260206004820152602360248201527f45524332303a207472616e7366657220746f20746865207a65726f206164647260448201526265737360e81b6064820152608401610c7d565b6001600160a01b038316600090815260336020526040902054818110156127af5760405162461bcd60e51b815260206004820152602660248201527f45524332303a207472616e7366657220616d6f756e742065786365656473206260448201527f616c616e636500000000000000000000000000000000000000000000000000006064820152608401610c7d565b6001600160a01b0380851660008181526033602052604080822086860390559286168082529083902080548601905591517fddf252ad1be2c89b69c2b068fc378daa952ba7f163c4a11628f55a4df523b3ef9061280f9086815260200190565b60405180910390a361263c565b600260cc540361286e5760405162461bcd60e51b815260206004820152601f60248201527f5265656e7472616e637947756172643a207265656e7472616e742063616c6c006044820152606401610c7d565b600260cc55565b6060612880826121b0565b905061288a610aae565b60000361289657919050565b61289e610aae565b60010361291f5760006128af6115cb565b8051602082015160405163497163ef60e01b81529293506001600160a01b039091169163497163ef916128e7918691906004016148cc565b600060405180830381600087803b15801561290157600080fd5b505af1158015612915573d6000803e3d6000fd5b5050505050919050565b600061292961176c565b905060005b81518110156129e257818181518110612949576129496146fe565b6020026020010151600001516001600160a01b031663497163ef84848481518110612976576129766146fe565b6020026020010151602001516040518363ffffffff1660e01b815260040161299f9291906148cc565b600060405180830381600087803b1580156129b957600080fd5b505af11580156129cd573d6000803e3d6000fd5b50505050806129db9061473d565b905061292e565b5050919050565b6001600160a01b038216612a495760405162461bcd60e51b815260206004820152602160248201527f45524332303a206275726e2066726f6d20746865207a65726f206164647265736044820152607360f81b6064820152608401610c7d565b6001600160a01b03821660009081526033602052604090205481811015612abd5760405162461bcd60e51b815260206004820152602260248201527f45524332303a206275726e20616d6f756e7420657863656564732062616c616e604482015261636560f01b6064820152608401610c7d565b6001600160a01b03831660008181526033602090815260408083208686039055603580548790039055518581529192917fddf252ad1be2c89b69c2b068fc378daa952ba7f163c4a11628f55a4df523b3ef910160405180910390a3505050565b6040516001600160a01b03831660248201526044810182905261140b90849063a9059cbb60e01b906064015b60408051601f198184030181529190526020810180517bffffffffffffffffffffffffffffffffffffffffffffffffffffffff167fffffffff0000000000000000000000000000000000000000000000000000000090931692909217909152613667565b60005b8151811015612c8857828181518110612bcb57612bcb6146fe565b60209081029190910101516040516370a0823160e01b81523060048201526001600160a01b03909116906370a0823190602401602060405180830381865afa158015612c1b573d6000803e3d6000fd5b505050506040513d601f19601f82011682018060405250810190612c3f91906147b4565b828281518110612c5157612c516146fe565b60200260200101511115612c7857604051633dce448b60e11b815260040160405180910390fd5b612c818161473d565b9050612bb0565b50612cb37f4bba01c388049b5ebd30398b65e8ad45b632802c5faf4964e58085ea8ab037168261374c565b5050565b600061066f7f8b73c3c69bb8fe3d512ecc4cf759cc79239f7b179b0ffacaa9a75d522b39400f612ce660655490565b6066546040805160208101859052908101839052606081018290524660808201523060a082015260009060c0016040516020818303038152906040528051906020012090509392505050565b612d476001600160a01b0386163330866131c0565b612d5b6001600160a01b0385168284612b1d565b604080516001600160a01b0387811682528681166020830152818301869052606082018590528316608082015290517fb39c9bc43f811e1a7ce159c5f147458fdb80266bf23c17322013316e27e086d09181900360a00190a15050505050565b60008084612dc860355490565b612dd2919061472a565b90506000612de9612de16107ec565b858785612455565b905080848681518110612dfe57612dfe6146fe565b6020026020010151610f23919061472a565b600054610100900460ff16612e7b5760405162461bcd60e51b815260206004820152602b60248201527f496e697469616c697a61626c653a20636f6e7472616374206973206e6f74206960448201526a6e697469616c697a696e6760a81b6064820152608401610c7d565b612e9e81604051806040016040528060018152602001603160f81b815250613a57565b50565b600054610100900460ff16612f0c5760405162461bcd60e51b815260206004820152602b60248201527f496e697469616c697a61626c653a20636f6e7472616374206973206e6f74206960448201526a6e697469616c697a696e6760a81b6064820152608401610c7d565b612cb38282613adc565b600080612f21611691565b90506000612f2f8251612875565b905083156130335760005b825181101561302d57878181518110612f5557612f556146fe565b60200260200101516000031561301d57612fa2838281518110612f7a57612f7a6146fe565b6020026020010151338a8481518110612f9557612f956146fe565b60200260200101516133eb565b888281518110612fb457612fb46146fe565b602002602001018181525050878181518110612fd257612fd26146fe565b6020026020010151828281518110612fec57612fec6146fe565b6020026020010151612ffe91906147a1565b828281518110613010576130106146fe565b6020026020010181815250505b6130268161473d565b9050612f3a565b50613122565b60005b825181101561312057878181518110613051576130516146fe565b602002602001015160000315613110576130b333308a8481518110613078576130786146fe565b6020026020010151868581518110613092576130926146fe565b60200260200101516001600160a01b03166131c0909392919063ffffffff16565b8781815181106130c5576130c56146fe565b60200260200101518282815181106130df576130df6146fe565b60200260200101516130f191906147a1565b828281518110613103576131036146fe565b6020026020010181815250505b6131198161473d565b9050613036565b505b6035546131306114cf6107ec565b61313a919061472a565b9250858310156131675760405163d58ad03f60e01b81526004810184905260248101879052604401610c7d565b6131718584613b60565b61317b8282612bad565b7f91a6d8e872c9887412278189089c9936e99450551cc971309ff282f79bfef56f8784876040516131ae93929190614922565b60405180910390a15050949350505050565b6040516001600160a01b038085166024830152831660448201526064810182905261263c9085906323b872dd60e01b90608401612b49565b600080613203611691565b905060006132118251612875565b9050600080613221848b8b6124cf565b9150915087838381518110613238576132386146fe565b6020026020010181815161324c91906147a1565b9052508251600090849083908110613266576132666146fe565b6020026020010151905061328661327b6107ec565b85846109c060355490565b848381518110613298576132986146fe565b6020026020010181815250508382815181106132b6576132b66146fe565b6020026020010151816132c9919061472a565b9550878610156132f65760405163d58ad03f60e01b81526004810187905260248101899052604401610c7d565b61330a6001600160a01b038b168888612b1d565b604080516001600160a01b038d811682528c811660208301528183018c9052606082018990528916608082015290517fb39c9bc43f811e1a7ce159c5f147458fdb80266bf23c17322013316e27e086d09181900360a00190a161336d8585612bad565b505050505095945050505050565b60606000613394843660011981013560f01c90036147a1565b90508267ffffffffffffffff8111156133af576133af6142a4565b6040519080825280602002602001820160405280156123d9578160200160208202803683370190505091508260051b8160208401375092915050565b6040516370a0823160e01b815230600482015260009081906001600160a01b038616906370a0823190602401602060405180830381865afa158015613434573d6000803e3d6000fd5b505050506040513d601f19601f8201168201806040525081019061345891906147b4565b905061346f6001600160a01b0386168530866131c0565b6040516370a0823160e01b815230600482015281906001600160a01b038716906370a0823190602401602060405180830381865afa1580156134b5573d6000803e3d6000fd5b505050506040513d601f19601f8201168201806040525081019061071b91906147b4565b6001600160a01b03811660009081526099602052604090208054600181018255905b50919050565b60006107e661350e612cb7565b8360405161190160f01b6020820152602281018390526042810182905260009060620160405160208183030381529060405280519060200120905092915050565b600080600061356087878787613c21565b9150915061356d81613ce5565b5095945050505050565b60608167ffffffffffffffff811115613592576135926142a4565b6040519080825280602002602001820160405280156135bb578160200160208202803683370190505b509050816002036135e5578254608081901c60208301526001600160801b031660408201526107e6565b600060015b83811161365f5760026135fe60018361472a565b61360891906147e3565b61361390602061478a565b9150613620600282614954565b60010361363a578185015460801c6020820284015261364f565b848201546001600160801b0316602082028401525b6136588161473d565b90506135ea565b505092915050565b60006136bc826040518060400160405280602081526020017f5361666545524332303a206c6f772d6c6576656c2063616c6c206661696c6564815250856001600160a01b0316613e2f9092919063ffffffff16565b80519091501561140b57808060200190518101906136da9190614968565b61140b5760405162461bcd60e51b815260206004820152602a60248201527f5361666545524332303a204552433230206f7065726174696f6e20646964206e60448201527f6f742073756363656564000000000000000000000000000000000000000000006064820152608401610c7d565b805160020361384b576001600160801b03801681600081518110613772576137726146fe565b602002602001015111156137c15760405162461bcd60e51b81526020600482015260166024820152754279746553746f726167653a20746f6f206c6172676560501b6044820152606401610c7d565b6001600160801b038016816001815181106137de576137de6146fe565b6020026020010151111561382d5760405162461bcd60e51b81526020600482015260166024820152754279746553746f726167653a20746f6f206c6172676560501b6044820152606401610c7d565b604081015160209091015160801b6001600160801b03909116019055565b60006002825161385b91906147e3565b90506000805b8281101561399a576001600160801b038461387d83600261478a565b8151811061388d5761388d6146fe565b602002602001015111156138dc5760405162461bcd60e51b81526020600482015260166024820152754279746553746f726167653a20746f6f206c6172676560501b6044820152606401610c7d565b6001600160801b03846138f083600261478a565b6138fb9060016147a1565b8151811061390b5761390b6146fe565b6020026020010151111561395a5760405162461bcd60e51b81526020600482015260166024820152754279746553746f726167653a20746f6f206c6172676560501b6044820152606401610c7d565b61396581604061478a565b848101604081015160209182015160801b6001600160801b039091160190830287015591506139938161473d565b9050613861565b50600283516139a99190614954565b60010361263c576001600160801b03801683600185516139c9919061472a565b815181106139d9576139d96146fe565b60200260200101511115613a285760405162461bcd60e51b81526020600482015260166024820152754279746553746f726167653a20746f6f206c6172676560501b6044820152606401610c7d565b613a3382604061478a565b90508184015460801b60801c6020820184015160801b016020830285015550505050565b600054610100900460ff16613ac25760405162461bcd60e51b815260206004820152602b60248201527f496e697469616c697a61626c653a20636f6e7472616374206973206e6f74206960448201526a6e697469616c697a696e6760a81b6064820152608401610c7d565b815160209283012081519190920120606591909155606655565b600054610100900460ff16613b475760405162461bcd60e51b815260206004820152602b60248201527f496e697469616c697a61626c653a20636f6e7472616374206973206e6f74206960448201526a6e697469616c697a696e6760a81b6064820152608401610c7d565b6036613b5383826149d8565b50603761140b82826149d8565b6001600160a01b038216613bb65760405162461bcd60e51b815260206004820152601f60248201527f45524332303a206d696e7420746f20746865207a65726f2061646472657373006044820152606401610c7d565b8060356000828254613bc891906147a1565b90915550506001600160a01b0382166000818152603360209081526040808320805486019055518481527fddf252ad1be2c89b69c2b068fc378daa952ba7f163c4a11628f55a4df523b3ef910160405180910390a35050565b6000807f7fffffffffffffffffffffffffffffff5d576e7357a4501ddfe92f46681b20a0831115613c585750600090506003613cdc565b6040805160008082526020820180845289905260ff881692820192909252606081018690526080810185905260019060a0016020604051602081039080840390855afa158015613cac573d6000803e3d6000fd5b5050604051601f1901519150506001600160a01b038116613cd557600060019250925050613cdc565b9150600090505b94509492505050565b6000816004811115613cf957613cf9614a98565b03613d015750565b6001816004811115613d1557613d15614a98565b03613d625760405162461bcd60e51b815260206004820152601860248201527f45434453413a20696e76616c6964207369676e617475726500000000000000006044820152606401610c7d565b6002816004811115613d7657613d76614a98565b03613dc35760405162461bcd60e51b815260206004820152601f60248201527f45434453413a20696e76616c6964207369676e6174757265206c656e677468006044820152606401610c7d565b6003816004811115613dd757613dd7614a98565b03612e9e5760405162461bcd60e51b815260206004820152602260248201527f45434453413a20696e76616c6964207369676e6174757265202773272076616c604482015261756560f01b6064820152608401610c7d565b60606114df848460008585600080866001600160a01b03168587604051613e569190614aae565b60006040518083038185875af1925050503d8060008114613e93576040519150601f19603f3d011682016040523d82523d6000602084013e613e98565b606091505b5091509150613ea987838387613eb4565b979650505050505050565b60608315613f23578251600003613f1c576001600160a01b0385163b613f1c5760405162461bcd60e51b815260206004820152601d60248201527f416464726573733a2063616c6c20746f206e6f6e2d636f6e74726163740000006044820152606401610c7d565b50816114df565b6114df8383815115613f385781518083602001fd5b8060405162461bcd60e51b8152600401610c7d9190614030565b60008083601f840112613f6457600080fd5b50813567ffffffffffffffff811115613f7c57600080fd5b6020830191508360208260051b8501011115613f9757600080fd5b9250929050565b60008060208385031215613fb157600080fd5b823567ffffffffffffffff811115613fc857600080fd5b613fd485828601613f52565b90969095509350505050565b60005b83811015613ffb578181015183820152602001613fe3565b50506000910152565b6000815180845261401c816020860160208601613fe0565b601f01601f19169290920160200192915050565b602081526000610aa76020830184614004565b600081518084526020808501945080840160005b8381101561407357815187529582019590820190600101614057565b509495945050505050565b602081526000610aa76020830184614043565b6001600160a01b0381168114612e9e57600080fd5b600080604083850312156140b957600080fd5b82356140c481614091565b946020939093013593505050565b6001600160a01b03815116825260006020820151604060208501526114df6040850182614004565b602081526000610aa760208301846140d2565b60006020828403121561411f57600080fd5b8135610aa781614091565b60008060006060848603121561413f57600080fd5b833561414a81614091565b9250602084013561415a81614091565b929592945050506040919091013590565b60008060008060006080868803121561418357600080fd5b85359450602086013567ffffffffffffffff8111156141a157600080fd5b6141ad88828901613f52565b90955093505060408601356141c181614091565b949793965091946060013592915050565b60008060008060008060c087890312156141eb57600080fd5b86356141f681614091565b9550602087013561420681614091565b94506040870135935060608701359250608087013561422481614091565b8092505060a087013590509295509295509295565b60006020828403121561424b57600080fd5b5035919050565b600080600080600060a0868803121561426a57600080fd5b85359450602086013561427c81614091565b935060408601359250606086013561429381614091565b949793965091946080013592915050565b634e487b7160e01b600052604160045260246000fd5b604051601f8201601f1916810167ffffffffffffffff811182821017156142e3576142e36142a4565b604052919050565b600082601f8301126142fc57600080fd5b813567ffffffffffffffff811115614316576143166142a4565b614329601f8201601f19166020016142ba565b81815284602083860101111561433e57600080fd5b816020850160208301376000918101602001919091529392505050565b6000806040838503121561436e57600080fd5b823567ffffffffffffffff8082111561438657600080fd5b614392868387016142eb565b935060208501359150808211156143a857600080fd5b506143b5858286016142eb565b9150509250929050565b600082601f8301126143d057600080fd5b8135602067ffffffffffffffff8211156143ec576143ec6142a4565b8160051b6143fb8282016142ba565b928352848101820192828101908785111561441557600080fd5b83870192505b84831015613ea95782358252918301919083019061441b565b60006020828403121561444657600080fd5b813567ffffffffffffffff81111561445d57600080fd5b6114df848285016143bf565b6000806040838503121561447c57600080fd5b82359150602083013561448e81614091565b809150509250929050565b600080600080608085870312156144af57600080fd5b843567ffffffffffffffff8111156144c657600080fd5b6144d2878288016143bf565b9450506020850135925060408501356144ea81614091565b9396929550929360600135925050565b600081518084526020808501945080840160005b838110156140735781516001600160a01b03168752958201959082019060010161450e565b602081526000610aa760208301846144fa565b600081518084526020808501808196508360051b8101915082860160005b8581101561458e57828403895261457c8483516140d2565b98850198935090840190600101614564565b5091979650505050505050565b602081526000610aa76020830184614546565b6000806000606084860312156145c357600080fd5b83356145ce81614091565b92506020840135915060408401356145e581614091565b809150509250925092565b60a08152600061460360a08301886144fa565b828103602084015261461581886140d2565b905082810360408401526146298187614546565b9050828103606084015261463d8186614004565b9150506001600160a01b03831660808301529695505050505050565b600080600080600080600060e0888a03121561467457600080fd5b873561467f81614091565b9650602088013561468f81614091565b95506040880135945060608801359350608088013560ff811681146146b357600080fd5b9699959850939692959460a0840135945060c09093013592915050565b600080604083850312156146e357600080fd5b82356146ee81614091565b9150602083013561448e81614091565b634e487b7160e01b600052603260045260246000fd5b634e487b7160e01b600052601160045260246000fd5b818103818111156107e6576107e6614714565b60006001820161474f5761474f614714565b5060010190565b600181811c9082168061476a57607f821691505b6020821081036134fb57634e487b7160e01b600052602260045260246000fd5b80820281158282048414176107e6576107e6614714565b808201808211156107e6576107e6614714565b6000602082840312156147c657600080fd5b5051919050565b634e487b7160e01b600052601260045260246000fd5b6000826147f2576147f26147cd565b500490565b8381526060602082015260006148106060830185614043565b90506001600160a01b0383166040830152949350505050565b8481526060602082015282606082015260007f07ffffffffffffffffffffffffffffffffffffffffffffffffffffffffffffff84111561486857600080fd5b8360051b808660808501376001600160a01b0393909316604083015250016080019392505050565b6080815260006148a36080830187614043565b6001600160a01b0395861660208401526040830194909452509216606090920191909152919050565b6040815260006148df6040830185614043565b82810360208401526107258185614004565b6080815260006149046080830187614043565b8560208401528460408401528281036060840152613ea98185614004565b6060815260006149356060830186614043565b90508360208301526001600160a01b0383166040830152949350505050565b600082614963576149636147cd565b500690565b60006020828403121561497a57600080fd5b81518015158114610aa757600080fd5b601f82111561140b57600081815260208120601f850160051c810160208610156149b15750805b601f850160051c820191505b818110156149d0578281556001016149bd565b505050505050565b815167ffffffffffffffff8111156149f2576149f26142a4565b614a0681614a008454614756565b8461498a565b602080601f831160018114614a3b5760008415614a235750858301515b600019600386901b1c1916600185901b1785556149d0565b600085815260208120601f198616915b82811015614a6a57888601518255948401946001909101908401614a4b565b5085821015614a885787850151600019600388901b60f8161c191681555b5050505050600190811b01905550565b634e487b7160e01b600052602160045260246000fd5b60008251614ac0818460208701613fe0565b919091019291505056fea2646970667358221220f7b7bb62c885415b1a338f4a02c7e808996dea4957af8675b7e4d202a517f73864736f6c63430008110033",
    "linkReferences": {}
  },
  "methodIdentifiers": {
    "DOMAIN_SEPARATOR()": "3644e515",
    "addLiquidity(uint256[],uint256,address,uint256)": "cb9c7844",
    "addLiquidityFeeOnTransfer(uint256[],uint256,address,uint256)": "8f2c80da",
    "allowance(address,address)": "dd62ed3e",
    "approve(address,uint256)": "095ea7b3",
    "aquifer()": "038f6f61",
    "balanceOf(address)": "70a08231",
    "decimals()": "313ce567",
    "decreaseAllowance(address,uint256)": "a457c2d7",
    "firstPump()": "9b14a5cf",
    "getAddLiquidityOut(uint256[])": "8974eb0f",
    "getRemoveLiquidityImbalancedIn(uint256[])": "05fb5a00",
    "getRemoveLiquidityOneTokenOut(uint256,address)": "8cfce0f0",
    "getRemoveLiquidityOut(uint256)": "534e3d27",
    "getReserves()": "0902f1ac",
    "getShiftOut(address)": "14638c09",
    "getSwapIn(address,address,uint256)": "1d44458f",
    "getSwapOut(address,address,uint256)": "9fbbbeef",
    "increaseAllowance(address,uint256)": "39509351",
    "init(string,string)": "7029144c",
    "name()": "06fdde03",
    "nonces(address)": "7ecebe00",
    "numberOfPumps()": "2e60eb3c",
    "numberOfTokens()": "f9f16ef2",
    "permit(address,address,uint256,uint256,uint8,bytes32,bytes32)": "d505accf",
    "pumps()": "a1d89d96",
    "removeLiquidity(uint256,uint256[],address,uint256)": "3175ca18",
    "removeLiquidityImbalanced(uint256,uint256[],address,uint256)": "5647e42c",
    "removeLiquidityOneToken(uint256,address,uint256,address,uint256)": "5fe192c6",
    "shift(address,uint256,address)": "b8c55d4a",
    "skim(address)": "bc25cf77",
    "swapFrom(address,address,uint256,uint256,address,uint256)": "978b24ed",
    "swapFromFeeOnTransfer(address,address,uint256,uint256,address,uint256)": "b6bc5e60",
    "swapTo(address,address,uint256,uint256,address,uint256)": "40edf916",
    "symbol()": "95d89b41",
    "sync()": "fff6cae9",
    "tokens()": "9d63848a",
    "totalSupply()": "18160ddd",
    "transfer(address,uint256)": "a9059cbb",
    "transferFrom(address,address,uint256)": "23b872dd",
    "well()": "c0878f0c",
    "wellData()": "c12323c9",
    "wellFunction()": "10dd0830",
    "wellFunctionAddress()": "a57be4ed",
    "wellFunctionDataLength()": "dc6df26d"
  },
  "id": 63
}