{
  "abi": [
    {
      "inputs": [
        {
          "internalType": "string",
          "name": "_name",
          "type": "string"
        },
        {
          "internalType": "string",
          "name": "_symbol",
          "type": "string"
        },
        {
          "internalType": "contract IERC20[]",
          "name": "_tokens",
          "type": "address[]"
        },
        {
          "components": [
            {
              "internalType": "address",
              "name": "target",
              "type": "address"
            },
            {
              "internalType": "bytes",
              "name": "data",
              "type": "bytes"
            }
          ],
          "internalType": "struct Call",
          "name": "_function",
          "type": "tuple"
        },
        {
          "components": [
            {
              "internalType": "address",
              "name": "target",
              "type": "address"
            },
            {
              "internalType": "bytes",
              "name": "data",
              "type": "bytes"
            }
          ],
          "internalType": "struct Call[]",
          "name": "_pumps",
          "type": "tuple[]"
        }
      ],
      "stateMutability": "nonpayable",
      "type": "constructor"
    },
    {
      "anonymous": false,
      "inputs": [
        {
          "indexed": false,
          "internalType": "uint256[]",
          "name": "tokenAmountsIn",
          "type": "uint256[]"
        },
        {
          "indexed": false,
          "internalType": "uint256",
          "name": "lpAmountOut",
          "type": "uint256"
        }
      ],
      "name": "AddLiquidity",
      "type": "event"
    },
    {
      "anonymous": false,
      "inputs": [
        {
          "indexed": true,
          "internalType": "address",
          "name": "owner",
          "type": "address"
        },
        {
          "indexed": true,
          "internalType": "address",
          "name": "spender",
          "type": "address"
        },
        {
          "indexed": false,
          "internalType": "uint256",
          "name": "value",
          "type": "uint256"
        }
      ],
      "name": "Approval",
      "type": "event"
    },
    {
      "anonymous": false,
      "inputs": [
        {
          "indexed": false,
          "internalType": "uint256",
          "name": "lpAmountIn",
          "type": "uint256"
        },
        {
          "indexed": false,
          "internalType": "uint256[]",
          "name": "tokenAmountsOut",
          "type": "uint256[]"
        }
      ],
      "name": "RemoveLiquidity",
      "type": "event"
    },
    {
      "anonymous": false,
      "inputs": [
        {
          "indexed": false,
          "internalType": "uint256",
          "name": "lpAmountIn",
          "type": "uint256"
        },
        {
          "indexed": false,
          "internalType": "contract IERC20",
          "name": "tokenOut",
          "type": "address"
        },
        {
          "indexed": false,
          "internalType": "uint256",
          "name": "tokenAmountOut",
          "type": "uint256"
        }
      ],
      "name": "RemoveLiquidityOneToken",
      "type": "event"
    },
    {
      "anonymous": false,
      "inputs": [
        {
          "indexed": false,
          "internalType": "contract IERC20",
          "name": "fromToken",
          "type": "address"
        },
        {
          "indexed": false,
          "internalType": "contract IERC20",
          "name": "toToken",
          "type": "address"
        },
        {
          "indexed": false,
          "internalType": "uint256",
          "name": "amountIn",
          "type": "uint256"
        },
        {
          "indexed": false,
          "internalType": "uint256",
          "name": "amountOut",
          "type": "uint256"
        }
      ],
      "name": "Swap",
      "type": "event"
    },
    {
      "anonymous": false,
      "inputs": [
        {
          "indexed": true,
          "internalType": "address",
          "name": "from",
          "type": "address"
        },
        {
          "indexed": true,
          "internalType": "address",
          "name": "to",
          "type": "address"
        },
        {
          "indexed": false,
          "internalType": "uint256",
          "name": "value",
          "type": "uint256"
        }
      ],
      "name": "Transfer",
      "type": "event"
    },
    {
      "inputs": [],
      "name": "DOMAIN_SEPARATOR",
      "outputs": [
        {
          "internalType": "bytes32",
          "name": "",
          "type": "bytes32"
        }
      ],
      "stateMutability": "view",
      "type": "function"
    },
    {
      "inputs": [
        {
          "internalType": "uint256[]",
          "name": "tokenAmountsIn",
          "type": "uint256[]"
        },
        {
          "internalType": "uint256",
          "name": "minLpAmountOut",
          "type": "uint256"
        },
        {
          "internalType": "address",
          "name": "recipient",
          "type": "address"
        }
      ],
      "name": "addLiquidity",
      "outputs": [
        {
          "internalType": "uint256",
          "name": "lpAmountOut",
          "type": "uint256"
        }
      ],
      "stateMutability": "nonpayable",
      "type": "function"
    },
    {
      "inputs": [
        {
          "internalType": "address",
          "name": "owner",
          "type": "address"
        },
        {
          "internalType": "address",
          "name": "spender",
          "type": "address"
        }
      ],
      "name": "allowance",
      "outputs": [
        {
          "internalType": "uint256",
          "name": "",
          "type": "uint256"
        }
      ],
      "stateMutability": "view",
      "type": "function"
    },
    {
      "inputs": [
        {
          "internalType": "address",
          "name": "spender",
          "type": "address"
        },
        {
          "internalType": "uint256",
          "name": "amount",
          "type": "uint256"
        }
      ],
      "name": "approve",
      "outputs": [
        {
          "internalType": "bool",
          "name": "",
          "type": "bool"
        }
      ],
      "stateMutability": "nonpayable",
      "type": "function"
    },
    {
      "inputs": [],
      "name": "auger",
      "outputs": [
        {
          "internalType": "address",
          "name": "",
          "type": "address"
        }
      ],
      "stateMutability": "view",
      "type": "function"
    },
    {
      "inputs": [
        {
          "internalType": "address",
          "name": "account",
          "type": "address"
        }
      ],
      "name": "balanceOf",
      "outputs": [
        {
          "internalType": "uint256",
          "name": "",
          "type": "uint256"
        }
      ],
      "stateMutability": "view",
      "type": "function"
    },
    {
      "inputs": [],
      "name": "decimals",
      "outputs": [
        {
          "internalType": "uint8",
          "name": "",
          "type": "uint8"
        }
      ],
      "stateMutability": "view",
      "type": "function"
    },
    {
      "inputs": [
        {
          "internalType": "address",
          "name": "spender",
          "type": "address"
        },
        {
          "internalType": "uint256",
          "name": "subtractedValue",
          "type": "uint256"
        }
      ],
      "name": "decreaseAllowance",
      "outputs": [
        {
          "internalType": "bool",
          "name": "",
          "type": "bool"
        }
      ],
      "stateMutability": "nonpayable",
      "type": "function"
    },
    {
      "inputs": [],
      "name": "firstPumpBytes",
      "outputs": [
        {
          "internalType": "bytes",
          "name": "_bytes",
          "type": "bytes"
        }
      ],
      "stateMutability": "view",
      "type": "function"
    },
    {
      "inputs": [],
      "name": "firstPumpTarget",
      "outputs": [
        {
          "internalType": "address",
          "name": "_target",
          "type": "address"
        }
      ],
      "stateMutability": "view",
      "type": "function"
    },
    {
      "inputs": [
        {
          "internalType": "uint256[]",
          "name": "tokenAmountsIn",
          "type": "uint256[]"
        }
      ],
      "name": "getAddLiquidityOut",
      "outputs": [
        {
          "internalType": "uint256",
          "name": "lpAmountOut",
          "type": "uint256"
        }
      ],
      "stateMutability": "view",
      "type": "function"
    },
    {
      "inputs": [
        {
          "internalType": "uint256[]",
          "name": "tokenAmountsOut",
          "type": "uint256[]"
        }
      ],
      "name": "getRemoveLiquidityImbalancedIn",
      "outputs": [
        {
          "internalType": "uint256",
          "name": "lpAmountIn",
          "type": "uint256"
        }
      ],
      "stateMutability": "view",
      "type": "function"
    },
    {
      "inputs": [
        {
          "internalType": "uint256",
          "name": "lpAmountIn",
          "type": "uint256"
        },
        {
          "internalType": "contract IERC20",
          "name": "tokenOut",
          "type": "address"
        }
      ],
      "name": "getRemoveLiquidityOneTokenOut",
      "outputs": [
        {
          "internalType": "uint256",
          "name": "tokenAmountOut",
          "type": "uint256"
        }
      ],
      "stateMutability": "view",
      "type": "function"
    },
    {
      "inputs": [
        {
          "internalType": "uint256",
          "name": "lpAmountIn",
          "type": "uint256"
        }
      ],
      "name": "getRemoveLiquidityOut",
      "outputs": [
        {
          "internalType": "uint256[]",
          "name": "tokenAmountsOut",
          "type": "uint256[]"
        }
      ],
      "stateMutability": "view",
      "type": "function"
    },
    {
      "inputs": [],
      "name": "getReserves",
      "outputs": [
        {
          "internalType": "uint256[]",
          "name": "reserves",
          "type": "uint256[]"
        }
      ],
      "stateMutability": "view",
      "type": "function"
    },
    {
      "inputs": [
        {
          "internalType": "contract IERC20",
          "name": "fromToken",
          "type": "address"
        },
        {
          "internalType": "contract IERC20",
          "name": "toToken",
          "type": "address"
        },
        {
          "internalType": "uint256",
          "name": "amountOut",
          "type": "uint256"
        }
      ],
      "name": "getSwapIn",
      "outputs": [
        {
          "internalType": "uint256",
          "name": "amountIn",
          "type": "uint256"
        }
      ],
      "stateMutability": "view",
      "type": "function"
    },
    {
      "inputs": [
        {
          "internalType": "contract IERC20",
          "name": "fromToken",
          "type": "address"
        },
        {
          "internalType": "contract IERC20",
          "name": "toToken",
          "type": "address"
        },
        {
          "internalType": "uint256",
          "name": "amountIn",
          "type": "uint256"
        }
      ],
      "name": "getSwapOut",
      "outputs": [
        {
          "internalType": "uint256",
          "name": "amountOut",
          "type": "uint256"
        }
      ],
      "stateMutability": "view",
      "type": "function"
    },
    {
      "inputs": [
        {
          "internalType": "address",
          "name": "spender",
          "type": "address"
        },
        {
          "internalType": "uint256",
          "name": "addedValue",
          "type": "uint256"
        }
      ],
      "name": "increaseAllowance",
      "outputs": [
        {
          "internalType": "bool",
          "name": "",
          "type": "bool"
        }
      ],
      "stateMutability": "nonpayable",
      "type": "function"
    },
    {
      "inputs": [],
      "name": "name",
      "outputs": [
        {
          "internalType": "string",
          "name": "",
          "type": "string"
        }
      ],
      "stateMutability": "view",
      "type": "function"
    },
    {
      "inputs": [
        {
          "internalType": "address",
          "name": "owner",
          "type": "address"
        }
      ],
      "name": "nonces",
      "outputs": [
        {
          "internalType": "uint256",
          "name": "",
          "type": "uint256"
        }
      ],
      "stateMutability": "view",
      "type": "function"
    },
    {
      "inputs": [],
      "name": "numberOfPumps",
      "outputs": [
        {
          "internalType": "uint256",
          "name": "_numberOfPumps",
          "type": "uint256"
        }
      ],
      "stateMutability": "view",
      "type": "function"
    },
    {
      "inputs": [],
      "name": "numberOfTokens",
      "outputs": [
        {
          "internalType": "uint256",
          "name": "__numberOfTokens",
          "type": "uint256"
        }
      ],
      "stateMutability": "view",
      "type": "function"
    },
    {
      "inputs": [
        {
          "internalType": "address",
          "name": "owner",
          "type": "address"
        },
        {
          "internalType": "address",
          "name": "spender",
          "type": "address"
        },
        {
          "internalType": "uint256",
          "name": "value",
          "type": "uint256"
        },
        {
          "internalType": "uint256",
          "name": "deadline",
          "type": "uint256"
        },
        {
          "internalType": "uint8",
          "name": "v",
          "type": "uint8"
        },
        {
          "internalType": "bytes32",
          "name": "r",
          "type": "bytes32"
        },
        {
          "internalType": "bytes32",
          "name": "s",
          "type": "bytes32"
        }
      ],
      "name": "permit",
      "outputs": [],
      "stateMutability": "nonpayable",
      "type": "function"
    },
    {
      "inputs": [],
      "name": "pumps",
      "outputs": [
        {
          "components": [
            {
              "internalType": "address",
              "name": "target",
              "type": "address"
            },
            {
              "internalType": "bytes",
              "name": "data",
              "type": "bytes"
            }
          ],
          "internalType": "struct Call[]",
          "name": "",
          "type": "tuple[]"
        }
      ],
      "stateMutability": "view",
      "type": "function"
    },
    {
      "inputs": [
        {
          "internalType": "uint256",
          "name": "lpAmountIn",
          "type": "uint256"
        },
        {
          "internalType": "uint256[]",
          "name": "minTokenAmountsOut",
          "type": "uint256[]"
        },
        {
          "internalType": "address",
          "name": "recipient",
          "type": "address"
        }
      ],
      "name": "removeLiquidity",
      "outputs": [
        {
          "internalType": "uint256[]",
          "name": "tokenAmountsOut",
          "type": "uint256[]"
        }
      ],
      "stateMutability": "nonpayable",
      "type": "function"
    },
    {
      "inputs": [
        {
          "internalType": "uint256",
          "name": "maxLpAmountIn",
          "type": "uint256"
        },
        {
          "internalType": "uint256[]",
          "name": "tokenAmountsOut",
          "type": "uint256[]"
        },
        {
          "internalType": "address",
          "name": "recipient",
          "type": "address"
        }
      ],
      "name": "removeLiquidityImbalanced",
      "outputs": [
        {
          "internalType": "uint256",
          "name": "lpAmountIn",
          "type": "uint256"
        }
      ],
      "stateMutability": "nonpayable",
      "type": "function"
    },
    {
      "inputs": [
        {
          "internalType": "uint256",
          "name": "lpAmountIn",
          "type": "uint256"
        },
        {
          "internalType": "contract IERC20",
          "name": "tokenOut",
          "type": "address"
        },
        {
          "internalType": "uint256",
          "name": "minTokenAmountOut",
          "type": "uint256"
        },
        {
          "internalType": "address",
          "name": "recipient",
          "type": "address"
        }
      ],
      "name": "removeLiquidityOneToken",
      "outputs": [
        {
          "internalType": "uint256",
          "name": "tokenAmountOut",
          "type": "uint256"
        }
      ],
      "stateMutability": "nonpayable",
      "type": "function"
    },
    {
      "inputs": [
        {
          "internalType": "address",
          "name": "recipient",
          "type": "address"
        }
      ],
      "name": "skim",
      "outputs": [
        {
          "internalType": "uint256[]",
          "name": "skimAmounts",
          "type": "uint256[]"
        }
      ],
      "stateMutability": "nonpayable",
      "type": "function"
    },
    {
      "inputs": [
        {
          "internalType": "contract IERC20",
          "name": "fromToken",
          "type": "address"
        },
        {
          "internalType": "contract IERC20",
          "name": "toToken",
          "type": "address"
        },
        {
          "internalType": "uint256",
          "name": "amountIn",
          "type": "uint256"
        },
        {
          "internalType": "uint256",
          "name": "minAmountOut",
          "type": "uint256"
        },
        {
          "internalType": "address",
          "name": "recipient",
          "type": "address"
        }
      ],
      "name": "swapFrom",
      "outputs": [
        {
          "internalType": "uint256",
          "name": "amountOut",
          "type": "uint256"
        }
      ],
      "stateMutability": "nonpayable",
      "type": "function"
    },
    {
      "inputs": [
        {
          "internalType": "contract IERC20",
          "name": "fromToken",
          "type": "address"
        },
        {
          "internalType": "contract IERC20",
          "name": "toToken",
          "type": "address"
        },
        {
          "internalType": "uint256",
          "name": "maxAmountIn",
          "type": "uint256"
        },
        {
          "internalType": "uint256",
          "name": "amountOut",
          "type": "uint256"
        },
        {
          "internalType": "address",
          "name": "recipient",
          "type": "address"
        }
      ],
      "name": "swapTo",
      "outputs": [
        {
          "internalType": "uint256",
          "name": "amountIn",
          "type": "uint256"
        }
      ],
      "stateMutability": "nonpayable",
      "type": "function"
    },
    {
      "inputs": [],
      "name": "symbol",
      "outputs": [
        {
          "internalType": "string",
          "name": "",
          "type": "string"
        }
      ],
      "stateMutability": "view",
      "type": "function"
    },
    {
      "inputs": [
        {
          "internalType": "uint256",
          "name": "i",
          "type": "uint256"
        }
      ],
      "name": "token",
      "outputs": [
        {
          "internalType": "contract IERC20",
          "name": "_token",
          "type": "address"
        }
      ],
      "stateMutability": "view",
      "type": "function"
    },
    {
      "inputs": [],
      "name": "tokens",
      "outputs": [
        {
          "internalType": "contract IERC20[]",
          "name": "ts",
          "type": "address[]"
        }
      ],
      "stateMutability": "view",
      "type": "function"
    },
    {
      "inputs": [],
      "name": "totalSupply",
      "outputs": [
        {
          "internalType": "uint256",
          "name": "",
          "type": "uint256"
        }
      ],
      "stateMutability": "view",
      "type": "function"
    },
    {
      "inputs": [
        {
          "internalType": "address",
          "name": "to",
          "type": "address"
        },
        {
          "internalType": "uint256",
          "name": "amount",
          "type": "uint256"
        }
      ],
      "name": "transfer",
      "outputs": [
        {
          "internalType": "bool",
          "name": "",
          "type": "bool"
        }
      ],
      "stateMutability": "nonpayable",
      "type": "function"
    },
    {
      "inputs": [
        {
          "internalType": "address",
          "name": "from",
          "type": "address"
        },
        {
          "internalType": "address",
          "name": "to",
          "type": "address"
        },
        {
          "internalType": "uint256",
          "name": "amount",
          "type": "uint256"
        }
      ],
      "name": "transferFrom",
      "outputs": [
        {
          "internalType": "bool",
          "name": "",
          "type": "bool"
        }
      ],
      "stateMutability": "nonpayable",
      "type": "function"
    },
    {
      "inputs": [],
      "name": "well",
      "outputs": [
        {
          "internalType": "contract IERC20[]",
          "name": "_tokens",
          "type": "address[]"
        },
        {
          "components": [
            {
              "internalType": "address",
              "name": "target",
              "type": "address"
            },
            {
              "internalType": "bytes",
              "name": "data",
              "type": "bytes"
            }
          ],
          "internalType": "struct Call",
          "name": "_wellFunction",
          "type": "tuple"
        },
        {
          "components": [
            {
              "internalType": "address",
              "name": "target",
              "type": "address"
            },
            {
              "internalType": "bytes",
              "name": "data",
              "type": "bytes"
            }
          ],
          "internalType": "struct Call[]",
          "name": "_pumps",
          "type": "tuple[]"
        },
        {
          "internalType": "address",
          "name": "_auger",
          "type": "address"
        }
      ],
      "stateMutability": "view",
      "type": "function"
    },
    {
      "inputs": [],
      "name": "wellFunction",
      "outputs": [
        {
          "components": [
            {
              "internalType": "address",
              "name": "target",
              "type": "address"
            },
            {
              "internalType": "bytes",
              "name": "data",
              "type": "bytes"
            }
          ],
          "internalType": "struct Call",
          "name": "",
          "type": "tuple"
        }
      ],
      "stateMutability": "view",
      "type": "function"
    },
    {
      "inputs": [],
      "name": "wellFunctionAddress",
      "outputs": [
        {
          "internalType": "address",
          "name": "__address",
          "type": "address"
        }
      ],
      "stateMutability": "view",
      "type": "function"
    },
    {
      "inputs": [],
      "name": "wellFunctionBytes",
      "outputs": [
        {
          "internalType": "bytes",
          "name": "_bytes",
          "type": "bytes"
        }
      ],
      "stateMutability": "view",
      "type": "function"
    }
  ],
  "bytecode": {
    "object": "0x6105e06040523480156200001257600080fd5b50604051620058a4380380620058a4833981016040819052620000359162000b34565b8082848780604051806040016040528060018152602001603160f81b8152508a8a816003908162000067919062000ca4565b50600462000076828262000ca4565b5050825160208085019190912083519184019190912060e08290526101008190524660a0529091507f8b73c3c69bb8fe3d512ecc4cf759cc79239f7b179b0ffacaa9a75d522b39400f620000cc818484620006e3565b6080523060c0526101205250508351600410159250620001289150505760405162461bcd60e51b815260206004820152600f60248201526e546f6f206d616e7920746f6b656e7360881b60448201526064015b60405180910390fd5b8051610140526200013b6000826200072d565b6001600160a01b031661016052620001556001826200072d565b6001600160a01b0316610180526200016f6002826200072d565b6001600160a01b03166101a052620001896003826200072d565b6001600160a01b039081166101c0528251169050620001eb5760405162461bcd60e51b815260206004820152601d60248201527f54617267657420616464726573732063616e6e6f74206265207a65726f00000060448201526064016200011f565b80516001600160a01b03166101e0526020810151805160801015620002445760405162461bcd60e51b815260206004820152600e60248201526d427974657320746f6f206c6f6e6760901b60448201526064016200011f565b8051610200526200026381600062000767602090811b62001d5f17901c565b610220526200028081600162000767602090811b62001d5f17901c565b610240526200029d81600262000767602090811b62001d5f17901c565b61026052620002ba81600362000767602090811b62001d5f17901c565b610280525050805160041015620003055760405162461bcd60e51b815260206004820152600e60248201526d546f6f206d616e792063616c6c7360901b60448201526064016200011f565b80516102a052620003188160006200079e565b6001600160a01b03166102c052620003328160016200079e565b6001600160a01b03166102e0526200034c8160026200079e565b6001600160a01b031661030052620003668160036200079e565b6001600160a01b0316610320526000620003818282620007db565b90506080811115620003c75760405162461bcd60e51b815260206004820152600e60248201526d546f6f206d616e7920627974657360901b60448201526064016200011f565b610340819052620003db8260008062000819565b61036052620003ee826000600162000819565b6103805262000401826000600262000819565b6103a05262000414826000600362000819565b6103c05262000425826001620007db565b905060808111156200046b5760405162461bcd60e51b815260206004820152600e60248201526d546f6f206d616e7920627974657360901b60448201526064016200011f565b6103e081905262000480826001600062000819565b61040052620004928260018062000819565b61042052620004a5826001600262000819565b61044052620004b8826001600362000819565b61046052620004c9826002620007db565b905060808111156200050f5760405162461bcd60e51b815260206004820152600e60248201526d546f6f206d616e7920627974657360901b60448201526064016200011f565b61048081905262000524826002600062000819565b6104a05262000537826002600162000819565b6104c052620005498260028062000819565b6104e0526200055c826002600362000819565b610500526200056d826003620007db565b90506080811115620005b35760405162461bcd60e51b815260206004820152600e60248201526d546f6f206d616e7920627974657360901b60448201526064016200011f565b610520819052620005c8826003600062000819565b61054052620005db826003600162000819565b61056052620005ee826003600262000819565b61058052620006008260038062000819565b6105a0525050600160075560005b8151811015620006d1578181815181106200062d576200062d62000d70565b6020026020010151600001516001600160a01b031663b1c5977985518484815181106200065e576200065e62000d70565b6020026020010151602001516040518363ffffffff1660e01b81526004016200068992919062000d86565b600060405180830381600087803b158015620006a457600080fd5b505af1158015620006b9573d6000803e3d6000fd5b5050505080620006c99062000dd8565b90506200060e565b5050336105c0525062000e0e92505050565b6040805160208101859052908101839052606081018290524660808201523060a082015260009060c0016040516020818303038152906040528051906020012090505b9392505050565b600081518310620007415750600062000761565b81838151811062000756576200075662000d70565b602002602001015190505b92915050565b6000806200077783602062000df4565b905083518111156200078d576000915062000797565b6020818501015191505b5092915050565b600082518210620007b25750600062000761565b828281518110620007c757620007c762000d70565b602002602001015160000151905092915050565b600082518210620007ef5750600062000761565b82828151811062000804576200080462000d70565b60200260200101516020015151905092915050565b6000835183106200082d5750600062000726565b620008678285858151811062000847576200084762000d70565b6020026020010151602001516200076760201b62001d5f1790919060201c565b949350505050565b634e487b7160e01b600052604160045260246000fd5b604051601f8201601f191681016001600160401b0381118282101715620008b057620008b06200086f565b604052919050565b60005b83811015620008d5578181015183820152602001620008bb565b50506000910152565b60006001600160401b03831115620008fa57620008fa6200086f565b6200090f601f8401601f191660200162000885565b90508281528383830111156200092457600080fd5b62000726836020830184620008b8565b600082601f8301126200094657600080fd5b6200072683835160208501620008de565b60006001600160401b038211156200097357620009736200086f565b5060051b60200190565b6001600160a01b03811681146200099357600080fd5b50565b600082601f830112620009a857600080fd5b81516020620009c1620009bb8362000957565b62000885565b82815260059290921b84018101918181019086841115620009e157600080fd5b8286015b8481101562000a09578051620009fb816200097d565b8352918301918301620009e5565b509695505050505050565b60006040828403121562000a2757600080fd5b604080519081016001600160401b03808211838310171562000a4d5762000a4d6200086f565b816040528293508451915062000a63826200097d565b9082526020840151908082111562000a7a57600080fd5b508301601f8101851362000a8d57600080fd5b62000a9e85825160208401620008de565b6020830152505092915050565b600082601f83011262000abd57600080fd5b8151602062000ad0620009bb8362000957565b82815260059290921b8401810191818101908684111562000af057600080fd5b8286015b8481101562000a095780516001600160401b0381111562000b155760008081fd5b62000b258986838b010162000a14565b84525091830191830162000af4565b600080600080600060a0868803121562000b4d57600080fd5b85516001600160401b038082111562000b6557600080fd5b62000b7389838a0162000934565b9650602088015191508082111562000b8a57600080fd5b62000b9889838a0162000934565b9550604088015191508082111562000baf57600080fd5b62000bbd89838a0162000996565b9450606088015191508082111562000bd457600080fd5b62000be289838a0162000a14565b9350608088015191508082111562000bf957600080fd5b5062000c088882890162000aab565b9150509295509295909350565b600181811c9082168062000c2a57607f821691505b60208210810362000c4b57634e487b7160e01b600052602260045260246000fd5b50919050565b601f82111562000c9f57600081815260208120601f850160051c8101602086101562000c7a5750805b601f850160051c820191505b8181101562000c9b5782815560010162000c86565b5050505b505050565b81516001600160401b0381111562000cc05762000cc06200086f565b62000cd88162000cd1845462000c15565b8462000c51565b602080601f83116001811462000d10576000841562000cf75750858301515b600019600386901b1c1916600185901b17855562000c9b565b600085815260208120601f198616915b8281101562000d415788860151825594840194600190910190840162000d20565b508582101562000d605787850151600019600388901b60f8161c191681555b5050505050600190811b01905550565b634e487b7160e01b600052603260045260246000fd5b828152604060208201526000825180604084015262000dad816060850160208701620008b8565b601f01601f1916919091016060019392505050565b634e487b7160e01b600052601160045260246000fd5b60006001820162000ded5762000ded62000dc2565b5060010190565b808202811582820484141762000761576200076162000dc2565b60805160a05160c05160e05161010051610120516101405161016051610180516101a0516101c0516101e05161020051610220516102405161026051610280516102a0516102c0516102e05161030051610320516103405161036051610380516103a0516103c0516103e05161040051610420516104405161046051610480516104a0516104c0516104e05161050051610520516105405161056051610580516105a0516105c05161479e6200110660003960008181610605015261187e015260006135d6015260006135a401526000613572015260006135400152600081816134700152818161349d01526134da015260006133a80152600061337601526000613344015260006133120152600081816132420152818161326f01526132ac0152600061317a0152600061314801526000613116015260006130e401526000818161301401528181613041015261307e015260008181610e120152612f4c015260008181610dde0152612f1a015260008181610dac0152612ee8015260008181610d780152612eb6015260008181610ca801528181610cd701528181610d1401528181612de601528181612e130152612e5001526000613424015260006131f601526000612fc801526000818161062b015281816120650152612d9a0152600081816103d7015281816120100152818161203d01528181612ce701528181612d6901528181612f9a015281816131c801526133f6015260006107f4015260006107be0152600061078801526000610752015260008181610679015281816106a4015261071301526000818161052d0152611f830152600081816108c70152612c660152600081816108980152612be70152600081816108690152612b6801526000818161083a0152612ae901526000818161065101528181610a3e01528181612a5901528181612abe01528181612b3d01528181612bbc01528181612c3b0152612cba01526000612660015260006126af0152600061268a015260006125e30152600061260d01526000612637015261479e6000f3fe608060405234801561001057600080fd5b50600436106102c85760003560e01c80637ecebe001161017b578063a9059cbb116100d8578063dcc8b3011161008c578063e608a52a11610071578063e608a52a14610603578063f2075c2414610629578063f9f16ef21461064f57600080fd5b8063dcc8b301146105b7578063dd62ed3e146105ca57600080fd5b8063c0878f0c116100bd578063c0878f0c14610577578063d505accf1461058f578063dc036c9a146105a457600080fd5b8063a9059cbb14610551578063bc25cf771461056457600080fd5b80639d63848a1161012f578063a1d89d9611610114578063a1d89d9614610503578063a457c2d714610518578063a57be4ed1461052b57600080fd5b80639d63848a146104db5780639fbbbeef146104f057600080fd5b80638cfce0f0116101605780638cfce0f0146104ad57806395d89b41146104c05780639ca74072146104c857600080fd5b80637ecebe00146104875780638974eb0f1461049a57600080fd5b806323b872dd1161022957806339509351116101dd578063534e3d27116101c2578063534e3d271461043857806363356f821461044b57806370a082311461045e57600080fd5b806339509351146104125780633e8847ec1461042557600080fd5b80632e60eb3c1161020e5780632e60eb3c146103d5578063313ce567146103fb5780633644e5151461040a57600080fd5b806323b872dd146103ba578063258d642d146103cd57600080fd5b8063095ea7b31161028057806318160ddd1161026557806318160ddd1461038c5780631a275a03146103945780631d44458f146103a757600080fd5b8063095ea7b31461035457806310dd08301461037757600080fd5b806305fb5a00116102b157806305fb5a001461031657806306fdde03146103375780630902f1ac1461033f57600080fd5b8063013fba80146102cd578063044215c6146102eb575b600080fd5b6102d5610675565b6040516102e29190613f2b565b60405180910390f35b6102fe6102f9366004613f3e565b61082d565b6040516001600160a01b0390911681526020016102e2565b610329610324366004613fa3565b6108ec565b6040519081526020016102e2565b6102d56109a5565b610347610a37565b6040516102e29190614020565b610367610362366004614048565b610a67565b60405190151581526020016102e2565b61037f610a81565b6040516102e2919061409c565b600254610329565b6103296103a23660046140af565b610a9e565b6103296103b536600461410e565b610bea565b6103676103c836600461410e565b610c7e565b6102d5610ca4565b7f0000000000000000000000000000000000000000000000000000000000000000610329565b604051601281526020016102e2565b610329610e3a565b610367610420366004614048565b610e44565b6103296104333660046141f5565b610e83565b610347610446366004613f3e565b61104e565b610329610459366004614250565b61112f565b61032961046c3660046142af565b6001600160a01b031660009081526020819052604090205490565b6103296104953660046142af565b6112d6565b6103296104a83660046142cc565b6112f4565b6103296104bb366004614301565b61139f565b6102d56113dd565b6103296104d6366004614331565b6113ec565b6104e361152d565b6040516102e291906143a9565b6103296104fe36600461410e565b611537565b61050b6115c8565b6040516102e29190614411565b610367610526366004614048565b6115d2565b7f00000000000000000000000000000000000000000000000000000000000000006102fe565b61036761055f366004614048565b611687565b6103476105723660046142af565b611695565b61057f611842565b6040516102e29493929190614424565b6105a261059d366004614478565b6118a5565b005b6103476105b2366004614250565b611a09565b6103296105c53660046140af565b611c2c565b6103296105d83660046144ef565b6001600160a01b03918216600090815260016020908152604080832093909416825291909152205490565b7f00000000000000000000000000000000000000000000000000000000000000006102fe565b7f00000000000000000000000000000000000000000000000000000000000000006102fe565b7f0000000000000000000000000000000000000000000000000000000000000000610329565b60607f00000000000000000000000000000000000000000000000000000000000000006000036106a25790565b7f000000000000000000000000000000000000000000000000000000000000000067ffffffffffffffff8111156106db576106db61414f565b6040519080825280601f01601f191660200182016040528015610705576020820181803683370190505b5090506000602061073760017f0000000000000000000000000000000000000000000000000000000000000000614533565b610741919061455c565b61074c906001614570565b905060007f000000000000000000000000000000000000000000000000000000000000000090508060208401528160010361078657505090565b7f00000000000000000000000000000000000000000000000000000000000000009050806040840152816002036107bc57505090565b7f00000000000000000000000000000000000000000000000000000000000000009050806060840152816003036107f257505090565b7f000000000000000000000000000000000000000000000000000000000000000090508060808401528160040361082857505090565b505090565b60008160000361085e57507f0000000000000000000000000000000000000000000000000000000000000000919050565b8160010361088d57507f0000000000000000000000000000000000000000000000000000000000000000919050565b816002036108bc57507f0000000000000000000000000000000000000000000000000000000000000000919050565b816003036108e757507f00000000000000000000000000000000000000000000000000000000000000005b919050565b6000806108f761152d565b905060006109058251611d92565b905060005b825181101561097d5785858281811061092557610925614583565b9050602002013582828151811061093e5761093e614583565b60200260200101516109509190614533565b82828151811061096257610962614583565b602090810291909101015261097681614599565b905061090a565b5061098f610989610a81565b82611dbe565b60025461099c9190614533565b95945050505050565b6060600380546109b4906145b2565b80601f01602080910402602001604051908101604052809291908181526020018280546109e0906145b2565b8015610a2d5780601f10610a0257610100808354040283529160200191610a2d565b820191906000526020600020905b815481529060010190602001808311610a1057829003601f168201915b5050505050905090565b6060610a627f0000000000000000000000000000000000000000000000000000000000000000611d92565b905090565b600033610a75818585611e33565b60019150505b92915050565b604080518082019091526000815260606020820152610a62611f57565b6000610aa8611fa8565b6000610ab261152d565b90506000610ac08251612001565b9050600080610ad0848b8b6121b0565b9150915086838281518110610ae757610ae7614583565b60200260200101818151610afb9190614533565b9052508251600090849084908110610b1557610b15614583565b60200260200101519050610b3a610b2a610a81565b8585610b3560025490565b612248565b848481518110610b4c57610b4c614583565b60200260200101818152505080848481518110610b6b57610b6b614583565b6020026020010151610b7d9190614533565b955088861115610bc55760405162461bcd60e51b815260206004820152600e60248201526d57656c6c3a20736c69707061676560901b60448201526064015b60405180910390fd5b610bce846122c2565b610bdb8b8b888b8b6122ef565b505050505061099c6001600755565b600080610bf561152d565b90506000610c038251611d92565b9050600080610c138489896121b0565b9150915085838281518110610c2a57610c2a614583565b60200260200101818151610c3e9190614533565b9052508251839083908110610c5557610c55614583565b6020026020010151610c68610b2a610a81565b610c729190614533565b98975050505050505050565b600033610c8c858285612371565b610c97858585612403565b60019150505b9392505050565b60607f000000000000000000000000000000000000000000000000000000000000000015610e375760006020610cfb60017f0000000000000000000000000000000000000000000000000000000000000000614533565b610d05919061455c565b610d10906001614570565b90507f000000000000000000000000000000000000000000000000000000000000000067ffffffffffffffff811115610d4b57610d4b61414f565b6040519080825280601f01601f191660200182016040528015610d75576020820181803683370190505b507f0000000000000000000000000000000000000000000000000000000000000000602082018190529092506001821115610828577f000000000000000000000000000000000000000000000000000000000000000090508060408401526002821115610828577f0000000000000000000000000000000000000000000000000000000000000000905080606084015260038211156108285750507f000000000000000000000000000000000000000000000000000000000000000060808201525b90565b6000610a626125d6565b3360008181526001602090815260408083206001600160a01b0387168452909152812054909190610a759082908690610e7e908790614570565b611e33565b6000610e8d611fa8565b6000610e9761152d565b90506000610ea58251612001565b905060005b8251811015610f9457868181518110610ec557610ec5614583565b602002602001015160000315610f8457610f273330898481518110610eec57610eec614583565b6020026020010151868581518110610f0657610f06614583565b60200260200101516001600160a01b03166126fd909392919063ffffffff16565b868181518110610f3957610f39614583565b6020026020010151828281518110610f5357610f53614583565b6020026020010151610f659190614570565b828281518110610f7757610f77614583565b6020026020010181815250505b610f8d81614599565b9050610eaa565b50600254610fa9610fa3610a81565b83611dbe565b610fb39190614533565b925084831015610ff65760405162461bcd60e51b815260206004820152600e60248201526d57656c6c3a20736c69707061676560901b6044820152606401610bbc565b6110008484612795565b611009816122c2565b7f445e97e04b71816478e7b37d58055c44d36f05aff862225bca7ea58038c18675868460405161103a9291906145e6565b60405180910390a15050610c9d6001600755565b6060600061105a61152d565b905060006110688251611d92565b9050600061107560025490565b9050825167ffffffffffffffff8111156110915761109161414f565b6040519080825280602002602001820160405280156110ba578160200160208202803683370190505b50935060005b835181101561112657818382815181106110dc576110dc614583565b6020026020010151876110ef9190614608565b6110f9919061455c565b85828151811061110b5761110b614583565b602090810291909101015261111f81614599565b90506110c0565b50505050919050565b6000611139611fa8565b600061114361152d565b905060006111518251612001565b905060005b8251811015611218576111ae8588888481811061117557611175614583565b9050602002013585848151811061118e5761118e614583565b60200260200101516001600160a01b03166128549092919063ffffffff16565b8686828181106111c0576111c0614583565b905060200201358282815181106111d9576111d9614583565b60200260200101516111eb9190614533565b8282815181106111fd576111fd614583565b602090810291909101015261121181614599565b9050611156565b50611224610989610a81565b6002546112319190614533565b9250868311156112745760405162461bcd60e51b815260206004820152600e60248201526d57656c6c3a20736c69707061676560901b6044820152606401610bbc565b61127e3384612889565b611287816122c2565b7f9993ad19602725ab63a156d5cc8896910f278ecb257d29b394eee5d3e296a7218387876040516112ba9392919061461f565b60405180910390a150506112ce6001600755565b949350505050565b6001600160a01b038116600090815260056020526040812054610a7b565b6000806112ff61152d565b9050600061130d8251611d92565b905060005b82518110156113865784818151811061132d5761132d614583565b602002602001015182828151811061134757611347614583565b60200260200101516113599190614570565b82828151811061136b5761136b614583565b602090810291909101015261137f81614599565b9050611312565b50600254611395610fa3610a81565b6112ce9190614533565b6000806113aa61152d565b905060006113b88251611d92565b905060006113c683866129bb565b90506113d3868284612a00565b9695505050505050565b6060600480546109b4906145b2565b60006113f6611fa8565b600061140061152d565b9050600061140e8251612001565b9050600061141c83886129bb565b9050611429888284612a00565b93508584101561146c5760405162461bcd60e51b815260206004820152600e60248201526d57656c6c3a20736c69707061676560901b6044820152606401610bbc565b6114763389612889565b61148a6001600160a01b0388168686612854565b8382828151811061149d5761149d614583565b60200260200101516114af9190614533565b8282815181106114c1576114c1614583565b6020026020010181815250506114d6826122c2565b604080518981526001600160a01b03891660208201529081018590527f7ab3fff97142331a9f3a30f11d5ff1b29c02e5beb370f4dcccc1d06070f6646e906060015b60405180910390a15050506112ce6001600755565b6060610a62612a55565b60008061154261152d565b905060006115508251611d92565b90506000806115608489896121b0565b915091508583838151811061157757611577614583565b6020026020010181815161158b9190614570565b9052506115a4611599610a81565b8483610b3560025490565b8382815181106115b6576115b6614583565b6020026020010151610c729190614533565b6060610a62612ce3565b3360008181526001602090815260408083206001600160a01b03871684529091528120549091908381101561166f5760405162461bcd60e51b815260206004820152602560248201527f45524332303a2064656372656173656420616c6c6f77616e63652062656c6f7760448201527f207a65726f0000000000000000000000000000000000000000000000000000006064820152608401610bbc565b61167c8286868403611e33565b506001949350505050565b600033610a75818585612403565b606061169f611fa8565b60006116a961152d565b905060006116b78251611d92565b9050815167ffffffffffffffff8111156116d3576116d361414f565b6040519080825280602002602001820160405280156116fc578160200160208202803683370190505b50925060005b82518110156118355781818151811061171d5761171d614583565b602002602001015183828151811061173757611737614583565b60209081029190910101516040516370a0823160e01b81523060048201526001600160a01b03909116906370a0823190602401602060405180830381865afa158015611787573d6000803e3d6000fd5b505050506040513d601f19601f820116820180604052508101906117ab9190614678565b6117b59190614533565b8482815181106117c7576117c7614583565b60200260200101818152505060008482815181106117e7576117e7614583565b60200260200101511115611825576118258585838151811061180b5761180b614583565b602002602001015185848151811061118e5761118e614583565b61182e81614599565b9050611702565b5050506108e76001600755565b6040805180820190915260008152606060208201819052906060600061186661152d565b9350611870610a81565b925061187a6115c8565b91507f0000000000000000000000000000000000000000000000000000000000000000905090919293565b834211156118f55760405162461bcd60e51b815260206004820152601d60248201527f45524332305065726d69743a206578706972656420646561646c696e650000006044820152606401610bbc565b60007f6e71edae12b1b97f4d1f60370fef10105fa2faae0126114a169c64845d6126c98888886119248c613628565b6040805160208101969096526001600160a01b0394851690860152929091166060840152608083015260a082015260c0810186905260e001604051602081830303815290604052805190602001209050600061197f82613650565b9050600061198f8287878761369e565b9050896001600160a01b0316816001600160a01b0316146119f25760405162461bcd60e51b815260206004820152601e60248201527f45524332305065726d69743a20696e76616c6964207369676e617475726500006044820152606401610bbc565b6119fd8a8a8a611e33565b50505050505050505050565b6060611a13611fa8565b6000611a1d61152d565b90506000611a2b8251612001565b90506000611a3860025490565b9050825167ffffffffffffffff811115611a5457611a5461414f565b604051908082528060200260200182016040528015611a7d578160200160208202803683370190505b509350611a8a3389612889565b60005b8351811015611bf15781838281518110611aa957611aa9614583565b60200260200101518a611abc9190614608565b611ac6919061455c565b858281518110611ad857611ad8614583565b602002602001018181525050878782818110611af657611af6614583565b90506020020135858281518110611b0f57611b0f614583565b60200260200101511015611b565760405162461bcd60e51b815260206004820152600e60248201526d57656c6c3a20736c69707061676560901b6044820152606401610bbc565b611b8686868381518110611b6c57611b6c614583565b602002602001015186848151811061118e5761118e614583565b848181518110611b9857611b98614583565b6020026020010151838281518110611bb257611bb2614583565b6020026020010151611bc49190614533565b838281518110611bd657611bd6614583565b6020908102919091010152611bea81614599565b9050611a8d565b50611bfb826122c2565b7f9993ad19602725ab63a156d5cc8896910f278ecb257d29b394eee5d3e296a7218885604051611518929190614691565b6000611c36611fa8565b6000611c4061152d565b90506000611c4e8251612001565b9050600080611c5e848b8b6121b0565b9150915087838381518110611c7557611c75614583565b60200260200101818151611c899190614570565b9052508251600090849083908110611ca357611ca3614583565b60200260200101519050611cc3611cb8610a81565b8584610b3560025490565b848381518110611cd557611cd5614583565b602002602001018181525050838281518110611cf357611cf3614583565b602002602001015181611d069190614533565b955087861015611d495760405162461bcd60e51b815260206004820152600e60248201526d57656c6c3a20736c69707061676560901b6044820152606401610bbc565b611d52846122c2565b610bdb8b8b8b898b6122ef565b600080611d6d836020614608565b90508351811115611d815760009150611d8b565b6020818501015191505b5092915050565b6060610a7b7f4bba01c388049b5ebd30398b65e8ad45b632802c5faf4964e58085ea8ab03716836136c6565b815160208301516040516253057f60e61b81526000926001600160a01b0316916314c15fc091611df29186916004016146aa565b602060405180830381865afa158015611e0f573d6000803e3d6000fd5b505050506040513d601f19601f82011682018060405250810190610c9d9190614678565b6001600160a01b038316611e955760405162461bcd60e51b8152602060048201526024808201527f45524332303a20617070726f76652066726f6d20746865207a65726f206164646044820152637265737360e01b6064820152608401610bbc565b6001600160a01b038216611ef65760405162461bcd60e51b815260206004820152602260248201527f45524332303a20617070726f766520746f20746865207a65726f206164647265604482015261737360f01b6064820152608401610bbc565b6001600160a01b0383811660008181526001602090815260408083209487168084529482529182902085905590518481527f8c5be1e5ebec7d5bd14f71427d1e84f3dd0314c0f7b2291e5b200ac8c7c3b925910160405180910390a3505050565b604080518082019091526000815260606020820152611f74610675565b60208201526001600160a01b037f000000000000000000000000000000000000000000000000000000000000000016815290565b600260075403611ffa5760405162461bcd60e51b815260206004820152601f60248201527f5265656e7472616e637947756172643a207265656e7472616e742063616c6c006044820152606401610bbc565b6002600755565b606061200c82611d92565b90507f000000000000000000000000000000000000000000000000000000000000000060000361203b57919050565b7f00000000000000000000000000000000000000000000000000000000000000006001036120e6577f00000000000000000000000000000000000000000000000000000000000000006001600160a01b031663497163ef8261209b610ca4565b6040518363ffffffff1660e01b81526004016120b89291906146aa565b600060405180830381600087803b1580156120d257600080fd5b505af1158015611126573d6000803e3d6000fd5b60006120f06115c8565b905060005b81518110156121a95781818151811061211057612110614583565b6020026020010151600001516001600160a01b031663497163ef8484848151811061213d5761213d614583565b6020026020010151602001516040518363ffffffff1660e01b81526004016121669291906146aa565b600060405180830381600087803b15801561218057600080fd5b505af1158015612194573d6000803e3d6000fd5b50505050806121a290614599565b90506120f5565b5050919050565b60008060005b855181101561223f578581815181106121d1576121d1614583565b60200260200101516001600160a01b0316856001600160a01b0316036121f95780925061222f565b85818151811061220b5761220b614583565b60200260200101516001600160a01b0316846001600160a01b03160361222f578091505b61223881614599565b90506121b6565b50935093915050565b83516020850151604051637f35e83d60e01b81526000926001600160a01b031691637f35e83d91612281918891889188916004016146cf565b602060405180830381865afa15801561229e573d6000803e3d6000fd5b505050506040513d601f19601f8201168201806040525081019061099c9190614678565b6122ec7f4bba01c388049b5ebd30398b65e8ad45b632802c5faf4964e58085ea8ab03716826137b6565b50565b6123046001600160a01b0386163330866126fd565b6123186001600160a01b0385168284612854565b604080516001600160a01b03808816825286166020820152908101849052606081018390527ffa2dda1cc1b86e41239702756b13effbc1a092b5c57e3ad320fbe4f3b13fe2359060800160405180910390a15050505050565b6001600160a01b0383811660009081526001602090815260408083209386168352929052205460001981146123fd57818110156123f05760405162461bcd60e51b815260206004820152601d60248201527f45524332303a20696e73756666696369656e7420616c6c6f77616e63650000006044820152606401610bbc565b6123fd8484848403611e33565b50505050565b6001600160a01b03831661247f5760405162461bcd60e51b815260206004820152602560248201527f45524332303a207472616e736665722066726f6d20746865207a65726f20616460448201527f64726573730000000000000000000000000000000000000000000000000000006064820152608401610bbc565b6001600160a01b0382166124e15760405162461bcd60e51b815260206004820152602360248201527f45524332303a207472616e7366657220746f20746865207a65726f206164647260448201526265737360e81b6064820152608401610bbc565b6001600160a01b038316600090815260208190526040902054818110156125705760405162461bcd60e51b815260206004820152602660248201527f45524332303a207472616e7366657220616d6f756e742065786365656473206260448201527f616c616e636500000000000000000000000000000000000000000000000000006064820152608401610bbc565b6001600160a01b03848116600081815260208181526040808320878703905593871680835291849020805487019055925185815290927fddf252ad1be2c89b69c2b068fc378daa952ba7f163c4a11628f55a4df523b3ef910160405180910390a36123fd565b6000306001600160a01b037f00000000000000000000000000000000000000000000000000000000000000001614801561262f57507f000000000000000000000000000000000000000000000000000000000000000046145b1561265957507f000000000000000000000000000000000000000000000000000000000000000090565b50604080517f00000000000000000000000000000000000000000000000000000000000000006020808301919091527f0000000000000000000000000000000000000000000000000000000000000000828401527f000000000000000000000000000000000000000000000000000000000000000060608301524660808301523060a0808401919091528351808403909101815260c0909201909252805191012090565b6040516001600160a01b03808516602483015283166044820152606481018290526123fd9085906323b872dd60e01b906084015b60408051601f198184030181529190526020810180517bffffffffffffffffffffffffffffffffffffffffffffffffffffffff167fffffffff0000000000000000000000000000000000000000000000000000000090931692909217909152613ac5565b6001600160a01b0382166127eb5760405162461bcd60e51b815260206004820152601f60248201527f45524332303a206d696e7420746f20746865207a65726f2061646472657373006044820152606401610bbc565b80600260008282546127fd9190614570565b90915550506001600160a01b038216600081815260208181526040808320805486019055518481527fddf252ad1be2c89b69c2b068fc378daa952ba7f163c4a11628f55a4df523b3ef910160405180910390a35050565b6040516001600160a01b03831660248201526044810182905261288490849063a9059cbb60e01b90606401612731565b505050565b6001600160a01b0382166128e95760405162461bcd60e51b815260206004820152602160248201527f45524332303a206275726e2066726f6d20746865207a65726f206164647265736044820152607360f81b6064820152608401610bbc565b6001600160a01b0382166000908152602081905260409020548181101561295d5760405162461bcd60e51b815260206004820152602260248201527f45524332303a206275726e20616d6f756e7420657863656564732062616c616e604482015261636560f01b6064820152608401610bbc565b6001600160a01b0383166000818152602081815260408083208686039055600280548790039055518581529192917fddf252ad1be2c89b69c2b068fc378daa952ba7f163c4a11628f55a4df523b3ef910160405180910390a3505050565b60005b8281815181106129d0576129d0614583565b60200260200101516001600160a01b0316826001600160a01b031614610a7b576129f981614599565b90506129be565b60008084612a0d60025490565b612a179190614533565b90506000612a2e612a26610a81565b858785612248565b905080848681518110612a4357612a43614583565b60200260200101516113d39190614533565b60607f000000000000000000000000000000000000000000000000000000000000000067ffffffffffffffff811115612a9057612a9061414f565b604051908082528060200260200182016040528015612ab9578160200160208202803683370190505b5090507f0000000000000000000000000000000000000000000000000000000000000000600003612ae75790565b7f000000000000000000000000000000000000000000000000000000000000000081600081518110612b1b57612b1b614583565b60200260200101906001600160a01b031690816001600160a01b0316815250507f0000000000000000000000000000000000000000000000000000000000000000600103612b665790565b7f000000000000000000000000000000000000000000000000000000000000000081600181518110612b9a57612b9a614583565b60200260200101906001600160a01b031690816001600160a01b0316815250507f0000000000000000000000000000000000000000000000000000000000000000600203612be55790565b7f000000000000000000000000000000000000000000000000000000000000000081600281518110612c1957612c19614583565b60200260200101906001600160a01b031690816001600160a01b0316815250507f0000000000000000000000000000000000000000000000000000000000000000600303612c645790565b7f000000000000000000000000000000000000000000000000000000000000000081600381518110612c9857612c98614583565b60200260200101906001600160a01b031690816001600160a01b0316815250507f0000000000000000000000000000000000000000000000000000000000000000600403610e375790565b60607f000000000000000000000000000000000000000000000000000000000000000067ffffffffffffffff811115612d1e57612d1e61414f565b604051908082528060200260200182016040528015612d6457816020015b604080518082019091526000815260606020820152815260200190600190039081612d3c5790505b5090507f0000000000000000000000000000000000000000000000000000000000000000600003612d925790565b6000606060007f000000000000000000000000000000000000000000000000000000000000000084600081518110612dcc57612dcc614583565b60209081029190910101516001600160a01b0390911690527f000000000000000000000000000000000000000000000000000000000000000015612f98576020612e3760017f0000000000000000000000000000000000000000000000000000000000000000614533565b612e41919061455c565b612e4c906001614570565b92507f000000000000000000000000000000000000000000000000000000000000000067ffffffffffffffff811115612e8757612e8761414f565b6040519080825280601f01601f191660200182016040528015612eb1576020820181803683370190505b5091507f000000000000000000000000000000000000000000000000000000000000000090508060208301526001831115612f74577f000000000000000000000000000000000000000000000000000000000000000090508060408301526002831115612f74577f000000000000000000000000000000000000000000000000000000000000000090508060608301526003831115612f74577f000000000000000000000000000000000000000000000000000000000000000090508060808301525b8184600081518110612f8857612f88614583565b6020026020010151602001819052505b7f0000000000000000000000000000000000000000000000000000000000000000600103612fc65750505090565b7f000000000000000000000000000000000000000000000000000000000000000084600181518110612ffa57612ffa614583565b60209081029190910101516001600160a01b0390911690527f0000000000000000000000000000000000000000000000000000000000000000156131c657602061306560017f0000000000000000000000000000000000000000000000000000000000000000614533565b61306f919061455c565b61307a906001614570565b92507f000000000000000000000000000000000000000000000000000000000000000067ffffffffffffffff8111156130b5576130b561414f565b6040519080825280601f01601f1916602001820160405280156130df576020820181803683370190505b5091507f0000000000000000000000000000000000000000000000000000000000000000905080602083015260018311156131a2577f0000000000000000000000000000000000000000000000000000000000000000905080604083015260028311156131a2577f0000000000000000000000000000000000000000000000000000000000000000905080606083015260038311156131a2577f000000000000000000000000000000000000000000000000000000000000000090508060808301525b81846001815181106131b6576131b6614583565b6020026020010151602001819052505b7f00000000000000000000000000000000000000000000000000000000000000006002036131f45750505090565b7f00000000000000000000000000000000000000000000000000000000000000008460028151811061322857613228614583565b60209081029190910101516001600160a01b0390911690527f0000000000000000000000000000000000000000000000000000000000000000156133f457602061329360017f0000000000000000000000000000000000000000000000000000000000000000614533565b61329d919061455c565b6132a8906001614570565b92507f000000000000000000000000000000000000000000000000000000000000000067ffffffffffffffff8111156132e3576132e361414f565b6040519080825280601f01601f19166020018201604052801561330d576020820181803683370190505b5091507f0000000000000000000000000000000000000000000000000000000000000000905080602083015260018311156133d0577f0000000000000000000000000000000000000000000000000000000000000000905080604083015260028311156133d0577f0000000000000000000000000000000000000000000000000000000000000000905080606083015260038311156133d0577f000000000000000000000000000000000000000000000000000000000000000090508060808301525b81846002815181106133e4576133e4614583565b6020026020010151602001819052505b7f00000000000000000000000000000000000000000000000000000000000000006003036134225750505090565b7f00000000000000000000000000000000000000000000000000000000000000008460038151811061345657613456614583565b60209081029190910101516001600160a01b0390911690527f0000000000000000000000000000000000000000000000000000000000000000156136225760206134c160017f0000000000000000000000000000000000000000000000000000000000000000614533565b6134cb919061455c565b6134d6906001614570565b92507f000000000000000000000000000000000000000000000000000000000000000067ffffffffffffffff8111156135115761351161414f565b6040519080825280601f01601f19166020018201604052801561353b576020820181803683370190505b5091507f0000000000000000000000000000000000000000000000000000000000000000905080602083015260018311156135fe577f0000000000000000000000000000000000000000000000000000000000000000905080604083015260028311156135fe577f0000000000000000000000000000000000000000000000000000000000000000905080606083015260038311156135fe577f000000000000000000000000000000000000000000000000000000000000000090508060808301525b818460038151811061361257613612614583565b6020026020010151602001819052505b50505090565b6001600160a01b03811660009081526005602052604090208054600181018255905b50919050565b6000610a7b61365d6125d6565b8360405161190160f01b6020820152602281018390526042810182905260009060620160405160208183030381529060405280519060200120905092915050565b60008060006136af87878787613baa565b915091506136bc81613c6e565b5095945050505050565b60608167ffffffffffffffff8111156136e1576136e161414f565b60405190808252806020026020018201604052801561370a578160200160208202803683370190505b50905081600203613734578254608081901c60208301526001600160801b03166040820152610a7b565b600060015b8381116137ae57600261374d600183614533565b613757919061455c565b613762906020614608565b915061376f600282614700565b600103613789578185015460801c6020820284015261379e565b848201546001600160801b0316602082028401525b6137a781614599565b9050613739565b505092915050565b80516002036138b95760006001600160801b038016826000815181106137de576137de614583565b6020026020010151111561382d5760405162461bcd60e51b81526020600482015260166024820152754279746553746f726167653a20746f6f206c6172676560501b6044820152606401610bbc565b6001600160801b0380168260018151811061384a5761384a614583565b602002602001015111156138995760405162461bcd60e51b81526020600482015260166024820152754279746553746f726167653a20746f6f206c6172676560501b6044820152606401610bbc565b506040810151602082015160801b6001600160801b039091160182555050565b6000600282516138c9919061455c565b90506000805b82811015613a08576001600160801b03846138eb836002614608565b815181106138fb576138fb614583565b6020026020010151111561394a5760405162461bcd60e51b81526020600482015260166024820152754279746553746f726167653a20746f6f206c6172676560501b6044820152606401610bbc565b6001600160801b038461395e836002614608565b613969906001614570565b8151811061397957613979614583565b602002602001015111156139c85760405162461bcd60e51b81526020600482015260166024820152754279746553746f726167653a20746f6f206c6172676560501b6044820152606401610bbc565b6139d3816040614608565b848101604081015160209182015160801b6001600160801b03909116019083028701559150613a0181614599565b90506138cf565b5060028351613a179190614700565b6001036123fd576001600160801b0380168360018551613a379190614533565b81518110613a4757613a47614583565b60200260200101511115613a965760405162461bcd60e51b81526020600482015260166024820152754279746553746f726167653a20746f6f206c6172676560501b6044820152606401610bbc565b613aa1826040614608565b90508184015460801b60801c6020820184015160801b016020830285015550505050565b6000613b1a826040518060400160405280602081526020017f5361666545524332303a206c6f772d6c6576656c2063616c6c206661696c6564815250856001600160a01b0316613db89092919063ffffffff16565b8051909150156128845780806020019051810190613b389190614714565b6128845760405162461bcd60e51b815260206004820152602a60248201527f5361666545524332303a204552433230206f7065726174696f6e20646964206e60448201527f6f742073756363656564000000000000000000000000000000000000000000006064820152608401610bbc565b6000807f7fffffffffffffffffffffffffffffff5d576e7357a4501ddfe92f46681b20a0831115613be15750600090506003613c65565b6040805160008082526020820180845289905260ff881692820192909252606081018690526080810185905260019060a0016020604051602081039080840390855afa158015613c35573d6000803e3d6000fd5b5050604051601f1901519150506001600160a01b038116613c5e57600060019250925050613c65565b9150600090505b94509492505050565b6000816004811115613c8257613c82614736565b03613c8a5750565b6001816004811115613c9e57613c9e614736565b03613ceb5760405162461bcd60e51b815260206004820152601860248201527f45434453413a20696e76616c6964207369676e617475726500000000000000006044820152606401610bbc565b6002816004811115613cff57613cff614736565b03613d4c5760405162461bcd60e51b815260206004820152601f60248201527f45434453413a20696e76616c6964207369676e6174757265206c656e677468006044820152606401610bbc565b6003816004811115613d6057613d60614736565b036122ec5760405162461bcd60e51b815260206004820152602260248201527f45434453413a20696e76616c6964207369676e6174757265202773272076616c604482015261756560f01b6064820152608401610bbc565b60606112ce848460008585600080866001600160a01b03168587604051613ddf919061474c565b60006040518083038185875af1925050503d8060008114613e1c576040519150601f19603f3d011682016040523d82523d6000602084013e613e21565b606091505b5091509150613e3287838387613e3d565b979650505050505050565b60608315613eac578251600003613ea5576001600160a01b0385163b613ea55760405162461bcd60e51b815260206004820152601d60248201527f416464726573733a2063616c6c20746f206e6f6e2d636f6e74726163740000006044820152606401610bbc565b50816112ce565b6112ce8383815115613ec15781518083602001fd5b8060405162461bcd60e51b8152600401610bbc9190613f2b565b60005b83811015613ef6578181015183820152602001613ede565b50506000910152565b60008151808452613f17816020860160208601613edb565b601f01601f19169290920160200192915050565b602081526000610c9d6020830184613eff565b600060208284031215613f5057600080fd5b5035919050565b60008083601f840112613f6957600080fd5b50813567ffffffffffffffff811115613f8157600080fd5b6020830191508360208260051b8501011115613f9c57600080fd5b9250929050565b60008060208385031215613fb657600080fd5b823567ffffffffffffffff811115613fcd57600080fd5b613fd985828601613f57565b90969095509350505050565b600081518084526020808501945080840160005b8381101561401557815187529582019590820190600101613ff9565b509495945050505050565b602081526000610c9d6020830184613fe5565b6001600160a01b03811681146122ec57600080fd5b6000806040838503121561405b57600080fd5b823561406681614033565b946020939093013593505050565b6001600160a01b03815116825260006020820151604060208501526112ce6040850182613eff565b602081526000610c9d6020830184614074565b600080600080600060a086880312156140c757600080fd5b85356140d281614033565b945060208601356140e281614033565b93506040860135925060608601359150608086013561410081614033565b809150509295509295909350565b60008060006060848603121561412357600080fd5b833561412e81614033565b9250602084013561413e81614033565b929592945050506040919091013590565b634e487b7160e01b600052604160045260246000fd5b600082601f83011261417657600080fd5b8135602067ffffffffffffffff808311156141935761419361414f565b8260051b604051601f19603f830116810181811084821117156141b8576141b861414f565b6040529384528581018301938381019250878511156141d657600080fd5b83870191505b84821015613e32578135835291830191908301906141dc565b60008060006060848603121561420a57600080fd5b833567ffffffffffffffff81111561422157600080fd5b61422d86828701614165565b93505060208401359150604084013561424581614033565b809150509250925092565b6000806000806060858703121561426657600080fd5b84359350602085013567ffffffffffffffff81111561428457600080fd5b61429087828801613f57565b90945092505060408501356142a481614033565b939692955090935050565b6000602082840312156142c157600080fd5b8135610c9d81614033565b6000602082840312156142de57600080fd5b813567ffffffffffffffff8111156142f557600080fd5b6112ce84828501614165565b6000806040838503121561431457600080fd5b82359150602083013561432681614033565b809150509250929050565b6000806000806080858703121561434757600080fd5b84359350602085013561435981614033565b92506040850135915060608501356142a481614033565b600081518084526020808501945080840160005b838110156140155781516001600160a01b031687529582019590820190600101614384565b602081526000610c9d6020830184614370565b600081518084526020808501808196508360051b8101915082860160005b858110156144045782840389526143f2848351614074565b988501989350908401906001016143da565b5091979650505050505050565b602081526000610c9d60208301846143bc565b6080815260006144376080830187614370565b82810360208401526144498187614074565b9050828103604084015261445d81866143bc565b9150506001600160a01b038316606083015295945050505050565b600080600080600080600060e0888a03121561449357600080fd5b873561449e81614033565b965060208801356144ae81614033565b95506040880135945060608801359350608088013560ff811681146144d257600080fd5b9699959850939692959460a0840135945060c09093013592915050565b6000806040838503121561450257600080fd5b823561450d81614033565b9150602083013561432681614033565b634e487b7160e01b600052601160045260246000fd5b81810381811115610a7b57610a7b61451d565b634e487b7160e01b600052601260045260246000fd5b60008261456b5761456b614546565b500490565b80820180821115610a7b57610a7b61451d565b634e487b7160e01b600052603260045260246000fd5b6000600182016145ab576145ab61451d565b5060010190565b600181811c908216806145c657607f821691505b60208210810361364a57634e487b7160e01b600052602260045260246000fd5b6040815260006145f96040830185613fe5565b90508260208301529392505050565b8082028115828204841417610a7b57610a7b61451d565b8381526040602082015281604082015260007f07ffffffffffffffffffffffffffffffffffffffffffffffffffffffffffffff83111561465e57600080fd5b8260051b8085606085013791909101606001949350505050565b60006020828403121561468a57600080fd5b5051919050565b8281526040602082015260006112ce6040830184613fe5565b6040815260006146bd6040830185613fe5565b828103602084015261099c8185613eff565b6080815260006146e26080830187613fe5565b8560208401528460408401528281036060840152613e328185613eff565b60008261470f5761470f614546565b500690565b60006020828403121561472657600080fd5b81518015158114610c9d57600080fd5b634e487b7160e01b600052602160045260246000fd5b6000825161475e818460208701613edb565b919091019291505056fea26469706673582212206365e9554948f72c4c01bba33fa9485b3271cc5f027da02d11536436d373025964736f6c63430008110033",
    "linkReferences": {}
  },
  "methodIdentifiers": {
    "DOMAIN_SEPARATOR()": "3644e515",
    "addLiquidity(uint256[],uint256,address)": "3e8847ec",
    "allowance(address,address)": "dd62ed3e",
    "approve(address,uint256)": "095ea7b3",
    "auger()": "e608a52a",
    "balanceOf(address)": "70a08231",
    "decimals()": "313ce567",
    "decreaseAllowance(address,uint256)": "a457c2d7",
    "firstPumpBytes()": "258d642d",
    "firstPumpTarget()": "f2075c24",
    "getAddLiquidityOut(uint256[])": "8974eb0f",
    "getRemoveLiquidityImbalancedIn(uint256[])": "05fb5a00",
    "getRemoveLiquidityOneTokenOut(uint256,address)": "8cfce0f0",
    "getRemoveLiquidityOut(uint256)": "534e3d27",
    "getReserves()": "0902f1ac",
    "getSwapIn(address,address,uint256)": "1d44458f",
    "getSwapOut(address,address,uint256)": "9fbbbeef",
    "increaseAllowance(address,uint256)": "39509351",
    "name()": "06fdde03",
    "nonces(address)": "7ecebe00",
    "numberOfPumps()": "2e60eb3c",
    "numberOfTokens()": "f9f16ef2",
    "permit(address,address,uint256,uint256,uint8,bytes32,bytes32)": "d505accf",
    "pumps()": "a1d89d96",
    "removeLiquidity(uint256,uint256[],address)": "dc036c9a",
    "removeLiquidityImbalanced(uint256,uint256[],address)": "63356f82",
    "removeLiquidityOneToken(uint256,address,uint256,address)": "9ca74072",
    "skim(address)": "bc25cf77",
    "swapFrom(address,address,uint256,uint256,address)": "dcc8b301",
    "swapTo(address,address,uint256,uint256,address)": "1a275a03",
    "symbol()": "95d89b41",
    "token(uint256)": "044215c6",
    "tokens()": "9d63848a",
    "totalSupply()": "18160ddd",
    "transfer(address,uint256)": "a9059cbb",
    "transferFrom(address,address,uint256)": "23b872dd",
    "well()": "c0878f0c",
    "wellFunction()": "10dd0830",
    "wellFunctionAddress()": "a57be4ed",
    "wellFunctionBytes()": "013fba80"
  },
  "id": 35
}